:020000040000FA
:06000000020B5802020190
:03002B000208F1D7
:030033000202CBFB
:0300530002013275
:03006B0002022E60
:03007B000202611D
:10008300020188010101FF01050301141214121476
:10009300121412CA10C4101412D922000000003B1B
:1000A30023000000000C0000000C00010000FA1304
:1000B300000000000000B414000000000000000075
:1000C3000000FFFF581B01000B000D000E00010094
:1000D3000B000E0001000B000D000E000F000101CC
:1000E300006205000000401FB305401F6400E803E1
:1000F300B801020200C8180305023C01010D1E02EB
:100103000564020A0A03B80B02803E01020101FFE3
:10011300FF020A1401E096511800020206120103BD
:10012300030507090B0D0F02020406080A0C0DC094
:10013300E074F2120549A2AFE433F508D2AFE5A7A4
:10014300FEE5A1FFEF5E54106006121BFE75A1EFE2
:10015300EF5E54086008121C0475A1F78019EEA223
:10016300E0C0D0EFA2E092F0120A95158182F05020
:1001730006121CC475A1FE751A00E508A2E092AF31
:100183007F010205A8C0E074F2120549A2AFE4336F
:10019300FFD2AF9061A4E0FE759B00E5915E540829
:1001A30060087591F7121C58802DE5915E5410601C
:1001B300087591EF121C5E801EEEA2E0C0D0E5919F
:1001C300A2E092F0120A95158182F0500A9061A480
:1001D300E0C2E0F0121DBA9061A3E0FEE5E95E54CF
:1001E30004600E121D9075E9FB906193E0A2E64056
:1001F300F2751A00EFA2E092AF7F010205A8C0E0FA
:1002030074F2120549A2AFE433FFD2AF9061A5E0C7
:10021300FEE5BF5E5404600675BFFB121DD2751A5E
:1002230000EFA2E092AF7F010205A8C0E074F212D2
:100233000549A2AFE433FED2AF758700E589A2E496
:10024300500A1217CC900539E0D2E5F0758900C247
:10025300C5751A00EEA2E092AF7F010205A8C0E0C7
:1002630074F2120549A2AFE433FED2AF758700E5FD
:100273008AA2E2501190053EE02401F01217CC90BF
:100283000539E0D2E0F0E58AA2E5500A1217CC90D6
:100293000539E0D2E6F0E58AA2E6500A1217CC90BF
:1002A3000539E0D2E3F0E58AA2E7500A1217CC90B1
:1002B3000539E0D2E2F0758A00C2EB751A00EEA2AE
:1002C300E092AF7F010205A8C0E0C0D0E8C0E0A281
:1002D300AFE433F8D2AF751A00A2E092AFD0E0F8E2
:1002E300D0D0D0E032C3E498F8E499F9120329801E
:1002F30026C3E49AFAE49BFBE920E7E9120329E425
:1003030098F8E499F922C3E498F8E499F9120329D7
:10031300E498F8E499F9C3E49AFAE49BFB22EB200E
:10032300E7CFE920E7E0B90010BB0008E88AF084D2
:10033300F8AAF022E4FBC8FA22EB70227B10C83340
:10034300C8C933C9335007C39AC3DBF280069A5036
:10035300012ADBEAC833F4C8C933F4C9FA2275F0B9
:1003630008E4C833C8C933C933C99AC99B5004C9FF
:100373002AC93BD5F0ECFBC833F4C8E4C9FA220818
:100383000808EAC0E0EBC0E086F0E7A4FA180986A3
:10039300F0E7A42AFA180986F0E7A42AFA180986CE
:1003A300F0E7A42AFA1986F0E7A4FBE5F02AFA1984
:1003B3000886F0E7A42BFBE5F03AFA190886F0E784
:1003C300A42BFBE5F03AFA18180986F0E7A4C5F068
:1003D3002BFBE43AFA1908E7C5F0C6A426F6E5F0C4
:1003E3003BFBE43AFA1886F0E7A4F6E5F00826F6B4
:1003F300E43B08F6E43A08F6D0E0FBD0E0FA22E466
:10040300CFC0E0E4CEC0E0E4CDC0E0E4CCC0E07512
:10041300F020C3E633F608E633F608E633F608E6DB
:1004230033F6181818EC33FCED33FDEE33FEEF33DF
:10043300FFC3EC9709ED9709EE9709EF971919197F
:10044300400FFFEC97FC09ED97FD09EE97FE191994
:1004530006D5F0BEECF709EDF709EEF709EFF7194A
:100463001919D0E0FCD0E0FDD0E0FED0E0FF22255A
:1004730018C582C0E0E51934FFC583C0E0E518C3A1
:10048300958224F810AF0885831985821880088522
:100493008319858218D2AFCEF0A3E520F0A37808A4
:1004A300E608F0A3DEFAEFF0A3E58124FAF8E60804
:1004B300F0A3E608F0A3E608F0A30808E608F0A313
:1004C300E608F0A315811581D0E0FED0E0F8158190
:1004D30015811581E8C0E0EEC0E022120BBAB90025
:1004E30003020533E4900301785279098002F0A3F3
:1004F300D8FCD9FA781A9000867A01BA00028007EC
:10050300E493A3F608DAF9900B52AA82AB83900026
:100513008778AC79018015E493A3AC82AD838A829A
:100523008B83F0A3AA82AB838C828D83D8E9D9E72E
:100533007582597583CB74041209107582E475832F
:10054300207400120910C0D02518C582C0E0E51937
:1005530034FFC583C0E0E518C3958224F310AF08C8
:100563008583198582188008858319858218D2AFFF
:10057300C8F0A3E9F0A3EAF0A3EBF0A37908E70935
:10058300F0A3D8FAECF0A3EDF0A3EEF0A3EFF0A301
:10059300D0E0F0A3D0E0F0A3D0E0F0A3E520F0A3F7
:1005A300E5F0F0A322851983851882E0C0E0A3E07B
:1005B300F9A3E0FAA3E0FBA37808E0F608A3DFFAC7
:1005C300E0FCA3E0FDA3E0FEA3E0FFA3E0C0E0A303
:1005D300E0C0E0A3E0F5D0A3E0F520A3E0A3F5F0AD
:1005E30010AF088583198582188008858319858251
:1005F30018D2AFD082D083D0E0F8D0E03275F010BB
:100603008E218F22858226858325851882851983ED
:10061300E0CEA3E0CF852682852583EBC9EAC8ED2A
:10062300CBECCAC3E833C8E933C9EA33CAEB33CBEB
:10063300C3EA9EF524EB9FF523B35004AB23AA240E
:10064300EC33CCED33CDD5F0DAAE21AF2222D0831B
:10065300D082ECC0E0EDC0E0E493A3FCE493A3FDFF
:10066300ED4C600D120729EC24FFFCED34FFFD80F7
:10067300EFE493A3FCE493A3FDED4C600D1207FCA0
:10068300EC24FFFCED34FFFD80EFD0E0FDD0E0FC77
:10069300E493A3C0E0E493C0E022D083D082E9C016
:1006A300E0E493A3C386F0C5F095F0F908E493A3BF
:1006B30086F0C5F095F0700BE493A3C3994005E968
:1006C300048002A3E475F002A42582F582E5F035E7
:1006D30083F583D0E0F9E493A3C0E0E493C0E02280
:1006E300851983851882E0A3FEE0A3F5207808E04E
:1006F300A3F608DFFAE0A3FFE0A3C0E0E0A3C0E0B5
:10070300E0A3C0E0E0A3C0E0E0A3C0E010AF088531
:1007130082188583198008858218858319D2AFD002
:1007230083D082020916C0E0C3E493960874019350
:100733009618400FE4936670080874019366187066
:10074300007019A3A3C3E49396087401939618A3A6
:10075300A3400DD0E0D0E0D0E002068DA3A3A3A375
:10076300A3A3D0E022D083D082C5F0E493A3C5F045
:10077300C395F0F5F0E493A3C395F04005E5F004C9
:100783008001E475F002A42582F582E5F03583F556
:1007930083E493A3C0E0E493C0E022740480047470
:1007A300028000CCC0E0EDC0E0E518C39CCCAD19DD
:1007B30050011D10AF068C188D1980068C188D19E9
:1007C300D2AF120873D0E0FDD0E0FC2274028000A7
:1007D300CCC0E0EDC0E0E518C39CCCAD1950011DC1
:1007E30010AF068C188D1980068C188D19D2AF1294
:1007F3000851D0E0FDD0E0FC22C0E0C0F088F0E476
:10080300936670080874019366187000A8F0A3A398
:10081300700BD0F0D0E0D0E0D0E002068DA3A3D0DF
:10082300F0D0E022D083D082CCC0E0E493A3600672
:100833001208B31470FAE493A360061209C9147082
:10084300FAD0E0FCE493A3C0E0E493C0E022CAC082
:10085300E0E493A3C582CCC582C583CDC583F0A351
:10086300C582CCC582C583CDC583DAE5D0E0CA2273
:10087300CAC0E0E0A3C582CCC582C583CDC583F0E1
:10088300A3C582CCC582C583CDC583DAE6D0E0CAD1
:10089300227009080808226016181818C6C333C640
:1008A30008C633C608C633C608C633C6D5E0EA222F
:1008B300C0E0E493A3D39C5010E493A3C39C400AE9
:1008C300D0E0D0E0D0E0020844A3A3A3D0E022C04C
:1008D30008C3E096F50808A3E096420808A3E0964B
:1008E300420808A3E09645087001D3D00822C0E06F
:1008F300C0D0E8C0E0A2AFE433F8D2AFC2C7751AE4
:1009030000A2E092AFD0E0F8D0D0D0E032C09FF5A3
:100913009FE473D09F22D083D082C09FE493C0E032
:10092300740193C0E0740293F59F227404800A74E7
:10093300038006740280027401C0E0F404120949C2
:10094300D0E0120B95222518F58210AF08F5184058
:100953000215198008F51840021519D2AF851983BD
:1009630022C0D0251810AF08F518500205198008C9
:10097300F51850020519D2AFD0D022BB0102E722ED
:10098300C082C08389828A83BB0003E08002E49330
:10099300D083D082226016080808C6C313C618C6BF
:1009A30013C618C613C618C613C6D5E0EA22C3E099
:1009B300C696F608A3E0C696F608A3E0C696F60820
:1009C300A3E0C696F622C0E0E493A36C7009D0E0DE
:1009D300D0E0D0E0020844A3A3D0E022251810AF52
:1009E30008F518400215198008F51840021519D2A8
:1009F300AF22E76670100809E766700A0809E76620
:100A030070040809E76622C3E09608A3E09608A3EA
:100A1300E09608A3E096A2D265D03322E066701078
:100A230008A3E066700A08A3E066700408A3E06602
:100A330022C3E697F60809E697F60809E697F6084B
:100A430009E697F622C3E096F008A3E096F008A320
:100A5300E096F008A3E096F022E627F60809E637C9
:100A6300F60809E637F60809E637F622E026F6081F
:100A7300A3E036F608A3E036F608A3E036F622E054
:100A830026F008A3E036F008A3E036F008A3E0362A
:100A9300F022C0E0E8C0E0E58124FCF8E6A2E7D05C
:100AA300E0F8D0E022700422600D18C6C333C608F4
:100AB300C633C6D5E0F41822E657F60809E657F61A
:100AC3000809E657F60809E657F622E056F608A3A2
:100AD300E056F608A3E056F608A3E056F622E056E1
:100AE300F008A3E056F008A3E056F008A3E056F0A0
:100AF30022E647F60809E647F60809E647F6080935
:100B0300E647F622E4C396F608E496F608E496F67A
:100B130008E496F622C3E7960809E7960809E796DC
:100B23000809E79622C6F4C608C6F4C608C6F4C682
:100B330008C6F4C622600D08C6A2E713C618C6137A
:100B4300C6D5E0F322C3E09608A3E09608A3E09697
:100B530008A3E0962275D0007581407518017519B8
:100B630003000204DEE0F608A3E0F608A3E0F608BB
:100B7300A3E0F622600C08C6C313C618C613C6D575
:100B8300E0F422E6F008A3E6F008A3E6F008A3E603
:100B9300F022CAC0E0E6F0A308DAFAD0E0FA22E0D5
:100BA300FAA3E0FBA3E0FCA3E0FD22EAF0A3EBF051
:100BB300A3ECF0A3EDF022E5C754F84401F5C7799F
:100BC30001222518F582E43519F58322C2AF75D6C3
:100BD3009F020000221209193C5200120919845283
:100BE30000120919D85200120919F45200120919F6
:100BF3002853001209195D530012091954540012A5
:100C03000919095500120919585700120919AB5847
:100C1300001209194E5900120919DB59001209195A
:100C2300885A00120919BC5A00120919375B0012BD
:100C33000919115C00120919CF5C00120919E75C4C
:100C4300001209197E5D00120919EF5F00120919DC
:100C5300F561001209191362001209194DA302125A
:100C6300091982A302120919A8A302120919E2A3FE
:100C730002120919F4A30212091946A4021209194E
:100C8300A7A40212091931A502120919D5A5021246
:100C930009191DA60212091957A60212091974A6E9
:100CA3000212091999A602120919EBA602120919CF
:100CB30004A7021209192AA70212091965A7021229
:100CC3000919A9A702120919D0A70212091921A803
:100CD30002120919D1A80212091989A902120919C4
:100CE30051AA0212091914AB0212091971AB0212AB
:100CF3000919F7AB0212091906AC0212091911AC52
:100D03000212091937AD0212091948AD0212091965
:100D1300BEAD0212091950AE02120919A8AE021291
:100D230009196EAF0212091995AF02120919B3AF6F
:100D33000212091906B0021209194BB0021209195D
:100D430058B002120919ECB10212091951B3021277
:100D530009196DB402120919D7B602120919E2B6BC
:100D630002120919ECB602120919F7B6021209198F
:100D730001B7021209190BB70212091916B70212A9
:100D8300091921B70212091952B70212091976B7C4
:100D9300021209199AB702120919FFB702120919A7
:100DA30043B8021209195FB802120919D6B8021220
:100DB30009190EB9021209195AB902120919B7B958
:100DC3000212091999BB021209191FBC021209194F
:100DD300F8BC0212091908C0021209195DC00212F7
:100DE30009198AC002120919D6C10212091926C2A9
:100DF300021209197BC2021209197CC302120919D2
:100E030014C40212091996C40212091936C5021232
:100E130009190181011209193A810112091914836F
:100E2300011209195383011209199D83011209192A
:100E3300428401120919A18401120919D5840112EE
:100E430009194285011209195F8601120919678779
:100E530001120919FD8701120919448B011209199D
:100E6300ED8B01120919C98C011209192A8D01127E
:100E73000919478E01120919719001120919289154
:100E83000112091932910112091965910112091907
:100E93002C9201120919C792011209192C930112FC
:100EA3000919559301120919779301120919A69586
:100EB300011209197D9601120919C1960112091926
:100EC3002E9701120919E997011209191B980112AA
:100ED30009195F9801120919959801120919EA98DD
:100EE300011209193F9901120919D399011209191C
:100EF300359A011209199D9A01120919469C01128A
:100F030009192E9D01120919709E011209199EA03B
:100F1300011209195EA1011209198DA30112091900
:100F230030A4011209196EA4011209191AA601129B
:100F330009192EA60112091938A60112091962A668
:100F4300011209196EA6011209198DA601120919B8
:100F530044A70112091983A7011209198DA70112C8
:100F6300091997A701120919E2A70112091945A83E
:100F7300011209194CA90112091907AA0112091929
:100F830006AB01120919FFAB011209199CAC01123E
:100F930009193EAD0112091955AD011209198CAD9C
:100FA30001120919AAAD01120919EEAD01120919AD
:100FB30013AE01120919F9AE0112091965AF011235
:100FC3000919DFAF01120919EEB0011209192DB287
:100FD300011209190BB3011209196DB30112091991
:100FE30027B4011209194AB4011209191EB50112D5
:100FF300091969B501120919ABB50112091902B62C
:101003000112091939B60112091967B60112091932
:10101300A0B601120919C5B6011209194DB701127B
:10102300091970B901120919CFB90112091963BA63
:1010330001120919CFBA0112091923BB01120919A7
:101043005DBB01120919C08B04120919F88B041234
:101053000919198C041209195B8C04120919C18C22
:1010630004120919CB8C04120919DB8C0412091917
:10107300108D0412091959900412091903920412CC
:101083000919039404120919BFBC0112091919BDE6
:101093000112091975BD01120919C1BD01120919FE
:1010A300DCBD011209190DBE011209192ABE011274
:1010B300091936BE01120919AABF01120919C3BFC2
:1010C300011209192AC0011209193DC00112091997
:1010D3004BC001120919FFC001120919E3C1011222
:1010E3000919E9C2011209196FC30112091979C358
:1010F30001120919E6C301120919FDC301120919E5
:101103002FC40112091968C40112091992C40112EA
:101113000919F3C40112091913C50112091931C5BB
:101123000112091977C5011209199DC6011209197E
:10113300EAC60112091919C7011209198FC7011249
:101143000919B7C701120919F0C701120919FEC716
:101153000112091956C801120919A5C80112091962
:10116300E4C80112091914C90112091940C901126D
:1011730009194BC90112091969C9011209192BCAA5
:101183000112091935CA0112091970CA0112091984
:1011930086CA011209198FCA01120919E4CA011278
:1011A3000919F8CA0112091906CC0112091919CC37
:1011B3000112091930CC0112091945CC0112091980
:1011C300E7CC011209196ACD0112091928CE0112BF
:1011D300091933CE0112091959CF0112091975CF13
:1011E30001120919C7CF0112091906D001120919F1
:1011F3001BD0011209195DD001120919AAD20112DB
:10120300091928D3011209199BD301120919BDD554
:1012130001120919D5D501120919D8D501120919D5
:10122300E4D501120919F8D50112091900D60112E2
:10123300091933D601120919E3D60112091959D72D
:1012430001120919CCD70112091980D80112091901
:1012530035D90112091954D901120919F4D9011206
:10126300091900DA011209192BDA011209192EDA08
:10127300011209195DDA0112091972DA0112091949
:10128300DCDA0112091904DC01120919DCDC011290
:10129300091967DD0112091980DE011209193DDF01
:1012A3000112091976DF01120919A7DF01120919C1
:1012B30047E00112091977E00112091952E10112FD
:1012C3000919EBE10112091976E20112091927E361
:1012D30001120919A9E301120919DBE30112091922
:1012E3001CE40112091951E401120919C1DC0312AA
:1012F300091943DD0312091983DD03120919FCDD02
:1013030003120919D6E00312091966E30312091936
:1013130032E7031209196AE70312091998E703125E
:1013230009192AE8031209197EE803120919B1E819
:1013330003120919DAE80312091924E90312091936
:10134300A5E9031209195ABC03120919E4BC0312D3
:10135300091959BD03120919DBBD03120919B9C0D3
:1013630003120919DCC00312091935C10312091943
:1013730033C2031209199DC20312091970C403125F
:101383000919D8C5031209195FC603120919EDC655
:101393000312091956C703120919A4C7031209191D
:1013A30064C8031209198DC9031209190ACA031261
:1013B300091970CA03120919B3CA0312091959CBBF
:1013C300031209193ACC03120919BED404120919DC
:1013D300CFD4041209194FD50412091997D5041251
:1013E300091983D604120919D3DD04120919ADD2E0
:1013F300041209198CD404120919DDCC031209193A
:10140300C5CD03120919ECCD0312091930CE03120D
:1014130009194ECE03120919CCCE0312091904CFB0
:10142300031209193CD10312091931D20312091904
:101433004CD303120919DED30312091963D403121F
:1014430009191BD503120919B7D50312091906D6B1
:1014530003120919D7D603120919D2D7031209198E
:1014630078D803120919A3DA03120919D6DB031278
:10147300091937DC0312091991DC0312091949D040
:10148300041209196CD00412091966D1041209193E
:101493000FD20412091953D2041209196CE304126E
:1014A3000919E0E304120919F0E30412091995E29A
:1014B3000212091998E202120919E7E30212091943
:1014C3005BE402120919E9E402120919A6E5021202
:1014D300091963E60212091930E702120919EDE747
:1014E300021209190EEA02120919CBEA02120919AA
:1014F30088EB021209191CEC0212091927ED0212DA
:1015030009199AED02120919DCEF0212091943F1C4
:1015130002120919AAF20212091905F30212091992
:101523009CF3021209197FF402120919B1F4021291
:101533000919ADF7021209194EF802120919CCF86C
:1015430002120919ECF50312091944F603120919D9
:10155300ECF6031209191BF70312091940F70312DA
:10156300091964F80312091972F803120919D6F854
:101573000312091914F90312091997F90312091926
:101583003EFA031209198DFA031209190EFB03120D
:1015930009197CFB0312091905FC0312091996FCAE
:1015A30003120919EBFC03120919F7440012091974
:1015B3005AFD031209196CFD0312091992FD031256
:1015C30009199BFD03120919F4FE0312091985FF7A
:1015D300031209194AF9021209196DFA02120919BB
:1015E300C9FA02120919E3FA02120919F4FA0212EA
:1015F3000919EFFD021209190FFE02120919B9C8E0
:1016030004120919FEC8041209197A5100120919A2
:10161300DACA04120919E9C502120919B3C7021279
:10162300091908C80212091989CA02120919EECA4E
:1016330002120919FACD0212091960CE0212091910
:10164300A0D00212091999D10212091906D2021265
:10165300091999D20212091948D302120919A3D3FD
:101663000212091904D40212091965D402120919C4
:101673004ED60212091940D8021209192CDB0212A4
:1016830009196EDB02120919D1DB02120919E3DB16
:101693000212091958DC0212091914DD0212091980
:1016A30051E1021209191CE202120919ABE40412F6
:1016B3000919C6E404120919D6E4041209191AE433
:1016C3000412091931A80412091948A804120919A6
:1016D30038A90412091980A9041209199EA9041230
:1016E3000919E0A90412091937AA041209197BAAD6
:1016F30004120919CBAA04120919A3AC041209197B
:10170300F6AC041209190BE10412091933E10412AE
:10171300091952E10412091972E104120919CCE101
:1017230004120919F1E1041209195DA90312091937
:101733006BAA0312091960AC031209199BAF0312B8
:10174300091924B003120919E7B0031209193FB1AB
:1017530003120919EBB103120919F8B1031209199C
:1017630000B20312091918B20312091994B2031231
:101773000919A9B203120919FDB20312091909EAD9
:101783000312091969EA031209191FEC0312091953
:101793009CEC03120919D1F3031209192DF4031256
:1017A300091993F403120919E3F40312091991F5C2
:1017B30003120919F9C50412091938C604120919C3
:1017C300D5C604120919E3C60412091960C8041224
:1017D3000919A8C804120919ABC804120919AFE4FE
:1017E3000112091914E5011209198BE501120919EE
:1017F300E5E60112091977E70112091943E8011215
:1018030009195CE801120919BEE8011209190DE969
:101813000112091925E90112091985E901120919AA
:101823000FEA0112091928EA01120919B4EC01128D
:10183300091958ED0112091997ED01120919F8ED6B
:10184300011209191FF0011209199CF0011209195B
:1018530036F10112091955F1011209196DF101123D
:101863000919C3F10112091908F2011209191FF22A
:1018730001120919B6F201120919D6F20112091956
:1018830036F301120919A7F30112091909F4011218
:1018930009194EF701120919E1F7011209193DF867
:1018A300011209190BF90112091934F90112091965
:1018B30037F9011209195AF901120919F0F901123C
:1018C300091922FA0112091945FA011209197AFABA
:1018D30001120919C2FA01120919DEFA01120919D2
:1018E3001EFB011209195FFB011209199EDC041288
:1018F3000919AFDC041209192EDD0412091900803D
:1019030003120919238003120919408003120919CC
:10191300328103120919B181031209191F820312BB
:101923000919B582031209196E8303120919278451
:1019330003120919208503120919EC8503120919E9
:10194300578603120919138D031209194F8F0312B6
:1019530009199E8F031209192E9003120919319147
:1019630003120919C39203120919DC93031209190B
:101973004462001209192D6300120919CD63001284
:101983000919306400120919F16400120919A265DA
:10199300001209191D680012091992680012091929
:1019A3008869001209191E6A00120919D66A001201
:1019B3000919D76C00120919E26E00120919D66FC2
:1019C3000012091939730012091958740012091900
:1019D300487500120919017600120919A67600123A
:1019E3000919327900120919C07A00120919127BF8
:1019F30000120919D67B00120919837C00120919F8
:101A0300AA7D001209198B95031209192E96031248
:101A13000919C196031209193C97031209199F97D3
:101A2300031209196998031209198C9903120919E8
:101A3300369A031209198B9A03120919FC9A031295
:101A43000919BB9B03120919D09B03120919109C96
:101A530003120919309C031209193F9C0312091937
:101A6300509C031209192D9D031209194A9E031252
:101A73000919689E031209196D9E03120919DC9E48
:101A83000312091909A0031209194FA10312091915
:101A93000AA30312091948A4031209195CA5031226
:101AA3000919BCA503120919D8A50312091940A7DE
:101AB300031209199EA80312091907AD0412091983
:101AC30085AD04120919C3AD041209198BAE0412B2
:101AD300091901AF04120919A2AF04120919ADB013
:101AE3000412091963CB04120919DBCB0412091977
:101AF300F8CB04120919D9CD0412091906DF04120F
:101B0300091917DF04120919F2DF04120919EA7F10
:101B13000012091957E5041209190CE004120919F6
:101B23001CE00412091936E00412091905E1041234
:101B330009191FC304120919C2C304120919DEC506
:101B430004120919A2FB01120919B3FB01120919A5
:101B530048FC011209192BFD0112091994FF011206
:101B63000919F87F00120919DCCD0412091920CED6
:101B730004120919A8CF0412091946D0041209192D
:101B8300B594041209191D950412091940960412FB
:101B93000919909604120919BC9604120919D596CD
:101BA30004120919F39604120919A69704120919C4
:101BB300BF98041209197E9904120919799A04121B
:101BC3000919DF9A04120919339B04120919A0D6C3
:101BD30004120919C9D604120919DDD60412091908
:101BE30025D7041209196ED704120919B7D704129D
:101BF3000919C8D70412091927D8041209192AD8B0
:101C03000412091938D80412091949D804120919F8
:101C130053B9041209198DB904120919F7B9041239
:101C2300091933BA041209197ABA04120919ACBA98
:101C330004120919E7BA0412091911BB041209198C
:101C430037BB041209199BBB04120919C9BB04123F
:101C530009195CBC0412091974BC0412091989BC62
:101C63000412091916E50412091933E504120919B6
:101C7300879B04120919269D04120919339D041226
:101C83000919609D04120919919D04120919EA9D0D
:101C930004120919409E04120919D39E041209194A
:101CA300569F04120919E59F041209193BA0041257
:101CB300091976A00412091969A1041209197DA151
:101CC3000412091990A104120919B2A104120919E5
:101CD300B8E204120919E5E20412091912E3041225
:101CE30009193FE304120919C1BC04120919E8BC1C
:101CF3000412091913BD04120919B8BD04120919F4
:101D030019C0041209193CC0041209194EC0041267
:101D130009195CC00412091985C004120919A0C06D
:101D230004120919BBC004120919D6C004120919F7
:101D33004FC10412091990C104120919C5C1041233
:101D4300091916C2041209196BC20412091998C29F
:101D530004120919A6C204120919BEC204120919F0
:101D63000CC3041209196B7F00120919D87F0012E2
:101D73000919008004120919498004120919728093
:101D8300041209198B8004120919AB800412091972
:101D93001381041209194D81041209198086041252
:101DA30009193B88041209197D8804120919E78867
:101DB300041209195A8A041209198A8A0412091980
:101DC300A48A04120919B88A04120919088B041287
:101DD3000919718B04120919868B04120919CDD9BB
:101DE30004120919E4D9041209190BDA04120919A6
:101DF3002FDA041209195ADA0412091988DA0412BB
:101E03000919A7DA04120919DCDA0412091902DB29
:101E130004120919FFE1041209194AE2041209190B
:101E230052B10412091969B104120919C5B2041295
:101E33000919FAB20412091922B3041209194FB38A
:101E43000412091968B304120919A5B30412091974
:101E530022B40412091968B404120919BAB4041299
:101E63000919EDB40412091913B5041209193FDB5A
:101E73000412091951DB0412091998DC0412091917
:101E83009BDC041209195AD804120919FAD804124E
:101E930009195AD9041209199DD90412091972B5DD
:101EA3000412091991B504120919F3B50412091999
:101EB30021B6041209194BB6041209196FB604129C
:101EC300091979B70412091990B704120919B4B79B
:101ED30004120919E4B804120919F8B8041209190B
:101EE30015B90412091927B904120919E9A1041231
:101EF3000919ACA704120919B1A704120919008022
:101F030002120919A3820212091921840212091962
:101F13003F84021209193386021209197B870212C0
:101F23000919E98702120919568902120919A9899F
:101F330002120919C08B021209192E8D02120919F6
:101F43007B8D02120919B18D021209194C8E0212EE
:101F53000919D78E02120919F48E02120919168F64
:101F63000212091964A00212091982A002120919A6
:101F73009BA002120919B5A00212091992A202121A
:101F83000919C0FF021209199E44001209193244AB
:101F930000120919094400120919AF430012091963
:101FA300CD4200120919104100120919DC40001238
:101FB3000919A940001209198D4000120919963F09
:101FC300001209194E3F00120919833D0012091925
:101FD300033D00120919E93C00120919683C00127B
:101FE3000919283B001209198A3A00120919583AAB
:101FF30000120919953900120919C037001209197D
:10200300513700120919233700120919203700121A
:102013000919ED5000120919E05000120919EE4D8B
:1020230000120919404B00120919104A001209192C
:102033000D3700120919A536001209198C36001242
:102043000919563500120919644900120919203576
:1020530000120919E3340012091984340012091912
:10206300533400120919B5470012091949C904125A
:1020730009190E3100120919FF2F001209198E2FA9
:1020830000120919532F001209191E2F00120919E2
:10209300122F00120919722E00120919B92D0012FC
:1020A30009198C2B00120919182900120919D628AD
:1020B30000120919A127001209195627001209193C
:1020C300852600120919DC2500120919B225001210
:1020D300091970450012091978250012091948FDDC
:1020E3000300000080FBE47387000100DF0B240082
:1020F3000200B80B25000200BA0B26000200BC0B3D
:1021030027000200BE0B28000100C00B29000100BC
:10211300C10B84000400C20B86000100C60B2A0019
:102123000100C70B2B000100C80B2C000100CC0BD6
:102133002D0008002D062E000100CD0B2F000100FD
:10214300CE0B30000100CF0B31000100D00B320069
:102153000100350633000100360634000100D10BBF
:1021630036000100370638000100D20B39000100A8
:10217300CB0B83000200DD0B63000100DB0B64006B
:102183000100C90B65000100CA0B6D000100DC0BE7
:102193006E0002002B0643000100D30B4400020033
:1021A300D40B45000100D60B46000200D70B4700B5
:1021B3000800390648000100D90B4B000100DA0B77
:1021C30004000100E00BA1000100E30B3700010054
:1021D300E20B88000100E10B3C000100380600001F
:1021E3000000000000013636010100010201000178
:1021F3000301000104010606050200000701003483
:102203000801000F090401010D0100FF0E08000081
:1022130017020000190100FF1A0100011B0100FE53
:102223001C0100081D0200001F0100012001000124
:10223300210200002301000F2402000026010001F7
:1022430027010008280200FF2A0100072B01024092
:102253002C0100002D0100012E0100012F0100FFC0
:1022630030010B1C310800003A0100083B01000F4C
:102273002F0100000302710230016002110270029B
:102283000102020202028002100261023A004100CE
:1022930063027302720262024302000213023800F5
:1022A3000002000204021202000200020002000205
:1022B30004020402370037003C02440200023900E2
:1022C30000020002650200023502810200020502DB
:1022D30082028302000203007100300160001100DA
:1022E30070003102200350048000100061000000E0
:1022F30014006300730072006200430000001300C7
:1023030006000000000004001200000000000000AE
:10231300000004000400370037003C0244000000C2
:10232300000000000000650000003500810000008F
:102333000500000083000000010371030103010392
:10234300010301030103220302030103100300033A
:102353000003000300030003000300034203000320
:1023630024030603000300030403120325032303CA
:1023730025032303040304030003000300034403AE
:1023830000030003230300036503210035038103D6
:1023930000030503000300030003010171010101B0
:1023A300010111010101310101010101800110014C
:1023B30061013B0014006301730172016201430177
:1023C3000001130106013D01350004011201000162
:1023D30000010001000104010401330133013C0148
:1023E300440132013600000100016501000135009E
:1023F3008101000105018201830100013600010012
:10240300060000000F0000000000000000000000B4
:10241300000003FFFF00000403FFFF0000FFFF0FA6
:10242300F4010005C4040320000100040B000000B4
:10243300000000000003010F0100AC190200221983
:102443000300281904002E19050034190600401949
:102453001100581914005E1915005219FFFF0000EE
:10246300241154112A1130114E1142113C115A11E9
:1024730060116611721136111E11181103EAF5E588
:10248300D5D5C5B5A59595858575756565555545A9
:1024930045353525251515050A960E02600E05727C
:1024A3000E07660E0C420E0D540EFF000000160FB1
:1024B30000000B150B020002220F320000065A69BE
:1024C30067426565416C6C69616E63653039000014
:1024D3000000000000008967452301EFCDAB141213
:1024E30026122C12EE103212E810F41080129E12F3
:1024F300A412861292128C1200034948424D1817F7
:1025030025050200383C3E363B3B352B432C00016E
:102513001916181616152303000C0E020B040B0ACA
:102523000708000F303017181921301B1D1F3030DA
:102533003016181920231A1C1E3048116C119812DA
:1025430078117E11681238123E124A1244120204A4
:102553000201010101090200BE040A0A00E8031591
:10256300001E000E0008040C05180908FF080F0FD1
:102573000400100A0C74F7120472E9FE121346EEFB
:10258300900B53F090030C74BAF0A37420F09003F3
:102593000E74B4F0A37420F090031074AEF0A3741F
:1025A30020F090031274A8F0A37420F0023ADD74B3
:1025B300F7120472E9FE900302E4F0EE900301F0D7
:1025C3007C397D067A037B03121E98900BD9E09029
:1025D300030BF0122084023ADD74F41204728A08A9
:1025E3008B09EB5480605B90030112514E604A8E5D
:1025F300828F83E06401703212426412079EEE24DC
:1026030012126234F50A780A12093A12267812096C
:1026130036EE240B1228CF1207A2EE241712515EB6
:102623001212FE74091209648008E0640270031236
:102633001FD0EEFAEFFB12156EAA08E5096480FBC2
:102643008030EA5402600C900B527401F0EA640289
:10265300FA801FEA54046005EA640480F3EA54082C
:10266300600C12207EE5086408FAAB0980047A0046
:102673007B00022751EE240FF50AEF3400F50B78A7
:102683000A2274F41204728A088B098A828B83A348
:10269300A3A3E02410123AE9FA1243957003022728
:1026A300348E828F837402F0A3E4124383A3A3A323
:1026B300A3E8F0A3E9124006A3A3A3A3A3A3A3F053
:1026C300E5082403F8E5091236AA24101239508EBE
:1026D300828F83A3A3A3A3F0EE2409FA1227361251
:1026E3003C25F5838882E0A2E58E828F83A3A3A392
:1026F300A3A3500474018001E4F0E5082403F888DF
:10270300828983125238EA125A29EB1228D21227ED
:1027130041120932125A5EEB123CD38E828F83A38D
:10272300A3124271120964EEFAEFFB900301124304
:10273300E7801BEF3400FB8E828F83A3A322E0F597
:1027430008A3E0F509750A007808221209647F04DA
:102753000206E374F21204728A088B09ECFAEDFBA9
:10276300740E120BC5E0FC1213768A0C8B0DAE0CA3
:10277300AF0DEE4F6023AC08AD09121364E9601985
:10278300AC08AD09EEFAEFFB12136AE97007EEFA33
:10279300EFFB12135E7900800279B402351B74EEED
:1027A30012047274F71209DF8A0A8B0BECFEEDFF39
:1027B300750FB3750E00750C00750D00800CE50CDC
:1027C3002401F50CE50D3400F50D90255EE493F836
:1027D300740193F9C3E50C98E50D9940030228C0F1
:1027E300AA0CAB0D1213C48A088B09EA450960CE03
:1027F3008A828B83A3A3A3A3A3E0250EF50EF51072
:10280300C3E50A9510E50B940050B37C157D007960
:1028130000EEFAEFFB124068A3A3A3A3E50AC39556
:102823000EF8E028C333F8E433F9E50828F582E528
:102833000939F583A3A3A3A3A3A31247A5A3123B1B
:1028430016EAFCEBFDEEFAEF1236FEA3E06401702C
:102853000A124264740112360D8043851882851969
:1028630083AC82AD838508828509831252361213A5
:10287300ACE9602D7408120BC5E0C0E0124264D0CD
:10288300E0F07408120BC5E0640385188285198390
:10289300700CAC82AD83EE240B1235FA8003123C2C
:1028A300B9850882850983123699A3A312434DC0C3
:1028B300E0EE24141228CFD0E0F0750F00A90F74B6
:1028C300091209647F0A0206E3EE240CF582EF1273
:1028D30042B52274F7120472E9FE8A828B83A3A3A2
:1028E300A3A3A3A3E0540860298A828B83A3A3A391
:1028F300A3A3A3E0540260178A828B83A3A3A3A399
:10290300A3A3A3A3A3E06406600574E96E70031296
:10291300209C023ADD74E812047274F71209DF7422
:1029230007120BC512407AE9851882851983F0ECEA
:10293300FEEDFF7424120BC5780C120B687513009F
:102943008E828F831252328E828F83A3A3A3E0F9E8
:102953001213828A148B15EA45157003022B32EE8B
:10296300241012493FA914120D948A168B17EA45B5
:10297300177003022B32EE2406F510EF3400F51125
:102983007C00851082F583122B788E828F83A3A31C
:10299300A3E0851682851783A3A3A3124DB8F8A3DA
:1029A300E0F9851682851783A3A3A3A3E8F0A3E91F
:1029B300123109851682851783A3A3A3A3A3A3A317
:1029C30012495F851682851783A3A3A3A3A3A3F04C
:1029D300EE125A29EF122D92120932EE125A5FEFBC
:1029E300123CD3851682851783A3A3A3A3A3A3A312
:1029F300A3A3124271120964751000022AB2850A58
:102A030082850B831252361213B28508828509839D
:102A1300A3EAF0A3EB12428AA3A312403D1243FEA2
:102A2300E0A2E6500F850882850983A3A3A3A3A38D
:102A3300E0D2E1F0E5137063850882850983A31270
:102A43004DA290035BE0687003A3E069704D8508B5
:102A530082850983A3A3A312494B780C12092E7410
:102A630027120BC5E0F50A780A12093A7426120BED
:102A7300C51207A29003681207A279007410120B03
:102A8300C5123FF1121FA6740912096485088285D5
:102A93000983A3A3A3A3A3E04405F074012510FCB9
:102AA3008E828F83A3A3A3A3A3A3122B780510E580
:102AB3000A450B6052851008C3E5089514E4951583
:102AC3005045E51075F006A4F8A9F0E51628F8E5D9
:102AD3001739F9E8240CF508E9123671E41242803B
:102AE30064016003022A0175130185088285098345
:102AF3007401124285F8A3E0F9850882850983A34E
:102B0300E8F0A3E9022A18AA16AB17120D9A781651
:102B13001209367425120BC5E0FC7402120BC5E0D2
:102B2300F9EEFAEFFB1220A2740212096480418EBF
:102B3300828F83A3A3A3E0C0E07404120BC5D0E08B
:102B4300123109C0E07405120BC5D0E0F0E514455D
:102B53001570097406120BC574B980077406120B3D
:102B6300C57410F07401120BC5AA82AB83121FAC9B
:102B73007409025A6A12427A8E828F83A3A3A3E056
:102B8300F91213888A0A8B0B2274EA12047274F303
:102B93001209DF8A0A8B0B89158C147423120BC557
:102BA3001261E9AA0CFB120D88E9F513AA0CAB0D0F
:102BB300120D8EE5137003022D7F750E00800F8EAC
:102BC300828F83A3A3A3A3A3E0D2E3F0050EE50CB6
:102BD300240BF582E50D122F0DE50EC39840030279
:102BE3002D76E5137003022D76E50E75F006A4F835
:102BF300A9F0E50C28F8E50D39F9E8240CFEE912F3
:102C03005FCCA3A3A3A3E0A2E040C1750F007508A6
:102C130008750900E5146003750F20124025E06074
:102C2300339003ABE064017017E50FD2E3F50F7542
:102C330009108E828F83123C57123B0A74FF802443
:102C4300430F0C75080C8E828F83A3122D9E125A8C
:102C53004BA38010E5156009E50FD2E6F50F750863
:102C63000A122DACF07402120BC5E50F124DD7C03A
:102C7300E07404120BC5D0E0F07405120BC5123AD0
:102C8300FB120BC5E06003022D597408120BC51229
:102C930036828E828F83A3A3A3A3F07408120BC57D
:102CA30012342FF583E508F0A3E509123F2FE06006
:102CB300119003ABE0C0E07408120BC5123428D0A6
:102CC300E0F0850C82850D83A3A3A3E0C0E0740824
:102CD300120BC512586ED0E01258A6C0E074081249
:102CE3000BC512343AD0E0F07408120BC5122D9EB6
:102CF300A3A3125875124DC1A3A3E0125859EAF0C9
:102D0300A3EB124DCDC0E0E8242EF582E91228D2C0
:102D1300D0E0F07408120BC5125238850A82850B75
:102D230083122D892424F582EB123CC2125A27E523
:102D33000B122D92120932123CD0EA242BF582EBAE
:102D43001228D2124271120964851882851983AA46
:102D530082AB83121FC48E828F83A3A3A3A3A3E09A
:102D6300D2E0F0740C120BC5E06003022BC2151302
:102D7300022BCF7900AA0CAB0D122096740D120909
:102D8300647F0E0206E3A3A3A3A3124DA6EA2212B5
:102D930042B5124D81751200781022124DA6850A94
:102DA30082850B83A3A3A3A322A3122DB122123FD7
:102DB300CAE8F0A3E92274F212047274EB1209DF79
:102DC300EAFEEBFF89088E828F83A3A3A3A3A3A3A9
:102DD300A3A3E0F9120DB28A0A8B0BEA450B607FBD
:102DE300E50870047C0480027C088E828F83A3A391
:102DF300A3A3A3A3A3A3E0F9120DB81228CC1240F6
:102E0300A4605C888289831252347406120BC51243
:102E13002E671252387408120BC5122E67A3A3E053
:102E2300C0E07410120BC5D0E0124DE71252387493
:102E33000E120BC512407A7411120BC5E4124B2209
:102E4300F9780A120936742059FC744059F974024E
:102E5300120BC5AA82AB831220A2740212096474F6
:102E630015023518EAF0A3EB123AD3A3A3A32274F5
:102E7300F712047274FA1209DFE9FE7F018F087DED
:102E83000080047508000D123AE2122F0DEDC3986D
:102E93005025ED75F006A4F8A9F0EA28F8EB39F906
:102EA300E8125A22E912478E50D9540C60D5E0A299
:102EB300E250D37F0080CF8A828B83A3A3A3A3A3F3
:102EC300A3E0703EE508A2E0400574016E70338A0A
:102ED300828B83A3A3A3A3A3A3740112571DE0C0F2
:102EE300E07403120BC5D0E0125715E0C0E0740480
:102EF300120BC5D0E0F07405120BC5EF123C87121C
:102F03001FAC7406023ADAF582EF124B32F822C094
:102F130082C08379011220960235E2C082C083EA1F
:102F23004B60189003A7E064027010900B52E4F01A
:102F3300EAFCEBFD7A021235EF8012900B5274011A
:102F4300F07A027B00900301E0F91216E80235E201
:102F5300C082C083900BEBE075F005A4FCADF07963
:102F6300007AAA7B0A1215507B008012EB75F005DC
:102F7300A4F8A9F01230FE74FEF0A304F00B900B3A
:102F8300EBE0F8EBC39840E40235E2C082C0837CF7
:102F9300007B0080037C010B900BEBE0F8EBC39804
:102FA300504FEB75F005A4F8AAF0EAF91230F77068
:102FB30003A3E0F460E11230EEE82403080808E913
:102FC3001236AA24FFF0A3E034FF124B22F8A3E049
:102FD300F9E84970C0EB75F005A4F8EAF91230EE90
:102FE3008882898374FEF0A30412572EA3E4F08031
:102FF300A6ECA2E050031235E90235E274F612049E
:1030030072EAFEEBFF900BEBE070030230E9EE2473
:103013001112623470030230E98E828F83A3A3A35B
:10302300A3A3A3A3A3A3123FF96402600F8E828F0D
:1030330083A3A3A3A3A3E070030230E97C00800170
:103043000C900BEBE0F8ECC3985045EE240B1228E0
:10305300CF124DA2EC75F005A4FAABF074AA2AF5D1
:1030630082740A3BF583E0687003A3E06970D1EED4
:103073002412126234FBEC75F005A4F8A9F074ACC9
:1030830028F582740A39F583E06B70B479008058AF
:103093007C0080010C900BEBE0F8ECC39850EDEC56
:1030A30075F005A4F8A9F01230F77003A3E0F470EB
:1030B300E31230EEEE240B1228CF123F02EAF0A304
:1030C300EB12310988828983A3123ACE740C124918
:1030D3005F7A08FB900301E0F91216EE8B09EA45CB
:1030E3000970031235E9790102362674AA28F874A7
:1030F3000A39F9221230FEE064FE2274AA28F5820E
:10310300740A39F5832212365DE02274F2120472D6
:1031130074F31209DFEAFEEBFF8E828F83A3A3A36E
:10312300A3A3A3A3A3A3A3E0F50A900B52E0700506
:1031330079BA023423750801750900750C00750D01
:10314300007C087D007900851882851983AA82ABEB
:10315300831215507405120BC5740112344B5404B9
:1031630060127402120BC5E0D2E612344B5408709D
:1031730003750803E05410600674404508F508E041
:10318300540860227402120BC5E044C012344B543D
:1031930020600A7403120BC5E0D2E08008740312A6
:1031A3000BC5E0D2E1F08E828F83A3A3A3A3A3A3D5
:1031B300A3A3E07018120F32851882851983124079
:1031C3007A7402120BC5E0D2E2F0023275640F701A
:1031D300157402120BC5E0D2E31243FF124062459D
:1031E30008F5080232758E828F83A3A3A3A3A3A33A
:1031F300A3A3E064028E828F837005122DAD80C974
:10320300A3A3A3A3A3A3A3A3E064037013851882BA
:10321300851983AC82AD83EEFAEFFB12204E805208
:103223008E828F83A3A3A3A3A3A3A3A3E0640170AC
:10323300419003ABE0601C7402120BC5E0D2E312B1
:1032430043ED851882851983123CC5750910750AEB
:10325300FF80187402120BC5E0440C12589374FDDE
:10326300F0A374FFF074044508F5088E828F83126F
:1032730061E9124788503A7402120BC5E0540C708E
:103283001B8E828F83125238121A72E9700579BB32
:103293000234237402120BC5E0D2E5F012478850C2
:1032A300107402120BC5E0540C64047004E0D2E500
:1032B300F0EE2411126234C0E07404120BC5D0E0A6
:1032C300123AFD120BC5E0600302341C7408120BA2
:1032D300C512342F123441EE2418126234C0E0E8D0
:1032E300125A13E91228D2D0E0F0EE2419126234F4
:1032F300C0E07408120BC5E0241312367AD0E01232
:103303003B23640170119003ABE0C0E07408120B1F
:10331300C5123428D0E0F07408120BC512392824E2
:1033230017FAEF123957FCE8241CF582E91228D268
:10333300EC12495F8E828F83A3A3A3A3A3A3A3A3AA
:10334300A3E0C0E0E82422F582E91228D2D0E0F01D
:103353007408120BC512343AE50AF07408120BC54F
:1033630012392D2424F582E9125071A3E50D125070
:10337300CAFCA3E0FDE82426F582E91228D2ECF08A
:10338300A3ED12363912404FE82428F582E91228BA
:10339300D21252CDC0E0E8242FF582E91228D2D010
:1033A300E0F0EE241B126234C0E07408120BC51265
:1033B3005867D0E0F0EE241A126234C0E0740812A9
:1033C3000BC5E0242E12367AD0E012588B12274216
:1033D300120932EE24111228CF12404F740B120B34
:1033E300C512426B120964EE241512623454406014
:1033F3001B9003241240A46013851882851983AAA5
:1034030082AB839003251236C21220E98518828588
:103413001983AA82AB83121FC4740C120BC5E0F983
:10342300740D023518E0241512367E221239312428
:103433000FF582E9340022E0242312367E22F5833D
:10344300E508F0A3E509F022F0EE2415124B2F2234
:1034530074F71204727E638A828B83E0600C7905B1
:10346300120C56E9F87456C398FE900353E0600CAF
:10347300F9120C56E9F8EEC39824F2FEEEF9023A7B
:10348300DD74F612047274FE1209DF851882851941
:103493008312407AE9FEECFAEDFB740C120BC5E0E3
:1034A300FC9004621240A4603285188285198385DA
:1034B300820885830978081209367D01EEF99004A4
:1034C300621236BF1220E974021209648B09EA45BD
:1034D3000960047900800679B2800279B602362148
:1034E30074F7120472E9FE7409120BC5E0FF90032E
:1034F3000C1240A4601AEFF508780812093AEEF9A5
:1035030090030C1236BF1220E97401120964800281
:1035130079B6023ADD1209647F060206E374F512F6
:103523000472EAFEEBFF8C088D09750A01125CA791
:10353300123603700B90035B1236F4123CC5800EF7
:10354300AC08AD09EEFAEFFB120CBCE9F50AA90AC7
:1035530002544F74F6120472EAFEEBFF7A0C7B00FE
:1035630012206CEA4B606BEE24201262348A828B49
:1035730083F0EE24211235D8F0EE24221235D8A39D
:10358300F0EE24231235D8A3A31242AA124DAAE8BF
:10359300F0A3E9124B27124DABA3A3E8F0A3E91262
:1035A30049518A828B83A3A3A3A3A3A3A3A3F0EE6E
:1035B300242F126234C0E0123AE21228D2D0E01271
:1035C30040808A828B83A3A3A3A3A3A3A3A3A31251
:1035D3003CC5023626124B2F8A828B83A322F0D05E
:1035E30083D0820209167CF47D017A087B00900364
:1035F30001E0F91216DC22FAEF3400FB121E9822C6
:10360300123B0F2212360DA3E0221236112212367C
:10361300152212437BA3A322124014A3E0227402B7
:103623001209647F020206E37C017D007A007B00BD
:10363300121040740422F01236411242B522EE24D5
:103643000FF582EF22F582EF1242B5E42290056274
:10365300E0F912159E2212365D22F0EE2412F58255
:10366300EF3400F583221209647F080206E3125A3D
:1036730046850882F5832212367E221236DB221219
:1036830036D4E02212437BE022C082C0831240D6AC
:1036930012364B0235E112400D22A3E0F9120C560B
:1036A300E9227901020916123C5222F8EF3400F99B
:1036B3008808890922EEFAEFFB90031CE0F8A312B5
:1036C30036CE22E0F81236CDA322A3E0F58388821A
:1036D30022E0240E1236DB221236DF22F8A3E01298
:1036E30036E6223400F98882898322123D7E6405FE
:1036F30022124DA685088285098322FB12370322F5
:10370300121E9885088285098322C082C0831240D5
:10371300D612371A0235E11242B57401220236A5D8
:10372300C082C08390031A743CF0A37420F090030A
:103733001C7430F0A37420F090031E740CF0A37477
:1037430020F09003207436F0A374200235E174F462
:10375300120472EAFEEBFF1237B6F508120F328A33
:103763000A8B0BA80AA90B8E828F831237A9E068F4
:103773007003A3E069602CE508A2E550268E828FD2
:1037830083A3E0FB90031A1236BF1220E98E828FC7
:1037930083E0F8A312455DA31240A470061237B666
:1037A300C2E5F00227511237AD22E0FAA3E0F58318
:1037B3008A82228E828F831236C6A3E02274F51288
:1037C300047212391612392D2420F582E912623758
:1037D300FE74035EF50A123EEC1228D212392888D1
:1037E300828983F0A3A882A983E50A60097402652C
:1037F3000A6003023887740C5EFF601574086F60FB
:103803001074046F701D7402650A7005EEA2E44023
:103813002D8A828B83A3A3A3A3A3A3A3A3E024231F
:10382300123978740C6F7010123911242412396014
:10383300242412392312397B7402650A7005EEA21F
:10384300E4404112391124261239602426123936F4
:10385300A312398A12393612398A12392312397B63
:10386300EF600F74086F600A740C6F600574046F67
:1038730070128A828B83A3A3A3A3A3A3A3A3E0248D
:10388300221239788A828B83A3A3A3A3A3A3A3A31E
:103893001239467005EEA2E150178A828B83A3A3E7
:1038A300A3A3A3A3A3A3E0242E123EF31239718092
:1038B3000E900302123971900302E004123C35A307
:1038C300A882A983EEA2E7504212391124211239AA
:1038D3003612397B8C828D83123946602E8A828B15
:1038E30083A3A3A3A3A3A3A3A3E02430123978EE55
:1038F300A2E150178A828B83A3A3A3A3A3A3A3A3A9
:10390300E0243112395088828983F002544F1239EE
:1039130016E022EA2408FCEB3400FD8C828D83221E
:10392300123EF7A322124DA6EE2212393122124380
:10393300F8E82212393A22F508A3E0340085088218
:10394300F58322E02421123EF7E0540322FAA3E098
:10395300123957223400FB8A828B83E02212393AD0
:10396300123971A3A882A9838C828D83E022E08817
:10397300828983F022123EF712397F22E0888289FE
:1039830083F0A308A9832212397F8C828D83E024DC
:103993002822C082C0838A828B831237BAF87403C9
:1039A30058F98A828B83A3A37401F0E9600574023A
:1039B300697061740C58FC601474086C600F7404B3
:1039C3006C70137402697005E8A2E4401D8A828B4F
:1039D30083A3A37402F0740C6C700A8A828B83A392
:1039E300A3E02402F07402697005E8A2E440258A8A
:1039F300828B83A3A3E02404F0EC600F74086C6053
:103A03000A740C6C600574046C70098A828B83A33E
:103A1300A3E004F0E8A2E750318A828B83A3A3E0FA
:103A2300041252D1F9A3E0F5838982A3A3A3E0543E
:103A33000360178A828B83A3A3E004F0E8A2E1501A
:103A4300098A828B83A3A3E004F08A828B83A3A3D6
:103A5300E0040235E1C082C0838A828B83A3A3A3DF
:103A6300A3A3A3A3A3A3A31240A460098A828B8365
:103A7300A3A3123A7B0235E2A3A3A3A3A3A3A3A305
:103A830012427A1216102274F7120472EAFEEBFF46
:103A9300124D9E88828983A3A3A3A3A3A3A3A3E414
:103AA300F0123ACEA3A3A3A3A3A3A3F0A3F0E81217
:103AB300505BE9123AC8121FF4EEFAEFFB12200032
:103AC3008018F582ED1242B5E4F022A3123AD32214
:103AD300123C35A3A3A3221209647F010206E3EA81
:103AE300240BF582EB221259D72409221242B51274
:103AF30061ED750E00780C227401123C8B123B04AD
:103B030022121FCA740C22123FE7A322121E92E94B
:103B1300640122A3A3A3A3E8F0A3E9F0120F2C22CC
:103B2300123F29E02274F612047274F41209DF12B0
:103B33003C3BFCA3E0F5838C82A3E0FC7402120BF4
:103B4300C5EC124B222402123FDB7404120BC51284
:103B53003CC5EC600A7402120BC5E06404701C12CD
:103B63003C191247947406120BC5123C1F123FDB1B
:103B73007408120BC5E8F0A3E98056E06401600AFB
:103B8300E064066005E064057023123C19123950A5
:103B9300C0E07403120BC5D0E0124B22241312476A
:103BA300947406120BC5124B1E241B80C07406129C
:103BB3000BC5E4F0A3123C48241212479474081274
:103BC3000BC5123C1F1259D3C0E0740A120BC5D0A7
:103BD300E0F07406120BC51240A460287406120BA1
:103BE300C5125238120CB0E964017018120F2C8AF6
:103BF300088B09AC08AD097406120BC512523812B2
:103C03003603700D851882851983AA82AB83121F30
:103C1300A0740C023623123C4D241222123C2C2495
:103C23001A22123C2CF8A3E022EAF0A3EB123C3553
:103C3300E022F088828983228A828B83A3A3A3A3B1
:103C4300A3A3122DB1F0123C4D22EA2402F8EB1289
:103C530036E6E022A3124DA6851882851983221227
:103C630009640235E2C082C08374FD1209DF123C8D
:103C730097C0E07402120BC5D0E0123C87121F9A62
:103C8300740380DB123C8B22F0851882851983AA8A
:103C930082AB83228A828B83A3A3A3A3A3A3123F12
:103CA300C18A828B83A3A31236C6E022AA82AB8386
:103CB300121544740322124DA6EE240BF582EF1263
:103CC30042B5123FC422123FC490032C22124DDF8F
:103CD3001242B5E0FC7D00228A828B83A3A3E0F825
:103CE300123D7E24FB22C082C083123CDB6006248B
:103CF300FC60078008121FE28003121FDC0235E21A
:103D0300C082C0838A828B83A3A3A3A3A3A3A3A3F9
:103D1300E070528A828B83A3A3E0F8123D7A640198
:103D23006043123D746402603C123D746403603569
:103D3300123D746404602E8A828B83A3A31236EE31
:103D43006023123D74640A601C123D74640B601599
:103D5300123D74640C600E123D74640D60077904A7
:103D6300121E8080099003221236BF1220E9023509
:103D7300E28A828B83A3A3123D7E221236CDE022F8
:103D830074F612047274FA1209DFEAFEEBFF74038D
:103D9300120BC5EEF0A3EFF07403120BC5AA82ABAE
:103DA30083121FE81262316003023EE785188285A1
:103DB30019837432F07405120BC5C082C0838E82DE
:103DC3008F83A3A3A3A3E0D083D082F8E028C0E02D
:103DD3007401120BC5D0E0123F43C0E07402120B12
:103DE300C5D0E0123F22F8A3E0F9E8496026E824B1
:103DF30017F582E91228D2C082C083E82416F5821F
:103E0300E9126237D083D082F8E028F87401120BEC
:103E1300C5E028F0851882851983AA82AB83120D29
:103E2300108A088B09A808A909E8497003023EDA39
:103E33008E828F83123F02A3A3EAF0A3EB123F2FDC
:103E4300A3A3E0C0E0E82420F582E91228D2D0E061
:103E53001258A6C0E0E82421F582E91228D2D0E066
:103E6300123F3EC0E0E8242AF582E91228D2D0E0CE
:103E7300F07405120BC5E0FA123EEC1262372A12F7
:103E83004794E8242BF582E91228D212407A74056C
:103E9300120BC5E0C0E0E8242DF582E91228D2D048
:103EA300E0123F22FAA3E0FBEA4B6019E8242BFA65
:103EB300E9122737A3A3A3A3A3A3A3A3E024161262
:103EC3003EF3123F0A8E828F83A3A3A3A3A3A3A3CC
:103ED300A3E8F0A3E9800CEEFAEFFB121FEE122821
:103EE300CC7410F07406023623E8240BF582E92221
:103EF300123EF722FCA3E03400FD8C828D83221254
:103F0300427A8882898322E0FC8A828B83E02CFCBC
:103F1300A3E03400FD8A828B83ECF0A3EDF0221240
:103F23003F29A3A3E022124497A3A322F0E8125A45
:103F330013E91242B574011243FF22123F49E022F2
:103F4300123F49A3E02212543DA32274F7120472D4
:103F5300EAFEEBFF126231701E123F841240A4602E
:103F6300061236B81220E9126231700B12522C126B
:103F73000D0A1228CCE9F0EEFAEFFB121FEE023A1B
:103F8300DD121FFA8E828F83A3A3A3A3A3A3A3A3EC
:103F9300A3A32274F6120472EAFEEBFF8C088D09C8
:103FA300121A72E9700479018011AC08AD09EEFAB6
:103FB300EFFB9003201236BF1220E9023626123F90
:103FC300CAE8F0A3E9F022E0F8A3E0F985188285B6
:103FD300198322125897E022F8A3E03400F9221241
:103FE3003FE7E022E8F0A3E9124403A3A32212402F
:103FF30053EEFAEFFB2212427A120FA4E922123691
:10400300DFE02212360D12400D22E08E828F83A351
:10401300221242C6A3A3A3A322E508240BF582E53B
:1040230009227C087D007900851882851983AA827C
:10403300AB831215508E828F8322E0850882850917
:1040430083A3A322A3A3A3A3A3A3A3A312405322A3
:10405300E0FCA3E0FD2274011243FFA3A3E02212BC
:104063003FC1740422121550850882850983A32257
:104073001217008E828F83EAF0A3EBF022124084A2
:1040830022124403A3A31243F822C082C083124026
:104093009D74D6F0A3741F0235E11220069003220B
:1040A30022123931492274F7120472E9FE1240D602
:1040B3001228D21240A4601888828983A3E0540393
:1040C300700EEEFB123EEC1228D212410712410190
:1040D300023ADDEA12505BEB22C082C083EAF8EBBE
:1040E300F988828983A3A3A3A3A3E0FB888289839E
:1040F300A3A3A3A3124107A31241010235E2E0F9EE
:104103001212F822E0FA88828983A3A32274E812A8
:1041130004728A088B098C168D178914741A120B72
:10412300C5E0F50AA3E0F50B741C120BC5E0F5130B
:10413300741D120BC5780C120B68125A5EEB1262D7
:1041430037242DFA7B001215688A108B11AE10AF3D
:1041530011EE4F70030242528E828F837401F085F9
:10416300081085091175120078101209327C157D2B
:1041730000EE241812425512096485161085171192
:1041830078101209327C097D00EE24021242551286
:1041930009647418120BC5123CB9850A82850B8316
:1041A300E0C0E0EE240F1228CFD0E0124285C0E039
:1041B300EE24111228CFD0E0124280C0E0EE24108A
:1041C3001228CFD0E0123659E5131242AAE4F0A325
:1041D300F0124264780C120B86EE24171228CFE5F6
:1041E3001412361BF8A3E0F9EE240D1228CF124265
:1041F300A4125A581262376025EE242612478024EF
:104203002DF812429C125A2E123AEF120932125A08
:1042130056123CD38A828B83124271120964EE24B4
:10422300191262345403601D9003181240A4600CE9
:10423300EEFAEFFB1236C21220E98013EEFAEFFB1F
:1042430012156E800AEEFAEFFB9003011243E702A8
:104253005A6DFAEF12425B223400FB1215447403C9
:1042630022EE24131242B222E0242B12367E124293
:104273007A121544740322E0FAA3E0FB221242935C
:10428300E02212428AE02212428E22124293A32299
:10429300F0850A82850B83A322EF3400F98A828B8F
:1042A30083123FC4E50822F0EE24261242B222F51F
:1042B30082EF3400F58322F50CA3E0F50D750E00B3
:1042C300780C22123615A3A3A32274F11204728A66
:1042D300088B097A20124395606D8E828F83740652
:1042E3001243A58E828F83A3A3A3A31236078E82C4
:1042F3008F8312434D1242BA1209327C107D00EEB5
:1043030024061242551209648508828509831240E6
:1043130047EE2416FAEF3400FB120CAA85088285B7
:104323000983A3A3A3A3A3A3A3A3A3A3E0C0E0EE32
:10433300241E1228CFD0E012435DC0E0EE241F12EA
:1043430028CFD0E0124365025CCAA3A3A3A3A312A0
:10435300435622123611A3A3E022F012401C124B43
:104363003222F0EEFAEFFB900562E0F912157422A7
:10437300E8F0A3E912437B22F085088285098322B2
:1043830012438722123687F8A3E0F98E828F83A324
:10439300A3227B001215688A0A8B0BAE0AAF0BEEC1
:1043A3004F22124387124373A3A3E02274F612042D
:1043B30072EAFEEBFF7A057B00121568EA4B601E7A
:1043C3008A828B83740A1243ED8A828B83A3A3129E
:1043D3003FE28A828B83A3A3A3A3F01243E40236B2
:1043E30026900562E0F9121574221243F122124459
:1043F300031243F822E0F8A3E0F922A312440322B4
:10440300F08E828F8322C082C083E9900B54F09098
:10441300031474D2F0A37420F0900316742AF0A34B
:104423007420F09003187418F0A374200235E1741B
:10443300F7120472EAFEEBFF8908EE4F7003121BBA
:104443000E9003261240A470089003268022124D7A
:10445300A288828983A3A3A3A3A3A3A3A3A3124490
:104463008988828983A3A3A3A3A3A3A3A3A370DEA1
:10447300EEF0A3EF12448FA3A3A3E4F0A312448F9F
:10448300E508F0023ADD12427AEA4B221244932203
:1044930012449722125441A3A3A32274F712047265
:1044A300900326800D8E828F83A3A3A3A3A3A3A32C
:1044B300A3A3125A0BEE4F60348E828F83A3A3A360
:1044C300A3A3A3A3E06970DD8E828F83A3A3A3A319
:1044D300E06A7003A3E06B70CC8E828F83A3A3A3E7
:1044E300A3A3A3E06C70BEEEFAEFFB80047A007B1B
:1044F30000023ADD74F7120472900326125A0B90ED
:104503000326122D8D687002EB69701712455D1238
:104513004DA2900326123CC5900326125A0B8030FD
:104523001259FEEE4F60298E828F83A3A3A3A3A308
:10453300122D89687002EB6970E68A828B83A3A3CC
:10454300A3A3A3A3A3A3A312456AA3A3A3123CC536
:10455300121610EEFAEFFB023ADD1236CEA3A3A336
:10456300A3A3A3A3A3A3221247A9A3A32274F01274
:10457300047274FA1209DF8A088B098A828B83A377
:10458300A3A3A3A3A3A3A3E0600D640160098A828C
:104593008B83123FF96005790202477B8508828588
:1045A3000983A3A3A3A3A3A3A3A3E0640370157424
:1045B30004120BC5AC82AD83AA08AB0912204EE9E5
:1045C300701380D3850882850983124DA274041267
:1045D3000BC5123CC5125A18126237243212479483
:1045E30012206C8A0A8B0BAE0AAF0BEE4F700302DC
:1045F30047797C327D0079001215507402120BC585
:10460300AA82AB83850882850983A3A3A3A3A3A35B
:10461300A3A3A3E0F91213407402120BC5E0C0E098
:10462300EE242D1228CFD0E0F0EE242CF50AEF343F
:1046330000F50B7403120BC5E0850A82850B83F02A
:104643007901EEFAEFFB121F8E85080C85090D75B3
:104653000E00780C1209327C1C7D00EE240B1242F2
:1046630055120964EE24301247802432080812429E
:104673009C2411F8E5091261D0FCE9FD8C828D833D
:10468300123928242E1228CF1242A4124B00125A98
:10469300641209328C828D8312404F8A828B83127B
:1046A30042711209647404120BC51247A5123CC56A
:1046B30090030212479BF0900302E004124B36244E
:1046C3002A125060750D00850A82850B83E0780CF1
:1046D300120AA88A828B83E50CF0EE24291228CFD4
:1046E300E50C125893E4F0E5082415F582E5091268
:1046F300478E74015007120BC574018004120BC559
:10470300E4F0EE24271236AE851882851983AA8237
:10471300AB83121328E924FE850882850983F0F50B
:1047230008750900EE242E1228CF12404FECF8ED45
:10473300F9AA08AB09120329E88E828F83A3A3A3E6
:10474300A3A3A3A3A3F0ECF8EDF9AA08AB09120302
:10475300298B09EA4509600F8E828F83A3A3A3A344
:10476300A3A3A3A3E004F0EE2420126234440812AE
:1047730050D279008002791074060236691261CE34
:10478300FAE9FBEE22EE2415F582EF124B32A2E09A
:1047930022FAA3E03400FB2212400DA3A3A3A3A398
:1047A300A3221247A9221243F88E828F83A3A3A3C5
:1047B300A32274F4120472EAFEEBFF124073900B0F
:1047C300D3E0F8EE242B126234C398400302492845
:1047D3001250787015EE242B12623404124951C022
:1047E300E0EE24291228CFD0E0F0EE242812623420
:1047F300FC7900800109EE242C122F0AE9C398509A
:1048030026750801750900E97808120AA81250787C
:10481300550860E1E92CFC750801750900E9780881
:10482300120AA8E04508F0EE242712493FEE242E91
:104833001228CFEC8A088AF0A4F8ABF0E42BF9E055
:1048430098F8A3E099F9C3E89508E99400EE403994
:104853002427122F0A1250786037EE242D1228CF06
:1048630012494BA3E4F0EC7054EE2420126234445A
:1048730020123B23C0E0EE24261228CFD0E0F0EE36
:10488300243012493FA3E0805924291228CF74FF12
:10489300F090034BE0FA900BD6E0F508EA8508F0B8
:1048A300A4ABF075F064A4FAADF075F064EBA42D3D
:1048B300FB8E828F83A3A3EAF0A3EB80A8EE2420D0
:1048C30012623454DF1242AAECF08C08EE24271251
:1048D30062348508F0A4FAABF0EE2430F582EF12CF
:1048E3004936FBEE241E1228CFEAF0A3EB124959F6
:1048F300C0E0EE24251228CFD0E0F0EE241C1228CD
:10490300CFE812495F9003281240A4600BECF91220
:1049130036C21220E9E97018EE240BFAEF3400FBDB
:10492300122072800B7BE9EE2422F582EF124B0AF0
:10493300022751124B322AFAA3E03B22F582EF12EF
:104943004946221250C4FA2212400DA3F022F0EE7F
:10495300242A124B2F22124493A3E022F0A3E4F063
:104963002274F4120472900326125A0B1217008A4F
:104973000A8B0B7CFF7DFF8020E0C398FAA3E099AC
:10498300FBC3EA9CEB9D500E8E828F83A3A3E0C3EF
:1049930098FCA3E099FD1259FEEE4F6059124D9E0B
:1049A300E50AC398F8E50B99F98E828F8312523684
:1049B300C3E89AE99B8E828F83A3A340BCA3A3A3DE
:1049C300A3E06402701DEE240B12507B600CEE24F6
:1049D300101228CF12523812156EEEFAEFFB121591
:1049E300AA8007EEFAEFFB1220667A017B00900B98
:1049F30054123653801474FF6C700374FF6D600A95
:104A03007A017B00900B541235F402275174F01293
:104A130004728A088B09ECFAEDFB890A7C01125AAD
:104A23001812506A8A0C8B0DAE0CAF0DEE4F70034B
:104A3300024AFDE50A6003024AFDE508124B00E065
:104A4300F8EE2428126234686003024AFDEE242C37
:104A530012493FE82AF8E43400F98E828F83A3A336
:104A6300A3A3A3A3A3A3E0FAE89AE99400C365D0A0
:104A7300334014124D8912507E700C7B00125A1170
:104A8300E509124B0A8073124D8912507E7031EE84
:104A9300242C126234F9EE24291228CF7508FF75ED
:104AA3000900E97808120AA8E508F0EE242A12287A
:104AB300CFE508124B2729F0EE242B12364880222B
:104AC300E5082414F8E5093400F9E0C0E0EE242AEF
:104AD3001228CFD0E0124B22C0E0EE24291228CFB7
:104AE300D0E0124B36242D1228CF123699A3124947
:104AF3005F7A01FB900B5412365302366C2413F584
:104B030082E5091242B522124946EE24141242B23A
:104B1300124101EEFAEFFB1215AA22EAF0A3EB12FF
:104B23003C35E022F0EE2428124B2F22F582EF12BF
:104B330050C422F0125A72F0A3EBF0EE2274E81282
:104B4300047274FD1209DFE9851882851983F08ADE
:104B53000A8B0B8C168D17741B120BC5124D8174A7
:104B63001D120BC5780C120B688A828B83A3A3E0FA
:104B7300F91213168A128B13EA451370077A007B16
:104B830000024D7C7A127B0012206C8A088B09AEDE
:104B930008AF09EE4F7003024D787C127D00790057
:104BA3001215507401120BC5AA82AB83850A828544
:104BB3000B83A3A3E0F9121340EE240FF508EF12C1
:104BC3005A467402120BC5E0850882850983F07981
:104BD30002EEFAEFFB121F8E8516828517831247AA
:104BE300A5E8F0A3E9124DCD8E828F83A3A3A3A3DF
:104BF300A3A3A3F07514FF751500850882850983A7
:104C0300E07814120AA81228CCE514F085128285E4
:104C13001383A3E0F8123D7AC0E0EE240B1228CFF1
:104C2300D0E0124DD7F508EE240D1228CFE508F099
:104C3300125083E08508F0A42424FAE5F03400FB45
:104C43001215688A088B09EE24101228CF12407AB5
:104C5300EA45097003024D6D8A828B83741A1249E7
:104C63005F8A828B83A3A3F0A3124DC1124DAA12B4
:104C73003CC5AC16AD17EA2406FAEB3400FB12135D
:104C83003A850A82850B83A3A3A3E0C0E0E5082449
:104C93000FF582E5091228D2D0E0F0900368124D97
:104CA300A2E5082410124D92124DE7A3124DA2E57E
:104CB300082412124D92124285C0E0124D89122827
:104CC300D2D0E0F0E50A12505BE50B126237C0E088
:104CD300E5082415F582E5091228D2D0E0124DB873
:104CE300C0E0E5082416F582E5091228D2D0E012C7
:104CF300623BE0C0E0E5082417F582E5091228D2FB
:104D0300D0E012623BA3E0C0E0E5082418F582E599
:104D1300091228D2D0E0123FD6C0E0E5082419F5E5
:104D230082E5091228D2D0E0F0E508241AF582E5DD
:104D3300091228D2780C120B86E5082424F8E50919
:104D43003400F9E5082422F582E509123CC2E50A9C
:104D5300125A13E50B126237C0E0E508241FF582EF
:104D6300E5091228D2D0E0F0800BEEFAEFFB121522
:104D7300AA7E007F00EEFAEFFB7403025A6AE0F5A5
:104D830010A3E0F51122E5082414F582E50922F5C4
:104D930082E5091242B5E8F0A3E9228E828F8312DD
:104DA3004DA6221243F822E0F8A3E0F98A828B830E
:104DB300A3A3A3A322F0851082851183E022124DC1
:104DC300C52212428EA3A3A3A322F0125A20E50BFD
:104DD300124B3222F0124DDF124B3222E50A125AE5
:104DE3005FE50B22124DC5A3A3A32274E81204723C
:104DF3008A0A8B0B8C108D1189147418120BC5E061
:104E0300F516A3E0F517741A120BC5780C120B688C
:104E1300750900EA2413F582EB126237F508900353
:104E2300281240A46011A9089003281236BF12204B
:104E3300E9E960030250587C0285108285118312D0
:104E43005238125A20E50B12506A8A128B13AE1293
:104E5300AF13EE4F704B850A82850B83A3E0A2E06C
:104E63004003025058780C12092E7816120936A9FD
:104E730014AC10AD11AA0AAB0B122024740612094C
:104E8300648A0C8B0DAE0CAF0DEE4F7003025058BD
:104E93008E828F83A3A3A3A3A3A3A3A3E508125086
:104EA300D285080C8E828F83A3A3A3A3A3A3A3A35A
:104EB300E024FFF8E434FFF9E8650C7001E97003BE
:104EC300750901EE240B12507B700302500B850A07
:104ED30082850B83A3E0A2E050037508001250A45F
:104EE300E50C98E499C365D033401EE0F8EE240E38
:104EF30012623428F0750CFF750D00E8780C120A65
:104F0300A8EE12505BEF125071125A27E50B123ABA
:104F1300EF120932123CD085080CEE240D126234D4
:104F2300850CF0A4F8A9F0EE2410126234242212A6
:104F3300395028FAA3E039FB123CB3120964750C0B
:104F43000112508F780C120AA8126231450CF0E559
:104F530009A2E05065EE240C12506012508F0478C1
:104F63000C120AA88A828B83E0450C1250CA85086A
:104F73000C850CF0A4F8124DDF126237FCE82CFC10
:104F8300E5F03400FDEE24101228CF12509D12528A
:104F9300CDF47026EE240BF50CEF3400F50DEE2462
:104FA300101228CF125238850C82850D831243E7E5
:104FB300850C82850D8374FF804D12407390034BE3
:104FC300E0FA900BD6E0F50CEA850CF0A4FAABF00E
:104FD300F8EBF9900BD3E0F50CE8850CF0A4F8ACF2
:104FE300F0850CF0E9A42CF9EA28F8EB39F9E87517
:104FF300F064A4F8AAF075F064E9A42AF98E828F0C
:1050030083A3A3E8F0A3E9F01250A41259F5E865CD
:105013000C7001E9600EEE240C12507B6006E5096A
:10502300A2E05031EE240E126234C0E0125083D05D
:10503300E0F0126231C0E0E50A2414F582E50B12B8
:1050430028D2D0E0F0AC0AAD0B8510828511831213
:105053005238120C08025A6D240CF582221261CECA
:10506300FAE9FB750CFF22125175121F88221242B6
:10507300B5E50CF022EE2429F582EF124B32F4222F
:10508300E50A2413F582E50B1242B522750D0012D1
:1050930050BAF5F0E50884E5F022E0242012367ECC
:1050A3002285080CEE240E124B2FF81250BAFAE8A0
:1050B3002AF8E43400F922EE240FF582EF1250C4EB
:1050C300223400F583E022F0EE240D124B2F22F060
:1050D3007A017B00900B54E0F912159E22C082C026
:1050E30083900B541243E70235E274F41204728A7C
:1050F300088B09EB5480703BEAA2E050471220482A
:10510300E5086401FAAB09803F8E828F83E0640176
:10511300701A12426412079E122678120936EE2480
:105123001212515E12201E7406120964EEFAEFFB8E
:1051330012156E900B5412514E70CEAA08E50964F5
:1051430080FB80047A007B00022751E0F912157A74
:105153008A0A8B0BAE0AAF0BEE4F22F582EF125188
:1051630075EE2402FCEF3400FDEE2418FAEF340050
:10517300FB221250C4F92274F1120472890A8A08BC
:105183008B098A828B83125238120BD88B0DEA4516
:105193000D600479B8807F120BE4902575E493F8D1
:1051A300E9C398400479B2806D7A1512521C7004D9
:1051B300791080628E828F83E4F0A3125886A3E570
:1051C3000AF085080C85090D750E00780C1209325A
:1051D3007C127D00EE24030A0A0A12425612096465
:1051E30090032A1240A490032A7006EEF0A3EF80E6
:1051F3001FE0FAA3E08003E8FAE9FB8A828B8312BB
:1052030040A470F3EEF8EFF98A828B83E8F0A3E908
:10521300F0120BF67900025CCA7B0012206C8A0C38
:105223008B0DAE0CAF0DEE4F228E828F83A3A3A303
:10523300A3A3A3A3A312427A22C082C08390032A0A
:1052430080048C828D8312527E60298C828D83A38D
:10525300A3E069600574FF6970E88C828D83A3A362
:10526300A3E06A7003A3E06B70D8EC2403FAED3477
:1052730000FB80047A007B000235E2124053EC4DC0
:105283002274F7120472E9FC74FE6C70047D0180D1
:10529300027D0090032A80096C70027D0188828957
:1052A300831240A4601F88828983A3A3A3E06A704A
:1052B30003A3E06B70E7EDA2E088828983A3A3E0F8
:1052C30050D6F9800279FE023ADDECF0A3EDF08AC4
:1052D300828B83E022C082C083790090032A8001FD
:1052E300091252388A828B83E582458370F2023534
:1052F300E274F6120472E4F508F509780812093627
:10530300902575E49375F013A42402FCE5F0125480
:105313002D12168E7402120964E9FE6003120BF05B
:10532300EEF902362674F612047274FE1209DF8552
:105333001882851983E4F0A3125893858208858324
:1053430009780812093675080275090078081209E8
:1053530036125B2912096402362174F51204727441
:10536300EB1209DF851882851983E4F0A3F090031B
:105373002AE0FEA3E0807D8E828F83A3A3E0C0E0BA
:105383007402120BC5D0E0125435A982AA8389088E
:105393008A09750A0078081209327C127D007406A6
:1053A300120BC5123CAF1209647402120BC585823D
:1053B300088583097808120936750813750900787A
:1053C300081209367404120BC512392D75F013A493
:1053D300F8AAF075F013E9125425125B311209642F
:1053E300851882851983E02401F0A3E03400124379
:1053F300EDE8FEE9FFEE4F600302537A85188285DC
:10540300198385820885830978081209367508028D
:105413007509007808120936125B2912096474159C
:105423008027A42AF9E82402FCE93400FD7A427BB0
:1054330000221254392212543D2212544122F08E7A
:10544300828F83A3A3A322740D1209647F03020630
:10545300E374F412047274EB1209DF7E007F00859B
:10546300188285198385820885830978081209368D
:105473007508028E0978081209367C007D007A428D
:10548300125C09120964E970748E08805E7402125A
:105493000BC585820A85830B780A120936750A13B0
:1054A300750B00780A120936E50875F013A4F8AAFB
:1054B300F075F013E509125425125C0B120964E927
:1054C300701E7403120BC5AA82AB837402120BC540
:1054D300E0F912160AE97008EE24010EEF3400FF1A
:1054E300E5082401F508E509125A4685188285194D
:1054F30083124DA2C3E50898E509994090EEFAEFAF
:10550300FB741502274E74F61204728C828D83A3EA
:10551300A3125707F0EA2417F582EB126237C0E0B3
:10552300EC125A5FED1228D2D0E0F0EA241DF58286
:10553300EB1228D2124DA2EC125FC7ED1228D21241
:105543005707A3F0A3F0125FC6EB1228D21256F945
:10555300A3A3A3A3A3A3EEF0A3EF124B22FE8C827B
:105563008D8312572674035EFEC39403400FEC240D
:105573000D123AC5EC2410123AC50256E1EE60054D
:1055830074026E70748C828D83E0540CFE740C6E06
:10559300700302567EE0A2E4400D88828983E08C8A
:1055A300828D83A312575074086E600302567EECFB
:1055B30012505BED12371AF08A828B83A3A3A312D6
:1055C300585170148C828D83E0440C125715A3A399
:1055D3001256F9EEF0A3EFF08C828D83E0A2E44043
:1055E300181256E41257331256EDA3A31257338CF5
:1055F300828D83A3A3A312572688828983E0C0E008
:10560300EC125A22ED1228D2D0E01257268C828D4A
:1056130083E0A2E7507C88828983E0FE8C828D83BD
:1056230012575074FC5E60030255718C828D83A304
:10563300E05403640370030255718C828D83A3E0ED
:105643005403605188828983E0C0E0EC2413F5821F
:10565300ED1228D2D0E01257518C828D83E054038F
:105663006402703188828983E0C0E0EC2414F582FF
:10567300ED1228D2D0E0125751801AEC240C123AC2
:10568300C5740C6E60030255BB1256E412573E02FA
:1056930055DBA3E4F0EC125A29ED123CC2EC2410C2
:1056A300FEED3400FFEA241DF582EB126237F508A4
:1056B3008E828F83E0C3982508F508F0EA2417F853
:1056C300EB1236AAC39508C0E0EC125FC7ED1228AF
:1056D300D2D0E0124B22C395085003025571023613
:1056E3002688828983E01256ED22F508A3E0FFE5C0
:1056F300088C828D8322E0FEA3E0FF8C828D83A33E
:10570300A3A3A322E412570C22F08C828D83A3A3BC
:10571300A32212571DA3A3A3A322F08A828B83A3E0
:10572300A3A32212572EA882A98322123C35A322B7
:10573300A3A312573E88828983E022A3A3A3A3F0E5
:10574300A3EFF0E824020808E93400F922A3125772
:105753002E08A9832274F512047274F31209DF8AE6
:10576300088B09ECFEEDFF8E828F83E0540CF50A63
:10577300E0A2E75006E50AD2E7F50AE50AD2E1F529
:105783000A1258537006E50AD2E4F50AE0A2E5507E
:1057930006E50AD2E5F50A7C087D007900851882C2
:1057A300851983AA82AB831215507402120BC5E5C7
:1057B3000A125886E0C0E07403120BC5D0E01258F9
:1057C300931234437405120BC5123AFB120BC5E056
:1057D30070797408120BC5E0241212367A124059FC
:1057E300C0E07408120BC512586ED0E01258A6C060
:1057F300E07408120BC512343AD0E0F07408120BAF
:10580300C512456A125875123B2312585912407A31
:10581300EE2411126234C0E0E8242EF582E9122846
:10582300D2D0E0F0EE2414126234C0E07408120BFC
:10583300C5E0243112367AD0E012588BC0E07408E8
:10584300120BC5125867D0E012589F02544AA3A303
:10585300E05403640122FAA3E0FBE82428F582E97B
:105863001242B522E0243012367E22E02422123680
:105873007E2212427AE82426F582E91242B5EAF042
:10588300A3EB221243FFA322F0EE2413124B2F2289
:1058930012589722F085188285198322123C8B12A5
:1058A3001FC422125439E02274F71204727E008A54
:1058B300828B83A3A3A3A3A3A3A3A3A3E0640260F4
:1058C3007B123AE212623770731240D61228D21258
:1058D30040A4606888828983E05403705FA3A3A314
:1058E300A3A3125942E06A7003A3E06B704E88824F
:1058F3008983125942A3A3E0FFA3E0F5838F82A318
:10590300A3A3A3A3A3E06A7003A3E06B702E888212
:105913008983A3A3E0F88C828D83A3A3E0F9A3E09A
:10592300F5838982A3A3E06860118C828D83A3A38E
:10593300E0F8123D7A540C640470010E02347FA324
:10594300A3A3A312427A8C828D832274F61204726B
:1059530074FC1209DFEAFEEBFFECFAEDFB8A828BA3
:1059630083A3E0540360169003161240A4605C798D
:1059730000EEFCEFFD1236C21220E9804E8518823C
:10598300851983EEF0A3EFF07402120BC5EAF0A3BE
:10599300EB125893AC82AD837A0E7B0C120ED88A2D
:1059A300088B09A808A909E849602088828983A38C
:1059B300A3A3A3A3A3A3A3A37406F07A0088828955
:1059C30083E0240C1259D3F9120E307404023623E7
:1059D3001259D72212400122C082C083900330742F
:1059E30044F0A3740CF09003327438F0A3740C02E7
:1059F30035E1E824FF18E934FFF9228E828F83A36F
:105A0300A3A3A3A3A3A3A3A3E0FEA3E0FF22E5080C
:105A13002412F58222E508125A22E50922E50A2416
:105A230011F58222E50A240EF58222240EF582E581
:105A33000922E08E828F83228E828F83F0A3AE822F
:105A4300AF83223400F50922E8F0A3E912589774D2
:105A5300FFF022E508125A5FE50922EA2410F582D5
:105A6300221261ED780C221209647F100206E31200
:105A730017008E828F83EA227B0012206C8A0A8BA6
:105A83000BEA450B2274F41204728A088B09780816
:105A9300120936750A11750B00780A120936125C61
:105AA30003120964E9700F90032C120BA2125A1807
:105AB3001228D2120BAE02275174F512047274EF3E
:105AC3001209DFE9851882851983F08A088B097525
:105AD3000A0078081209327C107D007404120BC589
:105AE300123CAF1209648518828519838582088563
:105AF30083097808120936750811750900780812A8
:105B030009367C007D007A3B125B2F1209647C11FD
:105B13007D007900851882851983AA82AB831215CB
:105B230050741102544C7C007D007A427B001216A3
