:020000040000FA
:06000000020C12020233A3
:03002B000209AB1C
:030033000204477D
:0300530002012681
:03005B000202603E
:030063000202BADC
:03006B000203D7B6
:03007B000204126A
:1000830002017C010101FF01050301CE12CE12CE54
:1000930012CE1284117E11CE1201250000000063DE
:1000A30025000000000C0000000C0001010000B05E
:1000B300150000000000006A1600000000000000A8
:1000C300000000FFFF0101009B0E000000401FEC39
:1000D3000E401F6400E803B801020A00C8180305B4
:1000E300023C01010D1E020564020A0A03B80B0259
:1000F300803E01020101FFFF020A1401E0FF00003C
:1001030000000000000000000096511800020206E3
:1001130012490103030507090B0D0F020204060828
:100123000A0C0DC0E074F2120637A2AFE433F508EF
:10013300D2AFE5A7FEE5A1FFEF5E54106006121DE6
:100143009675A1EFEF5E54086008121D9C75A1F728
:100153008019EEA2E0C0D0EFA2E092F0120B4F158F
:100163008182F05006121E5C75A1FE751A00E50827
:10017300A2E092AF7F01020696C0E074F212063746
:10018300A2AFE433FFD2AF900F7AE070639061A423
:10019300E0FE759B00E5915E540860087591F712C7
:1001A3001DF0802DE5915E541060087591EF121DCE
:1001B300F6801EEEA2E0C0D0E591A2E092F0120B11
:1001C3004F158182F0500A9061A4E0C2E0F0121F43
:1001D300529061A3E0FEE5E95E5404600E121F280D
:1001E30075E9FB906193E0A2E640F2751A00803650
:1001F300A2AFE433F508C2AFE5E9A2E650209010C0
:10020300E3E0F8A3E0F9E849600E9010E3E0F8A317
:10021300E0F5838882122311759B0053E9BFA2AFD7
:10022300E433F508D2AFEFA2E092AF7F0102069666
:10023300C0E074F2120637A2AFE433FFD2AF90618D
:10024300A5E0FEE5BF5E5404600675BFFB121F6A9E
:10025300751A00EFA2E092AF7F01020696C0E0C0DC
:10026300D0E8C0E0E9C0E0C082C083E5EAC0E09026
:100273000DD4E024B2F8A3E0340AF988828983D04C
:10028300E0F0900DD2E0F8A3E0F9900AB0E8F0A313
:10029300E9F0900DD27400F0A37400F0900DD4E057
:1002A3002401F0A3E03400F0D083D082D0E0F9D071
:1002B300E0F8D0D0D0E032C0E0C0D0E8C0E0E9C080
:1002C300E0C082C083900DDCE0600E900DD2E0248C
:1002D30001F0A3E03400F08052900DD2E06402708C
:1002E30004A3E064007013900DD4E024B2F8A3E0FB
:1002F300340AF988828983E0F5ED900DD2E0640138
:100303007004A3E06400700375ED4F900DD2E0F824
:10031300A3E0F9E8497008900DDA7401F0800C90BD
:100323000DD2E024FFF0A3E034FFF0D083D082D0DD
:10033300E0F9D0E0F8D0D0D0E032C3E498F8E49903
:10034300F912037E8026C3E49AFAE49BFBE920E7D3
:10035300E912037EE498F8E499F922C3E498F8E4F7
:1003630099F912037EE498F8E499F9C3E49AFAE45C
:100373009BFB22EB20E7CFE920E7E0B90010BB00AD
:1003830008E88AF084F8AAF022E4FBC8FA22EB70AA
:10039300227B10C833C8C933C9335007C39AC3DBA0
:1003A300F280069A50012ADBEAC833F4C8C933F451
:1003B300C9FA2275F008E4C833C8C933C933C99AE6
:1003C300C99B5004C92AC93BD5F0ECFBC833F4C818
:1003D300E4C9FA22C0E074F21206377E00A2AFE449
:1003E30033FFD2AFE589A2E45016E5AB5410FE7497
:1003F300106E700C12156E758900900E227420F029
:10040300C2C5751A00EFA2E092AF7F01020696C043
:10041300E074F21206377E00A2AFE433FFD2AFE5F9
:100423008AA2E2500E12156E538AFB900E2274803C
:10043300F08002E58AC2EB751A00EFA2E092AF7F6B
:1004430001020696C0E074F2120637A2AFE433FE4F
:10045300D2AFE58BA2E0500312156E758B00C2E894
:10046300751A00EEA2E092AF7F0102069608080813
:10047300EAC0E0EBC0E086F0E7A4FA180986F0E7EB
:10048300A42AFA180986F0E7A42AFA180986F0E7DD
:10049300A42AFA1986F0E7A4FBE5F02AFA190886DC
:1004A300F0E7A42BFBE5F03AFA190886F0E7A42B52
:1004B300FBE5F03AFA18180986F0E7A4C5F02BFB20
:1004C300E43AFA1908E7C5F0C6A426F6E5F03BFBC3
:1004D300E43AFA1886F0E7A4F6E5F00826F6E43BDA
:1004E30008F6E43A08F6D0E0FBD0E0FA22E4CFC005
:1004F300E0E4CEC0E0E4CDC0E0E4CCC0E075F020A1
:10050300C3E633F608E633F608E633F608E633F6D1
:10051300181818EC33FCED33FDEE33FEEF33FFC355
:10052300EC9709ED9709EE9709EF97191919400F01
:10053300FFEC97FC09ED97FD09EE97FE191906D517
:10054300F0BEECF709EDF709EEF709EFF719191902
:10055300D0E0FCD0E0FDD0E0FED0E0FF222518C5BE
:1005630082C0E0E51934FFC583C0E0E518C3958276
:1005730024F810AF088583198582188008858319AC
:10058300858218D2AFCEF0A3E520F0A37808E60861
:10059300F0A3DEFAEFF0A3E58124FAF8E608F0A36E
:1005A300E608F0A3E608F0A30808E608F0A3E608C7
:1005B300F0A315811581D0E0FED0E0F815811581F7
:1005C3001581E8C0E0EEC0E022120C74B90003020A
:1005D3000621E4900301788A79138002F0A3D8FC02
:1005E300D9FA781A9000867A01BA00028007E49358
:1005F300A3F608DAF990158AAA82AB83900087786C
:10060300A079018015E493A3AC82AD838A828B83A6
:10061300F0A3AA82AB838C828D83D8E9D9E7758254
:10062300EB7583D474041209CA75820C7583237421
:10063300001209CAC0D02518C582C0E0E51934FFED
:10064300C583C0E0E518C3958224F310AF08858302
:10065300198582188008858319858218D2AFC8F05E
:10066300A3E9F0A3EAF0A3EBF0A37908E709F0A369
:10067300D8FAECF0A3EDF0A3EEF0A3EFF0A3D0E0F3
:10068300F0A3D0E0F0A3D0E0F0A3E520F0A3E5F0E1
:10069300F0A322851983851882E0C0E0A3E0F9A3C3
:1006A300E0FAA3E0FBA37808E0F608A3DFFAE0FC96
:1006B300A3E0FDA3E0FEA3E0FFA3E0C0E0A3E0C04E
:1006C300E0A3E0F5D0A3E0F520A3E0A3F5F010AF9D
:1006D300088583198582188008858319858218D235
:1006E300AFD082D083D0E0F8D0E032080075F010AC
:1006F3008E218F22858226858325851882851983FD
:10070300E0CEA3E0CF852682852583EBC9EAC8ED39
:10071300CBECCAC3E833C8E933C9EA33CAEB33CBFA
:10072300C3EA9EF524EB9FF523B35004AB23AA241D
:10073300EC33CCED33CDD5F0DAAE21AF2222D0832A
:10074300D082ECC0E0EDC0E0E493A3FCE493A3FD0E
:10075300ED4C600D120819EC24FFFCED34FFFD8015
:10076300EFE493A3FCE493A3FDED4C600D1208B6F4
:10077300EC24FFFCED34FFFD80EFD0E0FDD0E0FC86
:10078300E493A3C0E0E493C0E022D083D082E9C025
:10079300E0E493A3C386F0C5F095F0F908E493A3CE
:1007A30086F0C5F095F0700BE493A3C3994005E977
:1007B300048002A3E475F002A42582F582E5F035F6
:1007C30083F583D0E0F9E493A3C0E0E493C0E0228F
:1007D300851983851882E0A3FEE0A3F5207808E05D
:1007E300A3F608DFFAE0A3FFE0A3C0E0E0A3C0E0C4
:1007F300E0A3C0E0E0A3C0E0E0A3C0E010AF088541
:1008030082188583198008858218858319D2AFD011
:1008130083D0820209D0C0E0C3E4939608740193A5
:100823009618400FE4936670080874019366187075
:10083300007019A3A3C3E49396087401939618A3B5
:10084300A3400DD0E0D0E0D0E002077DA3A3A3A393
:10085300A3A3D0E0227404800474028000CCC0E01F
:10086300EDC0E0E518C39CCCAD1950011D10AF06D7
:100873008C188D1980068C188D19D2AF12092DD0C2
:10088300E0FDD0E0FC2274028000CCC0E0EDC0E0CB
:10089300E518C39CCCAD1950011D10AF068C188D03
:1008A3001980068C188D19D2AF12090BD0E0FDD038
:1008B300E0FC22C0E0C0F088F0E49366700808749E
:1008C300019366187000A8F0A3A3700BD0F0D0E0DA
:1008D300D0E0D0E002077DA3A3D0F0D0E022D08304
:1008E300D082CCC0E0E493A3600612098C1470FAA2
:1008F300E493A36006120A831470FAD0E0FCE49335
:10090300A3C0E0E493C0E022CAC0E0E493A3C5829D
:10091300CCC582C583CDC583F0A3C582CCC582C5B2
:1009230083CDC583DAE5D0E0CA22CAC0E0E0A3C51F
:1009330082CCC582C583CDC583F0A3C582CCC582D5
:10094300C583CDC583DAE6D0E0CA22C008C3E096EA
:10095300F50808A3E096420808A3E096420808A316
:10096300E09645087001D3D00822700908080822D0
:100973006016181818C6C333C608C633C608C6336C
:10098300C608C633C6D5E0EA22C0E0E493A3D39CED
:100993005010E493A3C39C400AD0E0D0E0D0E0021F
:1009A30008FEA3A3A3D0E022C0E0C0D0E8C0E0A229
:1009B300AFE433F8D2AFC2C7751A00A2E092AFD04A
:1009C300E0F8D0D0D0E032C09FF59FE473D09F22EF
:1009D300D083D082C09FE493C0E0740193C0E074DD
:1009E3000293F59F227404800A74038006740280C4
:1009F300027401C0E0F404120A03D0E0120C4F2287
:100A03002518F58210AF08F518400215198008F56E
:100A13001840021519D2AF85198322C0D0251810AA
:100A2300AF08F518500205198008F518500205198A
:100A3300D2AFD0D022BB0102E722C082C083898219
:100A43008A83BB0003E08002E493D083D0822260D8
:100A530016080808C6C313C618C613C618C613C695
:100A630018C613C6D5E0EA22C3E0C696F608A3E08B
:100A7300C696F608A3E0C696F608A3E0C696F62245
:100A8300C0E0E493A36C7009D0E0D0E0D0E00208AA
:100A9300FEA3A3D0E022251810AF08F518400215D5
:100AA300198008F51840021519D2AF22E7667010B5
:100AB3000809E766700A0809E76670040809E7662B
:100AC30022C3E09608A3E09608A3E09608A3E09665
:100AD300A2D265D03322E066701008A3E066700AE4
:100AE30008A3E066700408A3E06622C3E697F6084D
:100AF30009E697F60809E697F60809E697F622C38A
:100B0300E096F008A3E096F008A3E096F008A3E0CF
:100B130096F022E627F60809E637F60809E637F6DF
:100B23000809E637F622E026F608A3E036F608A31E
:100B3300E036F608A3E036F622E026F008A3E03616
:100B4300F008A3E036F008A3E036F022C0E0E8C0E6
:100B5300E0E58124FCF8E6A2E7D0E0F8D0E02270DB
:100B63000422600D18C6C333C608C633C6D5E0F4E5
:100B73001822E657F60809E657F60809E657F60875
:100B830009E657F622E056F608A3E056F608A3E076
:100B930056F608A3E056F622E056F008A3E056F016
:100BA30008A3E056F008A3E056F022E647F608094A
:100BB300E647F60809E647F60809E647F622E4C3DE
:100BC30096F608E496F608E496F608E496F622C349
:100BD300E7960809E7960809E7960809E79622C603
:100BE300F4C608C6F4C608C6F4C608C6F4C622602E
:100BF3000D08C6A2E713C618C613C6D5E0F322C371
:100C0300E09608A3E09608A3E09608A3E096227571
:100C1300D000758140751801751903000205CCE0F9
:100C2300F608A3E0F608A3E0F608A3E0F622600CBA
:100C330008C6C313C618C613C6D5E0F422E6F008E7
:100C4300A3E6F008A3E6F008A3E6F022CAC0E0E6B4
:100C5300F0A308DAFAD0E0FA22E0FAA3E0FBA3E07B
:100C6300FCA3E0FD22EAF0A3EBF0A3ECF0A3EDF08C
:100C730022E5C754F84401F5C77901222518F58206
:100C8300E43519F58322C2AF75D69F020000221204
:100C930009D36254001209D3AA54001209D3FE5493
:100CA300001209D31A55001209D34E55001209D365
:100CB3008355001209D37A56001209D32F57001215
:100CC30009D37E59001209D3D15A001209D3745B98
:100CD300001209D3015C001209D3AE5C001209D3E0
:100CE300E25C001209D35D5D001209D3375E001286
:100CF30009D3F55E001209D30D5F001209D3A45F77
:100D0300001209D31562001209D31B64001209D320
:100D13003964001209D334A3021209D369A302125E
:100D230009D38FA3021209D3C9A3021209D3DBA3E8
:100D3300021209D32DA4021209D38EA4021209D3DD
:100D430018A5021209D3BCA5021209D304A60212E4
:100D530009D33EA6021209D35BA6021209D380A6C9
:100D6300021209D3D2A6021209D3EBA6021209D3A7
:100D730011A7021209D34CA7021209D390A702129A
:100D830009D3B7A7021209D308A8021209D3B8A836
:100D9300021209D370A9021209D338AA021209D385
:100DA300FBAA021209D358AB021209D3DEAB02121B
:100DB30009D3EDAB021209D3F8AB021209D31EAD6E
:100DC300021209D32FAD021209D3A5AD021209D322
:100DD30037AE021209D38FAE021209D355AF0212F6
:100DE30009D37CAF021209D39AAF021209D3EDAF34
:100DF300021209D332B0021209D33FB0021209D34F
:100E0300D3B1021209D338B3021209D354B4021274
:100E130009D3BEB6021209D3C9B6021209D3D3B697
:100E2300021209D3DEB6021209D3E8B6021209D3BD
:100E3300F2B6021209D3FDB6021209D308B70212A1
:100E430009D339B7021209D35DB7021209D381B7A7
:100E5300021209D3E6B7021209D32AB8021209D340
:100E630046B8021209D3BDB8021209D3F5B802126B
:100E730009D341B9021209D39EB9021209D380BB27
:100E8300021209D306BC021209D3DFBC021209D332
:100E9300EFBF021209D344C0021209D371C0021278
:100EA30009D3BDC1021209D30DC2021209D362C212
:100EB300021209D363C3021209D3FBC3021209D37B
:100EC3007DC4021209D31DC5021209D3E3800112A6
:100ED30009D31C81011209D3F682011209D3358388
:100EE300011209D37F83011209D32484011209D388
:100EF3008384011209D3B784011209D32485011213
:100F030009D34186011209D34987011209D3DF8727
:100F1300011209D3268B011209D3CF8B011209D3F6
:100F2300AB8C011209D30C8D011209D3298E011246
:100F330009D35390011209D30A91011209D31491D1
:100F4300011209D34791011209D30E92011209D359
:100F5300A992011209D30E93011209D337930112F7
:100F630009D35993011209D38895011209D35F96C6
:100F7300011209D3A396011209D31097011209D3C1
:100F8300CB97011209D3FD97011209D3419801129E
:100F930009D37798011209D3CC98011209D3219967
:100FA300011209D3B599011209D3179A011209D372
:100FB3007F9A011209D3289C011209D3109D0112B3
:100FC30009D3529E011209D380A0011209D340A173
:100FD300011209D36FA3011209D312A4011209D379
:100FE30050A4011209D3FCA5011209D310A60112C2
:100FF30009D31AA6011209D344A6011209D350A694
:10100300011209D36FA6011209D326A7011209D32E
:1010130065A7011209D36FA7011209D379A701129A
:1010230009D3C4A7011209D327A8011209D32EA9F2
:10103300011209D3E9A9011209D3E8AA011209D3BC
:10104300E1AB011209D37EAC011209D320AD011229
:1010530009D337AD011209D36EAD011209D38CAD9B
:10106300011209D3D0AD011209D3F5AD011209D391
:10107300DBAE011209D347AF011209D3C1AF01128D
:1010830009D3D0B0011209D30FB2011209D3EDB2C3
:10109300011209D34FB3011209D309B4011209D3C1
:1010A3002CB4011209D300B5011209D34BB50112B7
:1010B30009D38DB5011209D3E4B5011209D31BB6C7
:1010C300011209D349B6011209D382B6011209D319
:1010D300A7B6011209D32FB7011209D352B90112CE
:1010E30009D3B1B9011209D345BA011209D3B1BA6F
:1010F300011209D305BB011209D33FBB011209D366
:101103000080041209D33880041209D359800412D1
:1011130009D39B80041209D30181041209D30B81E3
:10112300041209D31B81041209D35081041209D379
:101133009984041209D34386041209D34388041201
:1011430009D3A1BC011209D3FBBC011209D357BDBA
:10115300011209D3A3BD011209D3BEBD011209D3E4
:10116300EFBD011209D30CBE011209D318BE01123F
:1011730009D38CBF011209D3A5BF011209D30CC037
:10118300011209D31FC0011209D32DC0011209D3C3
:10119300E1C0011209D3C5C1011209D3CBC20112A7
:1011A30009D351C3011209D35BC3011209D3C8C3C5
:1011B300011209D3DFC3011209D311C4011209D3E8
:1011C3004AC4011209D374C4011209D3D5C401124C
:1011D30009D3F5C4011209D313C5011209D359C5A3
:1011E300011209D37FC6011209D3CCC6011209D358
:1011F300FBC6011209D371C7011209D399C70112A2
:1012030009D3D2C7011209D3E0C7011209D338C8E1
:10121300011209D387C8011209D3C6C8011209D321
:10122300F6C8011209D322C9011209D32DC901122B
:1012330009D34BC9011209D30DCA011209D317CA25
:10124300011209D352CA011209D368CA011209D380
:1012530071CA011209D3C6CA011209D3DACA01122B
:1012630009D3E8CB011209D3FBCB011209D312CC6A
:10127300011209D327CC011209D3C9CC011209D316
:101283004CCD011209D30ACE011209D315CE011296
:1012930009D33BCF011209D357CF011209D3A9CFE9
:1012A300011209D3E8CF011209D3FDCF011209D3EB
:1012B3003FD0011209D38CD2011209D30AD30112F0
:1012C30009D37DD3011209D39FD5011209D3B7D511
:1012D300011209D3BAD5011209D3C6D5011209D314
:1012E300DAD5011209D3E2D5011209D315D60112B9
:1012F30009D3C5D6011209D33BD7011209D3AED7FF
:10130300011209D362D8011209D317D9011209D3E3
:1013130036D9011209D3D6D9011209D3E2D9011260
:1013230009D30DDA011209D310DA011209D33FDA16
:10133300011209D354DA011209D3BEDA011209D317
:10134300E6DB011209D3BEDC011209D349DD011228
:1013530009D362DE011209D31FDF011209D358DF5B
:10136300011209D389DF011209D329E0011209D33C
:1013730059E0011209D334E1011209D3CDE101127D
:1013830009D358E2011209D309E3011209D38BE30C
:10139300011209D3BDE3011209D3FEE3011209D3FC
:1013A30033E4011209D3F0C9031209D372CA031239
:1013B30009D3B2CA031209D32BCB031209D305CE27
:1013C300031209D395D0031209D361D4031209D3AD
:1013D30099D4031209D3C7D4031209D359D50312DD
:1013E30009D3ADD5031209D3E0D5031209D309D626
:1013F300031209D353D6031209D3D4D6031209D344
:101403005DA9031209D3E7A9031209D35CAA031246
:1014130009D3DEAA031209D3BCAD031209D3DFAD8E
:10142300031209D338AE031209D336AF031209D31B
:10143300A0AF031209D373B1031209D3DBB20312B2
:1014430009D362B3031209D3F0B3031209D359B416
:10145300031209D3A7B4031209D367B5031209D33F
:1014630090B6031209D30DB7031209D373B703124E
:1014730009D3B6B7031209D35CB8031209D33DB934
:10148300031209D346FB011209D349FD011209D303
:1014930059FE011209D3F588041209D310890412E5
:1014A30009D32D89041209D35C8D041209D3FA8F51
:1014B300041209D35890041209D37390041209D368
:1014C3009790041209D3E290041209D3BDF80312D2
:1014D30009D3D7F8031209D332FB031209D3B9FB9B
:1014E300031209D356FC031209D349FD031209D38E
:1014F300A1FD031209D31FFE031209D38DFE0312AC
:1015030009D395FE031209D3ADFE031209D318FFC5
:10151300031209D36CFF031209D3F8E2031209D3B0
:1015230058E3031209D3DFE4031209D35CE5031282
:1015330009D326EC031209D39DEC031209D3F9EC6A
:10154300031209D35FED031209D3AFED031209D3DD
:101553005DEE031209D376E2041209D3A9E2041261
:1015630009D30BE3041209D310E3041209D3E0E314
:10157300041209D321E4041209D324E4041209D385
:1015830094E0041209D3A5E0041209D325E104125F
:1015930009D36DE1041209D359E2041209D3BFEC54
:1015A300041209D383DE041209D362E0041209D3BF
:1015B300E0B9031209D3F4BA031209D31BBB031214
:1015C30009D35FBB031209D37DBB031209D3FBBB52
:1015D300031209D333BC031209D36BBE031209D31D
:1015E30060BF031209D37BC0031209D30DC10312D9
:1015F30009D392C1031209D34AC2031209D3E6C223
:10160300031209D335C3031209D306C4031209D342
:1016130001C5031209D3A7C5031209D3D2C7031205
:1016230009D305C9031209D366C9031209D3C0C973
:10163300031209D3F4D9041209D317DA041209D314
:1016430011DB041209D3BADB041209D3FEDB041243
:1016530009D358F2041209D3CCF2041209D3DCF2F1
:10166300041209D391E4011209D394E4011209D3BA
:10167300E3E5011209D357E6011209D3E5E60112A6
:1016830009D3A2E7011209D35FE8011209D32CE9B8
:10169300011209D3E9E9011209D30AEC011209D3B2
:1016A300C7EC011209D384ED011209D318EE01121C
:1016B30009D323EF011209D396EF011209D3D8F10D
:1016C300011209D33FF3011209D3A6F4011209D37E
:1016D30001F5011209D398F5011209D37BF6011222
:1016E30009D3ADF6011209D3A9F9011209D34AFAB4
:1016F300011209D3C8FA011209D3B8EE031209D3B0
:1017030010EF031209D3B8EF031209D3E7EF031263
:1017130009D30CF0031209D31D47001209D33EF17C
:10172300031209D3A2F1031209D3E0F1031209D37F
:1017330063F2031209D30AF3031209D359F3031211
:1017430009D3DAF3031209D348F4031209D3D1F40A
:10175300031209D362F5031209D3B7F5031209D3B0
:1017630014F6031209D326F6031209D338F603122B
:1017730009D35EF6031209D3A053001209D3C0F7AD
:10178300031209D351F8031209D3FF97041209D3A3
:101793002299041209D37E99041209D39899041249
:1017A30009D3A999041209D3A49C041209D3C49C94
:1017B300041209D34BD2041209D390D2041209D3D1
:1017C300DBD2041209D36CD4041209D3F7E2021258
:1017D30009D3C1E4021209D316E5021209D397E72C
:1017E300021209D3FCE7021209D308EB021209D350
:1017F3006EEB021209D3AEED021209D3A7EE021269
:1018030009D314EF021209D3A7EF021209D356F03A
:10181300021209D3B1F0021209D312F1021209D351
:1018230073F1021209D35CF3021209D34EF50212CB
:1018330009D33AF8021209D37CF8021209D3DFF86C
:10184300021209D3F1F8021209D366F9021209D37D
:1018530022FA021209D35FFE021209D32AFF0212EF
:1018630009D316F4041209D331F4041209D341F451
:10187300041209D306F3041209D353B0041209D393
:101883006AB0041209D35AB1041209D3A2B10412E3
:1018930009D3C0B1041209D302B2041209D359B255
:1018A300041209D39DB2041209D3EDB2041209D371
:1018B300C5B4041209D318B5041209D3F7EF0412FF
:1018C30009D31FF0041209D33EF0041209D35EF0CA
:1018D300041209D3B8F0041209D3DDF0041209D3BA
:1018E3006A64001209D3CF64001209D3466500125B
:1018F30009D3A066001209D33267001209D3FE6729
:10190300001209D31768001209D37968001209D3AA
:10191300C868001209D3E068001209D340690012B5
:1019230009D3CA69001209D3E369001209D38D6C84
:10193300001209D3316D001209D3706D001209D35F
:10194300D16D001209D3F86F001209D3757000121C
:1019530009D30F71001209D32E71001209D34671F6
:10196300001209D39C71001209D3E171001209D34B
:10197300F871001209D38F72001209D3AF720012EB
:1019830009D30F73001209D38073001209D3E273D2
:10199300001209D32777001209D3BA77001209D3AB
:1019A3001678001209D3E478001209D30D790012D6
:1019B30009D31079001209D33379001209D3C979F5
:1019C300001209D3FB79001209D31E7A001209D33E
:1019D300537A001209D39B7A001209D3B77A001203
:1019E30009D3F77A001209D3387B001209D38AEBA3
:1019F300041209D39BEB041209D31AEC041209D382
:101A03000080031209D32380031209D340800312F9
:101A130009D33281031209D3B181031209D31F827F
:101A2300031209D3B582031209D36E83031209D3B8
:101A33002784031209D32085031209D3EC850312EB
:101A430009D35786031209D3138D031209D34F8F7A
:101A5300031209D39E8F031209D32E90031209D3C5
:101A63003191031209D3C392031209D3DC930312F6
:101A730009D3D0C5021209D3B9C6021209D359C773
:101A8300021209D3BCC7021209D37DC8021209D3BB
:101A93002EC9021209D3A9CB021209D31ECC0212FA
:101AA30009D314CD021209D3AACD021209D362CEEF
:101AB300021209D363D0021209D36ED2021209D3E0
:101AC30062D3021209D3C5D6021209D3E4D7021294
:101AD30009D3D4D8021209D38DD9021209D332DA29
:101AE300021209D3BEDC021209D34CDE021209D35F
:101AF3009EDE021209D362DF021209D30FE0021243
:101B030009D336E1021209D38B95031209D32E961A
:101B1300031209D3C196031209D33C97031209D3C5
:101B23009F97031209D36998031209D38C9903125F
:101B330009D3369A031209D38B9A031209D3FC9A59
:101B4300031209D3BB9B031209D3D09B031209D3FE
:101B5300109C031209D3309C031209D33F9C031238
:101B630009D3509C031209D32D9D031209D34A9E16
:101B7300031209D3689E031209D36D9E031209D37E
:101B8300DC9E031209D309A0031209D34FA1031248
:101B930009D30AA3031209D348A4031209D35CA5EA
:101BA300031209D3BCA5031209D3D8A5031209D381
:101BB30040A7031209D39EA8031209D329B504121F
:101BC30009D3A7B5041209D3E5B5041209D3ADB6F9
:101BD300041209D323B7041209D3C4B7041209D3D7
:101BE300CFB8041209D30ED5041209D386D5041233
:101BF30009D3A3D5041209D384D7041209D374B922
:101C0300041209D32EBA041209D39BBA041209D3BE
:101C1300DDBB041209D366BC041209D301BD04124F
:101C230009D311BD041209D390BD041209D3DFFFF8
:101C3300011209D39BFF031209D3D1FF031209D366
:101C4300F2ED041209D303EE041209D3DEEE0412FB
:101C530009D3F3FF011209D3CD7F001209D3F8EEA4
:101C6300041209D308EF041209D322EF041209D393
:101C7300F1EF041209D371CF041209D314D0041263
:101C830009D330D2041209D37B7B001209D38C7B96
:101C9300001209D3217C001209D3047D001209D359
:101CA3006D7F001209D3F87F001209D387D704127E
:101CB30009D3CBD7041209D353D9041209D3F1D9C9
:101CC300041209D3A3FF021209D3A8FF021209D3F6
:101CD300ADFF021209D3E3FF021209D31FAB0412B3
:101CE30009D340AB041209D397AB041209D3CAAB8F
:101CF300041209D3E0AB041209D372AC041209D362
:101D030007AD041209D35BAD041209D311B0041259
:101D130009D332B0041209D32D91041209D395913A
:101D2300041209D3B892041209D30893041209D3F5
:101D33003493041209D34D93041209D36B93041201
:101D430009D31E94041209D33795041209D3F695C7
:101D5300041209D3F196041209D35797041209D335
:101D6300AB97041209D332E4041209D35BE40412DF
:101D730009D36FE4041209D3B7E4041209D300E5CD
:101D8300041209D349E5041209D35AE5041209D30D
:101D9300B9E5041209D3BCE5041209D3CAE5041258
:101DA30009D3DBE5041209D3A5C5041209D3DFC5A2
:101DB300041209D349C6041209D385C6041209D3F0
:101DC300CCC6041209D3FEC6041209D339C70412C0
:101DD30009D363C7041209D389C7041209D3EDC712
:101DE300041209D31BC8041209D3AEC8041209D3C1
:101DF300C6C8041209D3DBC8041209D31CF50412A4
:101E030009D339F5041209D3759E041209D314A01A
:101E1300041209D321A0041209D34EA0041209D33A
:101E23007FA0041209D3D8A0041209D32EA104124F
:101E330009D3C1A1041209D344A2041209D3D3A222
:101E4300041209D329A3041209D364A3041209D3E6
:101E530057A4041209D36BA4041209D37EA4041259
:101E630009D3A0A4041209D3A4F1041209D3D1F114
:101E7300041209D3FEF1041209D32BF2041209D37D
:101E830013C9041209D33AC9041209D365C9041248
:101E930009D30ACA041209D36BCC041209D38ECC1A
:101EA300041209D3A0CC041209D3AECC041209D373
:101EB300D7CC041209D3F2CC041209D30DCD0412EA
:101EC30009D328CD041209D3A1CD041209D3E2CD3D
:101ED300041209D317CE041209D368CE041209D30E
:101EE300BDCE041209D3EACE041209D3F8CE0412EC
:101EF30009D310CF041209D35ECF041209D397F389
:101F0300041209D304F4041209D338D7031209D3F2
:101F130081D7031209D3AAD7031209D3C3D7031254
:101F230009D3E3D7031209D34BD8031209D385D8B6
:101F3300031209D3B8DD031209D373DF031209D3E4
:101F4300B5DF031209D31FE0031209D392E1031291
:101F530009D3C2E1031209D3DCE1031209D3F0E18F
:101F6300031209D340E2031209D3A9E2031209D3EE
:101F7300BEE2031209D35FE7041209D376E7041222
:101F830009D39DE7041209D3C1E7041209D3ECE78F
:101F9300041209D31AE8041209D339E8041209D345
:101FA3006EE8041209D394E8041209D3EBF0041287
:101FB30009D336F1041209D3A4BD041209D3BBBD5E
:101FC300041209D317BF041209D34CBF041209D357
:101FD30074BF041209D3A1BF041209D3BABF0412F8
:101FE30009D3F7BF041209D374C0041209D3BAC0CA
:101FF300041209D30CC1041209D33FC1041209D33B
:1020030065C1041209D381F4041209D3A9F404129B
:1020130009D3D1E8041209D3E3E8041209D32AEA65
:10202300041209D32DEA041209D330EA041209D3A6
:102033005CEA041209D36CEA041209D382EA04129B
:1020430009D39DEA041209D3B8EA041209D3E4EAD6
:10205300041209D308EB041209D319EB041209D3B0
:1020630022EB041209D32BEB041209D340EB041225
:1020730009D355EB041209D374EB041209D387EB8C
:10208300041209D358DC041209D343DD041209D323
:102093006ADD041209D3CFDD041209D3ECDD041287
:1020A30009D325DE041209D3ECE5041209D38CE627
:1020B300041209D3ECE6041209D32FE7041209D35F
:1020C300E87F001209D3C4C1041209D3E3C1041287
:1020D30009D345C2041209D373C2041209D39DC2A2
:1020E300041209D3C1C2041209D3CBC3041209D306
:1020F300E2C3041209D306C4041209D336C5041279
:1021030009D34AC5041209D367C5041209D379C593
:10211300041209D3D7A4041209D39AAA041209D327
:102123009FAA041209D30080021209D3A3820212C8
:1021330009D32184021209D33F84021209D33386BF
:10214300021209D37B87021209D3E987021209D34A
:102153005689021209D3A989021209D3C08B02122C
:1021630009D32E8D021209D37B8D021209D3B18DAF
:10217300021209D34C8E021209D3D78E021209D34D
:10218300F48E021209D3168F021209D364A002122D
:1021930009D382A0021209D39CA0021209D379A207
:1021A300021209D3D6F4041209D35DF5041209D33C
:1021B300C446001209D35846001209D32F46001211
:1021C30009D3D545001209D3F344001209D336438A
:1021D300001209D30243001209D3CF42001209D3DC
:1021E300B342001209D3BC41001209D37441001257
:1021F30009D3A93F001209D3293F001209D30F3F86
:10220300001209D38E3E001209D34E3D001209D3AA
:10221300B03C001209D37E3C001209D3BB3B001231
:1022230009D3E639001209D37739001209D34939A2
:10223300001209D34639001209D31353001209D3EC
:102243000653001209D31450001209D3664D00122D
:1022530009D3364C001209D33339001209D3CB38D2
:10226300001209D3B238001209D37C37001209D304
:102273008A4B001209D34637001209D309370012DB
:1022830009D3AA36001209D37936001209D3DB49E0
:10229300001209D367F6031209D33433001209D3AA
:1022A3002532001209D3B431001209D37931001257
:1022B30009D34431001209D33831001209D39830BD
:1022C300001209D3DF2F001209D3B22D001209D354
:1022D3003E2B001209D3FC2A001209D3C72900128E
:1022E30009D37C29001209D3AB28001209D3022891
:1022F300001209D39647001209D3D827001209D335
:102303009E27001209D330F10300000080FBE47321
:1023130087000100FE1524000200D71525000200E6
:10232300D91526000200DB1527000200DD15280061
:102333000100DF1529000100E01584000400E11508
:1023430086000100E5152A000100E6152B000100B7
:10235300E7152C000100EB152D000800660F2E0079
:102363000100EC152F000100ED1530000100EE1502
:1023730031000100EF15320001006E0F3300010040
:102383006F0F34000100F01536000100700F3800A4
:102393000100F11539000100EA1583000200FC1564
:1023A30063000100FA1564000100E81565000100EF
:1023B300E9156D000100FB156E000200640F430078
:1023C3000100F21544000200F31545000100F51564
:1023D30046000200F61547000800720F480001008E
:1023E300F8154B000100F91504000100FF15A100C9
:1023F30001000216370001000116880001000016D3
:102403003C000100710F000000000000000136369F
:10241300010100010201000103010001040106069C
:1024230005020000070100340801000F090401013F
:102433000D0100FF0E08000017020000190100FF44
:102443001A0100011B0100FE1C0100081D0200000F
:102453001F01000120010001210200002301000FE0
:10246300240200002601000127010008280200FFC2
:102473002A0100072B0102402C0100002D0100015D
:102483002E0100012F0100FF30010B1C3108000059
:102493003A0100083B01000F2F0100000302710203
:1024A3003001600211027002010202020202800284
:1024B300100261023A004100630273027202620277
:1024C3004302000213023800000200020402120257
:1024D3000002000200020002040204023700370077
:1024E3003C024402000239000002000265020002BD
:1024F3003502810200020502820283020002030008
:10250300710030016000110070003102200350049B
:10251300800010006100000014006300730072006B
:1025230062004300000013000600000000000400E6
:102533001200000000000000000004000400370047
:1025430037003C024400000000000000000065006A
:10255300000035008100000005000000830000003A
:1025630001037103010301030103010301032203B7
:10257300020301031003000300030003000300032D
:1025830000030003420300032403060300030003C4
:102593000403120325032303250323030403040372
:1025A30000030003000344030003000323030003A9
:1025B30065032100350381030003050300030003C2
:1025C3000003010171010101010111010101310147
:1025D300010101018001100161013B00140063014D
:1025E30073017201620143010001130106013D0100
:1025F3003500040112010001000100010001040182
:102603000401330133013C0144013201360000016E
:10261300000165010001350081010001050182010E
:102623008301000136000100060000000F000000D6
:102633000000000000000000000003FFFF00000492
:1026430003FFFF0000FFFF0FF4010005C404032094
:10265300000100040B000000000000000003010F54
:102663000100AE1A0200241A03002A1A0400301AC9
:102673000500361A0600421A11005A1A1400601A8D
:102683001500541AFFFF0000DE110E12E411EA11C7
:102693000812FC11F61114121A1220122C12F01146
:1026A300D811D21103EAF5E5D5D5C5B5A59595851C
:1026B30085757565655555454535352525151505C7
:1026C3000A500F021A0F052C0F07200F0CFC0E0DDA
:1026D3000E0FFF000000160F00000B150B02000287
:1026E300220F320000065A6967426565416C6C69C6
:1026F300616E6365303900000000000000008967E7
:10270300452301EFCDABCE12E012E612A811EC1275
:10271300A211AE113A1358135E1340134C13461310
:1027230000034948424D181725050200383C3E3640
:102733003B3B352B432C00011916181616152303A2
:10274300000C0E020B040B0A0708000F3030171899
:102753001921301B1D1F30303016181920231A1C65
:102763001E30021226125213321238122213F212A0
:10277300F8120413FE12020402010101010902000E
:10278300BE040AE80315001E000E0008040C051819
:102793000908FF080F0F0400100A0C74F7120560F4
:1027A300E9FE121400EE90158BF090030C74E2F026
:1027B300A37422F090030E74DCF0A37422F0900350
:1027C3001074D6F0A37422F090031274D0F0A374A3
:1027D30022F0023D0374F7120560E9FE900302E460
:1027E300F0EE900301F07C727D0F7A037B031220DD
:1027F300BA9015F8E090030BF01222AC023D03747B
:10280300F41205608A088B09EB5480605B90030126
:10281300125374604A8E828F83E0640170321244D3
:102823008A120858EE241212645AF50A780A120919
:10283300F412289E1209F0EE240B122AF512085CFA
:10284300EE24171253841213B87409120A1E800857
:10285300E0640270031221F8EEFAEFFB121724AAC8
:1028630008E5096480FB8030EA5402600C90158A05
:102873007401F0EA6402FA801FEA54046005EA6412
:102883000480F3EA5408600C1222A6E5086408FAEF
:10289300AB0980047A007B00022977EE240FF50A46
:1028A300EF3400F50B780A2274F41205608A088B62
:1028B300098A828B83A3A3A3E02410123D0FFA128B
:1028C30045BB700302295A8E828F837402F0A3E4FE
:1028D3001245A9A3A3A3A3E8F0A3E912422CA3A33F
:1028E300A3A3A3A3A3F0E5082403F8E5091238D0B2
:1028F3002410123B768E828F83A3A3A3A3F0EE242E
:1029030009FA12295C123E4BF5838882E0A2E58E18
:10291300828F83A3A3A3A3A3500474018001E4F0D3
:10292300E5082403F88882898312545EEA125C4F17
:10293300EB122AF81229671209EC125C84EB123E9F
:10294300F98E828F83A3A3124497120A1EEEFAEF25
:10295300FB90030112460D801BEF3400FB8E828F28
:1029630083A3A322E0F508A3E0F509750A0078081C
:1029730022120A1E7F040207D374F21205608A082A
:102983008B09ECFAEDFB740E120C7FE0FC12143091
:102993008A0C8B0DAE0CAF0DEE4F6023AC08AD0966
:1029A30012141EE96019AC08AD09EEFAEFFB12141C
:1029B30024E97007EEFAEFFB12141879008002790C
:1029C300B402374174EE12056074F7120A998A0A49
:1029D3008B0BECFEEDFF750FB3750E00750C0075D8
:1029E3000D00800CE50C2401F50CE50D3400F50D0C
:1029F3009006EEE493F8740193F9C3E50C98E50DA2
:102A0300994003022AE6AA0CAB0D12147E8A088BA6
:102A130009EA450960CE8A828B83A3A3A3A3A3E01B
:102A2300250EF50EF510C3E50A9510E50B9400503D
:102A3300B37C157D007900EEFAEFFB12428EA3A35F
:102A4300A3A3E50AC3950EF8E028C333F8E433F9EA
:102A5300E50828F582E50939F583A3A3A3A3A3A376
:102A63001249CBA3123D3CEAFCEBFDEEFAEF12391F
:102A730024A3E06401700A12448A7401123833807B
:102A830043851882851983AC82AD838508828509C5
:102A93008312545C121466E9602D7408120C7FE0F3
:102AA300C0E012448AD0E0F07408120C7FE06403A3
:102AB300851882851983700CAC82AD83EE240B12CA
:102AC30038208003123EDF8508828509831238BFD0
:102AD300A3A3124573C0E0EE2414122AF5D0E0F04C
:102AE300750F00A90F7409120A1E7F0A0207D3EE9D
:102AF300240CF582EF1244DB2274F7120560E9FE21
:102B03008A828B83A3A3A3A3A3A3E0540860298A87
:102B1300828B83A3A3A3A3A3A3E0540260178A8297
:102B23008B83A3A3A3A3A3A3A3A3A3E0640660052A
:102B330074E96E70031222C4023D0374E812056047
:102B430074F7120A997407120C7F1242A0E98518D0
:102B530082851983F0ECFEEDFF7424120C7F780C50
:102B6300120C227513008E828F831254588E828F1B
:102B730083A3A3A3E0F912143C8A148B15EA451529
:102B83007003022D58EE2410124B65A914120E4E39
:102B93008A168B17EA45177003022D58EE2406F5A3
:102BA30010EF3400F5117C00851082F583122D9E01
:102BB3008E828F83A3A3A3E0851682851783A3A3A5
:102BC300A3124FDEF8A3E0F9851682851783A3A32A
:102BD300A3A3E8F0A3E912332F851682851783A3F5
:102BE300A3A3A3A3A3A3124B85851682851783A34F
:102BF300A3A3A3A3A3F0EE125C4FEF122FB8120905
:102C0300ECEE125C85EF123EF9851682851783A3DD
:102C1300A3A3A3A3A3A3A3A3124497120A1E7510ED
:102C230000022CD8850A82850B8312545C12146C23
:102C3300850882850983A3EAF0A3EB1244B0A3A31A
:102C4300124263124624E0A2E6500F8508828509EA
:102C530083A3A3A3A3A3E0D2E1F0E51370638508E4
:102C630082850983A3124FC890035BE0687003A3B6
:102C7300E069704D850882850983A3A3A3124B7174
:102C8300780C1209E87427120C7FE0F50A780A120F
:102C930009F47426120C7F12085C90036812085C16
:102CA30079007410120C7F1242171221CE7409128C
:102CB3000A1E850882850983A3A3A3A3A3E0440571
:102CC300F074012510FC8E828F83A3A3A3A3A3A377
:102CD300122D9E0510E50A450B6052851008C3E5C9
:102CE300089514E495155045E51075F006A4F8A968
:102CF300F0E51628F8E51739F9E8240CF508E91288
:102D03003897E41244A664016003022C277513016B
:102D130085088285098374011244ABF8A3E0F98521
:102D23000882850983A3E8F0A3E9022C3EAA16AB27
:102D330017120E5478161209F07425120C7FE0FC5A
:102D43007402120C7FE0F9EEFAEFFB1222CA74024E
:102D5300120A1E80418E828F83A3A3A3E0C0E07476
:102D630004120C7FD0E012332FC0E07405120C7FE5
:102D7300D0E0F0E514451570097406120C7F74B9A0
:102D830080077406120C7F7410F07401120C7FAA72
:102D930082AB831221D47409025C901244A08E8208
:102DA3008F83A3A3A3E0F91214428A0A8B0B227424
:102DB300EA12056074F3120A998A0A8B0B89158C3F
:102DC300147423120C7F12640FAA0CFB120E42E937
:102DD300F513AA0CAB0D120E48E5137003022FA5D1
:102DE300750E00800F8E828F83A3A3A3A3A3E0D2CB
:102DF300E3F0050EE50C240BF582E50D123133E506
:102E03000EC3984003022F9CE5137003022F9CE529
:102E13000E75F006A4F8A9F0E50C28F8E50D39F9CC
:102E2300E8240CFEE91261F2A3A3A3A3E0A2E0400D
:102E3300C1750F00750808750900E5146003750F67
:102E43002012424BE060339003ABE064017017E55E
:102E53000FD2E3F50F7509108E828F83123E7D1218
:102E63003D3074FF8024430F0C75080C8E828F83D2
:102E7300A3122FC4125C71A38010E5156009E50F3E
:102E8300D2E6F50F75080A122FD2F07402120C7FE6
:102E9300E50F124FFDC0E07404120C7FD0E0F07414
:102EA30005120C7F123D21120C7FE06003022F7F7D
:102EB3007408120C7F1238A88E828F83A3A3A3A356
:102EC300F07408120C7F123655F583E508F0A3E57C
:102ED30009124155E060119003ABE0C0E0740812A1
:102EE3000C7F12364ED0E0F0850C82850D83A3A3B0
:102EF300A3E0C0E07408120C7F125A94D0E0125A77
:102F0300CCC0E07408120C7F123660D0E0F0740875
:102F1300120C7F122FC4A3A3125A9B124FE7A3A331
:102F2300E0125A7FEAF0A3EB124FF3C0E0E8242E3D
:102F3300F582E9122AF8D0E0F07408120C7F1254DB
:102F43005E850A82850B83122FAF2424F582EB1250
:102F53003EE8125C4DE50B122FB81209EC123EF657
:102F6300EA242BF582EB122AF8124497120A1E85E3
:102F73001882851983AA82AB831221EC8E828F83F8
:102F8300A3A3A3A3A3E0D2E0F0740C120C7FE06030
:102F930003022DE81513022DF57900AA0CAB0D12CF
:102FA30022BE740D120A1E7F0E0207D3A3A3A3A38E
:102FB300124FCCEA221244DB124FA775120078108D
:102FC30022124FCC850A82850B83A3A3A3A322A33A
:102FD300122FD7221241F0E8F0A3E92274F212056E
:102FE3006074EB120A99EAFEEBFF89088E828F83E5
:102FF300A3A3A3A3A3A3A3A3E0F9120E6C8A0A8B32
:103003000BEA450B607FE50870047C0480027C08B2
:103013008E828F83A3A3A3A3A3A3A3A3E0F9120E7A
:1030230072122AF21242CA605C8882898312545A4D
:103033007406120C7F12308D12545E7408120C7FCA
:1030430012308DA3A3E0C0E07410120C7FD0E01205
:10305300500D12545E740E120C7F1242A0741112A2
:103063000C7FE4124D48F9780A1209F0742059FCD8
:10307300744059F97402120C7FAA82AB831222CADC
:103083007402120A1E741502373EEAF0A3EB123CD7
:10309300F9A3A3A32274F712056074FA120A99E93B
:1030A300FE7F018F087D0080047508000D123D0826
:1030B300123133EDC3985025ED75F006A4F8A9F04D
:1030C300EA28F8EB39F9E8125C48E91249B450D917
:1030D300540C60D5E0A2E250D37F0080CF8A828B6C
:1030E30083A3A3A3A3A3A3E0703EE508A2E0400546
:1030F30074016E70338A828B83A3A3A3A3A3A374E7
:1031030001125943E0C0E07403120C7FD0E012595E
:103113003BE0C0E07404120C7FD0E0F07405120CA5
:103123007FEF123EAD1221D47406023D00F582EF0B
:10313300124D58F822C082C08379011222BE023890
:1031430008C082C083EA4B60189003A7E064027052
:103153001090158AE4F0EAFCEBFD7A021238158030
:103163001290158A7401F07A027B00900301E0F952
:1031730012189E023808C082C083901616E075F0BC
:1031830005A4FCADF079007ACC7B141217067B0002
:103193008012EB75F005A4F8A9F012332474FEF045
:1031A300A304F00B901616E0F8EBC39840E4023842
:1031B30008C082C0837C007B0080037C010B9016D7
:1031C30016E0F8EBC398504FEB75F005A4F8AAF09E
:1031D300EAF912331D7003A3E0F460E1123314E83B
:1031E3002403080808E91238D024FFF0A3E034FFD1
:1031F300124D48F8A3E0F9E84970C0EB75F005A457
:10320300F8EAF91233148882898374FEF0A3041256
:103213005954A3E4F080A6ECA2E0500312380F0245
:10322300380874F6120560EAFEEBFF901616E0709C
:103233000302330FEE241112645A700302330F8E0C
:10324300828F83A3A3A3A3A3A3A3A3A312421F6455
:1032530002600F8E828F83A3A3A3A3A3E070030254
:10326300330F7C0080010C901616E0F8ECC39850E5
:1032730045EE240B122AF5124FC8EC75F005A4FA9B
:10328300ABF074CC2AF58274143BF583E0687003C9
:10329300A3E06970D1EE241212645AFBEC75F005B9
:1032A300A4F8A9F074CE28F582741439F583E06B81
:1032B30070B4790080587C0080010C901616E0F8F9
:1032C300ECC39850EDEC75F005A4F8A9F012331D8A
:1032D3007003A3E0F470E3123314EE240B122AF507
:1032E300124128EAF0A3EB12332F88828983A312B9
:1032F3003CF4740C124B857A08FB900301E0F9123D
:1033030018A48B09EA4509700312380F79010238B2
:103313004C74CC28F8741439F922123324E064FE77
:103323002274CC28F582741439F58322123883E091
:103333002274F212056074F3120A99EAFEEBFF8E0F
:10334300828F83A3A3A3A3A3A3A3A3A3A3E0F50AA9
:1033530090158AE0700579BA023649750801750936
:1033630000750C00750D007C087D007900851882BE
:10337300851983AA82AB831217067405120C7F7416
:1033830001123671540460127402120C7FE0D2E60B
:1033930012367154087003750803E0541060067404
:1033A300404508F508E0540860227402120C7FE0DF
:1033B30044C01236715420600A7403120C7FE0D2A9
:1033C300E080087403120C7FE0D2E1F08E828F83D9
:1033D300A3A3A3A3A3A3A3A3E07018120FEC8518C0
:1033E300828519831242A07402120C7FE0D2E2F0AC
:1033F30002349B640F70157402120C7FE0D2E31247
:1034030046251242884508F50802349B8E828F8335
:10341300A3A3A3A3A3A3A3A3E064028E828F8370B9
:1034230005122FD380C9A3A3A3A3A3A3A3A3E064DB
:10343300037013851882851983AC82AD83EEFAEF8E
:10344300FB12227680528E828F83A3A3A3A3A3A30E
:10345300A3A3E0640170419003ABE0601C7402120B
:103463000C7FE0D2E3124613851882851983123E3E
:10347300EB750910750AFF80187402120C7FE04483
:103483000C125AB974FDF0A374FFF074044508F5E7
:10349300088E828F8312640F1249AE503A7402125F
:1034A3000C7FE0540C701B8E828F8312545E121BB0
:1034B30074E9700579BB0236497402120C7FE0D2BD
:1034C300E5F01249AE50107402120C7FE0540C6404
:1034D300047004E0D2E5F0EE241112645AC0E074E3
:1034E30004120C7FD0E0123D23120C7FE060030234
:1034F30036427408120C7F123655123667EE2418C2
:1035030012645AC0E0E8125C39E9122AF8D0E0F0FC
:10351300EE241912645AC0E07408120C7FE02413DD
:103523001238A0D0E0123D49640170119003ABE062
:10353300C0E07408120C7F12364ED0E0F07408120B
:103543000C7F123B4E2417FAEF123B7DFCE8241C40
:10355300F582E9122AF8EC124B858E828F83A3A39E
:10356300A3A3A3A3A3A3A3E0C0E0E82422F582E9D5
:10357300122AF8D0E0F07408120C7F123660E50AC4
:10358300F07408120C7F123B532424F582E9125283
:1035930097A3E50D1252F0FCA3E0FDE82426F58283
:1035A300E9122AF8ECF0A3ED12385F124275E82411
:1035B30028F582E9122AF81254F3C0E0E8242FF523
:1035C30082E9122AF8D0E0F0EE241B12645AC0E01C
:1035D3007408120C7F125A8DD0E0F0EE241A126494
:1035E3005AC0E07408120C7FE0242E1238A0D0E0F9
:1035F300125AB11229681209ECEE2411122AF5129B
:103603004275740B120C7F124491120A1EEE24159C
:1036130012645A5440601B9003241242CA601385FB
:103623001882851983AA82AB839003251238E81286
:103633002311851882851983AA82AB831221EC7426
:103643000C120C7FE0F9740D02373EE0241512389A
:10365300A422123B57240FF582E9340022E02423ED
:103663001238A422F583E508F0A3E509F022F0EE71
:103673002415124D552274F71205607E638A828BDE
:1036830083E0600C7905120D10E9F87456C398FEB7
:10369300900353E0600CF9120D10E9F8EEC398247F
:1036A300F2FEEEF9023D0374F612056074FE120A8F
:1036B300998518828519831242A0E9FEECFAEDFB85
:1036C300740C120C7FE0FC9004621242CA603285D3
:1036D300188285198385820885830978081209F081
:1036E3007D01EEF99004621238E51223117402127F
:1036F3000A1E8B09EA450960047900800679B280C5
:103703000279B602384774F7120560E9FE740912AC
:103713000C7FE0FF90030C1242CA601AEFF50878A1
:10372300081209F4EEF990030C1238E51223117410
:1037330001120A1E800279B6023D03120A1E7F0699
:103743000207D374F5120560EAFEEBFF8C088D09BE
:10375300750A01125ECD123829700B90035B123982
:103763001A123EEB800EAC08AD09EEFAEFFB120D18
:1037730076E9F50AA90A02567574F6120560EAFE9F
:10378300EBFF7A0C7B001217C0EA4B606BEE242030
:1037930012645A8A828B83F0EE24211237FEF0EEF4
:1037A30024221237FEA3F0EE24231237FEA3A31222
:1037B30044D0124FD0E8F0A3E9124D4D124FD1A3DC
:1037C300A3E8F0A3E9124B778A828B83A3A3A3A375
:1037D300A3A3A3A3F0EE242F12645AC0E0123D0862
:1037E300122AF8D0E01242A68A828B83A3A3A3A352
:1037F300A3A3A3A3A3123EEB02384C124D558A8216
:103803008B83A322F0D083D0820209D07CF47D0184
:103813007A087B00900301E0F912189222FAEF3440
:1038230000FB1220BA22123D3522123833A3E022C4
:103833001238372212383B221245A1A3A322124287
:103843003AA3E0227402120A1E7F020207D37C010C
:103853007D007A007B001210FA740422F01238679C
:103863001244DB22EE240FF582EF22F582EF12449D
:10387300DBE422900E9BE0F91217542212388322C4
:10388300F0EE2412F582EF3400F58322120A1E7F34
:10389300080207D3125C6C850882F583221238A4D0
:1038A30022123901221238FAE0221245A1E022C085
:1038B30082C0831242FC123871023807124233224B
:1038C300A3E0F9120D10E92279010209D0123E7822
:1038D30022F8EF3400F98808890922EEFAEFFB9009
:1038E300031CE0F8A31238F422E0F81238F3A32201
:1038F300A3E0F583888222E0240E123901221239D3
:103903000522F8A3E012390C223400F98882898356
:1039130022123FA4640522124FCC850882850983B5
:1039230022FB123929221220BA85088285098322B3
:10393300C082C0831242FC1239400238071244DBB2
:103943007401220238CBC082C08390031A7464F0DE
:10395300A37422F090031C7458F0A37422F0900314
:103963001E7434F0A37422F0900320745EF0A374E9
:103973002202380774F4120560EAFEEBFF1239DC09
:10398300F508120FEC8A0A8B0BA80AA90B8E828FFB
:10399300831239CFE0687003A3E069602CE508A2C5
:1039A300E550268E828F83A3E0FB90031A1238E53D
:1039B3001223118E828F83E0F8A3124783A312424E
:1039C300CA70061239DCC2E5F00229771239D32214
:1039D300E0FAA3E0F5838A82228E828F831238EC89
:1039E300A3E02274F5120560123B3C123B532420E2
:1039F300F582E912645DFE74035EF50A1241121248
:103A03002AF8123B4E88828983F0A3A882A983E512
:103A13000A60097402650A6003023AAD740C5EFF22
:103A2300601574086F601074046F701D7402650A6A
:103A33007005EEA2E4402D8A828B83A3A3A3A3A3E4
:103A4300A3A3A3E02423123B9E740C6F7010123BBC
:103A5300372424123B862424123B49123BA17402CF
:103A6300650A7005EEA2E44041123B372426123B5F
:103A7300862426123B5CA3123BB0123B5C123BB084
:103A8300123B49123BA1EF600F74086F600A740C7C
:103A93006F600574046F70128A828B83A3A3A3A340
:103AA300A3A3A3A3E02422123B9E8A828B83A3A316
:103AB300A3A3A3A3A3A3123B6C7005EEA2E150172B
:103AC3008A828B83A3A3A3A3A3A3A3A3E0242E127D
:103AD3004119123B97800E900302123B9790030209
:103AE300E004123E5BA3A882A983EEA2E750421230
:103AF3003B372421123B5C123BA18C828D83123B0A
:103B03006C602E8A828B83A3A3A3A3A3A3A3A3E0A6
:103B13002430123B9EEEA2E150178A828B83A3A32B
:103B2300A3A3A3A3A3A3E02431123B7688828983B2
:103B3300F0025675123B3CE022EA2408FCEB340009
:103B4300FD8C828D832212411DA322124FCCEE22C3
:103B5300123B572212461EE822123B6022F508A3AD
:103B6300E03400850882F58322E0242112411DE020
:103B7300540322FAA3E0123B7D223400FB8A828B9A
:103B830083E022123B60123B97A3A882A9838C8215
:103B93008D83E022E088828983F02212411D123B4B
:103BA300A522E088828983F0A308A98322123BA57A
:103BB3008C828D83E0242822C082C0838A828B83F7
:103BC3001239E0F8740358F98A828B83A3A3740132
:103BD300F0E960057402697061740C58FC60147438
:103BE300086C600F74046C70137402697005E8A2AA
:103BF300E4401D8A828B83A3A37402F0740C6C705F
:103C03000A8A828B83A3A3E02402F07402697005FD
:103C1300E8A2E440258A828B83A3A3E02404F0EC8A
:103C2300600F74086C600A740C6C600574046C702B
:103C3300098A828B83A3A3E004F0E8A2E750318AC8
:103C4300828B83A3A3E0041254F7F9A3E0F58389DD
:103C530082A3A3A3E0540360178A828B83A3A3E008
:103C630004F0E8A2E150098A828B83A3A3E004F065
:103C73008A828B83A3A3E004023807C082C0838AAD
:103C8300828B83A3A3A3A3A3A3A3A3A3A31242CA25
:103C930060098A828B83A3A3123CA1023808A3A3E1
:103CA300A3A3A3A3A3A31244A01217C62274F712BB
:103CB3000560EAFEEBFF124FC488828983A3A3A3A6
:103CC300A3A3A3A3A3E4F0123CF4A3A3A3A3A3A3DA
:103CD300A3F0A3F0E8125281E9123CEE12221CEE8B
:103CE300FAEFFB1222288018F582ED1244DBE4F090
:103CF30022A3123CF922123E5BA3A3A322120A1EA3
:103D03007F010207D3EA240BF582EB22125BFD2429
:103D130009221244DB126413750E00780C2274011D
:103D2300123EB1123D2A221221F2740C2212420DCC
:103D3300A3221220B4E9640122A3A3A3A3E8F0A35E
:103D4300E9F0120FE62212414FE02274F6120560E9
:103D530074F4120A99123E61FCA3E0F5838C82A3EA
:103D6300E0FC7402120C7FEC124D48240212420153
:103D73007404120C7F123EEBEC600A7402120C7F87
:103D8300E06404701C123E3F1249BA7406120C7FA1
:103D9300123E451242017408120C7FE8F0A3E98039
:103DA30056E06401600AE064066005E06405702380
:103DB300123E3F123B76C0E07403120C7FD0E01238
:103DC3004D4824131249BA7406120C7F124D442431
:103DD3001B80C07406120C7FE4F0A3123E6E241203
:103DE3001249BA7408120C7F123E45125BF9C0E007
:103DF300740A120C7FD0E0F07406120C7F1242CAD0
:103E030060287406120C7F12545E120D6AE9640175
:103E13007018120FE68A088B09AC08AD09740612F4
:103E23000C7F12545E123829700D85188285198310
:103E3300AA82AB831221C8740C023849123E732440
:103E43001222123E52241A22123E52F8A3E022EA10
:103E5300F0A3EB123E5BE022F088828983228A8200
:103E63008B83A3A3A3A3A3A3122FD7F0123E732282
:103E7300EA2402F8EB12390CE022A3124FCC851886
:103E83008285198322120A1E023808C082C08374F5
:103E9300FD120A99123EBDC0E07402120C7FD0E0FD
:103EA300123EAD1221C2740380DB123EB122F085B3
:103EB3001882851983AA82AB83228A828B83A3A368
:103EC300A3A3A3A31241E78A828B83A3A31238EC93
:103ED300E022AA82AB831216FA740322124FCCEEAD
:103EE300240BF582EF1244DB1241EA221241EA90DD
:103EF300032C221250051244DBE0FC7D00228A824F
:103F03008B83A3A3E0F8123FA424FB22C082C083C7
:103F1300123F01600624FC6007800812220A800316
:103F2300122204023808C082C0838A828B83A3A32F
:103F3300A3A3A3A3A3A3E070528A828B83A3A3E0CA
:103F4300F8123FA064016043123F9A6402603C127E
:103F53003F9A64036035123F9A6404602E8A828B11
:103F630083A3A31239146023123F9A640A601C12BC
:103F73003F9A640B6015123F9A640C600E123F9ACD
:103F8300640D6007790412202480099003221238FB
:103F9300E51223110238088A828B83A3A3123FA45C
:103FA300221238F3E02274F612056074FA120A99A9
:103FB300EAFEEBFF7403120C7FEEF0A3EFF0740341
:103FC300120C7FAA82AB8312221012645760030281
:103FD300410D8518828519837432F07405120C7FA4
:103FE300C082C0838E828F83A3A3A3A3E0D083D098
:103FF30082F8E028C0E07401120C7FD0E01241691E
:10400300C0E07402120C7FD0E0124148F8A3E0F93B
:10401300E8496026E82417F582E9122AF8C082C02D
:1040230083E82416F582E912645DD083D082F8E038
:1040330028F87401120C7FE028F085188285198313
:10404300AA82AB83120DCA8A088B09A808A909E8BA
:104053004970030241008E828F83124128A3A3EA91
:10406300F0A3EB124155A3A3E0C0E0E82420F582BE
:10407300E9122AF8D0E0125ACCC0E0E82421F582F4
:10408300E9122AF8D0E0124164C0E0E8242AF5825C
:10409300E9122AF8D0E0F07405120C7FE0FA12411D
:1040A3001212645D2A1249BAE8242BF582E9122A16
:1040B300F81242A07405120C7FE0C0E0E8242DF54D
:1040C30082E9122AF8D0E0124148FAA3E0FBEA4B56
:1040D3006019E8242BFAE912295DA3A3A3A3A3A3E0
:1040E300A3A3E024161241191241308E828F83A3B9
:1040F300A3A3A3A3A3A3A3E8F0A3E9800CEEFAEF81
:10410300FB122216122AF27410F07406023849E8E0
:10411300240BF582E92212411D22FCA3E03400FDA9
:104123008C828D83221244A08882898322E0FC8AB8
:10413300828B83E02CFCA3E03400FD8A828B83EC2A
:10414300F0A3EDF02212414FA3A3E0221246BDA338
:10415300A322F0E8125C39E91244DB74011246250C
:104163002212416FE02212416FA3E022125663A391
:104173002274F7120560EAFEEBFF126457701E12F9
:1041830041AA1242CA60061238DE12231112645782
:10419300700B125452120DC4122AF2E9F0EEFAEF28
:1041A300FB122216023D031222228E828F83A3A3C7
:1041B300A3A3A3A3A3A3A3A32274F6120560EAFEF9
:1041C300EBFF8C088D09121B74E9700479018011CF
:1041D300AC08AD09EEFAEFFB9003201238E5122389
:1041E3001102384C1241F0E8F0A3E9F022E0F8A301
:1041F300E0F985188285198322125ABDE022F8A3BB
:10420300E03400F92212420DE022E8F0A3E912465D
:1042130029A3A322124279EEFAEFFB221244A01241
:10422300105EE922123905E022123833124233229A
:10423300E08E828F83A3221244ECA3A3A3A322E5DF
:1042430008240BF582E509227C087D007900851896
:1042530082851983AA82AB831217068E828F8322EB
:10426300E0850882850983A3A322A3A3A3A3A3A311
:10427300A3A312427922E0FCA3E0FD2274011246BB
:1042830025A3A3E0221241E774042212170685082E
:1042930082850983A3221218B68E828F83EAF0A344
:1042A300EBF0221242AA22124629A3A312461E228F
:1042B300C082C0831242C374FEF0A3742102380784
:1042C30012222E90032222123B57492274F7120521
:1042D30060E9FE1242FC122AF81242CA6018888270
:1042E3008983A3E05403700EEEFB124112122AF8E5
:1042F30012432D124327023D03EA125281EB22C0DF
:1043030082C083EAF8EBF988828983A3A3A3A3A3DA
:10431300E0FB88828983A3A3A3A312432DA31243A3
:1043230027023808E0F91213B222E0FA888289835F
:10433300A3A32274E81205608A088B098C168D17D3
:104343008914741A120C7FE0F50AA3E0F50B741CB0
:10435300120C7FE0F513741D120C7F780C120C22E3
:10436300125C84EB12645D242DFA7B0012171E8A03
:10437300108B11AE10AF11EE4F70030244788E8292
:104383008F837401F0850810850911751200781068
:104393001209EC7C157D00EE241812447B120A1ED0
:1043A30085161085171178101209EC7C097D00EE33
:1043B300240212447B120A1E7418120C7F123EDF71
:1043C300850A82850B83E0C0E0EE240F122AF5D024
:1043D300E01244ABC0E0EE2411122AF5D0E01244FF
:1043E300A6C0E0EE2410122AF5D0E012387FE513C0
:1043F3001244D0E4F0A3F012448A780C120C40EE7D
:104403002417122AF5E514123841F8A3E0F9EE2433
:104413000D122AF51244CA125C7E12645D6025EE09
:1044230024261249A6242DF81244C2125C54123DCC
:10443300151209EC125C7C123EF98A828B831244BA
:1044430097120A1EEE241912645A5403601D900336
:10445300181242CA600CEEFAEFFB1238E81223116D
:104463008013EEFAEFFB121724800AEEFAEFFB90AB
:10447300030112460D025C93FAEF124481223400C9
:10448300FB1216FA740322EE24131244D822E024FA
:104493002B1238A41244A01216FA740322E0FAA3D2
:1044A300E0FB221244B9E0221244B0E0221244B4E9
:1044B300221244B9A322F0850A82850B83A322EF3B
:1044C3003400F98A828B831241EAE50822F0EE2454
:1044D300261244D822F582EF3400F58322F50CA38B
:1044E300E0F50D750E00780C2212383BA3A3A3222E
:1044F30074F11205608A088B097A201245BB606D3E
:104503008E828F8374061245CB8E828F83A3A3A3DF
:10451300A312382D8E828F831245731244E0120941
:10452300EC7C107D00EE240612447B120A1E8508E3
:104533008285098312426DEE2416FAEF3400FB12D2
:104543000D64850882850983A3A3A3A3A3A3A3A3BF
:10455300A3A3E0C0E0EE241E122AF5D0E0124583A7
:10456300C0E0EE241F122AF5D0E012458B025EF064
:10457300A3A3A3A3A312457C22123837A3A3E0224B
:10458300F0124242124D5822F0EEFAEFFB900E9BCE
:10459300E0F912172A22E8F0A3E91245A122F085D7
:1045A3000882850983221245AD221238ADF8A3E0B3
:1045B300F98E828F83A3A3227B0012171E8A0A8B94
:1045C3000BAE0AAF0BEE4F221245AD124599A3A3D2
:1045D300E02274F6120560EAFEEBFF7A057B001217
:1045E300171EEA4B601E8A828B83740A1246138A53
:1045F300828B83A3A31242088A828B83A3A3A3A3E0
:10460300F012460A02384C900E9BE0F912172A2248
:104613001246172212462912461E22E0F8A3E0F999
:1046230022A312462922F08E828F8322C082C08366
:10463300E990158CF090031474F4F0A37422F090B5
:1046430003167452F0A37422F09003187440F0A37D
:10465300742202380774F7120560EAFEEBFF89083B
:10466300EE4F7003121C529003261242CA70089038
:1046730003268022124FC888828983A3A3A3A3A3FE
:10468300A3A3A3A31246AF88828983A3A3A3A3A34F
:10469300A3A3A3A370DEEEF0A3EF1246B5A3A3A3D7
:1046A300E4F0A31246B5E508F0023D031244A0EA84
:1046B3004B221246B9221246BD22125667A3A3A368
:1046C3002274F7120560900326800D8E828F83A3D8
:1046D300A3A3A3A3A3A3A3A3125C31EE4F60348EC1
:1046E300828F83A3A3A3A3A3A3A3E06970DD8E8218
:1046F3008F83A3A3A3A3E06A7003A3E06B70CC8EA4
:10470300828F83A3A3A3A3A3A3E06C70BEEEFAEFEF
:10471300FB80047A007B00023D0374F7120560906E
:104723000326125C31900326122FB3687002EB69E3
:104733007017124783124FC8900326123EEB900363
:1047430026125C318030125C24EE4F60298E828FFA
:1047530083A3A3A3A3A3122FAF687002EB6970E630
:104763008A828B83A3A3A3A3A3A3A3A3A312479088
:10477300A3A3A3123EEB1217C6EEFAEFFB023D030F
:104783001238F4A3A3A3A3A3A3A3A3A3221249CFE1
:10479300A3A32274F012056074FA120A998A088B93
:1047A300098A828B83A3A3A3A3A3A3A3A3E0600D7E
:1047B300640160098A828B8312421F6005790202B9
:1047C30049A1850882850983A3A3A3A3A3A3A3A3C4
:1047D300E0640370157404120C7FAC82AD83AA08E5
:1047E300AB09122276E9701380D385088285098389
:1047F300124FC87404120C7F123EEB125C3E12641B
:104803005D24321249BA1217C08A0A8B0BAE0AAF63
:104813000BEE4F700302499F7C327D007900121723
:10482300067402120C7FAA82AB83850882850983F2
:10483300A3A3A3A3A3A3A3A3A3E0F91213FA74024C
:10484300120C7FE0C0E0EE242D122AF5D0E0F0EE4A
:10485300242CF50AEF3400F50B7403120C7FE0856A
:104863000A82850B83F07901EEFAEFFB1221B685FC
:10487300080C85090D750E00780C1209EC7C1C7D63
:1048830000EE240B12447B120A1EEE24301249A6BA
:10489300243208081244C22411F8E5091263F6FC15
:1048A300E9FD8C828D83123B4E242E122AF512448D
:1048B300CA124D26125C8A1209EC8C828D83124235
:1048C300758A828B83124497120A1E7404120C7F1A
:1048D3001249CB123EEB9003021249C1F09003023E
:1048E300E004124D5C242A125286750D00850A825B
:1048F300850B83E0780C120B628A828B83E50CF0C4
:10490300EE2429122AF5E50C125AB9E4F0E508243D
:1049130015F582E5091249B474015007120C7F742E
:10492300018004120C7FE4F0EE24271238D485189A
:1049330082851983AA82AB831213E2E924FE8508D8
:1049430082850983F0F508750900EE242E122AF5F5
:10495300124275ECF8EDF9AA08AB0912037EE88E52
:10496300828F83A3A3A3A3A3A3A3A3F0ECF8EDF9DE
:10497300AA08AB0912037E8B09EA4509600F8E82F0
:104983008F83A3A3A3A3A3A3A3A3E004F0EE2420F4
:1049930012645A44081252F879008002791074069E
:1049A30002388F1263F4FAE9FBEE22EE2415F58246
:1049B300EF124D58A2E022FAA3E03400FB22124288
:1049C30033A3A3A3A3A3A3221249CF2212461E8E6D
:1049D300828F83A3A3A3A32274F4120560EAFEEBE0
:1049E300FF1242999015F2E0F8EE242B12645AC399
:1049F300984003024B4E12529E7015EE242B126404
:104A03005A04124B77C0E0EE2429122AF5D0E0F0C5
:104A1300EE242812645AFC7900800109EE242C123A
:104A23003130E9C3985026750801750900E9780803
:104A3300120B6212529E550860E1E92CFC750801C5
:104A4300750900E97808120B62E04508F0EE2427A7
:104A5300124B65EE242E122AF5EC8A088AF0A4F88C
:104A6300ABF0E42BF9E098F8A3E099F9C3E89508D3
:104A7300E99400EE4039242712313012529E6037F8
:104A8300EE242D122AF5124B71A3E4F0EC7054EED0
:104A9300242012645A4420123D49C0E0EE24261219
:104AA3002AF5D0E0F0EE2430124B65A3E0805924C0
:104AB30029122AF574FFF090034BE0FA9015F5E004
:104AC300F508EA8508F0A4ABF075F064A4FAADF03C
:104AD30075F064EBA42DFB8E828F83A3A3EAF0A36E
:104AE300EB80A8EE242012645A54DF1244D0ECF079
:104AF3008C08EE242712645A8508F0A4FAABF0EE72
:104B03002430F582EF124B5CFBEE241E122AF5EAE9
:104B1300F0A3EB124B7FC0E0EE2425122AF5D0E080
:104B2300F0EE241C122AF5E8124B8590032812425A
:104B3300CA600BECF91238E8122311E97018EE245D
:104B43000BFAEF3400FB12229A800B7BE9EE24224E
:104B5300F582EF124D30022977124D582AFAA3E05D
:104B63003B22F582EF124B6C221252EAFA221242D6
:104B730033A3F022F0EE242A124D55221246B9A394
:104B8300E022F0A3E4F02274F412056090032612ED
:104B93005C311218B68A0A8B0B7CFF7DFF8020E004
:104BA300C398FAA3E099FBC3EA9CEB9D500E8E8257
:104BB3008F83A3A3E0C398FCA3E099FD125C24EECA
:104BC3004F6059124FC4E50AC398F8E50B99F98E63
:104BD300828F8312545CC3E89AE99B8E828F83A3EE
:104BE300A340BCA3A3A3A3E06402701DEE240B1295
:104BF30052A1600CEE2410122AF512545E121724EF
:104C0300EEFAEFFB1217188007EEFAEFFB12228E73
:104C13007A017B0090158C123879801474FF6C70C4
:104C23000374FF6D600A7A017B0090158C12381AA9
:104C330002297774F01205608A088B09ECFAEDFB00
:104C4300890A7C01125C3E1252908A0C8B0DAE0CC9
:104C5300AF0DEE4F7003024D23E50A6003024D23AF
:104C6300E508124D26E0F8EE242812645A68600322
:104C7300024D23EE242C124B65E82AF8E43400F9A4
:104C83008E828F83A3A3A3A3A3A3A3A3E0FAE89A8B
:104C9300E99400C365D0334014124FAF1252A4708D
:104CA3000C7B00125C37E509124D308073124FAF55
:104CB3001252A47031EE242C12645AF9EE242912F4
:104CC3002AF57508FF750900E97808120B62E508F3
:104CD300F0EE242A122AF5E508124D4D29F0EE24B0
:104CE3002B12386E8022E5082414F8E5093400F904
:104CF300E0C0E0EE242A122AF5D0E0124D48C0E0CD
:104D0300EE2429122AF5D0E0124D5C242D122AF547
:104D13001238BFA3124B857A01FB90158C12387998
:104D23000238922413F582E5091244DB22124B6CFC
:104D3300EE24141244D8124327EEFAEFFB1217188D
:104D430022EAF0A3EB123E5BE022F0EE2428124DA0
:104D53005522F582EF1252EA22F0125C98F0A3EB8F
:104D6300F0EE2274E812056074FD120A99E98518C1
:104D730082851983F08A0A8B0B8C168D17741B128C
:104D83000C7F124FA7741D120C7F780C120C228A11
:104D9300828B83A3A3E0F91213D08A128B13EA4503
:104DA3001370077A007B00024FA27A127B0012175E
:104DB300C08A088B09AE08AF09EE4F7003024F9EFD
:104DC3007C127D0079001217067401120C7FAA82EF
:104DD300AB83850A82850B83A3A3E0F91213FAEE52
:104DE300240FF508EF125C6C7402120C7FE0850847
:104DF30082850983F07902EEFAEFFB1221B685165C
:104E0300828517831249CBE8F0A3E9124FF38E8210
:104E13008F83A3A3A3A3A3A3A3F07514FF75150006
:104E2300850882850983E07814120B62122AF2E561
:104E330014F0851282851383A3E0F8123FA0C0E02B
:104E4300EE240B122AF5D0E0124FFDF508EE240DE7
:104E5300122AF5E508F01252A9E08508F0A42424EB
:104E6300FAE5F03400FB12171E8A088B09EE2410B2
:104E7300122AF51242A0EA45097003024F938A826F
:104E83008B83741A124B858A828B83A3A3F0A3129C
:104E93004FE7124FD0123EEBAC16AD17EA2406FAD9
:104EA300EB3400FB1213F4850A82850B83A3A3A3BF
:104EB300E0C0E0E508240FF582E509122AF8D0E006
:104EC300F0900368124FC8E5082410124FB812502F
:104ED3000DA3124FC8E5082412124FB81244ABC0F9
:104EE300E0124FAF122AF8D0E0F0E50A125281E542
:104EF3000B12645DC0E0E5082415F582E509122A6A
:104F0300F8D0E0124FDEC0E0E5082416F582E5098B
:104F1300122AF8D0E0126461E0C0E0E5082417F536
:104F230082E509122AF8D0E0126461A3E0C0E0E54B
:104F3300082418F582E509122AF8D0E01241FCC0D2
:104F4300E0E5082419F582E509122AF8D0E0F0E536
:104F530008241AF582E509122AF8780C120C40E5A8
:104F6300082424F8E5093400F9E5082422F582E54C
:104F730009123EE8E50A125C39E50B12645DC0E0F4
:104F8300E508241FF582E509122AF8D0E0F0800B2A
:104F9300EEFAEFFB1217187E007F00EEFAEFFB74B8
:104FA30003025C90E0F510A3E0F51122E508241458
:104FB300F582E50922F582E5091244DBE8F0A3E96D
:104FC300228E828F83124FCC2212461E22E0F8A338
:104FD300E0F98A828B83A3A3A3A322F085108285A1
:104FE3001183E022124FEB221244B4A3A3A3A32202
:104FF300F0125C46E50B124D5822F0125005124D8B
:105003005822E50A125C85E50B22124FEBA3A3A3FA
:105013002274E81205608A0A8B0B8C108D11891497
:105023007418120C7FE0F516A3E0F517741A120C2E
:105033007F780C120C22750900EA2413F582EB1217
:10504300645DF5089003281242CA6011A908900311
:10505300281238E5122311E9600302527E7C02858F
:10506300108285118312545E125C46E50B12529036
:105073008A128B13AE12AF13EE4F704B850A8285E3
:105083000B83A3E0A2E0400302527E780C1209E8EE
:1050930078161209F0A914AC10AD11AA0AAB0B12C1
:1050A300224C7406120A1E8A0C8B0DAE0CAF0DEE49
:1050B3004F700302527E8E828F83A3A3A3A3A3A365
:1050C300A3A3E5081252F885080C8E828F83A3A34D
:1050D300A3A3A3A3A3A3E024FFF8E434FFF9E865A3
:1050E3000C7001E97003750901EE240B1252A170D3
:1050F30003025231850A82850B83A3E0A2E05003A9
:105103007508001252CAE50C98E499C365D0334080
:105113001EE0F8EE240E12645A28F0750CFF750D8C
:1051230000E8780C120B62EE125281EF12529712C2
:105133005C4DE50B123D151209EC123EF685080C89
:10514300EE240D12645A850CF0A4F8A9F0EE241095
:1051530012645A2422123B7628FAA3E039FB123E4A
:10516300D9120A1E750C011252B5780C120B621279
:105173006457450CF0E509A2E05065EE240C125289
:10518300861252B504780C120B628A828B83E04537
:105193000C1252F085080C850CF0A4F8125005127D
:1051A300645DFCE82CFCE5F03400FDEE2410122ACB
:1051B300F51252C31254F3F47026EE240BF50CEFE0
:1051C3003400F50DEE2410122AF512545E850C827C
:1051D300850D8312460D850C82850D8374FF804DEA
:1051E30012429990034BE0FA9015F5E0F50CEA852D
:1051F3000CF0A4FAABF0F8EBF99015F2E0F50CE83B
:10520300850CF0A4F8ACF0850CF0E9A42CF9EA289D
:10521300F8EB39F9E875F064A4F8AAF075F064E9DD
:10522300A42AF98E828F83A3A3E8F0A3E9F0125294
:10523300CA125C1BE8650C7001E9600EEE240C12C7
:1052430052A16006E509A2E05031EE240E12645A21
:10525300C0E01252A9D0E0F0126457C0E0E50A247E
:1052630014F582E50B122AF8D0E0F0AC0AAD0B85F9
:10527300108285118312545E120CC2025C93240CBB
:10528300F582221263F4FAE9FB750CFF2212539B99
:105293001221B0221244DBE50CF022EE2429F58220
:1052A300EF124D58F422E50A2413F582E50B12445C
:1052B300DB22750D001252E0F5F0E50884E5F022DB
:1052C300E024201238A42285080CEE240E124D553A
:1052D300F81252E0FAE82AF8E43400F922EE240F37
:1052E300F582EF1252EA223400F583E022F0EE2435
:1052F3000D124D5522F07A017B0090158CE0F912C6
:10530300175422C082C08390158C12460D023808B0
:1053130074F41205608A088B09EB5480703BEAA28F
:10532300E05047122270E5086401FAAB09803F8E12
:10533300828F83E06401701A12448A12085812287B
:105343009E1209F0EE24121253841222467406129E
:105353000A1EEEFAEFFB12172490158C1253747089
:10536300CEAA08E5096480FB80047A007B00022949
:1053730077E0F91217308A0A8B0BAE0AAF0BEE4FA8
:1053830022F582EF12539BEE2402FCEF3400FDEE74
:105393002418FAEF3400FB221252EAF92274F112B4
:1053A3000560890A8A088B098A828B8312545E12EC
:1053B3000C928B0DEA450D600479B8807F120C9E28
:1053C30090279BE493F8E9C398400479B2806D7AFF
:1053D300151254427004791080628E828F83E4F038
:1053E300A3125AACA3E50AF085080C85090D750EC6
:1053F30000780C1209EC7C127D00EE24030A0A0AE1
:1054030012447C120A1E90032A1242CA90032A7085
:1054130006EEF0A3EF801FE0FAA3E08003E8FAE9C9
:10542300FB8A828B831242CA70F3EEF8EFF98A8209
:105433008B83E8F0A3E9F0120CB07900025EF07BF5
:10544300001217C08A0C8B0DAE0CAF0DEE4F228EDF
:10545300828F83A3A3A3A3A3A3A3A31244A022C0C5
:1054630082C08390032A80048C828D831254A460AB
:10547300298C828D83A3A3E069600574FF6970E8BA
:105483008C828D83A3A3A3E06A7003A3E06B70D81F
:10549300EC2403FAED3400FB80047A007B0002382D
:1054A30008124279EC4D2274F7120560E9FC74FE90
:1054B3006C70047D0180027D0090032A80096C706A
:1054C300027D01888289831242CA601F8882898390
:1054D300A3A3A3E06A7003A3E06B70E7EDA2E088E7
:1054E300828983A3A3E050D6F9800279FE023D03AB
:1054F300ECF0A3EDF08A828B83E022C082C0837933
:105503000090032A80010912545E8A828B83E5820C
:10551300458370F202380874F6120560E4F508F565
:105523000978081209F090279BE49375F013A424DB
:1055330002FCE5F01256531218447402120A1EE9D3
:10554300FE6003120CAAEEF902384C74F6120560E1
:1055530074FE120A99851882851983E4F0A3125AFE
:10556300B985820885830978081209F075080275E0
:10557300090078081209F0125D4F120A1E0238471B
:1055830074F512056074EB120A99851882851983E4
:10559300E4F0A3F090032AE0FEA3E0807D8E828FE7
:1055A30083A3A3E0C0E07402120C7FD0E012565B29
:1055B300A982AA8389088A09750A0078081209EC66
:1055C3007C127D007406120C7F123ED5120A1E74E3
:1055D30002120C7F85820885830978081209F07509
:1055E300081375090078081209F07404120C7F126D
:1055F3003B5375F013A4F8AAF075F013E912564B58
:10560300125D57120A1E851882851983E02401F062
:10561300A3E03400124613E8FEE9FFEE4F600302F5
:1056230055A08518828519838582088583097808A2
:105633001209F075080275090078081209F0125D65
:105643004F120A1E74158027A42AF9E82402FCE9E4
:105653003400FD7A427B002212565F2212566322E7
:1056630012566722F08E828F83A3A3A322740D1296
:105673000A1E7F030207D374F412056074EB120A47
:10568300997E007F0085188285198385820885832A
:105693000978081209F07508028E0978081209F0D2
:1056A3007C007D007A42125E2F120A1EE970748E0E
:1056B30008805E7402120C7F85820A85830B780A48
:1056C3001209F0750A13750B00780A1209F0E50840
:1056D30075F013A4F8AAF075F013E50912564B12EE
:1056E3005E31120A1EE9701E7403120C7FAA82AB8C
:1056F300837402120C7FE0F9121778E97008EE2424
:10570300010EEF3400FFE5082401F508E509125CFA
:105713006C851882851983124FC8C3E50898E5097B
:10572300994090EEFAEFFB741502297474F6120592
:10573300608C828D83A3A312592DF0EA2417F5827E
:10574300EB12645DC0E0EC125C85ED122AF8D0E048
:10575300F0EA241DF582EB122AF8124FC8EC12610D
:10576300EDED122AF812592DA3F0A3F01261ECEB20
:10577300122AF812591FA3A3A3A3A3A3EEF0A3EF26
:10578300124D48FE8C828D8312594C74035EFEC306
:105793009403400FEC240D123CEBEC2410123CEB71
:1057A300025907EE600574026E70748C828D83E07B
:1057B300540CFE740C6E70030258A4E0A2E4400D76
:1057C30088828983E08C828D83A312597674086E54
:1057D30060030258A4EC125281ED123940F08A8220
:1057E3008B83A3A3A3125A7770148C828D83E04416
:1057F3000C12593BA3A312591FEEF0A3EFF08C82B6
:105803008D83E0A2E4401812590A12595912591310
:10581300A3A31259598C828D83A3A3A312594C8835
:10582300828983E0C0E0EC125C48ED122AF8D0E0F4
:1058330012594C8C828D83E0A2E7507C8882898345
:10584300E0FE8C828D8312597674FC5E60030257EE
:10585300978C828D83A3E0540364037003025797EC
:105863008C828D83A3E05403605188828983E0C0D6
:10587300E0EC2413F582ED122AF8D0E01259778C6C
:10588300828D83E054036402703188828983E0C08F
:10589300E0EC2414F582ED122AF8D0E01259778057
:1058A3001AEC240C123CEB740C6E60030257E112E9
:1058B300590A125964025801A3E4F0EC125C4FED4B
:1058C300123EE8EC2410FEED3400FFEA241DF582BD
:1058D300EB12645DF5088E828F83E0C3982508F58B
:1058E30008F0EA2417F8EB1238D0C39508C0E0ECAF
:1058F3001261EDED122AF8D0E0124D48C39508501D
:105903000302579702384C88828983E01259132285
:10591300F508A3E0FFE5088C828D8322E0FEA3E077
:10592300FF8C828D83A3A3A3A322E412593222F016
:105933008C828D83A3A3A322125943A3A3A3A322DF
:10594300F08A828B83A3A3A322125954A882A9832A
:1059530022123E5BA322A3A312596488828983E0A7
:1059630022A3A3A3A3F0A3EFF0E824020808E934D9
:1059730000F922A312595408A9832274F512056071
:1059830074F3120A998A088B09ECFEEDFF8E828F5D
:1059930083E0540CF50AE0A2E75006E50AD2E7F5E6
:1059A3000AE50AD2E1F50A125A797006E50AD2E449
:1059B300F50AE0A2E55006E50AD2E5F50A7C087D82
:1059C300007900851882851983AA82AB8312170692
:1059D3007402120C7FE50A125AACE0C0E0740312A1
:1059E3000C7FD0E0125AB91236697405120C7F127B
:1059F3003D21120C7FE070797408120C7FE02412B1
:105A03001238A012427FC0E07408120C7F125A941D
:105A1300D0E0125ACCC0E07408120C7F123660D06A
:105A2300E0F07408120C7F124790125A9B123D4902
:105A3300125A7F1242A0EE241112645AC0E0E824E5
:105A43002EF582E9122AF8D0E0F0EE241412645AFB
:105A5300C0E07408120C7FE024311238A0D0E012A9
:105A63005AB1C0E07408120C7F125A8DD0E0125A5A
:105A7300C5025670A3A3E05403640122FAA3E0FB1A
:105A8300E82428F582E91244DB22E024301238A40A
:105A930022E024221238A4221244A0E82426F5820C
:105AA300E91244DBEAF0A3EB22124625A322F0EE2F
:105AB3002413124D5522125ABD22F08518828519DE
:105AC3008322123EB11221EC2212565FE02274F7B8
:105AD3001205607E008A828B83A3A3A3A3A3A3A33F
:105AE300A3A3E06402607B123D0812645D7073122D
:105AF30042FC122AF81242CA606888828983E05401
:105B030003705FA3A3A3A3A3125B68E06A7003A35C
:105B1300E06B704E88828983125B68A3A3E0FFA3C6
