:020000040000FA
:06000000020C480202336D
:03002B000209E1E6
:030033000204477D
:0300530002012681
:03005B000202603E
:030063000202BADC
:03006B000203D7B6
:03007B000204126A
:1000830002017C010101FF01050301FE12FE12FEC4
:1000930012FE12B411AE11FE1237250000000099B2
:1000A30025000000000C0000000C0001010000E02E
:1000B300150000000000009A160000000000000078
:1000C300000000FFFF0101009B0E000000401FEC39
:1000D3000E401F6400E803B801020A00C8180305B4
:1000E300023C01010D1E020564020A0A03B80B0259
:1000F300803E01020101FFFF020A1401E0FF00003C
:1001030000000000000000000096511800020206E3
:1001130012490103030507090B0D0F020204060828
:100123000A0C0DC0E074F2120637A2AFE433F508EF
:10013300D2AFE5A7FEE5A1FFEF5E54106006121DE6
:10014300C675A1EFEF5E54086008121DCC75A1F7C8
:100153008019EEA2E0C0D0EFA2E092F0120B851559
:100163008182F05006121E8C75A1FE751A00E508F7
:10017300A2E092AF7F01020696C0E074F212063746
:10018300A2AFE433FFD2AF900F7AE070639061A423
:10019300E0FE759B00E5915E540860087591F712C7
:1001A3001E20802DE5915E541060087591EF121E9C
:1001B30026801EEEA2E0C0D0E591A2E092F0120BE1
:1001C30085158182F0500A9061A4E0C2E0F0121F0D
:1001D300829061A3E0FEE5E95E5404600E121F58AD
:1001E30075E9FB906193E0A2E640F2751A00803650
:1001F300A2AFE433F508C2AFE5E9A2E650209010C0
:10020300E3E0F8A3E0F9E849600E9010E3E0F8A317
:10021300E0F5838882122347759B0053E9BFA2AFA1
:10022300E433F508D2AFEFA2E092AF7F0102069666
:10023300C0E074F2120637A2AFE433FFD2AF90618D
:10024300A5E0FEE5BF5E5404600675BFFB121F9A6E
:10025300751A00EFA2E092AF7F01020696C0E0C0DC
:10026300D0E8C0E0E9C0E0C082C083E5EAC0E09026
:100273000DD4E024B2F8A3E0340AF988828983D04C
:10028300E0F0900DD2E0F8A3E0F9900AB0E8F0A313
:10029300E9F0900DD27400F0A37400F0900DD4E057
:1002A3002401F0A3E03400F0D083D082D0E0F9D071
:1002B300E0F8D0D0D0E032C0E0C0D0E8C0E0E9C080
:1002C300E0C082C083900DDCE0600E900DD2E0248C
:1002D30001F0A3E03400F08052900DD2E06402708C
:1002E30004A3E064007013900DD4E024B2F8A3E0FB
:1002F300340AF988828983E0F5ED900DD2E0640138
:100303007004A3E06400700375ED4F900DD2E0F824
:10031300A3E0F9E8497008900DDA7401F0800C90BD
:100323000DD2E024FFF0A3E034FFF0D083D082D0DD
:10033300E0F9D0E0F8D0D0D0E032C3E498F8E49903
:10034300F912037E8026C3E49AFAE49BFBE920E7D3
:10035300E912037EE498F8E499F922C3E498F8E4F7
:1003630099F912037EE498F8E499F9C3E49AFAE45C
:100373009BFB22EB20E7CFE920E7E0B90010BB00AD
:1003830008E88AF084F8AAF022E4FBC8FA22EB70AA
:10039300227B10C833C8C933C9335007C39AC3DBA0
:1003A300F280069A50012ADBEAC833F4C8C933F451
:1003B300C9FA2275F008E4C833C8C933C933C99AE6
:1003C300C99B5004C92AC93BD5F0ECFBC833F4C818
:1003D300E4C9FA22C0E074F21206377E00A2AFE449
:1003E30033FFD2AFE589A2E45016E5AB5410FE7497
:1003F300106E700C12159E758900900E227420F0F9
:10040300C2C5751A00EFA2E092AF7F01020696C043
:10041300E074F21206377E00A2AFE433FFD2AFE5F9
:100423008AA2E2500E12159E538AFB900E2274800C
:10043300F08002E58AC2EB751A00EFA2E092AF7F6B
:1004430001020696C0E074F2120637A2AFE433FE4F
:10045300D2AFE58BA2E0500312159E758B00C2E864
:10046300751A00EEA2E092AF7F0102069608080813
:10047300EAC0E0EBC0E086F0E7A4FA180986F0E7EB
:10048300A42AFA180986F0E7A42AFA180986F0E7DD
:10049300A42AFA1986F0E7A4FBE5F02AFA190886DC
:1004A300F0E7A42BFBE5F03AFA190886F0E7A42B52
:1004B300FBE5F03AFA18180986F0E7A4C5F02BFB20
:1004C300E43AFA1908E7C5F0C6A426F6E5F03BFBC3
:1004D300E43AFA1886F0E7A4F6E5F00826F6E43BDA
:1004E30008F6E43A08F6D0E0FBD0E0FA22E4CFC005
:1004F300E0E4CEC0E0E4CDC0E0E4CCC0E075F020A1
:10050300C3E633F608E633F608E633F608E633F6D1
:10051300181818EC33FCED33FDEE33FEEF33FFC355
:10052300EC9709ED9709EE9709EF97191919400F01
:10053300FFEC97FC09ED97FD09EE97FE191906D517
:10054300F0BEECF709EDF709EEF709EFF719191902
:10055300D0E0FCD0E0FDD0E0FED0E0FF222518C5BE
:1005630082C0E0E51934FFC583C0E0E518C3958276
:1005730024F810AF088583198582188008858319AC
:10058300858218D2AFCEF0A3E520F0A37808E60861
:10059300F0A3DEFAEFF0A3E58124FAF8E608F0A36E
:1005A300E608F0A3E608F0A30808E608F0A3E608C7
:1005B300F0A315811581D0E0FED0E0F815811581F7
:1005C3001581E8C0E0EEC0E022120CAAB9000302D4
:1005D3000621E4900301788A79138002F0A3D8FC02
:1005E300D9FA781A9000867A01BA00028007E49358
:1005F300A3F608DAF990158AAA82AB83900087786C
:10060300A079018015E493A3AC82AD838A828B83A6
:10061300F0A3AA82AB838C828D83D8E9D9E7758254
:100623000D7583D57404120A007582427583237491
:1006330000120A00C0D02518C582C0E0E51934FFB6
:10064300C583C0E0E518C3958224F310AF08858302
:10065300198582188008858319858218D2AFC8F05E
:10066300A3E9F0A3EAF0A3EBF0A37908E709F0A369
:10067300D8FAECF0A3EDF0A3EEF0A3EFF0A3D0E0F3
:10068300F0A3D0E0F0A3D0E0F0A3E520F0A3E5F0E1
:10069300F0A322851983851882E0C0E0A3E0F9A3C3
:1006A300E0FAA3E0FBA37808E0F608A3DFFAE0FC96
:1006B300A3E0FDA3E0FEA3E0FFA3E0C0E0A3E0C04E
:1006C300E0A3E0F5D0A3E0F520A3E0A3F5F010AF9D
:1006D300088583198582188008858319858218D235
:1006E300AFD082D083D0E0F8D0E032080075F010AC
:1006F3008E218F22858226858325851882851983FD
:10070300E0CEA3E0CF852682852583EBC9EAC8ED39
:10071300CBECCAC3E833C8E933C9EA33CAEB33CBFA
:10072300C3EA9EF524EB9FF523B35004AB23AA241D
:10073300EC33CCED33CDD5F0DAAE21AF2222D0832A
:10074300D082ECC0E0EDC0E0E493A3FCE493A3FD0E
:10075300ED4C600D120819EC24FFFCED34FFFD8015
:10076300EFE493A3FCE493A3FDED4C600D1208ECBE
:10077300EC24FFFCED34FFFD80EFD0E0FDD0E0FC86
:10078300E493A3C0E0E493C0E022D083D082E9C025
:10079300E0E493A3C386F0C5F095F0F908E493A3CE
:1007A30086F0C5F095F0700BE493A3C3994005E977
:1007B300048002A3E475F002A42582F582E5F035F6
:1007C30083F583D0E0F9E493A3C0E0E493C0E0228F
:1007D300851983851882E0A3FEE0A3F5207808E05D
:1007E300A3F608DFFAE0A3FFE0A3C0E0E0A3C0E0C4
:1007F300E0A3C0E0E0A3C0E0E0A3C0E010AF088541
:1008030082188583198008858218858319D2AFD011
:1008130083D082020A06C0E0C3E49396087401936E
:100823009618400FE4936670080874019366187075
:10083300007019A3A3C3E49396087401939618A3B5
:10084300A3400DD0E0D0E0D0E002077DA3A3A3A393
:10085300A3A3D0E022D083D082C5F0E493A3C5F054
:10086300C395F0F5F0E493A3C395F04005E5F004D8
:100873008001E475F002A42582F582E5F03583F565
:1008830083E493A3C0E0E493C0E02274048004747F
:10089300028000CCC0E0EDC0E0E518C39CCCAD19EC
:1008A30050011D10AF068C188D1980068C188D19F8
:1008B300D2AF120963D0E0FDD0E0FC2274028000C5
:1008C300CCC0E0EDC0E0E518C39CCCAD1950011DD0
:1008D30010AF068C188D1980068C188D19D2AF12A3
:1008E3000941D0E0FDD0E0FC22C0E0C0F088F0E494
:1008F300936670080874019366187000A8F0A3A3A8
:10090300700BD0F0D0E0D0E0D0E002077DA3A3D0FD
:10091300F0D0E022D083D082CCC0E0E493A3600681
:100923001209C21470FAE493A36006120AB9147090
:10093300FAD0E0FCE493A3C0E0E493C0E022CAC091
:10094300E0E493A3C582CCC582C583CDC583F0A360
:10095300C582CCC582C583CDC583DAE5D0E0CA2282
:10096300CAC0E0E0A3C582CCC582C583CDC583F0F0
:10097300A3C582CCC582C583CDC583DAE6D0E0CAE0
:10098300227009080808226016181818C6C333C64F
:1009930008C633C608C633C608C633C6D5E0EA223E
:1009A300C008C3E096F50808A3E096420808A3E050
:1009B30096420808A3E09645087001D3D00822C0E8
:1009C300E0E493A3D39C5010E493A3C39C400AD0C8
:1009D300E0D0E0D0E0020934A3A3A3D0E022C0E03A
:1009E300C0D0E8C0E0A2AFE433F8D2AFC2C7751AF3
:1009F30000A2E092AFD0E0F8D0D0D0E032C09FF5B3
:100A03009FE473D09F22D083D082C09FE493C0E041
:100A1300740193C0E0740293F59F227404800A74F6
:100A2300038006740280027401C0E0F404120A39E0
:100A3300D0E0120C85222518F58210AF08F5184076
:100A43000215198008F51840021519D2AF851983CC
:100A530022BB0102E722C082C08389828A83BB0052
:100A630003E08002E493D083D08222C0D025181003
:100A7300AF08F518500205198008F518500205193A
:100A8300D2AFD0D0226016080808C6C313C618C652
:100A930013C618C613C618C613C6D5E0EA22C3E0A8
:100AA300C696F608A3E0C696F608A3E0C696F6082F
:100AB300A3E0C696F622C0E0E493A36C7009D0E0ED
:100AC300D0E0D0E0020934A3A3D0E022251810AF70
:100AD30008F518400215198008F51840021519D2B7
:100AE300AF22E76670100809E766700A0809E7662F
:100AF30070040809E76622C3E09608A3E09608A3FA
:100B0300E09608A3E096A2D265D03322E066701087
:100B130008A3E066700A08A3E066700408A3E06611
:100B230022C3E697F60809E697F60809E697F6085A
:100B330009E697F622C3E096F008A3E096F008A32F
:100B4300E096F008A3E096F022E627F60809E637D8
:100B5300F60809E637F60809E637F622E026F6082E
:100B6300A3E036F608A3E036F608A3E036F622E063
:100B730026F008A3E036F008A3E036F008A3E03639
:100B8300F022C0E0E8C0E0E58124FCF8E6A2E7D06B
:100B9300E0F8D0E022700422600D18C6C333C60803
:100BA300C633C6D5E0F41822E657F60809E657F629
:100BB3000809E657F60809E657F622E056F608A3B1
:100BC300E056F608A3E056F608A3E056F622E056F0
:100BD300F008A3E056F008A3E056F008A3E056F0AF
:100BE30022E647F60809E647F60809E647F6080944
:100BF300E647F622E4C396F608E496F608E496F68A
:100C030008E496F622C3E7960809E7960809E796EB
:100C13000809E79622C6F4C608C6F4C608C6F4C691
:100C230008C6F4C622600D08C6A2E713C618C61389
:100C3300C6D5E0F322C3E09608A3E09608A3E096A6
:100C430008A3E0962275D0007581407518017519C7
:100C530003000205CCE0F608A3E0F608A3E0F608DB
:100C6300A3E0F622600C08C6C313C618C613C6D584
:100C7300E0F422E6F008A3E6F008A3E6F008A3E612
:100C8300F022CAC0E0E6F0A308DAFAD0E0FA22E0E4
:100C9300FAA3E0FBA3E0FCA3E0FD22EAF0A3EBF060
:100CA300A3ECF0A3EDF022E5C754F84401F5C779AE
:100CB30001222518F582E43519F58322C2AF75D6D2
:100CC3009F02000022120A09E05400120A09345557
:100CD30000120A09505500120A09845500120A0924
:100CE300B95500120A09B05600120A0965570012D5
:100CF3000A09B45900120A09075B00120A09AA5B20
:100D030000120A09375C00120A09E45C00120A099E
:100D1300185D00120A09935D00120A096D5E001244
:100D23000A092B5F00120A09435F00120A09DA5FFE
:100D330000120A094B6200120A09516400120A09DF
:100D43006F6400120A0934A302120A0969A302128A
:100D53000A098FA302120A09C9A302120A09DBA313
:100D630002120A092DA402120A098EA402120A0908
:100D730018A502120A09BCA502120A0904A6021246
:100D83000A093EA602120A095BA602120A0980A6F4
:100D930002120A09D2A602120A09EBA602120A09D2
:100DA30011A702120A094CA702120A0990A70212FC
:100DB3000A09B7A702120A0908A802120A09B8A861
:100DC30002120A0970A902120A0938AA02120A09B0
:100DD300FBAA02120A0958AB02120A09DEAB02127D
:100DE3000A09EDAB02120A09F8AB02120A091EAD99
:100DF30002120A092FAD02120A09A5AD02120A094D
:100E030037AE02120A098FAE02120A0955AF021257
:100E13000A097CAF02120A099AAF02120A09EDAF5E
:100E230002120A0932B002120A093FB002120A0979
:100E3300D3B102120A0938B302120A0954B40212D6
:100E43000A09BEB602120A09C9B602120A09D3B6C2
:100E530002120A09DEB602120A09E8B602120A09E8
:100E6300F2B602120A09FDB602120A0908B7021203
:100E73000A0939B702120A095DB702120A0981B7D2
:100E830002120A09E6B702120A092AB802120A096B
:100E930046B802120A09BDB802120A09F5B80212CD
:100EA3000A0941B902120A099EB902120A0980BB52
:100EB30002120A0906BC02120A09DFBC02120A095D
:100EC300EFBF02120A0944C002120A0971C00212DA
:100ED3000A09BDC102120A090DC202120A0962C23D
:100EE30002120A0963C302120A09FBC302120A09A6
:100EF3007DC402120A091DC502120A09E380011208
:100F03000A091C8101120A09F68201120A093583B2
:100F130001120A097F8301120A09248401120A09B2
:100F2300838401120A09B78401120A092485011274
:100F33000A09418601120A09498701120A09DF8752
:100F430001120A09268B01120A09CF8B01120A0921
:100F5300AB8C01120A090C8D01120A09298E0112A8
:100F63000A09539001120A090A9101120A091491FC
:100F730001120A09479101120A090E9201120A0984
:100F8300A99201120A090E9301120A093793011259
:100F93000A09599301120A09889501120A095F96F1
:100FA30001120A09A39601120A09109701120A09EC
:100FB300CB9701120A09FD9701120A094198011200
:100FC3000A09779801120A09CC9801120A09219992
:100FD30001120A09B59901120A09179A01120A099D
:100FE3007F9A01120A09289C01120A09109D011215
:100FF3000A09529E01120A0980A001120A0940A19E
:1010030001120A096FA301120A0912A401120A09A3
:1010130050A401120A09FCA501120A0910A6011223
:101023000A091AA601120A0944A601120A0950A6BE
:1010330001120A096FA601120A0926A701120A0959
:1010430065A701120A096FA701120A0979A70112FC
:101053000A09C4A701120A0927A801120A092EA91D
:1010630001120A09E9A901120A09E8AA01120A09E7
:10107300E1AB01120A097EAC01120A0920AD01128B
:101083000A0937AD01120A096EAD01120A098CADC6
:1010930001120A09D0AD01120A09F5AD01120A09BC
:1010A300DBAE01120A0947AF01120A09C1AF0112EF
:1010B3000A09D0B001120A090FB201120A09EDB2EE
:1010C30001120A094FB301120A0909B401120A09EC
:1010D3002CB401120A0900B501120A094BB5011219
:1010E3000A098DB501120A09E4B501120A091BB6F2
:1010F30001120A0949B601120A0982B601120A0944
:10110300A7B601120A092FB701120A0952B901122F
:101113000A09B1B901120A0945BA01120A09B1BA99
:1011230001120A0905BB01120A093FBB01120A0990
:10113300008004120A09388004120A095980041233
:101143000A099B8004120A09018104120A090B810E
:1011530004120A091B8104120A09508104120A09A4
:10116300998404120A09438604120A094388041263
:101173000A09A1BC01120A09FBBC01120A0957BDE5
:1011830001120A09A3BD01120A09BEBD01120A090F
:10119300EFBD01120A090CBE01120A0918BE0112A1
:1011A3000A098CBF01120A09A5BF01120A090CC062
:1011B30001120A091FC001120A092DC001120A09EE
:1011C300E1C001120A09C5C101120A09CBC2011209
:1011D3000A0951C301120A095BC301120A09C8C3F0
:1011E30001120A09DFC301120A0911C401120A0913
:1011F3004AC401120A0974C401120A09D5C40112AE
:101203000A09F5C401120A0913C501120A0959C5CD
:1012130001120A097FC601120A09CCC601120A0982
:10122300FBC601120A0971C701120A0999C7011203
:101233000A09D2C701120A09E0C701120A0938C80C
:1012430001120A0987C801120A09C6C801120A094C
:10125300F6C801120A0922C901120A092DC901128D
:101263000A094BC901120A090DCA01120A0917CA50
:1012730001120A0952CA01120A0968CA01120A09AB
:1012830071CA01120A09C6CA01120A09DACA01128D
:101293000A09E8CB01120A09FBCB01120A0912CC95
:1012A30001120A0927CC01120A09C9CC01120A0941
:1012B3004CCD01120A090ACE01120A0915CE0112F8
:1012C3000A093BCF01120A0957CF01120A09A9CF14
:1012D30001120A09E8CF01120A09FDCF01120A0916
:1012E3003FD001120A098CD201120A090AD3011252
:1012F3000A097DD301120A099FD501120A09B7D53C
:1013030001120A09BAD501120A09C6D501120A093E
:10131300DAD501120A09E2D501120A0915D601121A
:101323000A09C5D601120A093BD701120A09AED729
:1013330001120A0962D801120A0917D901120A090E
:1013430036D901120A09D6D901120A09E2D90112C2
:101353000A090DDA01120A0910DA01120A093FDA41
:1013630001120A0954DA01120A09BEDA01120A0942
:10137300E6DB01120A09BEDC01120A0949DD01128A
:101383000A0962DE01120A091FDF01120A0958DF86
:1013930001120A0989DF01120A0929E001120A0967
:1013A30059E001120A0934E101120A09CDE10112DF
:1013B3000A0958E201120A0909E301120A098BE337
:1013C30001120A09BDE301120A09FEE301120A0927
:1013D30033E401120A09C4C903120A0946CA0312F3
:1013E3000A0986CA03120A09FFCA03120A09D9CDD8
:1013F30003120A0969D003120A0935D403120A0930
:101403006DD403120A099BD403120A092DD50312C2
:101413000A0981D503120A09B4D503120A09DDD5D5
:1014230003120A0927D603120A09A8D603120A09C6
:101433005DA903120A09E7A903120A095CAA0312A8
:101443000A09DEAA03120A09BCAD03120A09DFADB9
:1014530003120A0938AE03120A0936AF03120A0946
:10146300A0AF03120A0973B103120A09DBB2031214
:101473000A0962B303120A09F0B303120A0959B441
:1014830003120A09A7B403120A0967B503120A096A
:1014930090B603120A090DB703120A0973B70312B0
:1014A3000A09B6B703120A095CB803120A093DB95F
:1014B30003120A0946FB01120A0949FD01120A092E
:1014C30059FE01120A09F58804120A091089041247
:1014D3000A092D8904120A095C8D04120A09FA8F7C
:1014E30004120A09589004120A09739004120A0993
:1014F300979004120A09E29004120A0991F8031260
:101503000A09ABF803120A0906FB03120A098DFB49
:1015130003120A092AFC03120A091DFD03120A0910
:1015230075FD03120A09F3FD03120A0961FE031292
:101533000A0969FE03120A0981FE03120A09ECFE75
:1015430003120A0940FF03120A09CCE203120A0933
:101553002CE303120A09B3E403120A0930E5031268
:101563000A09FAEB03120A0971EC03120A09CDEC1A
:1015730003120A0933ED03120A0983ED03120A0960
:1015830031EE03120A0998E204120A09CBE20412AB
:101593000A092DE304120A0932E304120A0902E4D8
:1015A30004120A0943E404120A0946E404120A096C
:1015B300B6E004120A09C7E004120A0947E104125B
:1015C3000A098FE104120A097BE204120A09E1EC19
:1015D30004120A09A5DE04120A0984E004120A09A6
:1015E300E0B903120A09C8BA03120A09EFBA0312CF
:1015F3000A0933BB03120A0951BB03120A09CFBB01
:1016030003120A0907BC03120A093FBE03120A099F
:1016130034BF03120A094FC003120A09E1C00312BF
:101623000A0966C103120A091EC203120A09BAC2D1
:1016330003120A0909C303120A09DAC303120A09C6
:10164300D5C403120A097BC503120A09A6C70312EC
:101653000A09D9C803120A093AC903120A0994C923
:1016630003120A0916DA04120A0939DA04120A09FA
:1016730033DB04120A09DCDB04120A0920DC04123E
:101683000A097AF204120A09EEF204120A09FEF2B6
:1016930004120A0991E401120A0994E401120A09E5
:1016A300E3E501120A0957E601120A09E5E6011208
:1016B3000A09A2E701120A095FE801120A092CE9E3
:1016C30001120A09E9E901120A090AEC01120A09DD
:1016D300C7EC01120A0984ED01120A0918EE01127E
:1016E3000A0923EF01120A0996EF01120A09D8F138
:1016F30001120A093FF301120A09A6F401120A09A9
:1017030001F501120A0998F501120A097BF6011283
:101713000A09ADF601120A09A9F901120A094AFADE
:1017230001120A09C8FA01120A098CEE03120A0906
:10173300E4EE03120A098CEF03120A09BBEF03124A
:101743000A09E0EF03120A0904F103120A09CC475C
:1017530000120A0976F103120A09B4F103120A0905
:1017630037F203120A09DEF203120A092DF30312F8
:101773000A09AEF303120A091CF403120A09A5F4B9
:1017830003120A0936F503120A098BF503120A0933
:10179300E8F503120A09FAF503120A090CF6031213
:1017A3000A0932F603120A093BF603120A0998548E
:1017B30000120A0925F803120A09FF9704120A09FD
:1017C300229904120A097E9904120A0998990412AB
:1017D3000A09A99904120A09A49C04120A09C49CBF
:1017E30004120A096DD204120A09B2D204120A09B8
:1017F300FDD204120A098ED404120A09F7E2021276
:101803000A09C1E402120A0916E502120A0997E756
:1018130002120A09FCE702120A0908EB02120A097A
:101823006EEB02120A09AEED02120A09A7EE0212CA
:101833000A0914EF02120A09A7EF02120A0956F065
:1018430002120A09B1F002120A0912F102120A097C
:1018530073F102120A095CF302120A094EF502122D
:101863000A093AF802120A097CF802120A09DFF897
:1018730002120A09F1F802120A0966F902120A09A8
:1018830022FA02120A095FFE02120A092AFF021251
:101893000A09A7F304120A09C2F304120A09D2F3CC
:1018A30004120A096FFF03120A0953B004120A094A
:1018B3006AB004120A095AB104120A09A2B1041245
:1018C3000A09C0B104120A0902B204120A0959B280
:1018D30004120A099DB204120A09EDB204120A099C
:1018E300C5B404120A0918B504120A0919F004123E
:1018F3000A0941F004120A0960F004120A0980F08F
:1019030004120A09DAF004120A09FFF004120A09A0
:10191300A06400120A09056500120A097C65001219
:101923000A09D66600120A09686700120A093468B0
:1019330000120A094D6800120A09AF6800120A0969
:10194300FE6800120A09166900120A097669001274
:101953000A09006A00120A09196A00120A09C36C0B
:1019630000120A09676D00120A09A66D00120A091E
:10197300076E00120A092E7000120A09AB700012DA
:101983000A09457100120A09647100120A097C717F
:1019930000120A09D27100120A09177200120A0909
:1019A3002E7200120A09C57200120A09E5720012AA
:1019B3000A09457300120A09B67300120A0918745A
:1019C30000120A095D7700120A09F07700120A096A
:1019D3004C7800120A091A7900120A094379001295
:1019E3000A09467900120A09697900120A09FF797E
:1019F30000120A09317A00120A09547A00120A09FC
:101A0300897A00120A09D17A00120A09ED7A0012C2
:101A13000A092D7B00120A096E7B00120A09ACEB3E
:101A230004120A09BDEB04120A093CEC04120A0968
:101A3300008003120A09238003120A09408003125B
:101A43000A09328103120A09B18103120A091F82AA
:101A530003120A09B58203120A096E8303120A09E3
:101A6300278403120A09208503120A09EC8503124D
:101A73000A09578603120A09138D03120A094F8FA5
:101A830003120A099E8F03120A092E9003120A09F0
:101A9300319103120A09C39203120A09DC93031258
:101AA3000A09D0C502120A09B9C602120A0959C79E
:101AB30002120A09BCC702120A097DC802120A09E6
:101AC3002EC902120A09A9CB02120A091ECC02125C
:101AD3000A0914CD02120A09AACD02120A0962CE1A
:101AE30002120A0963D002120A096ED202120A090B
:101AF30062D302120A09C5D602120A09E4D70212F6
:101B03000A09D4D802120A098DD902120A0932DA53
:101B130002120A09BEDC02120A094CDE02120A0989
:101B23009EDE02120A0962DF02120A090FE00212A4
:101B33000A0936E102120A098B9503120A092E9645
:101B430003120A09C19603120A093C9703120A09F0
:101B53009F9703120A09699803120A098C990312C1
:101B63000A09369A03120A098B9A03120A09FC9A84
:101B730003120A09BB9B03120A09D09B03120A0929
:101B8300109C03120A09309C03120A093F9C03129A
:101B93000A09509C03120A092D9D03120A094A9E41
:101BA30003120A09689E03120A096D9E03120A09A9
:101BB300DC9E03120A0909A003120A094FA10312AA
:101BC3000A090AA303120A0948A403120A095CA515
:101BD30003120A09BCA503120A09D8A503120A09AC
:101BE30040A703120A099EA803120A097BB904122B
:101BF3000A09F9B904120A0937BA04120A09FFBA21
:101C030004120A0975BB04120A0916BC04120A0954
:101C130021BD04120A0930D504120A09A8D50412F9
:101C23000A09C5D504120A09A6D704120A09B17B09
:101C330000120A096B7C00120A09D87C00120A09F7
:101C43001A7E00120A09A37E00120A093E7F0012BF
:101C53000A094E7F00120A09CD7F00120A09E17FAB
:101C630000120A0912F404120A0948F404120A09B8
:101C730014EE04120A0925EE04120A0900EF0412F5
:101C83000A098CF504120A09DFFF01120A091AEF87
:101C930004120A092AEF04120A0944EF04120A097A
:101CA30013F004120A0993CF04120A0936D004125E
:101CB3000A0952D204120A0929B504120A093AB5CB
:101CC30004120A09CFB504120A09B2B604120A09AA
:101CD3001BB904120A09F87F00120A09A9D70412D2
:101CE3000A09EDD704120A0975D904120A0913DA8D
:101CF30004120A09A3FF02120A09A8FF02120A0921
:101D0300ADFF02120A09E3FF02120A091FAB041214
:101D13000A0940AB04120A0997AB04120A09CAABB9
:101D230004120A09E0AB04120A0972AC04120A098C
:101D330007AD04120A095BAD04120A0911B00412BB
:101D43000A0932B004120A092D9104120A09959165
:101D530004120A09B89204120A09089304120A0920
:101D6300349304120A094D9304120A096B93041263
:101D73000A091E9404120A09379504120A09F695F2
:101D830004120A09F19604120A09579704120A0960
:101D9300AB9704120A0954E404120A097DE40412FD
:101DA3000A0991E404120A09D9E404120A0922E592
:101DB30004120A096BE504120A097CE504120A09F4
:101DC300DBE504120A09DEE504120A09ECE5041254
:101DD3000A09FDE504120A09C7C504120A0901C666
:101DE30004120A096BC604120A09A7C604120A09D7
:101DF300EEC604120A0920C704120A095BC70412BB
:101E03000A0985C704120A09ABC704120A090FC8D5
:101E130004120A093DC804120A09D0C804120A09A7
:101E2300E8C804120A09FDC804120A090EF50412CF
:101E33000A092BF504120A09759E04120A0914A053
:101E430004120A0921A004120A094EA004120A0965
:101E53007FA004120A09D8A004120A092EA10412B1
:101E63000A09C1A104120A0944A204120A09D3A24D
:101E730004120A0929A304120A0964A304120A0911
:101E830057A404120A096BA404120A097EA40412BB
:101E93000A09A0A404120A09C6F104120A09F3F1FB
:101EA30004120A0920F204120A094DF204120A0963
:101EB30035C904120A095CC904120A0987C9041244
:101EC3000A092CCA04120A098DCC04120A09B0CCDF
:101ED30004120A09C2CC04120A09D0CC04120A095A
:101EE300F9CC04120A0914CD04120A092FCD0412E5
:101EF3000A094ACD04120A09C3CD04120A0904CE01
:101F030004120A0939CE04120A098ACE04120A09F4
:101F1300DFCE04120A090CCF04120A091ACF0412E5
:101F23000A0932CF04120A0980CF04120A0928F3DE
:101F330004120A0995F304120A090CD703120A09B9
:101F430055D703120A097ED703120A0997D703123A
:101F53000A09B7D703120A091FD803120A0959D865
:101F630003120A098CDD03120A0947DF03120A0967
:101F730089DF03120A09F3DF03120A0966E1031278
:101F83000A0996E103120A09B0E103120A09C4E13E
:101F930003120A0914E203120A097DE203120A0971
:101FA30092E203120A0981E704120A0998E704126C
:101FB3000A09BFE704120A09E3E704120A090EE853
:101FC30004120A093CE804120A095BE804120A092C
:101FD30090E804120A09B6E804120A090DF1041282
:101FE3000A0958F104120A09C6BD04120A09DDBD23
:101FF30004120A0939BF04120A096EBF04120A093E
:1020030096BF04120A09C3BF04120A09DCBF0412F3
:102013000A0919C004120A0996C004120A09DCC08D
:1020230004120A092EC104120A0961C104120A0921
:1020330087C104120A0973F404120A099BF40412F7
:102043000A09F3E804120A0905E904120A094CEA29
:1020530004120A094FEA04120A0952EA04120A098D
:102063007EEA04120A098EEA04120A09A4EA041297
:102073000A09BFEA04120A09DAEA04120A0906EB9A
:1020830004120A092AEB04120A093BEB04120A0997
:1020930044EB04120A094DEB04120A0962EB041221
:1020A3000A0977EB04120A0996EB04120A09A9EB51
:1020B30004120A097ADC04120A0965DD04120A090A
:1020C3008CDD04120A09F1DD04120A090EDE041282
:1020D3000A0947DE04120A090EE604120A09AEE6EB
:1020E30004120A090EE704120A0951E704120A0945
:1020F3007CF504120A09E6C104120A0905C2041296
:102103000A0967C204120A0995C204120A09BFC266
:1021130004120A09E3C204120A09EDC304120A09EC
:1021230004C404120A0928C404120A0958C5041273
:102133000A096CC504120A0989C504120A099BC558
:1021430004120A09D7A404120A099AAA04120A0952
:102153009FAA04120A09008002120A09A38202122A
:102163000A09218402120A093F8402120A093386EA
:1021730002120A097B8702120A09E98702120A0975
:10218300568902120A09A98902120A09C08B02128E
:102193000A092E8D02120A097B8D02120A09B18DDA
:1021A30002120A094C8E02120A09D78E02120A0978
:1021B300F48E02120A09168F02120A0964A002128F
:1021C3000A0982A002120A099CA002120A0979A232
:1021D30002120A09C8F404120A094FF504120A0983
:1021E300534700120A09FA4600120A098E460012E2
:1021F3000A09654600120A090B4600120A09294515
:1022030000120A096C4300120A09384300120A0932
:10221300054300120A09E94200120A09F2410012B9
:102223000A09AA4100120A09DF3F00120A095F3FA7
:1022330000120A09453F00120A09C43E00120A09A6
:10224300843D00120A09E63C00120A09B43C00125C
:102253000A09F13B00120A091C3A00120A09AD39B6
:1022630000120A097F3900120A09D65300120A091B
:10227300495300120A093C5300120A094A5000123A
:102283000A099C4D00120A097C3900120A096939AE
:1022930000120A09013900120A09E83800120A0972
:1022A3006C4C00120A09B23700120A097C3700127B
:1022B3000A093F3700120A09E03600120A09C04B27
:1022C30000120A0994F703120A09AF3600120A0929
:1022D3006A3300120A095B3200120A09EA3100125A
:1022E3000A09AF3100120A097A3100120A096E3164
:1022F30000120A09CE3000120A09153000120A0929
:10230300E82D00120A09742B00120A09322B00125D
:102313000A09FD2900120A09B22900120A09E12853
:1023230000120A09382800120A09114A00120A0980
:102333000E2800120A09D42700120A0912F1030019
:10234300000080FBE47387000100FE1524000200F7
:10235300D71525000200D91526000200DB1527003A
:102363000200DD1528000100DF1529000100E0153A
:1023730084000400E11586000100E5152A00010030
:10238300E6152B000100E7152C000100EB152D00CD
:102393000800660F2E000100EC152F000100ED155B
:1023A30030000100EE1531000100EF15320001008D
:1023B3006E0F330001006F0F34000100F01536007B
:1023C3000100700F38000100F11539000100EA1512
:1023D30083000200FC1563000100FA15640001008C
:1023E300E81565000100E9156D000100FB156E009D
:1023F3000200640F43000100F21544000200F315CC
:1024030045000100F51546000200F61547000800D7
:10241300720F48000100F8154B000100F915040084
:102423000100FF15A100010002163700010001168B
:102433008800010000163C000100710F000000003D
:102443000000000136360101000102010001030111
:10245300000104010606050200000701003408011B
:10246300000F090401010D0100FF0E08000017020F
:102473000000190100FF1A0100011B0100FE1C01ED
:1024830000081D0200001F010001200100012102BC
:1024930000002301000F2402000026010001270190
:1024A3000008280200FF2A0100072B0102402C012B
:1024B30000002D0100012E0100012F0100FF30015A
:1024C3000B1C310800003A0100083B01000F2F01EB
:1024D3000000030271023001600211027002010266
:1024E300020202028002100261023A00410063020A
:1024F30073027202620243020002130238000002F6
:10250300000204021202000200020002000204029E
:102513000402370037003C02440200023900000283
:1025230000026502000235028102000205028202F6
:10253300830200020300710030016000110070008B
:1025430031022003500480001000610000001400D9
:102553006300730072006200430000001300060072
:102563000000000004001200000000000000000052
:1025730004000400370037003C0244000000000060
:102583000000000065000000350081000000050028
:102593000000830000000103710301030103010331
:1025A30001030103220302030103100300030003D9
:1025B300000300030003000300034203000324039A
:1025C3000603000300030403120325032303250367
:1025D3002303040304030003000300034403000371
:1025E3000003230300036503210035038103000374
:1025F300050300030003000301017101010101014F
:102603001101010131010101010180011001610189
:102613003B00140063017301720162014301000175
:10262300130106013D0135000401120100010001FF
:102633000001000104010401330133013C014401A1
:1026430032013600000100016501000135008101FE
:10265300000105018201830100013600010006002B
:1026630000000F0000000000000000000000000058
:1026730003FFFF00000403FFFF0000FFFF0FF4014F
:102683000005C4040320000100040B000000000047
:1026930000000003010F0100DE1A0200541A0300B8
:1026A3005A1A0400601A0500661A0600721A11000D
:1026B3008A1A1400901A1500841AFFFF00000E12E4
:1026C3003E1214121A1238122C12261244124A12F3
:1026D30050125C1220120812021203EAF5E5D5D556
:1026E300C5B5A59595858575756565555545453577
:1026F3003525251515050A800F024A0F055C0F07BE
:10270300500F0C2C0F0D3E0FFF000000160F0000A2
:102713000B150B020002220F320000065A696742B2
:102723006565416C6C69616E63653039000000005A
:10273300000000008967452301EFCDABFE121013A3
:102743001613D8111C13D211DE116A1388138E13BA
:1027530070137C13761300034948424D181725055F
:102763000200383C3E363B3B352B432C0001191607
:10277300181616152303000C0E020B040B0A070888
:10278300000F303017181921301B1D1F3030301641
:10279300181920231A1C1E30321256128213621289
:1027A300681252132213281334132E130204020146
:1027B300010101090200BE040AE80315001E000E10
:1027C3000008040C05180908FF080F0F0400100A7D
:1027D3000C74F7120560E9FE121430EE90158BF0BD
:1027E30090030C7418F0A37423F090030E7412F08A
:1027F300A37423F0900310740CF0A37423F09003DC
:10280300127406F0A37423F0023D3974F7120560C5
:10281300E9FE900302E4F0EE900301F07C727D0F79
:102823007A037B031220EA9015F8E090030BF01271
:1028330022E2023D3974F41205608A088B09EB54D5
:1028430080605B9003011253AA604A8E828F83E0FB
:10285300640170321244C012088EEE241212649086
:10286300F50A780A120A2A1228D4120A26EE240B31
:10287300122B2B120892EE24171253BA1213E87478
:1028830009120A6E8008E06402700312222EEEFA27
:10289300EFFB121754AA08E5096480FB8030EA5461
:1028A30002600C90158A7401F0EA6402FA801FEA50
:1028B30054046005EA640480F3EA5408600C1222AD
:1028C300DCE5086408FAAB0980047A007B0002297E
:1028D300ADEE240FF50AEF3400F50B780A2274F4F9
:1028E3001205608A088B098A828B83A3A3A3E02441
:1028F30010123D45FA1245F170030229908E828F22
:10290300837402F0A3E41245DFA3A3A3A3E8F0A317
:10291300E9124262A3A3A3A3A3A3A3F0E50824039C
:10292300F8E5091239062410123BAC8E828F83A37B
:10293300A3A3A3F0EE2409FA122992123E81F58390
:102943008882E0A2E58E828F83A3A3A3A3A350046E
:1029530074018001E4F0E5082403F8888289831276
:102963005494EA125C85EB122B2E12299D120A2233
:10297300125CBAEB123F2F8E828F83A3A31244CD36
:10298300120A6EEEFAEFFB900301124643801BEF2F
:102993003400FB8E828F83A3A322E0F508A3E0F526
:1029A30009750A00780822120A6E7F040207D3749D
:1029B300F21205608A088B09ECFAEDFB740E120C17
:1029C300B5E0FC1214608A0C8B0DAE0CAF0DEE4F0C
:1029D3006023AC08AD0912144EE96019AC08AD09C7
:1029E300EEFAEFFB121454E97007EEFAEFFB121440
:1029F300487900800279B402377774EE1205607467
:102A0300F7120ACF8A0A8B0BECFEEDFF750FB37535
:102A13000E00750C00750D00800CE50C2401F50CFF
:102A2300E50D3400F50D9006EEE493F8740193F987
:102A3300C3E50C98E50D994003022B1CAA0CAB0DC2
:102A43001214AE8A088B09EA450960CE8A828B8309
:102A5300A3A3A3A3A3E0250EF50EF510C3E50A95E2
:102A630010E50B940050B37C157D007900EEFAEF6E
:102A7300FB1242C4A3A3A3A3E50AC3950EF8E0285F
:102A8300C333F8E433F9E50828F582E50939F5831A
:102A9300A3A3A3A3A3A3124A01A3123D72EAFCEBCF
:102AA300FDEEFAEF12395AA3E06401700A1244C032
:102AB30074011238698043851882851983AC82AD0D
:102AC30083850882850983125492121496E9602D36
:102AD3007408120CB5E0C0E01244C0D0E0F07408F2
:102AE300120CB5E06403851882851983700CAC82DF
:102AF300AD83EE240B1238568003123F15850882EE
:102B03008509831238F5A3A31245A9C0E0EE241466
:102B1300122B2BD0E0F0750F00A90F7409120A6E67
:102B23007F0A0207D3EE240CF582EF1245112274BB
:102B3300F7120560E9FE8A828B83A3A3A3A3A3A351
:102B4300E0540860298A828B83A3A3A3A3A3A3E0F1
:102B5300540260178A828B83A3A3A3A3A3A3A3A373
:102B6300A3E06406600574E96E70031222FA023D65
:102B73003974E812056074F7120ACF7407120CB5A2
:102B83001242D6E9851882851983F0ECFEEDFF74B5
:102B930024120CB5780C120C587513008E828F8397
:102BA30012548E8E828F83A3A3A3E0F912146C8A2E
:102BB300148B15EA45157003022D8EEE2410124B6B
:102BC3009BA914120E7E8A168B17EA45177003020F
:102BD3002D8EEE2406F510EF3400F5117C008510E0
:102BE30082F583122DD48E828F83A3A3A3E085164F
:102BF30082851783A3A3A3125014F8A3E0F98516C3
:102C030082851783A3A3A3A3E8F0A3E91233658501
:102C13001682851783A3A3A3A3A3A3A3124BBB85E8
:102C23001682851783A3A3A3A3A3A3F0EE125C8547
:102C3300EF122FEE120A22EE125CBBEF123F2F852A
:102C43001682851783A3A3A3A3A3A3A3A3A31244B9
:102C5300CD120A6E751000022D0E850A82850B8334
:102C630012549212149C850882850983A3EAF0A367
:102C7300EB1244E6A3A312429912465AE0A2E6508D
:102C83000F850882850983A3A3A3A3A3E0D2E1F060
:102C9300E5137063850882850983A3124FFE9003B1
:102CA3005BE0687003A3E069704D85088285098342
:102CB300A3A3A3124BA7780C120A1E7427120CB5F8
:102CC300E0F50A780A120A2A7426120CB512089241
:102CD30090036812089279007410120CB512424DD9
:102CE3001222047409120A6E850882850983A3A33C
:102CF300A3A3A3E04405F074012510FC8E828F8307
:102D0300A3A3A3A3A3A3122DD40510E50A450B6027
:102D130052851008C3E5089514E495155045E51050
:102D230075F006A4F8A9F0E51628F8E51739F9E8CF
:102D3300240CF508E91238CDE41244DC6401600385
:102D4300022C5D7513018508828509837401124481
:102D5300E1F8A3E0F9850882850983A3E8F0A3E9F4
:102D6300022C74AA16AB17120E847816120A267454
:102D730025120CB5E0FC7402120CB5E0F9EEFAEF83
:102D8300FB1223007402120A6E80418E828F83A38A
:102D9300A3A3E0C0E07404120CB5D0E0123365C005
:102DA300E07405120CB5D0E0F0E514451570097414
:102DB30006120CB574B980077406120CB57410F0C2
:102DC3007401120CB5AA82AB8312220A7409025C45
:102DD300C61244D68E828F83A3A3A3E0F912147282
:102DE3008A0A8B0B2274EA12056074F3120ACF8AE3
:102DF3000A8B0B89158C147423120CB5126445AA23
:102E03000CFB120E72E9F513AA0CAB0D120E78E54A
:102E1300137003022FDB750E00800F8E828F83A346
:102E2300A3A3A3A3E0D2E3F0050EE50C240BF582E4
:102E3300E50D123169E50EC3984003022FD2E51365
:102E43007003022FD2E50E75F006A4F8A9F0E50C85
:102E530028F8E50D39F9E8240CFEE9126228A3A34A
:102E6300A3A3E0A2E040C1750F007508087509002F
:102E7300E5146003750F20124281E060339003ABC9
:102E8300E064017017E50FD2E3F50F7509108E8228
:102E93008F83123EB3123D6674FF8024430F0C757B
:102EA300080C8E828F83A3122FFA125CA7A38010C3
:102EB300E5156009E50FD2E6F50F75080A1230082B
:102EC300F07402120CB5E50F125033C0E074041213
:102ED3000CB5D0E0F07405120CB5123D57120CB5C9
:102EE300E06003022FB57408120CB51238DE8E822F
:102EF3008F83A3A3A3A3F07408120CB512368BF52A
:102F030083E508F0A3E50912418BE060119003AB60
:102F1300E0C0E07408120CB5123684D0E0F0850CE2
:102F230082850D83A3A3A3E0C0E07408120CB5123D
:102F33005ACAD0E0125B02C0E07408120CB5123614
:102F430096D0E0F07408120CB5122FFAA3A3125A0C
:102F5300D112501DA3A3E0125AB5EAF0A3EB12500D
:102F630029C0E0E8242EF582E9122B2ED0E0F0747C
:102F730008120CB5125494850A82850B83122FE52F
:102F83002424F582EB123F1E125C83E50B122FEE15
:102F9300120A22123F2CEA242BF582EB122B2E125B
:102FA30044CD120A6E851882851983AA82AB8312D7
:102FB30022228E828F83A3A3A3A3A3E0D2E0F07483
:102FC3000C120CB5E06003022E1E1513022E2B7992
:102FD30000AA0CAB0D1222F4740D120A6E7F0E02BE
:102FE30007D3A3A3A3A3125002EA22124511124F3F
:102FF300DD751200781022125002850A82850B8338
:10300300A3A3A3A322A312300D22124226E8F0A306
:10301300E92274F212056074EB120ACFEAFEEBFFA9
:1030230089088E828F83A3A3A3A3A3A3A3A3E0F9F9
:10303300120E9C8A0A8B0BEA450B607FE50870042D
:103043007C0480027C088E828F83A3A3A3A3A3A303
:10305300A3A3E0F9120EA2122B28124300605C888E
:103063008289831254907406120CB51230C3125421
:10307300947408120CB51230C3A3A3E0C0E074101B
:10308300120CB5D0E0125043125494740E120CB5C6
:103093001242D67411120CB5E4124D7EF9780A125D
:1030A3000A26742059FC744059F97402120CB5AA0B
:1030B30082AB831223007402120A6E7415023774F2
:1030C300EAF0A3EB123D2FA3A3A32274F71205602A
:1030D30074FA120ACFE9FE7F018F087D0080047520
:1030E30008000D123D3E123169EDC3985025ED7570
:1030F300F006A4F8A9F0EA28F8EB39F9E8125C7EA7
:10310300E91249EA50D9540C60D5E0A2E250D37FCA
:103113000080CF8A828B83A3A3A3A3A3A3E0703EE3
:10312300E508A2E0400574016E70338A828B83A3A5
:10313300A3A3A3A3A37401125979E0C0E0740312FB
:103143000CB5D0E0125971E0C0E07404120CB5D094
:10315300E0F07405120CB5EF123EE312220A740676
:10316300023D36F582EF124D8EF822C082C083797C
:10317300011222F402383EC082C083EA4B601890E9
:1031830003A7E06402701090158AE4F0EAFCEBFDFB
:103193007A0212384B801290158A7401F07A027BFE
:1031A30000900301E0F91218CE02383EC082C083BA
:1031B300901616E075F005A4FCADF079007ACC7B8F
:1031C300141217367B008012EB75F005A4F8A9F0F2
:1031D30012335A74FEF0A304F00B901616E0F8EBCA
:1031E300C39840E402383EC082C0837C007B0080E9
:1031F300037C010B901616E0F8EBC398504FEB7568
:10320300F005A4F8AAF0EAF91233537003A3E0F42B
:1032130060E112334AE82403080808E91239062456
:10322300FFF0A3E034FF124D7EF8A3E0F9E8497004
:10323300C0EB75F005A4F8EAF912334A8882898352
:1032430074FEF0A30412598AA3E4F080A6ECA2E072
:10325300500312384502383E74F6120560EAFEEB5D
:10326300FF901616E07003023345EE2411126490AA
:1032730070030233458E828F83A3A3A3A3A3A3A3C7
:10328300A3A31242556402600F8E828F83A3A3A36C
:10329300A3A3E070030233457C0080010C90161653
:1032A300E0F8ECC3985045EE240B122B2B124FFE83
:1032B300EC75F005A4FAABF074CC2AF58274143BD8
:1032C300F583E0687003A3E06970D1EE2412126401
:1032D30090FBEC75F005A4F8A9F074CE28F5827480
:1032E3001439F583E06B70B4790080587C00800159
:1032F3000C901616E0F8ECC39850EDEC75F005A4AD
:10330300F8A9F01233537003A3E0F470E312334AC5
:10331300EE240B122B2B12415EEAF0A3EB12336562
:1033230088828983A3123D2A740C124BBB7A08FB53
:10333300900301E0F91218D48B09EA4509700312CE
:103343003845790102388274CC28F8741439F9228B
:1033530012335AE064FE2274CC28F582741439F5D2
:1033630083221238B9E02274F212056074F3120A50
:10337300CFEAFEEBFF8E828F83A3A3A3A3A3A3A312
:10338300A3A3A3E0F50A90158AE0700579BA023683
:103393007F750801750900750C00750D007C087DAB
:1033A300007900851882851983AA82AB83121736A8
:1033B3007405120CB574011236A75404601274021A
:1033C300120CB5E0D2E61236A75408700375080351
:1033D300E05410600674404508F508E05408602284
:1033E3007402120CB5E044C01236A75420600A746C
:1033F30003120CB5E0D2E080087403120CB5E0D2DE
:10340300E1F08E828F83A3A3A3A3A3A3A3A3E0705E
:103413001812101C8518828519831242D674021261
:103423000CB5E0D2E2F00234D1640F7015740212CD
:103433000CB5E0D2E312465B1242BE4508F5080222
:1034430034D18E828F83A3A3A3A3A3A3A3A3E064F6
:10345300028E828F83700512300980C9A3A3A3A3B0
:10346300A3A3A3A3E064037013851882851983AC17
:1034730082AD83EEFAEFFB1222AC80528E828F83F1
:10348300A3A3A3A3A3A3A3A3E0640170419003ABED
:10349300E0601C7402120CB5E0D2E31246498518B1
:1034A30082851983123F21750910750AFF801874EC
:1034B30002120CB5E0440C125AEF74FDF0A374FF32
:1034C300F074044508F5088E828F8312644512490F
:1034D300E4503A7402120CB5E0540C701B8E828FC8
:1034E30083125494121BA4E9700579BB02367F74CE
:1034F30002120CB5E0D2E5F01249E4501074021246
:103503000CB5E0540C64047004E0D2E5F0EE241131
:10351300126490C0E07404120CB5D0E0123D59124D
:103523000CB5E060030236787408120CB512368BC2
:1035330012369DEE2418126490C0E0E8125C6FE925
:10354300122B2ED0E0F0EE2419126490C0E0740820
:10355300120CB5E024131238D6D0E0123D7F64017B
:1035630070119003ABE0C0E07408120CB5123684FE
:10357300D0E0F07408120CB5123B842417FAEF1252
:103583003BB3FCE8241CF582E9122B2EEC124BBB57
:103593008E828F83A3A3A3A3A3A3A3A3A3E0C0E0CB
:1035A300E82422F582E9122B2ED0E0F07408120CE5
:1035B300B5123696E50AF07408120CB5123B89244D
:1035C30024F582E91252CDA3E50D125326FCA3E0A4
:1035D300FDE82426F582E9122B2EECF0A3ED123838
:1035E300951242ABE82428F582E9122B2E125529B5
:1035F300C0E0E8242FF582E9122B2ED0E0F0EE2470
:103603001B126490C0E07408120CB5125AC3D0E0C8
:10361300F0EE241A126490C0E07408120CB5E02492
:103623002E1238D6D0E0125AE712299E120A22EE41
:103633002411122B2B1242AB740B120CB51244C77C
:10364300120A6EEE24151264905440601B900324FA
:103653001243006013851882851983AA82AB839075
:10366300032512391E122347851882851983AA82DE
:10367300AB83122222740C120CB5E0F9740D0237DD
:1036830074E024151238DA22123B8D240FF582E9F7
:10369300340022E024231238DA22F583E508F0A36C
:1036A300E509F022F0EE2415124D8B2274F7120572
:1036B300607E638A828B83E0600C7905120D40E99A
:1036C300F87456C398FE900353E0600CF9120D4052
:1036D300E9F8EEC39824F2FEEEF9023D3974F612CE
:1036E300056074FE120ACF8518828519831242D6AB
:1036F300E9FEECFAEDFB740C120CB5E0FC900462ED
:103703001243006032851882851983858208858378
:10371300097808120A267D01EEF990046212391B1A
:103723001223477402120A6E8B09EA450960047971
:1037330000800679B2800279B602387D74F71205EB
:1037430060E9FE7409120CB5E0FF90030C1243000C
:10375300601AEFF5087808120A2AEEF990030C12A2
:10376300391B1223477401120A6E800279B6023D97
:1037730039120A6E7F060207D374F5120560EAFE5A
:10378300EBFF8C088D09750A01125F0312385F7015
:103793000B90035B123950123F21800EAC08AD0928
:1037A300EEFAEFFB120DA6E9F50AA90A0256AB746D
:1037B300F6120560EAFEEBFF7A0C7B001217F0EAC3
:1037C3004B606BEE24201264908A828B83F0EE248C
:1037D30021123834F0EE2422123834A3F0EE2423DD
:1037E300123834A3A3124506125006E8F0A3E912D7
:1037F3004D83125007A3A3E8F0A3E9124BAD8A82CD
:103803008B83A3A3A3A3A3A3A3A3F0EE242F1264E8
:1038130090C0E0123D3E122B2ED0E01242DC8A8291
:103823008B83A3A3A3A3A3A3A3A3A3123F21023820
:1038330082124D8B8A828B83A322F0D083D08202A3
:103843000A067CF47D017A087B00900301E0F912FB
:1038530018C222FAEF3400FB1220EA22123D6B2237
:10386300123869A3E02212386D22123871221245F0
:10387300D7A3A322124270A3E0227402120A6E7F1E
:10388300020207D37C017D007A007B0012112A74A7
:103893000422F012389D12451122EE240FF582EF17
:1038A30022F582EF124511E422900E9BE0F91217E4
:1038B30084221238B922F0EE2412F582EF3400F597
:1038C3008322120A6E7F080207D3125CA285088244
:1038D300F583221238DA2212393722123930E022E4
:1038E3001245D7E022C082C0831243321238A702A6
:1038F300383D12426922A3E0F9120D40E922790111
:10390300020A06123EAE22F8EF3400F9880889094C
:1039130022EEFAEFFB90031CE0F8A312392A22E00F
:10392300F8123929A322A3E0F583888222E0240E2A
:103933001239372212393B22F8A3E01239422234DA
:1039430000F98882898322123FDA64052212500229
:1039530085088285098322FB12395F221220EA85BA
:10396300088285098322C082C083124332123976CA
:1039730002383D124511740122023901C082C0830D
:1039830090031A749AF0A37422F090031C748EF0BF
:10399300A37422F090031E7488F0A37422F09003A2
:1039A300207494F0A3742202383D74F4120560EA83
:1039B300FEEBFF123A12F50812101C8A0A8B0BA8B1
:1039C3000AA90B8E828F83123A05E0687003A3E085
:1039D30069602CE508A2E550268E828F83A3E0FB65
:1039E30090031A12391B1223478E828F83E0F8A3A8
:1039F3001247B9A31243007006123A12C2E5F0024D
:103A030029AD123A0922E0FAA3E0F5838A82228ED5
:103A1300828F83123922A3E02274F5120560123BD0
:103A230072123B892420F582E9126493FE74035ECB
:103A3300F50A124148122B2E123B8488828983F0A7
:103A4300A3A882A983E50A60097402650A600302D8
:103A53003AE3740C5EFF601574086F601074046FB2
:103A6300701D7402650A7005EEA2E4402D8A828BF4
:103A730083A3A3A3A3A3A3A3A3E02423123BD474EC
:103A83000C6F7010123B6D2424123BBC2424123B98
:103A93007F123BD77402650A7005EEA2E44041121F
:103AA3003B6D2426123BBC2426123B92A3123BE619
:103AB300123B92123BE6123B7F123BD7EF600F742F
:103AC300086F600A740C6F600574046F70128A8249
:103AD3008B83A3A3A3A3A3A3A3A3E02422123BD476
:103AE3008A828B83A3A3A3A3A3A3A3A3123BA27042
:103AF30005EEA2E150178A828B83A3A3A3A3A3A3FA
:103B0300A3A3E0242E12414F123BCD800E9003025B
:103B1300123BCD900302E004123E91A3A882A98335
:103B2300EEA2E75042123B6D2421123B92123BD787
:103B33008C828D83123BA2602E8A828B83A3A3A3E4
:103B4300A3A3A3A3A3E02430123BD4EEA2E1501716
:103B53008A828B83A3A3A3A3A3A3A3A3E0243112E9
:103B63003BAC88828983F00256AB123B72E022EAB7
:103B73002408FCEB3400FD8C828D8322124153A375
:103B830022125002EE22123B8D22124654E82212D8
:103B93003B9622F508A3E03400850882F58322E0F2
:103BA3002421124153E0540322FAA3E0123BB3222F
:103BB3003400FB8A828B83E022123B96123BCDA317
:103BC300A882A9838C828D83E022E088828983F096
:103BD30022124153123BDB22E088828983F0A3083F
:103BE300A98322123BDB8C828D83E0242822C082AE
:103BF300C0838A828B83123A16F8740358F98A8237
:103C03008B83A3A37401F0E9600574026970617486
:103C13000C58FC601474086C600F74046C7013749B
:103C230002697005E8A2E4401D8A828B83A3A37412
:103C330002F0740C6C700A8A828B83A3A3E02402C3
:103C4300F07402697005E8A2E440258A828B83A39D
:103C5300A3E02404F0EC600F74086C600A740C6C2D
:103C6300600574046C70098A828B83A3A3E004F05B
:103C7300E8A2E750318A828B83A3A3E00412552D77
:103C8300F9A3E0F5838982A3A3A3E0540360178A11
:103C9300828B83A3A3E004F0E8A2E150098A828B1C
:103CA30083A3A3E004F08A828B83A3A3E0040238F6
:103CB3003DC082C0838A828B83A3A3A3A3A3A3A3B0
:103CC300A3A3A312430060098A828B83A3A3123C9C
:103CD300D702383EA3A3A3A3A3A3A3A31244D6123C
:103CE30017F62274F7120560EAFEEBFF124FFA880B
:103CF300828983A3A3A3A3A3A3A3A3E4F0123D2ACE
:103D0300A3A3A3A3A3A3A3F0A3F0E81252B7E912BA
:103D13003D24122252EEFAEFFB12225E8018F58246
:103D2300ED124511E4F022A3123D2F22123E91A37E
:103D3300A3A322120A6E7F010207D3EA240BF582A2
:103D4300EB22125C33240922124511126449750EC9
:103D530000780C227401123EE7123D6022122228E1
:103D6300740C22124243A3221220E4E9640122A329
:103D7300A3A3A3E8F0A3E9F012101622124185E0F1
:103D83002274F612056074F4120ACF123E97FCA354
:103D9300E0F5838C82A3E0FC7402120CB5EC124DA7
:103DA3007E24021242377404120CB5123F21EC60D8
:103DB3000A7402120CB5E06404701C123E751249B9
:103DC300F07406120CB5123E7B1242377408120CC3
:103DD300B5E8F0A3E98056E06401600AE064066098
:103DE30005E064057023123E75123BACC0E074031A
:103DF300120CB5D0E0124D7E24131249F074061252
:103E03000CB5124D7A241B80C07406120CB5E4F075
:103E1300A3123EA424121249F07408120CB5123EE8
:103E23007B125C2FC0E0740A120CB5D0E0F074066C
:103E3300120CB512430060287406120CB512549488
:103E4300120D9AE9640170181210168A088B09ACD6
:103E530008AD097406120CB512549412385F700D34
:103E6300851882851983AA82AB831221FE740C0202
:103E7300387F123EA9241222123E88241A22123EAF
:103E830088F8A3E022EAF0A3EB123E91E022F08847
:103E9300828983228A828B83A3A3A3A3A3A3123041
:103EA3000DF0123EA922EA2402F8EB123942E02275
:103EB300A312500285188285198322120A6E0238D2
:103EC3003EC082C08374FD120ACF123EF3C0E07479
:103ED30002120CB5D0E0123EE31221F8740380DB2A
:103EE300123EE722F0851882851983AA82AB8322CA
:103EF3008A828B83A3A3A3A3A3A312421D8A828BCB
:103F030083A3A3123922E022AA82AB8312172A7455
:103F13000322125002EE240BF582EF1245111242D6
:103F2300202212422090032C2212503B124511E012
:103F3300FC7D00228A828B83A3A3E0F8123FDA245C
:103F4300FB22C082C083123F37600624FC600780D7
:103F530008122240800312223A02383EC082C083F4
:103F63008A828B83A3A3A3A3A3A3A3A3E070528AF0
:103F7300828B83A3A3E0F8123FD664016043123F10
:103F8300D06402603C123FD064036035123FD064BA
:103F930004602E8A828B83A3A312394A6023123FC3
:103FA300D0640A601C123FD0640B6015123FD064CA
:103FB3000C600E123FD0640D600779041220548008
:103FC3000990032212391B12234702383E8A828B3F
:103FD30083A3A3123FDA22123929E02274F61205D1
:103FE3006074FA120ACFEAFEEBFF7403120CB5EE0B
:103FF300F0A3EFF07403120CB5AA82AB831222462E
:1040030012648D60030241438518828519837432DB
:10401300F07405120CB5C082C0838E828F83A3A374
:10402300A3A3E0D083D082F8E028C0E07401120C8F
:10403300B5D0E012419FC0E07402120CB5D0E0127B
:10404300417EF8A3E0F9E8496026E82417F582E900
:10405300122B2EC082C083E82416F582E9126493E2
:10406300D083D082F8E028F87401120CB5E028F070
:10407300851882851983AA82AB83120DFA8A088B6D
:1040830009A808A909E84970030241368E828F8383
:1040930012415EA3A3EAF0A3EB12418BA3A3E0C0FA
:1040A300E0E82420F582E9122B2ED0E0125B02C057
:1040B300E0E82421F582E9122B2ED0E012419AC0C8
:1040C300E0E8242AF582E9122B2ED0E0F0740512E1
:1040D3000CB5E0FA1241481264932A1249F0E8241D
:1040E3002BF582E9122B2E1242D67405120CB5E081
:1040F300C0E0E8242DF582E9122B2ED0E012417E98
:10410300FAA3E0FBEA4B6019E8242BFAE91229939E
:10411300A3A3A3A3A3A3A3A3E0241612414F124175
:10412300668E828F83A3A3A3A3A3A3A3A3E8F0A371
:10413300E9800CEEFAEFFB12224C122B287410F0DC
:10414300740602387FE8240BF582E92212415322D8
:10415300FCA3E03400FD8C828D83221244D6888236
:10416300898322E0FC8A828B83E02CFCA3E0340069
:10417300FD8A828B83ECF0A3EDF022124185A3A389
:10418300E0221246F3A3A322F0E8125C6FE9124582
:1041930011740112465B221241A5E0221241A5A32C
:1041A300E022125699A32274F7120560EAFEEBFF90
:1041B30012648D701E1241E012430060061239141E
:1041C30012234712648D700B125488120DF4122BB4
:1041D30028E9F0EEFAEFFB12224C023D3912225885
:1041E3008E828F83A3A3A3A3A3A3A3A3A3A32274B6
:1041F300F6120560EAFEEBFF8C088D09121BA4E999
:10420300700479018011AC08AD09EEFAEFFB90035D
:104213002012391B122347023882124226E8F0A3E8
:10422300E9F022E0F8A3E0F98518828519832212C8
:104233005AF3E022F8A3E03400F922124243E022C9
:10424300E8F0A3E912465FA3A3221242AFEEFAEF0E
:10425300FB221244D612108EE92212393BE02212BD
:10426300386912426922E08E828F83A3221245228B
:10427300A3A3A3A322E508240BF582E509227C0866
:104283007D007900851882851983AA82AB83121772
:10429300368E828F8322E0850882850983A3A32239
:1042A300A3A3A3A3A3A3A3A31242AF22E0FCA3E06F
:1042B300FD22740112465BA3A3E02212421D740483
:1042C30022121736850882850983A3221218E68EE7
:1042D300828F83EAF0A3EBF0221242E02212465FC0
:1042E300A3A312465422C082C0831242F97434F04D
:1042F300A3742202383D12226490032222123B8DC2
:10430300492274F7120560E9FE124332122B2E1272
:104313004300601888828983A3E05403700EEEFB88
:10432300124148122B2E12436312435D023D39EAB8
:104333001252B7EB22C082C083EAF8EBF988828974
:1043430083A3A3A3A3A3E0FB88828983A3A3A3A33B
:10435300124363A312435D02383EE0F91213E222D3
:10436300E0FA88828983A3A32274E81205608A088D
:104373008B098C168D178914741A120CB5E0F50A83
:10438300A3E0F50B741C120CB5E0F513741D120CAD
:10439300B5780C120C58125CBAEB126493242DFA04
:1043A3007B0012233C8A108B11AE10AF11EE4F70BD
:1043B300030244AE8E828F837401F0850810850951
:1043C300117512007810120A227C157D00EE241854
:1043D3001244B1120A6E8516108517117810120A4D
:1043E300227C097D00EE24021244B1120A6E741875
:1043F300120CB5123F15850A82850B83E0C0E0EEEF
:10440300240F122B2BD0E01244E1C0E0EE24111252
:104413002B2BD0E01244DCC0E0EE2410122B2BD067
:10442300E01238B5E513124506E4F0A3F01244C0D8
:10443300780C120C76EE2417122B2BE51412387716
:10444300F8A3E0F9EE240D122B2B124500125CB4F5
:104453001264936025EE24261249DC242DF81244BD
:10446300F8125C8A123D4B120A22125CB2123F2FE1
:104473008A828B831244CD120A6EEE241912649041
:104483005403601D900318124300600CEEFAEFFB17
:1044930012391E1223478013EEFAEFFB12175480D2
:1044A3000AEEFAEFFB900301124643025CC9FAEFEE
:1044B3001244B7223400FB12172A740322EE24138A
:1044C30012450E22E0242B1238DA1244D612172A90
:1044D300740322E0FAA3E0FB221244EFE022124429
:1044E300E6E0221244EA221244EFA322F0850A8274
:1044F300850B83A322EF3400F98A828B8312422037
:10450300E50822F0EE242612450E22F582EF340050
:10451300F58322F50CA3E0F50D750E00780C22123D
:104523003871A3A3A32274F11205608A088B097A58
:10453300201245F1606D8E828F8374061246018EC0
:10454300828F83A3A3A3A31238638E828F83124522
:10455300A9124516120A227C107D00EE240612448D
:10456300B1120A6E8508828509831242A3EE2416CE
:10457300FAEF3400FB120D94850882850983A3A307
:10458300A3A3A3A3A3A3A3A3E0C0E0EE241E122B23
:104593002BD0E01245B9C0E0EE241F122B2BD0E044
:1045A3001245C1025F26A3A3A3A3A31245B22212FD
:1045B300386DA3A3E022F0124278124D8E22F0EE62
:1045C300FAEFFB900E9BE0F912175A22E8F0A3E9E9
:1045D3001245D722F0850882850983221245E322FA
:1045E3001238E3F8A3E0F98E828F83A3A3227B0022
:1045F30012233C8A0A8B0BAE0AAF0BEE4F221245F5
:10460300E31245CFA3A3E02274F6120560EAFEEBA2
:10461300FF7A057B0012233CEA4B601E8A828B8360
:10462300740A1246498A828B83A3A312423E8A826A
:104633008B83A3A3A3A3F0124640023882900E9B60
:10464300E0F912175A2212464D2212465F124654BF
:1046530022E0F8A3E0F922A312465F22F08E828FB4
:104663008322C082C083E990158CF0900314744EAA
:10467300F0A37417F090031674A0F0A37422F090C3
:1046830003187476F0A3742202383D74F7120560A0
:10469300EAFEEBFF8908EE4F7003121C829003269B
:1046A30012430070089003268022124FFE888289ED
:1046B30083A3A3A3A3A3A3A3A3A31246E5888289E9
:1046C30083A3A3A3A3A3A3A3A3A370DEEEF0A3EFEB
:1046D3001246EBA3A3A3E4F0A31246EBE508F00212
:1046E3003D391244D6EA4B221246EF221246F322F8
:1046F30012569DA3A3A32274F7120560900326808C
:104703000D8E828F83A3A3A3A3A3A3A3A3A3125C4E
:1047130067EE4F60348E828F83A3A3A3A3A3A3A3C7
:10472300E06970DD8E828F83A3A3A3A3E06A700385
:10473300A3E06B70CC8E828F83A3A3A3A3A3A3E078
:104743006C70BEEEFAEFFB80047A007B00023D3909
:1047530074F7120560900326125C67900326122FEC
:10476300E9687002EB6970171247B9124FFE9003A4
:1047730026123F21900326125C678030125C5AEEAA
:104783004F60298E828F83A3A3A3A3A3122FE5686F
:104793007002EB6970E68A828B83A3A3A3A3A3A30E
:1047A300A3A3A31247C6A3A3A3123F211217F6EE96
:1047B300FAEFFB023D3912392AA3A3A3A3A3A3A3B0
:1047C300A3A322124A05A3A32274F012056074FA6C
:1047D300120ACF8A088B098A828B83A3A3A3A3A37C
:1047E300A3A3A3E0600D640160098A828B83124254
:1047F30055600579020249D7850882850983A3A3F9
:10480300A3A3A3A3A3A3E0640370157404120CB5BC
:10481300AC82AD83AA08AB091222ACE9701380D332
:10482300850882850983124FFE7404120CB5123F6A
:1048330021125C7412649324321249F01217F08A25
:104843000A8B0BAE0AAF0BEE4F70030249D57C32D5
:104853007D0079001217367402120CB5AA82AB835D
:10486300850882850983A3A3A3A3A3A3A3A3A3E08A
:10487300F912142A7402120CB5E0C0E0EE242D12D2
:104883002B2BD0E0F0EE242CF50AEF3400F50B745B
:1048930003120CB5E0850A82850B83F07901EEFAE9
:1048A300EFFB1221EC85080C85090D750E00780CC1
:1048B300120A227C1C7D00EE240B1244B1120A6EF4
:1048C300EE24301249DC243208081244F82411F88B
:1048D300E50912642CFCE9FD8C828D83123B842450
:1048E3002E122B2B124500124D5C125CC0120A22B1
:1048F3008C828D831242AB8A828B831244CD120A3F
:104903006E7404120CB5124A01123F219003021275
:1049130049F7F0900302E004124D92242A1252BC8C
:10492300750D00850A82850B83E0780C120B988A3B
:10493300828B83E50CF0EE2429122B2BE50C125A03
:10494300EFE4F0E5082415F582E5091249EA74015C
:104953005007120CB574018004120CB5E4F0EE2478
:104963002712390A851882851983AA82AB83121408
:1049730012E924FE850882850983F0F5087509008C
:10498300EE242E122B2B1242ABECF8EDF9AA08AB56
:104993000912037EE88E828F83A3A3A3A3A3A3A3F9
:1049A300A3F0ECF8EDF9AA08AB0912037E8B09EA30
:1049B3004509600F8E828F83A3A3A3A3A3A3A3A3FD
:1049C300E004F0EE2420126490440812532E790080
:1049D3008002791074060238C512642AFAE9FBEEE4
:1049E30022EE2415F582EF124D8EA2E022FAA3E007
:1049F3003400FB22124269A3A3A3A3A3A322124A56
:104A030005221246548E828F83A3A3A3A32274F498
:104A1300120560EAFEEBFF1242CF9015F2E0F8EECA
:104A2300242B126490C3984003024B841252D47017
:104A330015EE242B12649004124BADC0E0EE242932
:104A4300122B2BD0E0F0EE2428126490FC79008026
:104A53000109EE242C123166E9C39850267508012A
:104A6300750900E97808120B981252D4550860E1D1
:104A7300E92CFC750801750900E97808120B98E028
:104A83004508F0EE2427124B9BEE242E122B2BEC21
:104A93008A088AF0A4F8ABF0E42BF9E098F8A3E0D5
:104AA30099F9C3E89508E99400EE403924271231B7
:104AB300661252D46037EE242D122B2B124BA7A370
:104AC300E4F0EC7054EE24201264904420123D7FF5
:104AD300C0E0EE2426122B2BD0E0F0EE2430124B54
:104AE3009BA3E080592429122B2B74FFF090034BD6
:104AF300E0FA9015F5E0F508EA8508F0A4ABF07547
:104B0300F064A4FAADF075F064EBA42DFB8E828FF4
:104B130083A3A3EAF0A3EB80A8EE242012649054AD
:104B2300DF124506ECF08C08EE242712649085080A
:104B3300F0A4FAABF0EE2430F582EF124B92FBEEC9
:104B4300241E122B2BEAF0A3EB124BB5C0E0EE248C
:104B530025122B2BD0E0F0EE241C122B2BE8124B4A
:104B6300BB900328124300600BECF912391E122389
:104B730047E97018EE240BFAEF3400FB1222D080C1
:104B83000B7BE9EE2422F582EF124D660229AD126A
:104B93004D8E2AFAA3E03B22F582EF124BA222129A
:104BA3005320FA22124269A3F022F0EE242A124D76
:104BB3008B221246EFA3E022F0A3E4F02274F41256
:104BC3000560900326125C671218E68A0A8B0B7C39
:104BD300FF7DFF8020E0C398FAA3E099FBC3EA9C22
:104BE300EB9D500E8E828F83A3A3E0C398FCA3E0BA
:104BF30099FD125C5AEE4F6059124FFAE50AC398B9
:104C0300F8E50B99F98E828F83125492C3E89AE9DF
:104C13009B8E828F83A3A340BCA3A3A3A3E06402C0
:104C2300701DEE240B1252D7600CEE2410122B2BA6
:104C3300125494121754EEFAEFFB1221E08007EEA0
:104C4300FAEFFB12232A7A017B0090158C1238AFFE
:104C5300801474FF6C700374FF6D600A7A017B002B
:104C630090158C1238500229AD74F01205608A0831
:104C73008B09ECFAEDFB890A7C01125C741252C6B3
:104C83008A0C8B0DAE0CAF0DEE4F7003024D59E540
:104C93000A6003024D59E508124D5CE0F8EE242842
:104CA300126490686003024D59EE242C124B9BE86A
:104CB3002AF8E43400F98E828F83A3A3A3A3A3A3CA
:104CC300A3A3E0FAE89AE99400C365D03340141231
:104CD3004FE51252DA700C7B00125C6DE509124D40
:104CE300668073124FE51252DA7031EE242C12648F
:104CF30090F9EE2429122B2B7508FF750900E9782A
:104D030008120B98E508F0EE242A122B2BE5081263
:104D13004D8329F0EE242B1238A48022E5082414B5
:104D2300F8E5093400F9E0C0E0EE242A122B2BD079
:104D3300E0124D7EC0E0EE2429122B2BD0E0124D61
:104D430092242D122B2B1238F5A3124BBB7A01FBA5
:104D530090158C1238AF0238C82413F582E5091276
:104D6300451122124BA2EE241412450E12435DEE9E
:104D7300FAEFFB1221E022EAF0A3EB123E91E022CC
:104D8300F0EE2428124D8B22F582EF12532022F0ED
:104D9300125CCEF0A3EBF0EE2274E812056074FD12
:104DA300120ACFE9851882851983F08A0A8B0B8C46
:104DB300168D17741B120CB5124FDD741D120CB532
:104DC300780C120C588A828B83A3A3E0F912140087
:104DD3008A128B13EA451370077A007B00024FD8BF
:104DE3007A127B001217F08A088B09AE08AF09EE1E
:104DF3004F7003024FD47C127D0079001217367472
:104E030001120CB5AA82AB83850A82850B83A3A307
:104E1300E0F912142AEE240FF508EF125CA27402D3
:104E2300120CB5E0850882850983F07902EEFAEF6A
:104E3300FB1221EC851682851783124A01E8F0A341
:104E4300E91250298E828F83A3A3A3A3A3A3A3F064
:104E53007514FF751500850882850983E07814129F
:104E63000B98122B28E514F0851282851383A3E097
:104E7300F8123FD6C0E0EE240B122B2BD0E01250D9
:104E830033F508EE240D122B2BE508F01252DFE068
:104E93008508F0A42424FAE5F03400FB12233C8AAD
:104EA300088B09EE2410122B2B1242D6EA45097007
:104EB30003024FC98A828B83741A124BBB8A828B7B
:104EC30083A3A3F0A312501D125006123F21AC1668
:104ED300AD17EA2406FAEB3400FB121424850A8288
:104EE300850B83A3A3A3E0C0E0E508240FF582E5C7
:104EF30009122B2ED0E0F0900368124FFEE5082430
:104F030010124FEE125043A3124FFEE50824121263
:104F13004FEE1244E1C0E0124FE5122B2ED0E0F029
:104F2300E50A1252B7E50B126493C0E0E5082415B5
:104F3300F582E509122B2ED0E0125014C0E0E508EB
:104F43002416F582E509122B2ED0E0126497E0C0F7
:104F5300E0E5082417F582E509122B2ED0E0126450
:104F630097A3E0C0E0E5082418F582E509122B2E8B
:104F7300D0E0124232C0E0E5082419F582E50912B7
:104F83002B2ED0E0F0E508241AF582E509122B2E2A
:104F9300780C120C76E5082424F8E5093400F9E5C9
:104FA300082422F582E509123F1EE50A125C6FE52B
:104FB3000B126493C0E0E508241FF582E509122B68
:104FC3002ED0E0F0800BEEFAEFFB1221E07E007FA3
:104FD30000EEFAEFFB7403025CC6E0F510A3E0F504
:104FE3001122E5082414F582E50922F582E5091268
:104FF3004511E8F0A3E9228E828F83125002221218
:10500300465422E0F8A3E0F98A828B83A3A3A3A3E7
:1050130022F0851082851183E0221250212212444E
:10502300EAA3A3A3A322F0125C7CE50B124D8E220C
:10503300F012503B124D8E22E50A125CBBE50B22A7
:10504300125021A3A3A32274E81205608A0A8B0BD2
:105053008C108D1189147418120CB5E0F516A3E0A9
:10506300F517741A120CB5780C120C58750900EA6E
:105073002413F582EB126493F5089003281243007E
:105083006011A90890032812391B122347E9600312
:105093000252B47C02851082851183125494125CEF
:1050A3007CE50B1252C68A128B13AE12AF13EE4F6E
:1050B300704B850A82850B83A3E0A2E04003025272
:1050C300B4780C120A1E7816120A26A914AC10AD75
:1050D30011AA0AAB0B1222827406120A6E8A0C8B77
:1050E3000DAE0CAF0DEE4F70030252B48E828F8360
:1050F300A3A3A3A3A3A3A3A3E50812532E85080C7C
:105103008E828F83A3A3A3A3A3A3A3A3E024FFF867
:10511300E434FFF9E8650C7001E97003750901EEE9
:10512300240B1252D77003025267850A82850B83C0
:10513300A3E0A2E05003750800125300E50C98E4C5
:1051430099C365D033401EE0F8EE240E1264902814
:10515300F0750CFF750D00E8780C120B98EE1252E7
:10516300B7EF1252CD125C83E50B123D4B120A22AC
:10517300123F2C85080CEE240D126490850CF0A4CC
:10518300F8A9F0EE24101264902422123BAC28FA02
:10519300A3E039FB123F0F120A6E750C011252EB9A
:1051A300780C120B9812648D450CF0E509A2E050BF
:1051B30065EE240C1252BC1252EB04780C120B98BD
:1051C3008A828B83E0450C12532685080C850CF0EC
:1051D300A4F812503B126493FCE82CFCE5F0340075
:1051E300FDEE2410122B2B1252F9125529F47026BE
:1051F300EE240BF50CEF3400F50DEE2410122B2BDF
:10520300125494850C82850D83124643850C828546
:105213000D8374FF804D1242CF90034BE0FA90153B
:10522300F5E0F50CEA850CF0A4FAABF0F8EBF99095
:1052330015F2E0F50CE8850CF0A4F8ACF0850CF061
:10524300E9A42CF9EA28F8EB39F9E875F064A4F835
:10525300AAF075F064E9A42AF98E828F83A3A3E8E8
:10526300F0A3E9F0125300125C51E8650C7001E9F8
:10527300600EEE240C1252D76006E509A2E050310D
:10528300EE240E126490C0E01252DFD0E0F01264FC
:105293008DC0E0E50A2414F582E50B122B2ED0E035
:1052A300F0AC0AAD0B851082851183125494120C55
:1052B300F2025CC9240CF5822212642AFAE9FB7516
:1052C3000CFF221253D11221E622124511E50CF0F4
:1052D30022EE2429F582EF124D8EF422E50A2413DF
:1052E300F582E50B12451122750D00125316F5F0E8
:1052F300E50884E5F022E024201238DA2285080C40
:10530300EE240E124D8BF8125316FAE82AF8E43401
:1053130000F922EE240FF582EF125320223400F518
:1053230083E022F0EE240D124D8B22F07A017B00F4
:1053330090158CE0F912178422C082C08390158CDB
:1053430012464302383E74F41205608A088B09EB57
:105353005480703BEAA2E050471222BEE508640184
:10536300FAAB09803F8E828F83E06401701A124486
:10537300C012088E1228D4120A26EE24121253BA2F
:1053830012227C7406120A6EEEFAEFFB1217549087
:10539300158C1253AA70CEAA08E5096480FB800419
:1053A3007A007B000229ADE0F91217608A0A8B0BA1
:1053B300AE0AAF0BEE4F22F582EF1253D1EE240269
:1053C300FCEF3400FDEE2418FAEF3400FB221253F5
:1053D30020F92274F1120560890A8A088B098A82EE
:1053E3008B831254941217AE8B0DEA450D6004792A
:1053F300B8807F120CCE9027D1E493F8E9C398408C
:105403000479B2806D7A1512547870047910806231
:105413008E828F83E4F0A3125AE2A3E50AF0850893
:105423000C85090D750E00780C120A227C127D0082
:10543300EE24030A0A0A1244B2120A6E90032A12D5
:10544300430090032A7006EEF0A3EF801FE0FAA357
:10545300E08003E8FAE9FB8A828B8312430070F34E
:10546300EEF8EFF98A828B83E8F0A3E9F0120CE0FF
:105473007900025F267B001217F08A0C8B0DAE0CAD
:10548300AF0DEE4F228E828F83A3A3A3A3A3A3A367
:10549300A31244D622C082C08390032A80048C8244
:1054A3008D831254DA60298C828D83A3A3E0696013
:1054B3000574FF6970E88C828D83A3A3A3E06A70EF
:1054C30003A3E06B70D8EC2403FAED3400FB8004F3
:1054D3007A007B0002383E1242AFEC4D2274F71281
:1054E3000560E9FC74FE6C70047D0180027D009010
:1054F300032A80096C70027D01888289831243002C
:10550300601F88828983A3A3A3E06A7003A3E06B6F
:1055130070E7EDA2E088828983A3A3E050D6F980E7
:105523000279FE023D39ECF0A3EDF08A828B83E031
:1055330022C082C083790090032A80010912549407
:105543008A828B83E582458370F202383E74F612B9
:105553000560E4F508F5097808120A269027D1E4D6
:105563009375F013A42402FCE5F012568912187403
:105573007402120A6EE9FE6003120CDAEEF90238C5
:105583008274F612056074FE120ACF85188285199B
:1055930083E4F0A3125AEF85820885830978081201
:1055A3000A267508027509007808120A26125D8515
:1055B300120A6E02387D74F512056074EB120ACF7D
:1055C300851882851983E4F0A3F090032AE0FEA3F3
:1055D300E0807D8E828F83A3A3E0C0E07402120C6F
:1055E300B5D0E0125691A982AA8389088A09750A5F
:1055F300007808120A227C127D007406120CB51280
:105603003F0B120A6E7402120CB58582088583095A
:105613007808120A267508137509007808120A26F5
:105623007404120CB5123B8975F013A4F8AAF07533
:10563300F013E9125681125D8D120A6E8518828568
:105643001983E02401F0A3E03400124649E8FEE99F
:10565300FFEE4F60030255D6851882851983858234
:10566300088583097808120A2675080275090078E7
:1056730008120A26125D85120A6E74158027A42A61
:10568300F9E82402FCE93400FD7A427B0022125639
:1056930095221256992212569D22F08E828F83A351
:1056A300A3A322740D120A6E7F030207D374F412AC
:1056B300056074EB120ACF7E007F0085188285197E
:1056C300838582088583097808120A267508028E65
:1056D300097808120A267C007D007A42125E651260
:1056E3000A6EE970748E08805E7402120CB58582AE
:1056F3000A85830B780A120A26750A13750B00783C
:105703000A120A26E50875F013A4F8AAF075F01337
:10571300E509125681125E67120A6EE9701E740360
:10572300120CB5AA82AB837402120CB5E0F91222F3
:105733006AE97008EE24010EEF3400FFE508240146
:10574300F508E509125CA2851882851983124FFEBC
:10575300C3E50898E509994090EEFAEFFB7415024A
:1057630029AA74F61205608C828D83A3A312596350
:10577300F0EA2417F582EB126493C0E0EC125CBBF1
:10578300ED122B2ED0E0F0EA241DF582EB122B2E26
:10579300124FFEEC126223ED122B2E125963A3F06B
:1057A300A3F0126222EB122B2E125955A3A3A3A32B
:1057B300A3A3EEF0A3EF124D7EFE8C828D831259CC
:1057C3008274035EFEC39403400FEC240D123D214B
:1057D300EC2410123D2102593DEE600574026E70F7
:1057E300748C828D83E0540CFE740C6E700302582B
:1057F300DAE0A2E4400D88828983E08C828D83A362
:105803001259AC74086E60030258DAEC1252B7ED09
:10581300123976F08A828B83A3A3A3125AAD701434
:105823008C828D83E0440C125971A3A3125955EE57
:10583300F0A3EFF08C828D83E0A2E440181259406C
:1058430012598F125949A3A312598F8C828D83A3A6
:10585300A3A312598288828983E0C0E0EC125C7EA4
:10586300ED122B2ED0E01259828C828D83E0A2E7B9
:10587300507C88828983E0FE8C828D831259AC74BC
:10588300FC5E60030257CD8C828D83A3E0540364D6
:105893000370030257CD8C828D83A3E054036051C0
:1058A30088828983E0C0E0EC2413F582ED122B2E6D
:1058B300D0E01259AD8C828D83E0540364027031C1
:1058C30088828983E0C0E0EC2414F582ED122B2E4C
:1058D300D0E01259AD801AEC240C123D21740C6EE9
:1058E300600302581712594012599A025837A3E419
:1058F300F0EC125C85ED123F1EEC2410FEED34003B
:10590300FFEA241DF582EB126493F5088E828F83E0
:10591300E0C3982508F508F0EA2417F8EB123906D6
:10592300C39508C0E0EC126223ED122B2ED0E012D7
:105933004D7EC3950850030257CD02388288828971
:1059430083E012594922F508A3E0FFE5088C828D14
:105953008322E0FEA3E0FF8C828D83A3A3A3A32273
:10596300E412596822F08C828D83A3A3A3221259D7
:1059730079A3A3A3A322F08A828B83A3A3A32212D6
:10598300598AA882A98322123E91A322A3A3125962
:105993009A88828983E022A3A3A3A3F0A3EFF0E86C
:1059A30024020808E93400F922A312598A08A983BA
:1059B3002274F512056074F3120ACF8A088B09EC7E
:1059C300FEEDFF8E828F83E0540CF50AE0A2E750D0
:1059D30006E50AD2E7F50AE50AD2E1F50A125AAF5B
:1059E3007006E50AD2E4F50AE0A2E55006E50AD21C
:1059F300E5F50A7C087D007900851882851983AA5C
:105A030082AB831217367402120CB5E50A125AE2FE
:105A1300E0C0E07403120CB5D0E0125AEF12369FC7
:105A23007405120CB5123D57120CB5E07079740869
:105A3300120CB5E024121238D61242B5C0E0740835
:105A4300120CB5125ACAD0E0125B02C0E0740812FD
:105A53000CB5123696D0E0F07408120CB51247C696
:105A6300125AD1123D7F125AB51242D6EE241112A8
:105A73006490C0E0E8242EF582E9122B2ED0E0F0EA
:105A8300EE2414126490C0E07408120CB5E02431C3
:105A93001238D6D0E0125AE7C0E07408120CB512DF
:105AA3005AC3D0E0125AFB0256A6A3A3E0540364E0
:105AB3000122FAA3E0FBE82428F582E9124511222A
:105AC300E024301238DA22E024221238DA22124497
:105AD300D6E82426F582E9124511EAF0A3EB221257
:105AE300465BA322F0EE2413124D8B22125AF322AB
:105AF300F085188285198322123EE7122222221290
:105B03005695E02274F71205607E008A828B83A388
:105B1300A3A3A3A3A3A3A3A3E06402607B123D3EBC
