:020000040000FA
:06000000020C080201F5EC
:03002B000209A126
:03003300020409BB
:0300530002012681
:03005B000202227C
:0300630002027C1A
:03006B00020399F4
:03007B000203D4A9
:1000830002017C010101FF01050301BE12BE12BE84
:1000930012BE1274116E11BE12D924000000003B6F
:1000A30025000000000C0000000C00010100008E80
:1000B30015000000000000481600000000000000CA
:1000C300000000FFFF0101006F0D000000401FC092
:1000D3000D401F6400E803B801020A00C8180305B5
:1000E300023C01010D1E020564020A0A03B80B0259
:1000F300803E01020101FFFF020A1401E0FF00003C
:1001030000000000000000000096511800020206E3
:1001130012490103030507090B0D0F020204060828
:100123000A0C0DC0E074F21205F9A2AFE433F5082E
:10013300D2AFE5A7FEE5A1FFEF5E54106006121DE6
:100143006E75A1EFEF5E54086008121D7475A1F778
:100153008019EEA2E0C0D0EFA2E092F0120B451599
:100163008182F05006121E3475A1FE751A00E5084F
:10017300A2E092AF7F01020658C0E074F21205F9C3
:10018300A2AFE433FFD2AF9061A4E0FE759B00E51C
:10019300915E540860087591F7121DC8802DE59192
:1001A3005E541060087591EF121DCE801EEEA2E022
:1001B300C0D0E591A2E092F0120B45158182F05078
:1001C3000A9061A4E0C2E0F0121F2A9061A3E0FE4E
:1001D300E5E95E5404600E121F0075E9FB9061931C
:1001E300E0A2E640F2751A00EFA2E092AF7F0102AF
:1001F3000658C0E074F21205F9A2AFE433FFD2AFA0
:100203009061A5E0FEE5BF5E5404600675BFFB1276
:100213001F42751A00EFA2E092AF7F01020658C099
:10022300E0C0D0E8C0E0E9C0E0C082C083E5EAC036
:10023300E0900CA8E024EAF8A3E03409F988828965
:1002430083D0E0F0900CA6E0F8A3E0F99009E8E889
:10025300F0A3E9F0900CA67400F0A37400F0900CE6
:10026300A8E02401F0A3E03400F0D083D082D0E0F2
:10027300F9D0E0F8D0D0D0E032C0E0C0D0E8C0E0A0
:10028300E9C0E0C082C083900CB0E0600E900CA681
:10029300E02401F0A3E03400F08052900CA6E06467
:1002A300027004A3E064007013900CA8E024EAF841
:1002B300A3E03409F988828983E0F5ED900CA6E088
:1002C30064017004A3E06400700375ED4F900CA605
:1002D300E0F8A3E0F9E8497008900CAE7401F080EF
:1002E3000C900CA6E024FFF0A3E034FFF0D083D001
:1002F30082D0E0F9D0E0F8D0D0D0E032C3E498F86F
:10030300E499F91203408026C3E49AFAE49BFBE9DB
:1003130020E7E9120340E498F8E499F922C3E4984A
:10032300F8E499F9120340E498F8E499F9C3E49ADC
:10033300FAE49BFB22EB20E7CFE920E7E0B90010CA
:10034300BB0008E88AF084F8AAF022E4FBC8FA228A
:10035300EB70227B10C833C8C933C9335007C39A23
:10036300C3DBF280069A50012ADBEAC833F4C8C91A
:1003730033F4C9FA2275F008E4C833C8C933C93362
:10038300C99AC99B5004C92AC93BD5F0ECFBC833B1
:10039300F4C8E4C9FA22C0E074F21205F97E00A29F
:1003A300AFE433FFD2AFE589A2E45016E5AB5410B6
:1003B300FE74106E700C12154C758900900CF67457
:1003C30020F0C2C5751A00EFA2E092AF7F010206CA
:1003D30058C0E074F21205F97E00A2AFE433FFD2F5
:1003E300AFE58AA2E2500E12154C538AFB900CF62D
:1003F3007480F08002E58AC2EB751A00EFA2E092E6
:10040300AF7F01020658C0E074F21205F9A2AFE40F
:1004130033FED2AFE58BA2E0500312154C758B006F
:10042300C2E8751A00EEA2E092AF7F0102065808F7
:100433000808EAC0E0EBC0E086F0E7A4FA180986F2
:10044300F0E7A42AFA180986F0E7A42AFA1809861D
:10045300F0E7A42AFA1986F0E7A4FBE5F02AFA19D3
:100463000886F0E7A42BFBE5F03AFA190886F0E7D3
:10047300A42BFBE5F03AFA18180986F0E7A4C5F0B7
:100483002BFBE43AFA1908E7C5F0C6A426F6E5F013
:100493003BFBE43AFA1886F0E7A4F6E5F00826F603
:1004A300E43B08F6E43A08F6D0E0FBD0E0FA22E4B5
:1004B300CFC0E0E4CEC0E0E4CDC0E0E4CCC0E07562
:1004C300F020C3E633F608E633F608E633F608E62B
:1004D30033F6181818EC33FCED33FDEE33FEEF332F
:1004E300FFC3EC9709ED9709EE9709EF97191919CF
:1004F300400FFFEC97FC09ED97FD09EE97FE1919E4
:1005030006D5F0BEECF709EDF709EEF709EFF71999
:100513001919D0E0FCD0E0FDD0E0FED0E0FF2225A9
:1005230018C582C0E0E51934FFC583C0E0E518C3F0
:10053300958224F810AF0885831985821880088571
:100543008319858218D2AFCEF0A3E520F0A37808F3
:10055300E608F0A3DEFAEFF0A3E58124FAF8E60853
:10056300F0A3E608F0A3E608F0A30808E608F0A362
:10057300E608F0A315811581D0E0FED0E0F81581DF
:1005830015811581E8C0E0EEC0E022120C6AB900C3
:10059300030205E3E4900301785879128002F0A383
:1005A300D8FCD9FA781A9000867A01BA000280073B
:1005B300E493A3F608DAF9901458AA82AB83900067
:1005C3008778A079018015E493A3AC82AD838A82F6
:1005D3008B83F0A3AA82AB838C828D83D8E9D9E77E
:1005E3007582497583D074041209C07582E47583DA
:1005F3002274001209C0C0D02518C582C0E0E519D5
:1006030034FFC583C0E0E518C3958224F310AF0817
:100613008583198582188008858319858218D2AF4E
:10062300C8F0A3E9F0A3EAF0A3EBF0A37908E70984
:10063300F0A3D8FAECF0A3EDF0A3EEF0A3EFF0A350
:10064300D0E0F0A3D0E0F0A3D0E0F0A3E520F0A346
:10065300E5F0F0A322851983851882E0C0E0A3E0CA
:10066300F9A3E0FAA3E0FBA37808E0F608A3DFFA16
:10067300E0FCA3E0FDA3E0FEA3E0FFA3E0C0E0A352
:10068300E0C0E0A3E0F5D0A3E0F520A3E0A3F5F0FC
:1006930010AF0885831985821880088583198582A0
:1006A30018D2AFD082D083D0E0F8D0E03275F0100A
:1006B3008E218F228582268583258518828519833D
:1006C300E0CEA3E0CF852682852583EBC9EAC8ED7A
:1006D300CBECCAC3E833C8E933C9EA33CAEB33CB3B
:1006E300C3EA9EF524EB9FF523B35004AB23AA245E
:1006F300EC33CCED33CDD5F0DAAE21AF2222D0836B
:10070300D082ECC0E0EDC0E0E493A3FCE493A3FD4E
:10071300ED4C600D1207D9EC24FFFCED34FFFD8096
:10072300EFE493A3FCE493A3FDED4C600D1208AC3E
:10073300EC24FFFCED34FFFD80EFD0E0FDD0E0FCC6
:10074300E493A3C0E0E493C0E022D083D082E9C065
:10075300E0E493A3C386F0C5F095F0F908E493A30E
:1007630086F0C5F095F0700BE493A3C3994005E9B7
:10077300048002A3E475F002A42582F582E5F03536
:1007830083F583D0E0F9E493A3C0E0E493C0E022CF
:10079300851983851882E0A3FEE0A3F5207808E09D
:1007A300A3F608DFFAE0A3FFE0A3C0E0E0A3C0E004
:1007B300E0A3C0E0E0A3C0E0E0A3C0E010AF088581
:1007C30082188583198008858218858319D2AFD052
:1007D30083D0820209C6C0E0C3E4939608740193F0
:1007E3009618400FE49366700808740193661870B6
:1007F300007019A3A3C3E49396087401939618A3F6
:10080300A3400DD0E0D0E0D0E002073DA3A3A3A313
:10081300A3A3D0E022D083D082C5F0E493A3C5F094
:10082300C395F0F5F0E493A3C395F04005E5F00418
:100833008001E475F002A42582F582E5F03583F5A5
:1008430083E493A3C0E0E493C0E0227404800474BF
:10085300028000CCC0E0EDC0E0E518C39CCCAD192C
:1008630050011D10AF068C188D1980068C188D1938
:10087300D2AF120923D0E0FDD0E0FC227402800045
:10088300CCC0E0EDC0E0E518C39CCCAD1950011D10
:1008930010AF068C188D1980068C188D19D2AF12E3
:1008A3000901D0E0FDD0E0FC22C0E0C0F088F0E414
:1008B300936670080874019366187000A8F0A3A3E8
:1008C300700BD0F0D0E0D0E0D0E002073DA3A3D07E
:1008D300F0D0E022D083D082CCC0E0E493A36006C2
:1008E3001209821470FAE493A36006120A79147051
:1008F300FAD0E0FCE493A3C0E0E493C0E022CAC0D2
:10090300E0E493A3C582CCC582C583CDC583F0A3A0
:10091300C582CCC582C583CDC583DAE5D0E0CA22C2
:10092300CAC0E0E0A3C582CCC582C583CDC583F030
:10093300A3C582CCC582C583CDC583DAE6D0E0CA20
:10094300227009080808226016181818C6C333C68F
:1009530008C633C608C633C608C633C6D5E0EA227E
:10096300C008C3E096F50808A3E096420808A3E090
:1009730096420808A3E09645087001D3D00822C028
:10098300E0E493A3D39C5010E493A3C39C400AD008
:10099300E0D0E0D0E00208F4A3A3A3D0E022C0E0BB
:1009A300C0D0E8C0E0A2AFE433F8D2AFC2C7751A33
:1009B30000A2E092AFD0E0F8D0D0D0E032C09FF5F3
:1009C3009FE473D09F22D083D082C09FE493C0E082
:1009D300740193C0E0740293F59F227404800A7437
:1009E300038006740280027401C0E0F4041209F962
:1009F300D0E0120C45222518F58210AF08F51840F7
:100A03000215198008F51840021519D2AF8519830C
:100A130022BB0102E722C082C08389828A83BB0092
:100A230003E08002E493D083D08222C0D025181043
:100A3300AF08F518500205198008F518500205197A
:100A4300D2AFD0D0226016080808C6C313C618C692
:100A530013C618C613C618C613C6D5E0EA22C3E0E8
:100A6300C696F608A3E0C696F608A3E0C696F6086F
:100A7300A3E0C696F622C0E0E493A36C7009D0E02D
:100A8300D0E0D0E00208F4A3A3D0E022251810AFF1
:100A930008F518400215198008F51840021519D2F7
:100AA300AF22E76670100809E766700A0809E7666F
:100AB30070040809E76622C3E09608A3E09608A33A
:100AC300E09608A3E096A2D265D03322E0667010C8
:100AD30008A3E066700A08A3E066700408A3E06652
:100AE30022C3E697F60809E697F60809E697F6089B
:100AF30009E697F622C3E096F008A3E096F008A370
:100B0300E096F008A3E096F022E627F60809E63718
:100B1300F60809E637F60809E637F622E026F6086E
:100B2300A3E036F608A3E036F608A3E036F622E0A3
:100B330026F008A3E036F008A3E036F008A3E03679
:100B4300F022C0E0E8C0E0E58124FCF8E6A2E7D0AB
:100B5300E0F8D0E022700422600D18C6C333C60843
:100B6300C633C6D5E0F41822E657F60809E657F669
:100B73000809E657F60809E657F622E056F608A3F1
:100B8300E056F608A3E056F608A3E056F622E05630
:100B9300F008A3E056F008A3E056F008A3E056F0EF
:100BA30022E647F60809E647F60809E647F6080984
:100BB300E647F622E4C396F608E496F608E496F6CA
:100BC30008E496F622C3E7960809E7960809E7962C
:100BD3000809E79622C6F4C608C6F4C608C6F4C6D2
:100BE30008C6F4C622600D08C6A2E713C618C613CA
:100BF300C6D5E0F322C3E09608A3E09608A3E096E7
:100C030008A3E0962275D000758140751801751907
:100C1300030002058EE0F608A3E0F608A3E0F60859
:100C2300A3E0F622600C08C6C313C618C613C6D5C4
:100C3300E0F422E6F008A3E6F008A3E6F008A3E652
:100C4300F022CAC0E0E6F0A308DAFAD0E0FA22E024
:100C5300FAA3E0FBA3E0FCA3E0FD22EAF0A3EBF0A0
:100C6300A3ECF0A3EDF022E5C754F84401F5C779EE
:100C730001222518F582E43519F58322C2AF75D612
:100C83009F020000221209C98454001209C9D854D2
:100C9300001209C9F454001209C92855001209C9E0
:100CA3005D55001209C95456001209C909570012AB
:100CB30009C95859001209C9AB5A001209C94E5B38
:100CC300001209C9DB5B001209C9885C001209C95B
:100CD300BC5C001209C9375D001209C9115E00121C
:100CE30009C9CF5E001209C9E75E001209C97E5F18
:100CF300001209C9EF61001209C9F563001209C99D
:100D03001364001209C934A3021209C969A30212A8
:100D130009C98FA3021209C9C9A3021209C9DBA316
:100D2300021209C92DA4021209C98EA4021209C90B
:100D330018A5021209C9BCA5021209C904A6021208
:100D430009C93EA6021209C95BA6021209C980A6F7
:100D5300021209C9D2A6021209C9EBA6021209C9D5
:100D630011A7021209C94CA7021209C990A70212BE
:100D730009C9B7A7021209C908A8021209C9B8A864
:100D8300021209C970A9021209C938AA021209C9B3
:100D9300FBAA021209C958AB021209C9DEAB02123F
:100DA30009C9EDAB021209C9F8AB021209C91EAD9C
:100DB300021209C92FAD021209C9A5AD021209C950
:100DC30037AE021209C98FAE021209C955AF02121A
:100DD30009C97CAF021209C99AAF021209C9EDAF62
:100DE300021209C932B0021209C93FB0021209C97D
:100DF300D3B1021209C938B3021209C954B4021299
:100E030009C9BEB6021209C9C9B6021209C9D3B6C5
:100E1300021209C9DEB6021209C9E8B6021209C9EB
:100E2300F2B6021209C9FDB6021209C908B70212C5
:100E330009C939B7021209C95DB7021209C981B7D5
:100E4300021209C9E6B7021209C92AB8021209C96E
:100E530046B8021209C9BDB8021209C9F5B802128F
:100E630009C941B9021209C99EB9021209C980BB55
:100E7300021209C906BC021209C9DFBC021209C960
:100E8300EFBF021209C944C0021209C971C002129C
:100E930009C9BDC1021209C90DC2021209C962C240
:100EA300021209C963C3021209C9FBC3021209C9A9
:100EB3007DC4021209C91DC5021209C9CB800112E2
:100EC30009C90481011209C9DE82011209C91D83FE
:100ED300011209C96783011209C90C84011209C9E6
:100EE3006B84011209C99F84011209C90C8501127F
:100EF30009C92986011209C93187011209C9C7879E
:100F0300011209C90E8B011209C9B78B011209C954
:100F1300938C011209C9F48C011209C9118E0112B3
:100F230009C93B90011209C9F290011209C9FC9049
:100F3300011209C92F91011209C9F691011209C9B8
:100F43009192011209C9F692011209C91F93011264
:100F530009C94193011209C97095011209C947963C
:100F6300011209C98B96011209C9F896011209C920
:100F7300B397011209C9E597011209C9299801120A
:100F830009C95F98011209C9B498011209C90999DD
:100F9300011209C99D99011209C9FF99011209C9D1
:100FA300679A011209C9109C011209C9F89C011220
:100FB30009C93A9E011209C968A0011209C928A1E9
:100FC300011209C957A3011209C9FAA3011209C9D8
:100FD30038A4011209C9E4A5011209C9F8A501122F
:100FE30009C902A6011209C92CA6011209C938A60A
:100FF300011209C957A6011209C90EA7011209C98D
:101003004DA7011209C957A7011209C961A7011206
:1010130009C9ACA7011209C90FA8011209C916A968
:10102300011209C9D1A9011209C9D0AA011209C91A
:10103300C9AB011209C966AC011209C908AD011295
:1010430009C91FAD011209C956AD011209C974AD11
:10105300011209C9B8AD011209C9DDAD011209C9EF
:10106300C3AE011209C92FAF011209C9A9AF0112F9
:1010730009C9B8B0011209C9F7B1011209C9D5B23A
:10108300011209C937B3011209C9F1B3011209C920
:1010930014B4011209C9E8B4011209C933B5011224
:1010A30009C975B5011209C9CCB5011209C903B63D
:1010B300011209C931B6011209C96AB6011209C977
:1010C3008FB6011209C917B7011209C93AB901123A
:1010D30009C999B9011209C92DBA011209C999BAE5
:1010E300011209C9EDBA011209C927BB011209C9C5
:1010F3000080041209C93880041209C959800412F6
:1011030009C99B80041209C90181041209C90B8111
:10111300041209C91B81041209C95081041209C9A7
:101123009984041209C94386041209C94388041225
:1011330009C989BC011209C9E3BC011209C93FBD30
:10114300011209C98BBD011209C9A6BD011209C942
:10115300D7BD011209C9F4BD011209C900BE0112AC
:1011630009C974BF011209C98DBF011209C9F4BFAE
:10117300011209C907C0011209C915C0011209C921
:10118300C9C0011209C9ADC1011209C9B3C2011213
:1011930009C939C3011209C943C3011209C9B0C33B
:1011A300011209C9C7C3011209C9F9C3011209C947
:1011B30032C4011209C95CC4011209C9BDC40112B8
:1011C30009C9DDC4011209C9FBC4011209C941C51A
:1011D300011209C967C6011209C9B4C6011209C9B6
:1011E300E3C6011209C959C7011209C981C701120E
:1011F30009C9BAC7011209C9C8C7011209C920C858
:10120300011209C96FC8011209C9AEC8011209C97F
:10121300DEC8011209C90AC9011209C915C9011297
:1012230009C933C9011209C9F5C9011209C9FFC99D
:10123300011209C93ACA011209C950CA011209C9DE
:1012430059CA011209C9AECA011209C9C2CA011297
:1012530009C9D0CB011209C9E3CB011209C9FACBE1
:10126300011209C90FCC011209C9B1CC011209C974
:1012730034CD011209C9F2CD011209C9FDCD011204
:1012830009C923CF011209C93FCF011209C991CF5F
:10129300011209C9D0CF011209C9E5CF011209C949
:1012A30027D0011209C974D2011209C9F2D201125D
:1012B30009C965D3011209C987D5011209C99FD587
:1012C300011209C9A2D5011209C9AED5011209C972
:1012D300C2D5011209C9CAD5011209C9FDD5011226
:1012E30009C9ADD6011209C923D7011209C996D775
:1012F300011209C94AD8011209C9FFD8011209C943
:101303001ED9011209C9BED9011209C9CAD90112CC
:1013130009C9F5D9011209C9F8D9011209C927DA8E
:10132300011209C93CDA011209C9A6DA011209C975
:10133300CEDB011209C9A6DC011209C931DD011294
:1013430009C94ADE011209C907DF011209C940DFD1
:10135300011209C971DF011209C911E0011209C99A
:1013630041E0011209C91CE1011209C9B5E10112E9
:1013730009C940E2011209C9F1E2011209C973E383
:10138300011209C9A5E3011209C9E6E3011209C95A
:101393001BE4011209C9C4C9031209C946CA0312CD
:1013A30009C986CA031209C9FFCA031209C9D9CDDB
:1013B300031209C969D0031209C935D4031209C933
:1013C3006DD4031209C99BD4031209C92DD5031285
:1013D30009C981D5031209C9B4D5031209C9DDD5D9
:1013E300031209C927D6031209C9A8D6031209C9CA
:1013F3005DA9031209C9E7A9031209C95CAA03126B
:1014030009C9DEAA031209C9BCAD031209C9DFADBC
:10141300031209C938AE031209C936AF031209C949
:10142300A0AF031209C973B1031209C9DBB20312D6
:1014330009C962B3031209C9F0B3031209C959B444
:10144300031209C9A7B4031209C967B5031209C96D
:1014530090B6031209C90DB7031209C973B7031272
:1014630009C9B6B7031209C95CB8031209C93DB962
:10147300031209C9F588041209C91089041209C99C
:101483002D89041209C95C8D041209C9FA8F04124B
:1014930009C95890041209C97390041209C9979095
:1014A300041209C9E290041209C991F8031209C987
:1014B300ABF8031209C906FB031209C98DFB03121A
:1014C30009C92AFC031209C91DFD031209C975FDC7
:1014D300031209C9F3FD031209C961FE031209C905
:1014E30069FE031209C981FE031209C9ECFE031246
:1014F30009C940FF031209C90CD7031209C96CD7E4
:10150300031209C9F3D8031209C970D9031209C90F
:101513003AE0031209C9B1E0031209C90DE103124C
:1015230009C973E1031209C9C3E1031209C971E2CD
:10153300031209C968DD041209C99BDD041209C934
:10154300FDDD041209C902DE041209C9D2DE041248
:1015530009C913DF041209C916DF041209C9C7D95F
:10156300041209C9D8D9041209C958DA041209C9DD
:10157300A0DA041209C98CDB041209C9B1E7041209
:1015830009C9B6D7041209C995D9041209C9E0B922
:10159300031209C9C8BA031209C9EFBA031209C968
:1015A30033BB031209C951BB031209C9CFBB0312D1
:1015B30009C907BC031209C93FBE031209C934BFD5
:1015C300031209C94FC0031209C9E1C0031209C9B3
:1015D30066C1031209C91EC2031209C9BAC20312A2
:1015E30009C909C3031209C9DAC3031209C9D5C456
:1015F300031209C97BC5031209C9A6C7031209C986
:10160300D9C8031209C93AC9031209C994C90312F3
:1016130009C952D5041209C975D5041209C96FD66F
:10162300041209C918D7041209C95CD7041209C9DD
:101633004AED041209C9BEED041209C9CEED041224
:1016430009C979E4011209C97CE4011209C9CBE58E
:10165300011209C93FE6011209C9CDE6011209C900
:101663008AE7011209C947E8011209C914E90112FD
:1016730009C9D1E9011209C9F2EB011209C9AFEC99
:10168300011209C96CED011209C900EE011209C961
:101693000BEF011209C97EEF011209C9C0F1011252
:1016A30009C927F3011209C98EF4011209C9E9F422
:1016B300011209C980F5011209C963F6011209C9AA
:1016C30095F6011209C991F9011209C932FA0112F9
:1016D30009C9B0FA011209C98CEE031209C9E4EE73
:1016E300031209C98CEF031209C9BBEF031209C91D
:1016F300E0EF031209C904F1031209C9704700128C
:1017030009C976F1031209C9B4F1031209C937F201
:10171300031209C9DEF2031209C92DF3031209C921
:10172300AEF3031209C91CF4031209C9A5F4031289
:1017330009C936F5031209C98BF5031209C9E8F57E
:10174300031209C9FAF5031209C90CF6031209C9F0
:1017530032F6031209C93BF6031209C93C540012BD
:1017630009C925F8031209C9FF97041209C9229967
:10177300041209C97E99041209C99899041209C966
:10178300A999041209C9A49C041209C9C49C04128E
:1017930009C9A9CD041209C9EECD041209C939CE6C
:1017A300041209C9CACF041209C9F7E2021209C90E
:1017B300C1E4021209C916E5021209C997E7021228
:1017C30009C9FCE7021209C908EB021209C96EEB49
:1017D300021209C9AEED021209C9A7EE021209C924
:1017E30014EF021209C9A7EF021209C956F0021237
:1017F30009C9B1F0021209C912F1021209C973F140
:10180300021209C95CF3021209C94EF5021209C991
:101813003AF8021209C97CF8021209C9DFF8021268
:1018230009C9F1F8021209C966F9021209C922FAB3
:10183300021209C95FFE021209C92AFF021209C96D
:10184300F8ED041209C913EE041209C923EE0412B8
:1018530009C96FFF031209C9FCAF041209C913B008
:10186300041209C903B1041209C94BB1041209C90D
:1018730069B1041209C9ABB1041209C902B2041255
:1018830009C946B2041209C996B2041209C96EB451
:10189300041209C9C1B4041209C9E9EA041209C945
:1018A30011EB041209C930EB041209C950EB0412FD
:1018B30009C9AAEB041209C9CFEB041209C944648C
:1018C300001209C9A964001209C92065001209C9D7
:1018D3007A66001209C90C67001209C9D867001299
:1018E30009C9F167001209C95368001209C9A2683E
:1018F300001209C9BA68001209C91A69001209C994
:10190300A469001209C9BD69001209C9676C0012F4
:1019130009C90B6D001209C94A6D001209C9AB6DE3
:10192300001209C9D26F001209C94F70001209C908
:10193300E970001209C90871001209C92071001267
:1019430009C97671001209C9BB71001209C9D271A4
:10195300001209C96972001209C98972001209C902
:10196300E972001209C95A73001209C9BC73001243
:1019730009C90177001209C99477001209C9F077E0
:10198300001209C9BE78001209C9E778001209C913
:10199300EA78001209C90D79001209C9A379001266
:1019A30009C9D579001209C9F879001209C92D7A34
:1019B300001209C9757A001209C9917A001209C97E
:1019C300D17A001209C9127B001209C97CE60412FC
:1019D30009C98DE6041209C90CE7041209C900807C
:1019E300031209C92380031209C94080031209C9DC
:1019F3003281031209C9B181031209C91F8203127B
:101A030009C9B582031209C96E83031209C9278460
:101A1300031209C92085031209C9EC85031209C9F8
:101A23005786031209C9138D031209C94F8F031275
:101A330009C99E8F031209C92E90031209C9319156
:101A4300031209C9C392031209C9DC93031209C91A
:101A5300D0C5021209C9B9C6021209C959C702126F
:101A630009C9BCC7021209C97DC8021209C92EC916
:101A7300021209C9A9CB021209C91ECC021209C953
:101A830014CD021209C9AACD021209C962CE0212EB
:101A930009C963D0021209C96ED2021209C962D3FD
:101AA300021209C9C5D6021209C9E4D7021209C92B
:101AB300D4D8021209C98DD9021209C932DA021225
:101AC30009C9BEDC021209C94CDE021209C99EDE35
:101AD300021209C962DF021209C90FE0021209C921
:101AE30036E1021209C98B95031209C92E96031216
:101AF30009C9C196031209C93C97031209C99F97E3
:101B0300031209C96998031209C98C99031209C9F7
:101B1300369A031209C98B9A031209C9FC9A031254
:101B230009C9BB9B031209C9D09B031209C9109CA5
:101B3300031209C9309C031209C93F9C031209C946
:101B4300509C031209C92D9D031209C94A9E031211
:101B530009C9689E031209C96D9E031209C9DC9E57
:101B6300031209C909A0031209C94FA1031209C924
:101B73000AA3031209C948A4031209C95CA50312E5
:101B830009C9BCA5031209C9D8A5031209C940A7ED
:101B9300031209C99EA8031209C92EFB011209C920
:101BA300ACFB011209C9EAFB011209C9B2FC01121B
:101BB30009C928FD011209C9C9FD011209C9D4FEC9
:101BC300011209C96CD0041209C9E4D0041209C96D
:101BD30001D1041209C9E2D2041209C9D2B4041210
:101BE30009C98CB5041209C9F9B5041209C93BB76F
:101BF300041209C9C4B7041209C95FB8041209C998
:101C03006FB8041209C9EEB8041209C972EF0412BD
:101C130009C963EE041209C999EE041209C9E4E87B
:101C2300041209C9F5E8041209C9D0E9041209C963
:101C3300ED7F001209C957EF041209C9EAE904123A
:101C430009C9FAE9041209C914EA041209C9E3EA41
:101C5300041209C9CFCA041209C972CB041209C9F3
:101C63008ECD041209C9557B001209C9667B001287
:101C730009C9FB7B001209C9DE7C001209C9477F31
:101C8300001209C9F87F001209C9E5D2041209C973
:101C930029D3041209C9B1D4041209C94FD50412B6
:101CA30009C932EF041209C937EF041209C93CEF1D
:101CB300041209C93FEF041209C91FAB041209C971
:101CC30040AB041209C973AB041209C989AB0412EE
:101CD30009C91BAC041209C9B0AC041209C904AD8B
:101CE300041209C9BAAF041209C9DBAF041209C946
:101CF3002D91041209C99591041209C9B8920412CD
:101D030009C90893041209C93493041209C94D93EC
:101D1300041209C96B93041209C91E94041209C958
:101D23003795041209C9F695041209C9F1960412EC
:101D330009C95797041209C9AB97041209C924DFCB
:101D4300041209C94DDF041209C961DF041209C96C
:101D5300A9DF041209C9F2DF041209C93BE0041226
:101D630009C94CE0041209C9ABE0041209C9AEE089
:101D7300041209C9BCE0041209C9CDE0041209C95F
:101D830003C1041209C93DC1041209C9A7C1041240
:101D930009C9E3C1041209C92AC2041209C95CC2F0
:101DA300041209C997C2041209C9C1C2041209C99C
:101DB300E7C2041209C94BC3041209C979C3041247
:101DC30009C90CC4041209C924C4041209C939C4B9
:101DD300041209C9C4EE041209C9E1EE041209C9C7
:101DE300759E041209C914A0041209C921A0041282
:101DF30009C94EA0041209C97FA0041209C9D8A0B9
:101E0300041209C92EA1041209C9C1A1041209C9E6
:101E130044A2041209C9D3A2041209C929A30412B2
:101E230009C964A3041209C957A4041209C96BA4FC
:101E3300041209C97EA4041209C9A0A4041209C981
:101E430096EC041209C9C3EC041209C9F0EC04129C
:101E530009C91DED041209C971C4041209C998C442
:101E6300041209C9C3C4041209C968C5041209C903
:101E7300C9C7041209C9ECC7041209C9FEC7041271
:101E830009C90CC8041209C935C8041209C950C8C4
:101E9300041209C96BC8041209C986C8041209C906
:101EA300FFC8041209C940C9041209C975C904123B
:101EB30009C9C6C9041209C91BCA041209C948CAF7
:101EC300041209C956CA041209C96ECA041209C9FF
:101ED300BCCA041209C979FF011209C9E6FF01123C
:101EE30009C9CCE2031209C915E3031209C93EE388
:101EF300031209C957E3031209C977E3031209C996
:101F0300DFE3031209C919E4031209C94CE90312F7
:101F130009C907EB031209C949EB031209C9B3EB5A
:101F2300031209C926ED031209C956ED031209C9A3
:101F330070ED031209C984ED031209C9D4ED03122C
:101F430009C93DEE031209C952EE031209C951E250
:101F5300041209C968E2041209C98FE2041209C90B
:101F6300B3E2041209C9DEE2041209C90CE3041244
:101F730009C92BE3041209C960E3041209C986E302
:101F8300041209C9DDEB041209C928EC041209C9BA
:101F930002B9041209C919B9041209C975BA04129C
:101FA30009C9AABA041209C9D2BA041209C9FFBAE3
:101FB300041209C918BB041209C955BB041209C983
:101FC300D2BB041209C918BC041209C96ABC0412A1
:101FD30009C99DBC041209C9C3BC041209C9A3FFE2
:101FE300021209C9CBFF021209C9C3E3041209C9CA
:101FF300D5E3041209C91CE5041209C91FE504123B
:1020030009C922E5041209C94EE5041209C95EE5AE
:10201300041209C974E5041209C98FE5041209C938
:10202300AAE5041209C9D6E5041209C9FAE504129E
:1020330009C90BE6041209C914E6041209C91DE60D
:10204300041209C932E6041209C947E6041209C990
:1020530066E6041209C979E6041209C9A9DB041268
:1020630009C994DC041209C9BBDC041209C9D1DC17
:10207300041209C90ADD041209C9DEE0041209C900
:102083007EE1041209C9DEE1041209C921E2041246
:1020930009C986EF041209C922BD041209C941BD49
:1020A300041209C9A3BD041209C9D1BD041209C987
:1020B300FBBD041209C91FBE041209C929BF0412BA
:1020C30009C940BF041209C964BF041209C994C0F5
:1020D300041209C9A8C0041209C9C5C0041209C958
:1020E300D7C0041209C9D7A4041209C99AAA0412B1
:1020F30009C99FAA041209C90080021209C9A3824F
:10210300021209C92184021209C93F84021209C9B2
:102113003386021209C97B87021209C9E9870212B1
:1021230009C95689021209C9A989021209C9C08BB2
:10213300021209C92E8D021209C97B8D021209C927
:10214300B18D021209C94C8E021209C9D78E02122F
:1021530009C9F48E021209C9168F021209C964A0B3
:10216300021209C982A0021209C99CA0021209C95C
:1021730079A2021209C9A77F001209C905EF041247
:1021830009C9F746001209C99E46001209C9324619
:10219300001209C90946001209C9AF45001209C94D
:1021A300CD44001209C91043001209C9DC420012D0
:1021B30009C9A942001209C98D42001209C99641F1
:1021C300001209C94E41001209C9833F001209C90F
:1021D300033F001209C9E93E001209C9683E001213
:1021E30009C9283D001209C98A3C001209C9583C93
:1021F300001209C9953B001209C9C039001209C967
:102203005139001209C92339001209C97A5300123E
:1022130009C9ED52001209C9E052001209C9EE4F73
:10222300001209C9404D001209C92039001209C919
:102233000D39001209C9A538001209C98C380012DA
:1022430009C9104C001209C95637001209C92037B1
:10225300001209C9E336001209C98436001209C9FC
:10226300644B001209C994F7031209C953360012CB
:1022730009C90E33001209C9FF31001209C98E3191
:10228300001209C95331001209C91E31001209C9CC
:102293001231001209C97230001209C9B92F001294
:1022A30009C98C2D001209C9182B001209C9D62A95
:1022B300001209C9A129001209C95629001209C926
:1022C3008528001209C9DC27001209C9B549001283
:1022D30009C9B227001209C97827001209C912F1E6
:1022E3000300000080FBE47387000100CC1424008A
:1022F3000200A51425000200A71426000200A91459
:1023030027000200AB1428000100AD1429000100CE
:10231300AE1484000400AF1486000100B3142A0035
:102323000100B4142B000100B5142C000100B914F2
:102333002D0008003A0E2E000100BA142F000100F0
:10234300BB1430000100BC1431000100BD14320085
:102353000100420E33000100430E34000100BE149D
:1023630036000100440E38000100BF14390001009B
:10237300B81483000200CA1463000100C814640087
:102383000100B61465000100B7146D000100C91403
:102393006E000200380E43000100C0144400020026
:1023A300C11445000100C31446000200C4144700D1
:1023B3000800460E48000100C6144B000100C71474
:1023C30004000100CD14A1000100D0143700010066
:1023D300CF1488000100CE143C000100450E00001C
:1023E3000000000000013636010100010201000176
:1023F3000301000104010606050200000701003481
:102403000801000F090401010D0100FF0E0800007F
:1024130017020000190100FF1A0100011B0100FE51
:102423001C0100081D0200001F0100012001000122
:10243300210200002301000F2402000026010001F5
:1024430027010008280200FF2A0100072B01024090
:102453002C0100002D0100012E0100012F0100FFBE
:1024630030010B1C310800003A0100083B01000F4A
:102473002F01000003027102300160021102700299
:102483000102020202028002100261023A004100CC
:1024930063027302720262024302000213023800F3
:1024A3000002000204021202000200020002000203
:1024B30004020402370037003C02440200023900E0
:1024C30000020002650200023502810200020502D9
:1024D30082028302000203007100300160001100D8
:1024E30070003102200350048000100061000000DE
:1024F30014006300730072006200430000001300C5
:1025030006000000000004001200000000000000AC
:10251300000004000400370037003C0244000000C0
:10252300000000000000650000003500810000008D
:102533000500000083000000010371030103010390
:102543000103010301032203020301031003000338
:10255300000300030003000300030003420300031E
:1025630024030603000300030403120325032303C8
:1025730025032303040304030003000300034403AC
:1025830000030003230300036503210035038103D4
:1025930000030503000300030003010171010101AE
:1025A300010111010101310101010101800110014A
:1025B30061013B0014006301730172016201430175
:1025C3000001130106013D01350004011201000160
:1025D30000010001000104010401330133013C0146
:1025E300440132013600000100016501000135009C
:1025F3008101000105018201830100013600010010
:10260300060000000F0000000000000000000000B2
:10261300000003FFFF00000403FFFF0000FFFF0FA4
:10262300F4010005C4040320000100040B000000B2
:10263300000000000003010F01008C1A0200021ABF
:102643000300081A04000E1A0500141A0600201AC3
:102653001100381A14003E1A1500321AFFFF000049
:10266300CE11FE11D411DA11F811EC11E611041296
:102673000A1210121C12E011C811C21103EAF5E587
:10268300D5D5C5B5A59595858575756565555545A7
:1026930045353525251515050A400F020A0F051C7A
:1026A3000F07100F0CEC0E0DFE0EFF000000160FAF
:1026B30000000B150B020002220F320000065A69BC
:1026C30067426565416C6C69616E63653039000012
:1026D3000000000000008967452301EFCDABBE1267
:1026E300D012D6129811DC1292119E112A1348139C
:1026F3004E1330133C13361300034948424D181749
:1027030025050200383C3E363B3B352B432C00016C
:102713001916181616152303000C0E020B040B0AC8
:102723000708000F303017181921301B1D1F3030D8
:102733003016181920231A1C1E30F21116124213D8
:10274300221228121213E212E812F412EE120204F9
:102753000201010101090200BE040A0800E8031591
:10276300001E000E0008040C05180908FF080F0FCF
:102773000400100A0C74F7120522E9FE1213F0EE9E
:10278300901459F090030C74BAF0A37422F09003E0
:102793000E74B4F0A37422F090031074AEF0A3741B
:1027A30022F090031274A8F0A37422F0023CDD74AB
:1027B300F7120522E9FE900302E4F0EE900301F024
:1027C3007C467D0E7A037B0312208C9014C6E09026
:1027D300030BF0122284023CDD74F41205228A08F2
:1027E3008B09EB5480605B90030112534E604A8E59
:1027F300828F83E06401703212446412084EEE2427
:1028030012126434F50A780A1209EA1228781209B6
:10281300E6EE240B122ACF120852EE241712535E4F
:102823001213A87409120A2E8008E06402700312BE
:1028330021D0EEFAEFFB121702AA08E5096480FB28
:102843008030EA5402600C9014587401F0EA640278
:10285300FA801FEA54046005EA640480F3EA54082A
:10286300600C12227EE5086408FAAB0980047A0042
:102873007B00022951EE240FF50AEF3400F50B78A3
:102883000A2274F41205228A088B098A828B83A395
:10289300A3A3E02410123CE9FA1245957003022920
:1028A300348E828F837402F0A3E4124583A3A3A31F
:1028B300A3E8F0A3E9124206A3A3A3A3A3A3A3F04F
:1028C300E5082403F8E5091238AA2410123B508EB8
:1028D300828F83A3A3A3A3F0EE2409FA122936124D
:1028E3003E25F5838882E0A2E58E828F83A3A3A38E
:1028F300A3A3500474018001E4F0E5082403F888DD
:10290300828983125438EA125C29EB122AD21229E3
:10291300411209E2125C5EEB123ED38E828F83A3D7
:10292300A3124471120A2EEEFAEFFB900301124533
:10293300E7801BEF3400FB8E828F83A3A322E0F595
:1029430008A3E0F509750A00780822120A2E7F040D
:1029530002079374F21205228A088B09ECFAEDFB45
:10296300740E120C75E0FC1214208A0C8B0DAE0C45
:10297300AF0DEE4F6023AC08AD0912140EE96019D8
:10298300AC08AD09EEFAEFFB121414E97007EEFA86
:10299300EFFB1214087900800279B402371B74EE3E
:1029A30012052274F7120A8F8A0A8B0BECFEEDFFD5
:1029B300750FB3750E00750C00750D00800CE50CDA
:1029C3002401F50CE50D3400F50D90275EE493F832
:1029D300740193F9C3E50C98E50D994003022AC0ED
:1029E300AA0CAB0D12146E8A088B09EA450960CE56
:1029F3008A828B83A3A3A3A3A3E0250EF50EF51070
:102A0300C3E50A9510E50B940050B37C157D00795E
:102A130000EEFAEFFB124268A3A3A3A3E50AC39552
:102A23000EF8E028C333F8E433F9E50828F582E526
:102A33000939F583A3A3A3A3A3A31249A5A3123D15
:102A430016EAFCEBFDEEFAEF1238FEA3E064017028
:102A53000A124464740112380D8043851882851963
:102A630083AC82AD838508828509831254361214A0
:102A730056E9602D7408120C75E0C0E0124464D06E
:102A8300E0F07408120C75E06403851882851983DD
:102A9300700CAC82AD83EE240B1237FA8003123E26
:102AA300B9850882850983123899A3A312454DC0BD
:102AB300E0EE2414122ACFD0E0F0750F00A90F74B2
:102AC30009120A2E7F0A020793EE240CF582EF12F5
:102AD30044B52274F7120522E9FE8A828B83A3A3ED
:102AE300A3A3A3A3E0540860298A828B83A3A3A38F
:102AF300A3A3A3E0540260178A828B83A3A3A3A397
:102B0300A3A3A3A3A3E06406600574E96E70031294
:102B1300229C023CDD74E812052274F7120A8F74BA
:102B230007120C7512427AE9851882851983F0EC35
:102B3300FEEDFF7424120C75780C120C187513003B
:102B43008E828F831254328E828F83A3A3A3E0F9E4
:102B530012142C8A148B15EA45157003022D32EEDC
:102B63002410124B3FA914120E3E8A168B17EA4506
:102B7300177003022D32EE2406F510EF3400F51121
:102B83007C00851082F583122D788E828F83A3A318
:102B9300A3E0851682851783A3A3A3124FB8F8A3D6
:102BA300E0F9851682851783A3A3A3A3E8F0A3E91D
:102BB300123309851682851783A3A3A3A3A3A3A313
:102BC300124B5F851682851783A3A3A3A3A3A3F048
:102BD300EE125C29EF122F921209E2EE125C5FEF04
:102BE300123ED3851682851783A3A3A3A3A3A3A30E
:102BF300A3A3124471120A2E751000022CB2850A87
:102C030082850B8312543612145C850882850983EE
:102C1300A3EAF0A3EB12448AA3A312423D1245FE9A
:102C2300E0A2E6500F850882850983A3A3A3A3A38B
:102C3300E0D2E1F0E5137063850882850983A3126E
:102C43004FA290035BE0687003A3E069704D8508B1
:102C530082850983A3A3A3124B4B780C1209DE745C
:102C630027120C75E0F50A780A1209EA7426120C89
:102C73007512085290036812085279007410120CEE
:102C8300751241F11221A67409120A2E8508828554
:102C93000983A3A3A3A3A3E04405F074012510FCB7
:102CA3008E828F83A3A3A3A3A3A3122D780510E57C
:102CB3000A450B6052851008C3E5089514E4951581
:102CC3005045E51075F006A4F8A9F0E51628F8E5D7
:102CD3001739F9E8240CF508E9123871E412448035
:102CE30064016003022C0175130185088285098341
:102CF3007401124485F8A3E0F9850882850983A34A
:102D0300E8F0A3E9022C18AA16AB17120E447816A2
:102D13001209E67425120C75E0FC7402120C75E0BE
:102D2300F9EEFAEFFB1222A27402120A2E80418EF0
:102D3300828F83A3A3A3E0C0E07404120C75D0E0D8
:102D4300123309C0E07405120C75D0E0F0E51445A8
:102D53001570097406120C7574B980077406120C89
:102D6300757410F07401120C75AA82AB831221AC36
:102D73007409025C6A12447A8E828F83A3A3A3E050
:102D8300F91214328A0A8B0B2274EA12052274F3A5
:102D9300120A8F8A0A8B0B89158C147423120C75F3
:102DA3001263E9AA0CFB120E32E9F513AA0CAB0D60
:102DB300120E38E5137003022F7F750E00800F8EFD
:102DC300828F83A3A3A3A3A3E0D2E3F0050EE50CB4
:102DD300240BF582E50D12310DE50EC39840030275
:102DE3002F76E5137003022F76E50E75F006A4F82F
:102DF300A9F0E50C28F8E50D39F9E8240CFEE912F1
:102E030061CCA3A3A3A3E0A2E040C1750F007508A2
:102E130008750900E5146003750F20124225E06070
:102E2300339003ABE064017017E50FD2E3F50F7540
:102E330009108E828F83123E57123D0A74FF80243D
:102E4300430F0C75080C8E828F83A3122F9E125C86
:102E53004BA38010E5156009E50FD2E6F50F750861
:102E63000A122FACF07402120C75E50F124FD7C083
:102E7300E07404120C75D0E0F07405120C75123C6A
:102E8300FB120C75E06003022F597408120C7512C3
:102E930038828E828F83A3A3A3A3F07408120C75C8
:102EA30012362FF583E508F0A3E50912412FE06000
:102EB300119003ABE0C0E07408120C75123628D0F1
:102EC300E0F0850C82850D83A3A3A3E0C0E0740822
:102ED300120C75125A6ED0E0125AA6C0E074081292
:102EE3000C7512363AD0E0F07408120C75122F9E4E
:102EF300A3A3125A75124FC1A3A3E0125A59EAF0C1
:102F0300A3EB124FCDC0E0E8242EF582E9122AD2BA
:102F1300D0E0F07408120C75125438850A82850BC0
:102F230083122F892424F582EB123EC2125C27E51B
:102F33000B122F921209E2123ED0EA242BF582EBF8
:102F4300122AD2124471120A2E851882851983AA75
:102F530082AB831221C48E828F83A3A3A3A3A3E096
:102F6300D2E0F0740C120C75E06003022DC215134D
:102F7300022DCF7900AA0CAB0D122296740D120A02
:102F83002E7F0E020793A3A3A3A3124FA6EA221236
:102F930044B5124F81751200781022124FA6850A8C
:102FA30082850B83A3A3A3A322A3122FB1221241D1
:102FB300CAE8F0A3E92274F212052274EB120A8F15
:102FC300EAFEEBFF89088E828F83A3A3A3A3A3A3A7
:102FD300A3A3E0F9120E5C8A0A8B0BEA450B607F10
:102FE300E50870047C0480027C088E828F83A3A38F
:102FF300A3A3A3A3A3A3E0F9120E62122ACC124245
:10300300A4605C888289831254347406120C75128E
:1030130030671254387408120C75123067A3A3E09A
:10302300C0E07410120C75D0E0124FE712543874DC
:103033000E120C7512427A7411120C75E4124D22A1
:10304300F9780A1209E6742059FC744059F974029C
:10305300120C75AA82AB831222A27402120A2E7476
:1030630015023718EAF0A3EB123CD3A3A3A32274EF
:10307300F712052274FA120A8FE9FE7F018F087D89
:103083000080047508000D123CE212310DEDC39867
:103093005025ED75F006A4F8A9F0EA28F8EB39F904
:1030A300E8125C22E912498E50D9540C60D5E0A293
:1030B300E250D37F0080CF8A828B83A3A3A3A3A3F1
:1030C300A3E0703EE508A2E0400574016E70338A08
:1030D300828B83A3A3A3A3A3A3740112591DE0C0EE
:1030E300E07403120C75D0E0125915E0C0E07404CB
:1030F300120C75D0E0F07405120C75EF123E8712B6
:1031030021AC7406023CDAF582EF124D32F822C08C
:1031130082C08379011222960237E2C082C083EA19
:103123004B60189003A7E064027010901458E4F009
:10313300EAFCEBFD7A021237EF8012901458740107
:10314300F07A027B00900301E0F912187C0237E267
:10315300C082C0839014E4E075F005A4FCADF0795F
:10316300007A9C7B131216E47B008012EB75F0054A
:10317300A4F8A9F01232FE74FEF0A304F00B90142D
:10318300E4E0F8EBC39840E40237E2C082C0837CFA
:10319300007B0080037C010B9014E4E0F8EBC39800
:1031A300504FEB75F005A4F8AAF0EAF91232F77064
:1031B30003A3E0F460E11232EEE82403080808E90F
:1031C3001238AA24FFF0A3E034FF124D22F8A3E043
:1031D300F9E84970C0EB75F005A4F8EAF91232EE8C
:1031E3008882898374FEF0A30412592EA3E4F0802D
:1031F300A6ECA2E050031237E90237E274F6120597
:1032030022EAFEEBFF9014E4E070030232E9EE24BD
:103213001112643470030232E98E828F83A3A3A355
:10322300A3A3A3A3A3A31241F96402600F8E828F09
:1032330083A3A3A3A3A3E070030232E97C0080016C
:103243000C9014E4E0F8ECC3985045EE240B122ADA
:10325300CF124FA2EC75F005A4FAABF0749C2AF5DB
:103263008274133BF583E0687003A3E06970D1EEC9
:103273002412126434FBEC75F005A4F8A9F0749ED3
:1032830028F582741339F583E06B70B479008058A4
:103293007C0080010C9014E4E0F8ECC39850EDEC52
:1032A30075F005A4F8A9F01232F77003A3E0F470E7
:1032B300E31232EEEE240B122ACF124102EAF0A3FC
:1032C300EB12330988828983A3123CCE740C124B10
:1032D3005F7A08FB900301E0F91218828B09EA4533
:1032E3000970031237E97901023826749C28F874AF
:1032F3001339F9221232FEE064FE22749C28F5820F
:10330300741339F5832212385DE02274F212052218
:1033130074F3120A8FEAFEEBFF8E828F83A3A3A3BB
:10332300A3A3A3A3A3A3A3E0F50A901458E07005F5
:1033330079BA023623750801750900750C00750DFD
:10334300007C087D007900851882851983AA82ABE9
:10335300831216E47405120C75740112364B54046F
:1033630060127402120C75E0D2E612364B540870E8
:1033730003750803E05410600674404508F508E03F
:10338300540860227402120C75E044C012364B5488
:1033930020600A7403120C75E0D2E08008740312F3
:1033A3000C75E0D2E1F08E828F83A3A3A3A3A3A322
:1033B300A3A3E07018120FDC8518828519831242CB
:1033C3007A7402120C75E0D2E2F0023475640F7065
:1033D300157402120C75E0D2E31245FF12426245E6
:1033E30008F5080234758E828F83A3A3A3A3A3A336
:1033F300A3A3E064028E828F837005122FAD80C970
:10340300A3A3A3A3A3A3A3A3E064037013851882B8
:10341300851983AC82AD83EEFAEFFB12224E805204
:103423008E828F83A3A3A3A3A3A3A3A3E0640170AA
:10343300419003ABE0601C7402120C75E0D2E312FE
:1034430045ED851882851983123EC5750910750AE5
:10345300FF80187402120C75E0440C125A9374FD29
:10346300F0A374FFF074044508F5088E828F83126D
:1034730063E9124988503A7402120C75E0540C70D7
:103483001B8E828F83125438121B52E9700579BB4D
:103493000236237402120C75E0D2E5F0124988500B
:1034A300107402120C75E0540C64047004E0D2E54D
:1034B300F0EE2411126434C0E07404120C75D0E0F1
:1034C300123CFD120C75E0600302361C7408120CEA
:1034D3007512362F123641EE2418126434C0E0E818
:1034E300125C13E9122AD2D0E0F0EE2419126434EC
:1034F300C0E07408120C75E0241312387AD0E0127D
:103503003D23640170119003ABE0C0E07408120C1A
:1035130075123628D0E0F07408120C75123B28247B
:1035230017FAEF123B57FCE8241CF582E9122AD262
:10353300EC124B5F8E828F83A3A3A3A3A3A3A3A3A6
:10354300A3E0C0E0E82422F582E9122AD2D0E0F019
:103553007408120C7512363AE50AF07408120C75E9
:10356300123B2D2424F582E9125271A3E50D125268
:10357300CAFCA3E0FDE82426F582E9122AD2ECF086
:10358300A3ED12383912424FE82428F582E9122AB2
:10359300D21254CDC0E0E8242FF582E9122AD2D00A
:1035A300E0F0EE241B126434C0E07408120C7512B0
:1035B3005A67D0E0F0EE241A126434C0E0740812A3
:1035C3000C75E0242E12387AD0E0125A8B1229425D
:1035D3001209E2EE2411122ACF12424F740B120C7D
:1035E3007512446B120A2EEE241512643454406093
:1035F3001B9003241242A46013851882851983AAA1
:1036030082AB839003251238C21222E98518828582
:103613001983AA82AB831221C4740C120C75E0F9CE
:10362300740D023718E0241512387E22123B312420
:103633000FF582E9340022E0242312387E22F58339
:10364300E508F0A3E509F022F0EE2415124D2F2230
:1036530074F71205227E638A828B83E0600C7905FE
:10366300120D00E9F87456C398FE900353E0600C02
:10367300F9120D00E9F8EEC39824F2FEEEF9023CCC
:10368300DD74F612052274FE120A8F8518828519DD
:103693008312427AE9FEECFAEDFB740C120C75E02E
:1036A300FC9004621242A4603285188285198385D6
:1036B300820885830978081209E67D01EEF99004F2
:1036C300621238BF1222E97402120A2E8B09EA45EC
:1036D3000960047900800679B2800279B602382144
:1036E30074F7120522E9FE7409120C75E0FF9003CA
:1036F3000C1242A4601AEFF50878081209EAEEF9F1
:1037030090030C1238BF1222E97401120A2E8002B0
:1037130079B6023CDD120A2E7F0602079374F51276
:103723000522EAFEEBFF8C088D09750A01125EA7DC
:10373300123803700B90035B1238F4123EC5800EEF
:10374300AC08AD09EEFAEFFB120D66E9F50AA90A1A
:1037530002564F74F6120522EAFEEBFF7A0C7B0049
:1037630012179EEA4B606BEE24201264348A828B1C
:1037730083F0EE24211237D8F0EE24221237D8A397
:10378300F0EE24231237D8A3A31244AA124FAAE8B7
:10379300F0A3E9124D27124FABA3A3E8F0A3E9125C
:1037A3004B518A828B83A3A3A3A3A3A3A3A3F0EE6A
:1037B300242F126434C0E0123CE2122AD2D0E01269
:1037C30042808A828B83A3A3A3A3A3A3A3A3A3124D
:1037D3003EC5023826124D2F8A828B83A322F0D056
:1037E30083D0820209C67CF47D017A087B009003B2
:1037F30001E0F912187022FAEF3400FB12208C2238
:10380300123D0F2212380DA3E02212381122123872
:10381300152212457BA3A322124214A3E0227402B1
:10382300120A2E7F020207937C017D007A007B003F
:103833001210EA740422F01238411244B522EE2425
:103843000FF582EF22F582EF1244B5E422900D6F5B
:10385300E0F91217322212385D22F0EE2412F582BB
:10386300EF3400F58322120A2E7F08020793125CBD
:1038730046850882F5832212387E221238DB221213
:1038830038D4E02212457BE022C082C0831242D6A4
:1038930012384B0237E112420D22A3E0F9120D0058
:1038A300E92279010209C6123E5222F8EF3400F9E7
:1038B3008808890922EEFAEFFB90031CE0F8A312B3
:1038C30038CE22E0F81238CDA322A3E0F583888214
:1038D30022E0240E1238DB221238DF22F8A3E01292
:1038E30038E6223400F98882898322123F7E6405F8
:1038F30022124FA685088285098322FB12390322EF
:1039030012208C85088285098322C082C0831242DB
:10391300D612391A0237E11244B57401220238A5CE
:10392300C082C08390031A743CF0A37422F0900306
:103933001C7430F0A37422F090031E742AF0A37455
:1039430022F09003207436F0A374220237E174F45A
:10395300120522EAFEEBFF1239B6F508120FDC8AD4
:103963000A8B0BA80AA90B8E828F831239A9E068F0
:103973007003A3E069602CE508A2E550268E828FD0
:1039830083A3E0FB90031A1238BF1222E98E828FC1
:1039930083E0F8A312475DA31242A470061239B65E
:1039A300C2E5F00229511239AD22E0FAA3E0F58312
:1039B3008A82228E828F831238C6A3E02274F51284
:1039C3000522123B16123B2D2420F582E91264379F
:1039D300FE74035EF50A1240EC122AD2123B2888C9
:1039E300828983F0A3A882A983E50A60097402652A
:1039F3000A6003023A87740C5EFF601574086F60F7
:103A03001074046F701D7402650A7005EEA2E44021
:103A13002D8A828B83A3A3A3A3A3A3A3A3E024231D
:103A2300123B78740C6F7010123B112424123B600C
:103A33002424123B23123B7B7402650A7005EEA219
:103A4300E44041123B112426123B602426123B36EC
:103A5300A3123B8A123B36123B8A123B23123B7B57
:103A6300EF600F74086F600A740C6F600574046F65
:103A730070128A828B83A3A3A3A3A3A3A3A3E0248B
:103A830022123B788A828B83A3A3A3A3A3A3A3A31A
:103A9300123B467005EEA2E150178A828B83A3A3E3
:103AA300A3A3A3A3A3A3E0242E1240F3123B71808C
:103AB3000E900302123B71900302E004123E35A301
:103AC300A882A983EEA2E75042123B112421123BA4
:103AD30036123B7B8C828D83123B46602E8A828B0F
:103AE30083A3A3A3A3A3A3A3A3E02430123B78EE51
:103AF300A2E150178A828B83A3A3A3A3A3A3A3A3A7
:103B0300E02431123B5088828983F002564F123BE6
:103B130016E022EA2408FCEB3400FD8C828D83221C
:103B23001240F7A322124FA6EE22123B3122124576
:103B3300F8E822123B3A22F508A3E0340085088214
:103B4300F58322E024211240F7E0540322FAA3E094
:103B5300123B57223400FB8A828B83E022123B3ACA
:103B6300123B71A3A882A9838C828D83E022E08813
:103B7300828983F0221240F7123B7F22E0888289F8
:103B830083F0A308A98322123B7F8C828D83E024D8
:103B93002822C082C0838A828B831239BAF87403C5
:103BA30058F98A828B83A3A37401F0E96005740238
:103BB300697061740C58FC601474086C600F7404B1
:103BC3006C70137402697005E8A2E4401D8A828B4D
:103BD30083A3A37402F0740C6C700A8A828B83A390
:103BE300A3E02402F07402697005E8A2E440258A88
:103BF300828B83A3A3E02404F0EC600F74086C6051
:103C03000A740C6C600574046C70098A828B83A33C
:103C1300A3E004F0E8A2E750318A828B83A3A3E0F8
:103C2300041254D1F9A3E0F5838982A3A3A3E0543A
:103C33000360178A828B83A3A3E004F0E8A2E15018
:103C4300098A828B83A3A3E004F08A828B83A3A3D4
:103C5300E0040237E1C082C0838A828B83A3A3A3DB
:103C6300A3A3A3A3A3A3A31242A460098A828B8361
:103C7300A3A3123C7B0237E2A3A3A3A3A3A3A3A3FF
:103C830012447A1217A42274F7120522EAFEEBFFFC
:103C9300124F9E88828983A3A3A3A3A3A3A3A3E410
:103CA300F0123CCEA3A3A3A3A3A3A3F0A3F0E81213
:103CB300525BE9123CC81221F4EEFAEFFB12220028
:103CC3008018F582ED1244B5E4F022A3123CD3220E
:103CD300123E35A3A3A322120A2E7F01020793EA01
:103CE300240BF582EB22125BD72409221244B5126E
:103CF30063ED750E00780C227401123E8B123D04A5
:103D0300221221CA740C221241E7A322122086E94F
:103D1300640122A3A3A3A3E8F0A3E9F0120FD62220
:103D2300124129E02274F612052274F4120A8F124A
:103D33003E3BFCA3E0F5838C82A3E0FC7402120CEF
:103D430075EC124D2224021241DB7404120C75121D
:103D53003EC5EC600A7402120C75E06404701C1218
:103D63003E191249947406120C75123E1F1241DB60
:103D73007408120C75E8F0A3E98056E06401600A48
:103D8300E064066005E064057023123E19123B509F
:103D9300C0E07403120C75D0E0124D2224131249B3
:103DA300947406120C75124D1E241B80C0740612E7
:103DB3000C75E4F0A3123E482412124994740812BD
:103DC3000C75123E1F125BD3C0E0740A120C75D03F
:103DD300E0F07406120C751242A460287406120CEB
:103DE30075125438120D5AE964017018120FD68AED
:103DF300088B09AC08AD097406120C7512543812FD
:103E03003803700D851882851983AA82AB8312212A
:103E1300A0740C023823123E4D241222123E2C248D
:103E23001A22123E2CF8A3E022EAF0A3EB123E354D
:103E3300E022F088828983228A828B83A3A3A3A3AF
:103E4300A3A3122FB1F0123E4D22EA2402F8EB1283
:103E530038E6E022A3124FA6851882851983221221
:103E63000A2E0237E2C082C08374FD120A8F123E0B
:103E730097C0E07402120C75D0E0123E8712219AAB
:103E8300740380DB123E8B22F0851882851983AA86
:103E930082AB83228A828B83A3A3A3A3A3A312410E
:103EA300C18A828B83A3A31238C6E022AA82AB8382
:103EB3001216D8740322124FA6EE240BF582EF12CA
:103EC30044B51241C4221241C490032C22124FDF85
:103ED3001244B5E0FC7D00228A828B83A3A3E0F821
:103EE300123F7E24FB22C082C083123EDB60062485
:103EF300FC600780081221E280031221DC0237E212
:103F0300C082C0838A828B83A3A3A3A3A3A3A3A3F7
:103F1300E070528A828B83A3A3E0F8123F7A640194
:103F23006043123F746402603C123F746403603563
:103F3300123F746404602E8A828B83A3A31238EE2B
:103F43006023123F74640A601C123F74640B601593
:103F5300123F74640C600E123F74640D60077904A1
:103F6300121FFC80099003221238BF1222E9023784
:103F7300E28A828B83A3A3123F7E221238CDE022F2
:103F830074F612052274FA120A8FEAFEEBFF740329
:103F9300120C75EEF0A3EFF07403120C75AA82AB4A
:103FA300831221E812643160030240E78518828599
:103FB30019837432F07405120C75C082C0838E822B
:103FC3008F83A3A3A3A3E0D083D082F8E028C0E02B
:103FD3007401120C75D0E0124143C0E07402120C5C
:103FE30075D0E0124122F8A3E0F9E8496026E824FD
:103FF30017F582E9122AD2C082C083E82416F5821B
:10400300E9126437D083D082F8E028F87401120CE7
:1040130075E028F0851882851983AA82AB83120D77
:10402300BA8A088B09A808A909E84970030240DA8B
:104033008E828F83124102A3A3EAF0A3EB12412FD6
:10404300A3A3E0C0E0E82420F582E9122AD2D0E05D
:10405300125AA6C0E0E82421F582E9122AD2D0E060
:1040630012413EC0E0E8242AF582E9122AD2D0E0C8
:10407300F07405120C75E0FA1240EC1264372A1240
:104083004994E8242BF582E9122AD212427A740564
:10409300120C75E0C0E0E8242DF582E9122AD2D093
:1040A300E0124122FAA3E0FBEA4B6019E8242BFA61
:1040B300E9122937A3A3A3A3A3A3A3A3E02416125E
:1040C30040F312410A8E828F83A3A3A3A3A3A3A3C6
:1040D300A3E8F0A3E9800CEEFAEFFB1221EE122A1B
:1040E300CC7410F07406023823E8240BF582E9221D
:1040F3001240F722FCA3E03400FD8C828D83221250
:10410300447A8882898322E0FC8A828B83E02CFCB8
:10411300A3E03400FD8A828B83ECF0A3EDF022123E
:104123004129A3A3E022124697A3A322F0E8125C3D
:1041330013E91244B574011245FF22124149E022EA
:10414300124149A3E02212563DA32274F71205221D
:10415300EAFEEBFF126431701E1241841242A46026
:10416300061238B81222E9126431700B12542C1261
:104173000DB4122ACCE9F0EEFAEFFB1221EE023C69
:10418300DD1221FA8E828F83A3A3A3A3A3A3A3A3E8
:10419300A3A32274F6120522EAFEEBFF8C088D0915
:1041A300121B52E9700479018011AC08AD09EEFAD3
:1041B300EFFB9003201238BF1222E9023826124186
:1041C300CAE8F0A3E9F022E0F8A3E0F985188285B4
:1041D300198322125A97E022F8A3E03400F922123D
:1041E30041E7E022E8F0A3E9124603A3A322124227
:1041F30053EEFAEFFB2212447A12104EE9221238E0
:10420300DFE02212380D12420D22E08E828F83A34B
:10421300221244C6A3A3A3A322E508240BF582E537
:1042230009227C087D007900851882851983AA827A
:10423300AB831216E48E828F8322E0850882850980
:1042430083A3A322A3A3A3A3A3A3A3A3124253229F
:10425300E0FCA3E0FD2274011245FFA3A3E02212B8
:1042630041C17404221216E4850882850983A322BE
:104273001218948E828F83EAF0A3EBF02212428409
:1042830022124603A3A31245F822C082C08312421E
:104293009D74D6F0A374210237E112220690032203
:1042A30022123B31492274F7120522E9FE1242D64B
:1042B300122AD21242A4601888828983A3E054038D
:1042C300700EEEFB1240EC122AD212430712430186
:1042D300023CDDEA12525BEB22C082C083EAF8EBB8
:1042E300F988828983A3A3A3A3A3E0FB888289839C
:1042F300A3A3A3A3124307A31243010237E2E0F9E6
:104303001213A222E0FA88828983A3A32274E812FB
:1043130005228A088B098C168D178914741A120CBE
:1043230075E0F50AA3E0F50B741C120C75E0F513A8
:10433300741D120C75780C120C18125C5EEB12646F
:1043430037242DFA7B001222DE8A108B11AE10AFB8
:1043530011EE4F70030244528E828F837401F085F5
:10436300081085091175120078101209E27C157D79
:1043730000EE2418124455120A2E851610851711C3
:1043830078101209E27C097D00EE240212445512D2
:104393000A2E7418120C75123EB9850A82850B8396
:1043A300E0C0E0EE240F122ACFD0E0124485C0E033
:1043B300EE2411122ACFD0E0124480C0E0EE241084
:1043C300122ACFD0E0123859E5131244AAE4F0A31D
:1043D300F0124464780C120C36EE2417122ACFE53F
:1043E3001412381BF8A3E0F9EE240D122ACF12445D
:1043F300A4125C581264376025EE242612498024E7
:104403002DF812449C125C2E123CEF1209E2125C4E
:1044130056123ED38A828B83124471120A2EEE24E3
:10442300191264345403601D9003181242A4600CE3
:10443300EEFAEFFB1238C21222E98013EEFAEFFB19
:10444300121702800AEEFAEFFB9003011245E7020E
:104453005C6DFAEF12445B223400FB1216D874032E
:1044630022EE24131244B222E0242B12387E12448B
:104473007A1216D8740322E0FAA3E0FB22124493C3
:10448300E02212448AE02212448E22124493A32291
:10449300F0850A82850B83A322EF3400F98A828B8D
:1044A300831241C4E50822F0EE24261244B222F519
:1044B30082EF3400F58322F50CA3E0F50D750E00B1
:1044C300780C22123815A3A3A32274F11205228AB1
:1044D300088B097A20124595606D8E828F8374064E
:1044E3001245A58E828F83A3A3A3A31238078E82BE
:1044F3008F8312454D1244BA1209E27C107D00EEFF
:104503002406124455120A2E850882850983124215
:1045130047EE2416FAEF3400FB120D54850882850A
:104523000983A3A3A3A3A3A3A3A3A3A3E0C0E0EE30
:10453300241E122ACFD0E012455DC0E0EE241F12E4
:104543002ACFD0E0124565025ECAA3A3A3A3A31298
:10455300455622123811A3A3E022F012421C124D39
:104563003222F0EEFAEFFB900D6FE0F912170822FA
:10457300E8F0A3E912457B22F085088285098322AE
:1045830012458722123887F8A3E0F98E828F83A31E
:10459300A3227B001222DE8A0A8B0BAE0AAF0BEE3C
:1045A3004F22124587124573A3A3E02274F6120526
:1045B30022EAFEEBFF7A057B001222DEEA4B601E45
:1045C3008A828B83740A1245ED8A828B83A3A3129A
:1045D30041E28A828B83A3A3A3A3F01245E40238AA
:1045E30026900D6FE0F9121708221245F1221246A8
:1045F300031245F822E0F8A3E0F922A312460322AE
:10460300F08E828F8322C082C083E990145AF09087
:10461300031474FCF0A37416F09003167442F0A311
:104623007422F09003187418F0A374220237E17413
:10463300F7120522EAFEEBFF8908EE4F7003121C06
:10464300309003261242A470089003268022124F52
:10465300A288828983A3A3A3A3A3A3A3A3A312468C
:104663008988828983A3A3A3A3A3A3A3A3A370DE9F
:10467300EEF0A3EF12468FA3A3A3E4F0A312468F99
:10468300E508F0023CDD12447AEA4B2212469322FB
:1046930012469722125641A3A3A32274F7120522AE
:1046A300900326800D8E828F83A3A3A3A3A3A3A32A
:1046B300A3A3125C0BEE4F60348E828F83A3A3A35C
:1046C300A3A3A3A3E06970DD8E828F83A3A3A3A317
:1046D300E06A7003A3E06B70CC8E828F83A3A3A3E5
:1046E300A3A3A3E06C70BEEEFAEFFB80047A007B19
:1046F30000023CDD74F7120522900326125C0B9036
:104703000326122F8D687002EB69701712475D1232
:104713004FA2900326123EC5900326125C0B8030F5
:10472300125BFEEE4F60298E828F83A3A3A3A3A304
:10473300122F89687002EB6970E68A828B83A3A3C8
:10474300A3A3A3A3A3A3A312476AA3A3A3123EC530
:104753001217A4EEFAEFFB023CDD1238CEA3A3A39B
:10476300A3A3A3A3A3A3221249A9A3A32274F01270
:10477300052274FA120A8F8A088B098A828B83A313
:10478300A3A3A3A3A3A3A3E0600D640160098A828A
:104793008B831241F96005790202497B8508828582
:1047A3000983A3A3A3A3A3A3A3A3E0640370157422
:1047B30004120C75AC82AD83AA08AB0912224EE930
:1047C300701380D3850882850983124FA274041263
:1047D3000C75123EC5125C181264372432124994C8
:1047E30012179E8A0A8B0BAE0AAF0BEE4F700302B1
:1047F30049797C327D0079001216E47402120C753B
:10480300AA82AB83850882850983A3A3A3A3A3A359
:10481300A3A3A3E0F91213EA7402120C75E0C0E03B
:10482300EE242D122ACFD0E0F0EE242CF50AEF343B
:1048330000F50B7403120C75E0850A82850B83F077
:104843007901EEFAEFFB12218E85080C85090D75AF
:104853000E00780C1209E27C1C7D00EE240B12443E
:1048630055120A2EEE2430124980243208081244CD
:104873009C2411F8E5091263D0FCE9FD8C828D8339
:10488300123B28242E122ACF1244A4124D00125C8C
:10489300641209E28C828D8312424F8A828B8312C7
:1048A3004471120A2E7404120C751249A5123EC5E6
:1048B30090030212499BF0900302E004124D362448
:1048C3002A125260750D00850A82850B83E0780CED
:1048D300120B588A828B83E50CF0EE2429122ACF1F
:1048E300E50C125A93E4F0E5082415F582E5091264
:1048F300498E74015007120C7574018004120C75F3
:10490300E4F0EE24271238AE851882851983AA8233
:10491300AB831213D2E924FE850882850983F0F55F
:1049230008750900EE242E122ACF12424FECF8ED3F
:10493300F9AA08AB09120340E88E828F83A3A3A3CD
:10494300A3A3A3A3A3F0ECF8EDF9AA08AB09120300
:10495300408B09EA4509600F8E828F83A3A3A3A32B
:10496300A3A3A3A3E004F0EE2420126434440812AA
:1049730052D279008002791074060238691263CE2C
:10498300FAE9FBEE22EE2415F582EF124D32A2E096
:1049930022FAA3E03400FB2212420DA3A3A3A3A394
:1049A300A3221249A9221245F88E828F83A3A3A3BF
:1049B300A32274F4120522EAFEEBFF124273901451
:1049C300C0E0F8EE242B126434C3984003024B2852
:1049D3001252787015EE242B12643404124B51C01A
:1049E300E0EE2429122ACFD0E0F0EE24281264341A
:1049F300FC7900800109EE242C12310AE9C3985096
:104A030026750801750900E97808120B58125278C7
:104A1300550860E1E92CFC750801750900E978087F
:104A2300120B58E04508F0EE2427124B3FEE242EDC
:104A3300122ACFEC8A088AF0A4F8ABF0E42BF9E051
:104A430098F8A3E099F9C3E89508E99400EE403992
:104A5300242712310A1252786037EE242D122ACFFE
:104A6300124B4BA3E4F0EC7054EE24201264344454
:104A730020123D23C0E0EE2426122ACFD0E0F0EE30
:104A83002430124B3FA3E080592429122ACF74FF0C
:104A9300F090034BE0FA9014C3E0F508EA8508F0C0
:104AA300A4ABF075F064A4FAADF075F064EBA42D3B
:104AB300FB8E828F83A3A3EAF0A3EB80A8EE2420CE
:104AC30012643454DF1244AAECF08C08EE2427124B
:104AD30064348508F0A4FAABF0EE2430F582EF12CB
:104AE3004B36FBEE241E122ACFEAF0A3EB124B59EE
:104AF300C0E0EE2425122ACFD0E0F0EE241C122AC7
:104B0300CFE8124B5F9003281242A4600BECF9121A
:104B130038C21222E9E97018EE240BFAEF3400FBD5
:104B2300122272800B7BE9EE2422F582EF124D0AEA
:104B3300022951124D322AFAA3E03B22F582EF12E9
:104B43004B46221252C4FA2212420DA3F022F0EE77
:104B5300242A124D2F22124693A3E022F0A3E4F05D
:104B63002274F4120522900326125C0B1218948A05
:104B73000A8B0B7CFF7DFF8020E0C398FAA3E099AA
:104B8300FBC3EA9CEB9D500E8E828F83A3A3E0C3ED
:104B930098FCA3E099FD125BFEEE4F6059124F9E05
:104BA300E50AC398F8E50B99F98E828F8312543680
:104BB300C3E89AE99B8E828F83A3A340BCA3A3A3DC
:104BC300A3E06402701DEE240B12527B600CEE24F2
:104BD30010122ACF125438121702EEFAEFFB1221E9
:104BE300828007EEFAEFFB1222CC7A017B0090144D
:104BF3005A123853801474FF6C700374FF6D600A8B
:104C03007A017B0090145A1237F402295174F0127E
:104C130005228A088B09ECFAEDFB890A7C01125CF8
:104C23001812526A8A0C8B0DAE0CAF0DEE4F700347
:104C3300024CFDE50A6003024CFDE508124D00E05D
:104C4300F8EE2428126434686003024CFDEE242C31
:104C5300124B3FE82AF8E43400F98E828F83A3A332
:104C6300A3A3A3A3A3A3E0FAE89AE99400C365D09E
:104C7300334014124F8912527E700C7B00125C1168
:104C8300E509124D0A8073124F8912527E7031EE7C
:104C9300242C126434F9EE2429122ACF7508FF75E7
:104CA3000900E97808120B58E508F0EE242A122AC5
:104CB300CFE508124D2729F0EE242B123848802225
:104CC300E5082414F8E5093400F9E0C0E0EE242AED
:104CD300122ACFD0E0124D22C0E0EE2429122ACFAF
:104CE300D0E0124D36242D122ACF123899A3124B3D
:104CF3005F7A01FB90145A12385302386C2413F56F
:104D030082E5091244B522124B46EE24141244B232
:104D1300124301EEFAEFFB12218222EAF0A3EB1217
:104D23003E35E022F0EE2428124D2F22F582EF12B9
:104D330052C422F0125C72F0A3EBF0EE2274E8127C
:104D4300052274FD120A8FE9851882851983F08A7A
:104D53000A8B0B8C168D17741B120C75124F8174F2
:104D63001D120C75780C120C188A828B83A3A3E096
:104D7300F91213C08A128B13EA451370077A007B6A
:104D830000024F7C7A127B0012179E8A088B09AEB1
:104D930008AF09EE4F7003024F787C127D00790053
:104DA3001216E47401120C75AA82AB83850A8285FC
:104DB3000B83A3A3E0F91213EAEE240FF508EF1215
:104DC3005C467402120C75E0850882850983F079CC
:104DD30002EEFAEFFB12218E8516828517831249A4
:104DE300A5E8F0A3E9124FCD8E828F83A3A3A3A3DB
:104DF300A3A3A3F07514FF751500850882850983A5
:104E0300E07814120B58122ACCE514F0851282852F
:104E13001383A3E0F8123F7AC0E0EE240B122ACFEB
:104E2300D0E0124FD7F508EE240D122ACFE508F093
:104E3300125283E08508F0A42424FAE5F03400FB41
:104E43001222DE8A088B09EE2410122ACF12427A2C
:104E5300EA45097003024F6D8A828B83741A124BE1
:104E63005F8A828B83A3A3F0A3124FC1124FAA12AE
:104E73003EC5AC16AD17EA2406FAEB3400FB121359
:104E8300E4850A82850B83A3A3A3E0C0E0E508249D
:104E93000FF582E509122AD2D0E0F0900368124F91
:104EA300A2E5082410124F92124FE7A3124FA2E576
:104EB300082412124F92124485C0E0124F89122A1D
:104EC300D2D0E0F0E50A12525BE50B126437C0E082
:104ED300E5082415F582E509122AD2D0E0124FB86D
:104EE300C0E0E5082416F582E509122AD2D0E012C3
:104EF300643BE0C0E0E5082417F582E509122AD2F5
:104F0300D0E012643BA3E0C0E0E5082418F582E595
:104F130009122AD2D0E01241D6C0E0E5082419F5DF
:104F230082E509122AD2D0E0F0E508241AF582E5D9
:104F330009122AD2780C120C36E5082424F8E50964
:104F43003400F9E5082422F582E509123EC2E50A98
:104F5300125C13E50B126437C0E0E508241FF582E9
:104F6300E509122AD2D0E0F0800BEEFAEFFB122112
:104F7300827E007F00EEFAEFFB7403025C6AE0F5C9
:104F830010A3E0F51122E5082414F582E50922F5C2
:104F930082E5091244B5E8F0A3E9228E828F8312D9
:104FA3004FA6221245F822E0F8A3E0F98A828B8308
:104FB300A3A3A3A322F0851082851183E022124FBD
:104FC300C52212448EA3A3A3A322F0125C20E50BF7
:104FD300124D3222F0124FDF124D3222E50A125CDB
:104FE3005FE50B22124FC5A3A3A32274E812052287
:104FF3008A0A8B0B8C108D1189147418120C75E0AE
:10500300F516A3E0F517741A120C75780C120C1828
:10501300750900EA2413F582EB126437F50890034F
:10502300281242A46011A9089003281238BF122243
:10503300E9E960030252587C0285108285118312CC
:105043005438125C20E50B12526A8A128B13AE128B
:10505300AF13EE4F704B850A82850B83A3E0A2E06A
:105063004003025258780C1209DE78161209E6A999
:1050730014AC10AD11AA0AAB0B1222247406120A47
:105083002E8A0C8B0DAE0CAF0DEE4F7003025258EF
:105093008E828F83A3A3A3A3A3A3A3A3E508125282
:1050A300D285080C8E828F83A3A3A3A3A3A3A3A358
:1050B300E024FFF8E434FFF9E8650C7001E97003BC
:1050C300750901EE240B12527B700302520B850A01
:1050D30082850B83A3E0A2E050037508001252A45B
:1050E300E50C98E499C365D033401EE0F8EE240E36
:1050F30012643428F0750CFF750D00E8780C120B60
:1051030058EE12525BEF125271125C27E50B123C00
:10511300EF1209E2123ED085080CEE240D1264341E
:10512300850CF0A4F8A9F0EE2410126434242212A2
:105133003B5028FAA3E039FB123EB3120A2E750C3A
:105143000112528F780C120B58126431450CF0E5A2
:1051530009A2E05065EE240C12526012528F0478BB
:105163000C120B588A828B83E0450C1252CA8508B5
:105173000C850CF0A4F8124FDF126437FCE82CFC0A
:10518300E5F03400FDEE2410122ACF12529D125482
:10519300CDF47026EE240BF50CEF3400F50DEE2460
:1051A30010122ACF125438850C82850D831245E7DD
:1051B300850C82850D8374FF804D12427390034BDF
:1051C300E0FA9014C3E0F50CEA850CF0A4FAABF016
:1051D300F8EBF99014C0E0F50CE8850CF0A4F8ACFA
:1051E300F0850CF0E9A42CF9EA28F8EB39F9E87515
:1051F300F064A4F8AAF075F064E9A42AF98E828F0A
:1052030083A3A3E8F0A3E9F01252A4125BF5E865C7
:105213000C7001E9600EEE240C12527B6006E50966
:10522300A2E05031EE240E126434C0E0125283D057
:10523300E0F0126431C0E0E50A2414F582E50B12B4
:105243002AD2D0E0F0AC0AAD0B851082851183120F
:105253005438120CB2025C6D240CF582221263CE18
:10526300FAE9FB750CFF22125375122188221244AE
:10527300B5E50CF022EE2429F582EF124D32F4222B
:10528300E50A2413F582E50B1244B522750D0012CD
:1052930052BAF5F0E50884E5F022E0242012387EC6
:1052A3002285080CEE240E124D2FF81252BAFAE89A
:1052B3002AF8E43400F922EE240FF582EF1252C4E7
:1052C300223400F583E022F0EE240D124D2F22F05C
:1052D3007A017B0090145AE0F912173222C082C07F
:1052E3008390145A1245E70237E274F41205228AB6
:1052F300088B09EB5480703BEAA2E050471222600E
:10530300E5086401FAAB09803F8E828F83E0640174
:10531300701A12446412084E1228781209E6EE2419
:105323001212535E12221E7406120A2EEEFAEFFBBD
:1053330012170290145A12534E70CEAA08E509644C
:1053430080FB80047A007B00022951E0F912170EDA
:105353008A0A8B0BAE0AAF0BEE4F22F582EF125384
:1053630075EE2402FCEF3400FDEE2418FAEF34004E
:10537300FB221252C4F92274F1120522890A8A0807
:105383008B098A828B8312543812175C8B0DEA4582
:105393000D600479B8807F120C8E902775E493F822
:1053A300E9C398400479B2806D7A1512541C7004D5
:1053B300791080628E828F83E4F0A3125A86A3E56C
:1053C3000AF085080C85090D750E00780C1209E2A8
:1053D3007C127D00EE24030A0A0A124456120A2E96
:1053E30090032A1242A490032A7006EEF0A3EF80E2
:1053F3001FE0FAA3E08003E8FAE9FB8A828B8312B9
:1054030042A470F3EEF8EFF98A828B83E8F0A3E904
:10541300F0120CA07900025ECA7B0012179E8A0C60
:105423008B0DAE0CAF0DEE4F228E828F83A3A3A301
:10543300A3A3A3A3A312447A22C082C08390032A06
:1054430080048C828D8312547E60298C828D83A389
:10545300A3E069600574FF6970E88C828D83A3A360
:10546300A3E06A7003A3E06B70D8EC2403FAED3475
:1054730000FB80047A007B000237E2124253EC4DBA
:105483002274F7120522E9FC74FE6C70047D01801E
:10549300027D0090032A80096C70027D0188828955
:1054A300831242A4601F88828983A3A3A3E06A7046
:1054B30003A3E06B70E7EDA2E088828983A3A3E0F6
:1054C30050D6F9800279FE023CDDECF0A3EDF08AC0
:1054D300828B83E022C082C083790090032A8001FB
:1054E300091254388A828B83E582458370F202372E
:1054F300E274F6120522E4F508F50978081209E6C4
:10550300902775E49375F013A42402FCE5F012567A
:105513002D1218227402120A2EE9FE6003120C9A4D
:10552300EEF902382674F612052274FE120A8F85EC
:105533001882851983E4F0A3125A93858208858320
:105543000978081209E67508027509007808120936
:10555300E6125D29120A2E02382174F5120522740F
:10556300EB120A8F851882851983E4F0A3F0900368
:105573002AE0FEA3E0807D8E828F83A3A3E0C0E0B8
:105583007402120C75D0E0125635A982AA838908D9
:105593008A09750A0078081209E27C127D007406F4
:1055A300120C75123EAF120A2E7402120C7585820C
:1055B3000885830978081209E675081375090078C8
:1055C300081209E67404120C75123B2D75F013A42E
:1055D300F8AAF075F013E9125625125D31120A2E5E
:1055E300851882851983E02401F0A3E03400124575
:1055F300EDE8FEE9FFEE4F600302557A85188285D8
:10560300198385820885830978081209E6750802DB
:1056130075090078081209E6125D29120A2E74151D
:105623008027A42AF9E82402FCE93400FD7A427BAE
:1056330000221256392212563D2212564122F08E72
:10564300828F83A3A3A322740D120A2E7F03020762
:105653009374F412052274EB120A8F7E007F008587
:10566300188285198385820885830978081209E6DB
:105673007508028E0978081209E67C007D007A42DB
:10568300125E09120A2EE970748E08805E7402128B
:105693000C7585820A85830B780A1209E6750A134D
:1056A300750B00780A1209E6E50875F013A4F8AA49
:1056B300F075F013E509125625125E0B120A2EE956
:1056C300701E7403120C75AA82AB837402120C75DC
:1056D300E0F912220CE97008EE24010EEF3400FF0A
:1056E300E5082401F508E509125C46851882851949
:1056F30083124FA2C3E50898E509994090EEFAEFAB
:10570300FB741502294E74F61205228C828D83A335
:10571300A3125907F0EA2417F582EB126437C0E0AD
:10572300EC125C5FED122AD2D0E0F0EA241DF58280
:10573300EB122AD2124FA2EC1261C7ED122AD21237
:105743005907A3F0A3F01261C6EB122AD21258F93B
:10575300A3A3A3A3A3A3EEF0A3EF124D22FE8C8277
:105763008D8312592674035EFEC39403400FEC2409
:105773000D123CC5EC2410123CC50258E1EE600545
:1057830074026E70748C828D83E0540CFE740C6E04
:10579300700302587EE0A2E4400D88828983E08C86
:1057A300828D83A312595074086E600302587EECF5
:1057B30012525BED12391AF08A828B83A3A3A312D0
:1057C3005A5170148C828D83E0440C125915A3A393
:1057D3001258F9EEF0A3EFF08C828D83E0A2E4403F
:1057E300181258E41259331258EDA3A31259338CEB
:1057F300828D83A3A3A312592688828983E0C0E004
:10580300EC125C22ED122AD2D0E01259268C828D42
:1058130083E0A2E7507C88828983E0FE8C828D83BB
:1058230012595074FC5E60030257718C828D83A3FE
:10583300E05403640370030257718C828D83A3E0E9
:105843005403605188828983E0C0E0EC2413F5821D
:10585300ED122AD2D0E01259518C828D83E0540389
:105863006402703188828983E0C0E0EC2414F582FD
:10587300ED122AD2D0E0125951801AEC240C123CBA
:10588300C5740C6E60030257BB1258E412593E02F2
:1058930057DBA3E4F0EC125C29ED123EC2EC2410BA
:1058A300FEED3400FFEA241DF582EB126437F508A0
:1058B3008E828F83E0C3982508F508F0EA2417F851
:1058C300EB1238AAC39508C0E0EC1261C7ED122AA7
:1058D300D2D0E0124D22C39508500302577102380B
:1058E3002688828983E01258ED22F508A3E0FFE5BC
:1058F300088C828D8322E0FEA3E0FF8C828D83A33C
:10590300A3A3A322E412590C22F08C828D83A3A3B8
:10591300A32212591DA3A3A3A322F08A828B83A3DC
:10592300A3A32212592EA882A98322123E35A322B1
:10593300A3A312593E88828983E022A3A3A3A3F0E1
:10594300A3EFF0E824020808E93400F922A312596E
:105953002E08A9832274F512052274F3120A8F8A82
:10596300088B09ECFEEDFF8E828F83E0540CF50A61
:10597300E0A2E75006E50AD2E7F50AE50AD2E1F527
:105983000A125A537006E50AD2E4F50AE0A2E5507A
:1059930006E50AD2E5F50A7C087D007900851882C0
:1059A300851983AA82AB831216E47402120C75E57F
:1059B3000A125A86E0C0E07403120C75D0E0125A42
:1059C300931236437405120C75123CFB120C75E0EE
:1059D30070797408120C75E0241212387A12425945
:1059E300C0E07408120C75125A6ED0E0125AA6C0A9
:1059F300E07408120C7512363AD0E0F07408120CF9
:105A03007512476A125A75123D23125A5912427A75
:105A1300EE2411126434C0E0E8242EF582E9122A40
:105A2300D2D0E0F0EE2414126434C0E07408120CF7
:105A330075E0243112387AD0E0125A8BC0E0740832
:105A4300120C75125A67D0E0125A9F02564AA3A34A
:105A5300E05403640122FAA3E0FBE82428F582E979
:105A63001244B522E0243012387E22E02422123878
:105A73007E2212447AE82426F582E91244B5EAF03C
:105A8300A3EB221245FFA322F0EE2413124D2F2283
:105A9300125A9722F085188285198322123E8B129F
:105AA30021C422125639E02274F71205227E008A9D
:105AB300828B83A3A3A3A3A3A3A3A3A3E0640260F2
:105AC3007B123CE212643770731242D6122AD2124E
:105AD30042A4606888828983E05403705FA3A3A310
:105AE300A3A3125B42E06A7003A3E06B704E88824B
:105AF3008983125B42A3A3E0FFA3E0F5838F82A314
:105B0300A3A3A3A3A3E06A7003A3E06B702E888210
:105B13008983A3A3E0F88C828D83A3A3E0F9A3E098
