:020000040000FA
:06000000020B340201EBCB
:03002B000208CDFB
:030033000202A422
:0300530002011C8B
:03006B0002021876
:03007B0002024737
:10008300020172010101FF01050301F011F011F0FA
:1000930011F011A610A010F011AF22000000001102
:1000A30023000000000C0000000C0001581B01009D
:1000B300000084140000000000003E150000000052
:1000C300000000000000FFFF0101003F05000000E9
:1000D300401F9005401F6400E803B801020200C8F6
:1000E300180305023C01010D1E020564020A0A03FE
:1000F300B80B02803E01020101FFFF020A1401E076
:1001030096511800020206120103030507090B0D9D
:100113000F02020406080A0C0DC0E074F212052255
:10012300A2AFE433F508D2AFE5A7FEE5A1FFEF5E8A
:1001330054106006121BD475A1EFEF5E54086008DB
:10014300121BDA75A1F78019EEA2E0C0D0EFA2E08E
:1001530092F0120A71158182F05006121C9A75A151
:10016300FE751A00E508A2E092AF7F01020581C087
:10017300E074F2120522A2AFE433FFD2AF9061A480
:10018300E0FE759B00E5915E540860087591F712D7
:100193001C2E802DE5915E541060087591EF121CA2
:1001A30034801EEEA2E0C0D0E591A2E092F0120AE4
:1001B30071158182F0500A9061A4E0C2E0F0121D33
:1001C300909061A3E0FEE5E95E5404600E121D66A3
:1001D30075E9FB906193E0A2E640F2751A00EFA285
:1001E300E092AF7F01020581C0E074F2120522A202
:1001F300AFE433FFD2AF9061A5E0FEE5BF5E5404E8
:10020300600675BFFB121DA8751A00EFA2E092AF3E
:100213007F01020581C0E074F2120522A2AFE4332C
:10022300FED2AFE589A2E550091214429004C674C8
:1002330004F0758900C2C5751A00EEA2E092AF7F83
:1002430001020581C0E074F2120522A2AFE433FE7D
:10025300D2AFE58AA2E2501A7C197D007A017B00B5
:10026300900647E0F9121766E9538AFB9004C674B7
:1002730080F0E58AA2E5501A1214427CE87D037AE5
:10028300017B00900647E0F9121766E99004C674F3
:1002930040F0C2EB751A00EEA2E092AF7F010205B7
:1002A30081C0E0C0D0E8C0E0A2AFE433F8D2AF75BC
:1002B3001A00A2E092AFD0E0F8D0D0D0E032C3E48D
:1002C30098F8E499F91203028026C3E49AFAE49BAE
:1002D300FBE920E7E9120302E498F8E499F922C361
:1002E300E498F8E499F9120302E498F8E499F9C35D
:1002F300E49AFAE49BFB22EB20E7CFE920E7E0B99D
:100303000010BB0008E88AF084F8AAF022E4FBC8D6
:10031300FA22EB70227B10C833C8C933C9335007A4
:10032300C39AC3DBF280069A50012ADBEAC833F48E
:10033300C8C933F4C9FA2275F008E4C833C8C9330D
:10034300C933C99AC99B5004C92AC93BD5F0ECFBF0
:10035300C833F4C8E4C9FA22080808EAC0E0EBC0CD
:10036300E086F0E7A4FA180986F0E7A42AFA180948
:1003730086F0E7A42AFA180986F0E7A42AFA198670
:10038300F0E7A4FBE5F02AFA190886F0E7A42BFBB3
:10039300E5F03AFA190886F0E7A42BFBE5F03AFA00
:1003A30018180986F0E7A4C5F02BFBE43AFA1908FC
:1003B300E7C5F0C6A426F6E5F03BFBE43AFA188657
:1003C300F0E7A4F6E5F00826F6E43B08F6E43A087D
:1003D300F6D0E0FBD0E0FA22E4CFC0E0E4CEC0E008
:1003E300E4CDC0E0E4CCC0E075F020C3E633F6080A
:1003F300E633F608E633F608E633F6181818EC3356
:10040300FCED33FDEE33FEEF33FFC3EC9709ED97BD
:1004130009EE9709EF97191919400FFFEC97FC099B
:10042300ED97FD09EE97FE191906D5F0BEECF70915
:10043300EDF709EEF709EFF7191919D0E0FCD0E051
:10044300FDD0E0FED0E0FF222518C582C0E0E5190B
:1004530034FFC583C0E0E518C3958224F810AF08C4
:100463008583198582188008858319858218D2AF00
:10047300CEF0A3E520F0A37808E608F0A3DEFAEFB8
:10048300F0A3E58124FAF8E608F0A3E608F0A3E672
:1004930008F0A30808E608F0A3E608F0A315811501
:1004A30081D0E0FED0E0F8158115811581E8C0E028
:1004B300EEC0E022120B96B9000302050CE4900390
:1004C30001782F79098002F0A3D8FCD9FA781A9021
:1004D30000867A01BA00028007E493A3F608DAF9EA
:1004E300900B2FAA82AB83900087789679018015B1
:1004F300E493A3AC82AD838A828B83F0A3AA82ABFD
:10050300838C828D83D8E9D9E77582D97583BC74CE
:10051300041208EC7582BA75832074001208ECC0CB
:10052300D02518C582C0E0E51934FFC583C0E0E5D6
:1005330018C3958224F310AF088583198582188028
:1005430008858319858218D2AFC8F0A3E9F0A3EA1E
:10055300F0A3EBF0A37908E709F0A3D8FAECF0A332
:10056300EDF0A3EEF0A3EFF0A3D0E0F0A3D0E0F022
:10057300A3D0E0F0A3E520F0A3E5F0F0A3228519D2
:1005830083851882E0C0E0A3E0F9A3E0FAA3E0FBCF
:10059300A37808E0F608A3DFFAE0FCA3E0FDA3E0FC
:1005A300FEA3E0FFA3E0C0E0A3E0C0E0A3E0F5D03A
:1005B300A3E0F520A3E0A3F5F010AF088583198528
:1005C30082188008858319858218D2AFD082D083A0
:1005D300D0E0F8D0E0320A000875F0108E218F22A7
:1005E300858226858325851882851983E0CEA3E03D
:1005F300CF852682852583EBC9EAC8EDCBECCAC338
:10060300E833C8E933C9EA33CAEB33CBC3EA9EF50F
:1006130024EB9FF523B35004AB23AA24EC33CCED96
:1006230033CDD5F0DAAE21AF2222D083D082ECC015
:10063300E0EDC0E0E493A3FCE493A3FDED4C600D77
:10064300120705EC24FFFCED34FFFD80EFE493A3D8
:10065300FCE493A3FDED4C600D1207D8EC24FFFCE2
:10066300ED34FFFD80EFD0E0FDD0E0FCE493A3C0C8
:10067300E0E493C0E022D083D082E9C0E0E493A316
:10068300C386F0C5F095F0F908E493A386F0C5F0AE
:1006930095F0700BE493A3C3994005E9048002A38A
:1006A300E475F002A42582F582E5F03583F583D065
:1006B300E0F9E493A3C0E0E493C0E02285198385C5
:1006C3001882E0A3FEE0A3F5207808E0A3F608DF94
:1006D300FAE0A3FFE0A3C0E0E0A3C0E0E0A3C0E032
:1006E300E0A3C0E0E0A3C0E010AF088582188583D3
:1006F300198008858218858319D2AFD083D08202EE
:1007030008F2C0E0C3E49396087401939618400F6F
:10071300E49366700808740193661870007019A357
:10072300A3C3E49396087401939618A3A3400DD032
:10073300E0D0E0D0E0020669A3A3A3A3A3A3D0E083
:1007430022D083D082C5F0E493A3C5F0C395F0F51E
:10075300F0E493A3C395F04005E5F0048001E4754C
:10076300F002A42582F582E5F03583F583E493A3B3
:10077300C0E0E493C0E0227404800474028000CCDF
:10078300C0E0EDC0E0E518C39CCCAD1950011D10CD
:10079300AF068C188D1980068C188D19D2AF1208EC
:1007A3004FD0E0FDD0E0FC2274028000CCC0E0ED2D
:1007B300C0E0E518C39CCCAD1950011D10AF068CE9
:1007C300188D1980068C188D19D2AF12082DD0E020
:1007D300FDD0E0FC22C0E0C0F088F0E4936670082E
:1007E3000874019366187000A8F0A3A3700BD0F0EF
:1007F300D0E0D0E0D0E0020669A3A3D0F0D0E0229D
:10080300D083D082CCC0E0E493A360061208AE1478
:1008130070FAE493A360061209A51470FAD0E0FC01
:10082300E493A3C0E0E493C0E022CAC0E0E493A34E
:10083300C582CCC582C583CDC583F0A3C582CCC593
:1008430082C583CDC583DAE5D0E0CA22CAC0E0E021
:10085300A3C582CCC582C583CDC583F0A3C582CC95
:10086300C582C583CDC583DAE6D0E0CA2270090804
:100873000808226016181818C6C333C608C633C63C
:1008830008C633C608C633C6D5E0EA22C008C3E0AB
:1008930096F50808A3E096420808A3E096420808E4
:1008A300A3E09645087001D3D00822C0E0E493A3E7
:1008B300D39C5010E493A3C39C400AD0E0D0E0D073
:1008C300E0020820A3A3A3D0E022C0E0C0D0E8C088
:1008D300E0A2AFE433F8D2AFC2C7751A00A2E09228
:1008E300AFD0E0F8D0D0D0E032C09FF59FE473D012
:1008F3009F22D083D082C09FE493C0E0740193C051
:10090300E0740293F59F227404800A7403800674D2
:100913000280027401C0E0F404120925D0E0120B36
:1009230071222518F58210AF08F5184002151980B9
:1009330008F51840021519D2AF85198322BB0102AD
:10094300E722C082C08389828A83BB0003E08002DE
:10095300E493D083D08222C0D0251810AF08F518B5
:10096300500205198008F51850020519D2AFD0D0EE
:10097300226016080808C6C313C618C613C618C6CD
:1009830013C618C613C6D5E0EA22C3E0C696F60816
:10099300A3E0C696F608A3E0C696F608A3E0C696BB
:1009A300F622C0E0E493A36C7009D0E0D0E0D0E07D
:1009B300020820A3A3D0E022251810AF08F51840A1
:1009C3000215198008F51840021519D2AF22E766FF
:1009D30070100809E766700A0809E76670040809D9
:1009E300E76622C3E09608A3E09608A3E09608A36F
:1009F300E096A2D265D03322E066701008A3E066C9
:100A0300700A08A3E066700408A3E06622C3E697B1
:100A1300F60809E697F60809E697F60809E697F651
:100A230022C3E096F008A3E096F008A3E096F0084E
:100A3300A3E096F022E627F60809E637F60809E66A
:100A430037F60809E637F622E026F608A3E036F67D
:100A530008A3E036F608A3E036F622E026F008A362
:100A6300E036F008A3E036F008A3E036F022C0E059
:100A7300E8C0E0E58124FCF8E6A2E7D0E0F8D0E0A6
:100A830022700422600D18C6C333C608C633C6D508
:100A9300E0F41822E657F60809E657F60809E65780
:100AA300F60809E657F622E056F608A3E056F608DC
:100AB300A3E056F608A3E056F622E056F008A3E0BA
:100AC30056F008A3E056F008A3E056F022E647F6F6
:100AD3000809E647F60809E647F60809E647F62255
:100AE300E4C396F608E496F608E496F608E496F668
:100AF30022C3E7960809E7960809E7960809E796E7
:100B030022C6F4C608C6F4C608C6F4C608C6F4C6A8
:100B130022600D08C6A2E713C618C613C6D5E0F3B4
:100B230022C3E09608A3E09608A3E09608A3E09604
:100B33002275D000758140751801751903000204F0
:100B4300B7E0F608A3E0F608A3E0F608A3E0F62270
:100B5300600C08C6C313C618C613C6D5E0F422E654
:100B6300F008A3E6F008A3E6F008A3E6F022CAC063
:100B7300E0E6F0A308DAFAD0E0FA22E0FAA3E0FB19
:100B8300A3E0FCA3E0FD22EAF0A3EBF0A3ECF0A3C7
:100B9300EDF022E5C754F84401F5C7790122251881
:100BA300F582E43519F58322C2AF75D69F020000A2
:100BB300221208F50F52001208F55752001208F5D9
:100BC300AB52001208F5C752001208F5FB5200128F
:100BD30008F53053001208F52754001208F5DC54C9
:100BE300001208F52B57001208F57E58001208F57D
:100BF3002159001208F5AE59001208F55B5A00128C
:100C030008F58F5A001208F50A5B001208F5E45B39
:100C1300001208F5A25C001208F5BA5C001208F590
:100C2300515D001208F5C25F001208F5C861001299
:100C330008F5E661001208F54DA3021208F582A338
:100C4300021208F5A8A3021208F5E2A3021208F59E
:100C5300F4A3021208F546A4021208F5A7A402128F
:100C630008F531A5021208F5D5A5021208F51DA64F
:100C7300021208F557A6021208F574A6021208F527
:100C830099A6021208F5EBA6021208F504A70212B0
:100C930008F52AA7021208F565A7021208F5A9A705
:100CA300021208F5D0A7021208F521A8021208F5CE
:100CB300D1A8021208F589A9021208F551AA021255
:100CC30008F514AB021208F571AB021208F5F7AB85
:100CD300021208F506AC021208F511AC021208F56F
:100CE30037AD021208F548AD021208F5BEAD021287
:100CF30008F550AE021208F5A8AE021208F56EAF61
:100D0300021208F595AF021208F5B3AF021208F507
:100D130006B0021208F54BB0021208F558B00212E1
:100D230008F5ECB1021208F551B3021208F56DB4DF
:100D3300021208F5D7B6021208F5E2B6021208F558
:100D4300ECB6021208F5F7B6021208F501B7021263
:100D530008F50BB7021208F516B7021208F521B70A
:100D6300021208F552B7021208F576B7021208F517
:100D73009AB7021208F5FFB7021208F543B8021238
:100D830008F55FB8021208F5D6B8021208F50EB9D5
:100D9300021208F55AB9021208F5B7B9021208F59A
:100DA30099BB021208F51FBC021208F5F8BC021227
:100DB30008F508C0021208F55DC0021208F58AC0E2
:100DC300021208F5D6C1021208F526C2021208F56E
:100DD3007BC2021208F57CC3021208F514C4021286
:100DE30008F596C4021208F536C5021208F5D1803B
:100DF300011208F50A81011208F5E482011208F5CF
:100E03002383011208F56D83011208F51284011280
:100E130008F57184011208F5A584011208F51285FD
:100E2300011208F52F86011208F53787011208F51C
:100E3300CD87011208F5148B011208F5BD8B011241
:100E430008F5998C011208F5FA8C011208F5178E32
:100E5300011208F54190011208F5F890011208F506
:100E63000291011208F53591011208F5FC91011266
:100E730008F59792011208F5FC92011208F52593E3
:100E8300011208F54793011208F57695011208F54A
:100E93004D96011208F59196011208F5FE9601127E
:100EA30008F5B997011208F5EB97011208F52F9889
:100EB300011208F56598011208F5BA98011208F5B0
:100EC3000F99011208F5A399011208F5059A011269
:100ED30008F56D9A011208F5169C011208F5FE9C9F
:100EE300011208F5409E011208F56EA0011208F5E3
:100EF3002EA1011208F55DA3011208F500A4011249
:100F030008F53EA4011208F5EAA5011208F5FEA5AD
:100F1300011208F508A6011208F532A6011208F518
:100F23003EA6011208F55DA6011208F514A70112E9
:100F330008F553A7011208F55DA7011208F567A785
:100F4300011208F5B2A7011208F515A8011208F558
:100F53001CA9011208F5D7A9011208F5D6AA011296
:100F630008F5CFAB011208F56CAC011208F50EAD14
:100F7300011208F525AD011208F55CAD011208F563
:100F83007AAD011208F5BEAD011208F5E3AD011209
:100F930008F5C9AE011208F535AF011208F5AFAF78
:100FA300011208F5BEB0011208F5FDB1011208F5F2
:100FB300DBB2011208F53DB3011208F5F7B30112D4
:100FC30008F51AB4011208F5EEB4011208F539B5A3
:100FD300011208F57BB5011208F5D2B5011208F527
:100FE30009B6011208F537B6011208F570B60112F9
:100FF30008F595B6011208F51DB7011208F540B9B9
:10100300011208F59FB9011208F533BA011208F568
:101013009FBA011208F5F3BA011208F52DBB0112AC
:1010230008F50080041208F53880041208F5598089
:10103300041208F59B80041208F50181041208F5D7
:101043000B81041208F51B81041208F55081041268
:1010530008F59984041208F54386041208F54388B9
:10106300041208F58FBC011208F5E9BC011208F55A
:1010730045BD011208F591BD011208F5ACBD011281
:1010830008F5DDBD011208F5FABD011208F506BE2B
:10109300011208F57ABF011208F593BF011208F592
:1010A300FABF011208F50DC0011208F51BC00112A9
:1010B30008F5CFC0011208F5B3C1011208F5B9C292
:1010C300011208F53FC3011208F549C3011208F5DF
:1010D300B6C3011208F5CDC3011208F5FFC301120F
:1010E30008F538C4011208F562C4011208F5C3C437
:1010F300011208F5E3C4011208F501C5011208F550
:1011030047C5011208F56DC6011208F5BAC60112EA
:1011130008F5E9C6011208F55FC7011208F587C78C
:10112300011208F5C0C7011208F5CEC7011208F570
:1011330026C8011208F575C8011208F5B4C80112D2
:1011430008F5E4C8011208F510C9011208F51BC916
:10115300011208F539C9011208F5FBC9011208F596
:1011630005CA011208F540CA011208F556CA011250
:1011730008F55FCA011208F5B4CA011208F5C8CA16
:10118300011208F5D6CB011208F5E9CB011208F5D7
:1011930000CC011208F515CC011208F5B7CC0112E9
:1011A30008F53ACD011208F5F8CD011208F503CE82
:1011B300011208F529CF011208F545CF011208F5F0
:1011C30097CF011208F5D6CF011208F5EBCF011224
:1011D30008F52DD0011208F57AD2011208F5F8D2DC
:1011E300011208F56BD3011208F58DD5011208F52C
:1011F300A5D5011208F5A8D5011208F5B4D5011239
:1012030008F5C8D5011208F5D0D5011208F503D6A3
:10121300011208F5B3D6011208F529D7011208F512
:101223009CD7011208F550D8011208F505D901120F
:1012330008F524D9011208F5C4D9011208F5D0D94B
:10124300011208F5FBD9011208F5FED9011208F5C0
:101253002DDA011208F542DA011208F5ACDA0112AF
:1012630008F5D4DB011208F5ACDC011208F537DD13
:10127300011208F550DE011208F50DDF011208F521
:1012830046DF011208F577DF011208F517E00112B6
:1012930008F547E0011208F522E1011208F5BBE168
:1012A300011208F546E2011208F5F7E2011208F50A
:1012B30079E3011208F5ABE3011208F5ECE301123F
:1012C30008F521E4011208F5C4C9031208F546CA5A
:1012D300031208F586CA031208F5FFCA031208F5BC
:1012E300D9CD031208F569D0031208F535D40312DA
:1012F30008F56DD4031208F59BD4031208F52DD518
:10130300031208F581D5031208F5B4D5031208F5C5
:10131300DDD5031208F527D6031208F5A8D6031264
:1013230008F55DA9031208F5E7A9031208F55CAAFD
:10133300031208F5DEAA031208F5BCAD031208F583
:10134300DFAD031208F538AE031208F536AF03120A
:1013530008F5A0AF031208F573B1031208F5DBB269
:10136300031208F562B3031208F5F0B3031208F58C
:1013730059B4031208F5A7B4031208F567B50312AD
:1013830008F590B6031208F50DB7031208F573B705
:10139300031208F5B6B7031208F55CB8031208F593
:1013A3003DB9031208F549F8031208F5B7F803121B
:1013B30008F5FDF9031208F50DFC031208F596FC78
:1013C300031208F559FD031208F5BBFD031208F5D6
:1013D300CAFE031208F5E0FE031208F5E8FE031245
:1013E30008F500FF031208F57CFF031208F591FFCF
:1013F300031208F5CCE2031208F52CE3031208F5F7
:10140300E2E4031208F55FE5031208F529EC031281
:1014130008F585EC031208F5EBEC031208F53BED38
:10142300031208F5E9ED031208F520C8041208F5C4
:1014330053C8041208F5D0C8041208F5D5C804121D
:1014430008F59BC9041208F5DCC9041208F5DFC9C5
:10145300041208F53EC6041208F54FC6041208F537
:10146300CFC6041208F517C7041208F503C80412FF
:1014730008F520D1041208F52DC4041208F50CC692
:10148300041208F5E0B9031208F5C8BA031208F507
:10149300EFBA031208F533BB031208F551BB03126D
:1014A30008F5CFBB031208F507BC031208F53FBECE
:1014B300031208F534BF031208F54FC0031208F5F1
:1014C300E1C0031208F566C1031208F51EC2031238
:1014D30008F5BAC2031208F509C3031208F5DAC303
:1014E300031208F5D5C4031208F57BC5031208F5EA
:1014F300A6C7031208F5D9C8031208F53AC903129F
:1015030008F594C9031208F5C9C1041208F5ECC122
:10151300041208F5E6C2041208F58FC3041208F595
:10152300D3C3041208F500D6041208F574D60412C6
:1015330008F584D6041208F595E2021208F598E23C
:10154300021208F5E7E3021208F55BE4021208F55C
:10155300E9E4021208F5A6E5021208F563E60212B1
:1015630008F530E7021208F5EDE7021208F50EEA76
:10157300021208F5CBEA021208F588EB021208F50D
:10158300CA44001208F527ED021208F59AED02127B
:1015930008F5DCEF021208F543F1021208F5AAF28E
:1015A300021208F505F3021208F59CF3021208F57E
:1015B3007FF4021208F5B1F4021208F5ADF7021236
:1015C30008F54EF8021208F5CCF8021208F544EEBD
:1015D300031208F59CEE031208F544EF031208F515
:1015E3004D51001208F598EF031208F5BCF00312F1
:1015F30008F5CAF0031208F52EF1031208F56CF191
:10160300031208F5EFF1031208F596F2031208F539
:10161300E5F2031208F566F3031208F5D4F3031297
:1016230008F55DF4031208F5EEF4031208F543F52B
:10163300031208F5A0F5031208F5B2F5031208F535
:10164300C4F5031208F5EAF5031208F5F3F50312DE
:1016530008F54CF7031208F5DDF7031208F54AF90C
:10166300021208F56DFA021208F5C9FA021208F51A
:10167300E3FA021208F5F4FA021208F5EFFD02127A
:1016830008F50FFE021208F539BA041208F57EBAFE
:10169300041208F5C9BA041208F55ABC041208F575
:1016A300E9C5021208F5B3C7021208F508C8021209
:1016B30008F589CA021208F5EECA021208F5FACD36
:1016C300021208F560CE021208F5A0D0021208F546
:1016D30099D1021208F506D2021208F599D2021224
:1016E30008F548D3021208F5A3D3021208F504D46F
:1016F300021208F565D4021208F54ED6021208F557
:1017030040D8021208F52CDB021208F56EDB021238
:1017130008F5D1DB021208F5E3DB021208F558DC09
:10172300021208F514DD021208F551E1021208F560
:101733001CE2021208F5BED7041208F5D9D7041229
:1017430008F5E9D7041208F5AED6041208F5719C22
:10175300041208F5889C041208F5789D041208F514
:10176300C09D041208F5DE9D041208F5209E0412A4
:1017730008F5779E041208F5BB9E041208F50B9F2B
:10178300041208F5E3A0041208F536A1041208F5C3
:1017930058D4041208F580D4041208F59FD4041217
:1017A30008F5BFD4041208F519D5041208F53ED57F
:1017B300041208F57FE4011208F5E4E4011208F5C8
:1017C3005BE5011208F5B5E6011208F547E70112DA
:1017D30008F513E8011208F52CE8011208F58EE864
:1017E300011208F5DDE8011208F5F5E8011208F524
:1017F30055E9011208F5DFE9011208F5F8E90112CC
:1018030008F584EC011208F528ED011208F567EDDF
:10181300011208F5C8ED011208F5EFEF011208F502
:101823006CF0011208F506F1011208F525F1011219
:1018330008F53DF1011208F593F1011208F5D8F10D
:10184300011208F5EFF1011208F586F2011208F50D
:10185300A6F2011208F506F3011208F577F3011257
:1018630008F5D9F3011208F51EF7011208F5B1F7CF
:10187300011208F50DF8011208F5DBF8011208F55D
:1018830004F9011208F507F9011208F52AF9011202
:1018930008F5C0F9011208F5F2F9011208F515FA75
:1018A300011208F54AFA011208F592FA011208F535
:1018B300AEFA011208F5EEFA011208F52FFB011238
:1018C30008F5EBCF041208F5FCCF041208F57BD022
:1018D300041208F50080031208F52380031208F5AB
:1018E3004080031208F53281031208F5B181031217
:1018F30008F51F82031208F5B582031208F56E83FB
:10190300031208F52784031208F52085031208F54E
:10191300EC85031208F55786031208F5138D03129D
:1019230008F54F8F031208F59E8F031208F52E90CA
:10193300031208F53191031208F5C392031208F557
:10194300DC93031208F51762001208F50063001216
:1019530008F5A063001208F50364001208F5C464D7
:10196300001208F57565001208F5F067001208F516
:101973006568001208F55B69001208F5F169001249
:1019830008F5A96A001208F5AA6C001208F5B56EED
:10199300001208F5A96F001208F50C73001208F580
:1019A3002B74001208F51B75001208F5D47500128C
:1019B30008F57976001208F50579001208F5937A8F
:1019C300001208F5E57A001208F5A97B001208F564
:1019D300567C001208F57D7D001208F58B950312E5
:1019E30008F52E96031208F5C196031208F53C97E5
:1019F300031208F59F97031208F56998031208F577
:101A03008C99031208F5369A031208F58B9A031280
:101A130008F5FC9A031208F5BB9B031208F5D09B4B
:101A2300031208F5109C031208F5309C031208F505
:101A33003F9C031208F5509C031208F52D9D0312D9
:101A430008F54A9E031208F5689E031208F56D9E79
:101A5300031208F5DC9E031208F509A0031208F52A
:101A63004FA1031208F50AA3031208F548A40312B1
:101A730008F55CA5031208F5BCA5031208F5D8A563
:101A8300031208F540A7031208F59EA8031208F5F0
:101A930047A1041208F5C5A1041208F503A2041214
:101AA30008F5CBA2041208F541A3041208F5E2A33A
:101AB300041208F5EDA4041208F5E3BC041208F5BA
:101AC3005BBD041208F578BD041208F559BF041272
:101AD30008F553D2041208F564D2041208F53FD373
:101AE300041208F5F1FF011208F5C0FF021208F510
:101AF30059D3041208F569D3041208F583D30412E9
:101B030008F552D4041208F55FB7041208F502B8B9
:101B1300041208F51EBA041208F572FB011208F547
:101B230083FB011208F518FC011208F5FBFC0112F6
:101B330008F564FF011208F5F87F001208F55CBF91
:101B4300041208F5A0BF041208F528C1041208F511
:101B5300C6C1041208F5F588041208F55D8904125C
:101B630008F5808A041208F5D08A041208F5FC8A65
:101B7300041208F5158B041208F5338B041208F5CB
:101B8300E68B041208F5FF8C041208F5BE8D0412CF
:101B930008F5B98E041208F51F8F041208F5738F28
:101BA300041208F5EDC9041208F516CA041208F563
:101BB3002ACA041208F572CA041208F5BBCA041231
:101BC30008F504CB041208F515CB041208F574CB01
:101BD300041208F577CB041208F585CB041208F537
:101BE30096CB041208F593AD041208F5CDAD04129B
:101BF30008F537AE041208F573AE041208F5BAAE51
:101C0300041208F5ECAE041208F527AF041208F528
:101C130051AF041208F577AF041208F5DBAF0412D5
:101C230008F509B0041208F59CB0041208F5B4B025
:101C3300041208F5C9B0041208F529D8041208F5EE
:101C430046D8041208F5C78F041208F566910412EA
:101C530008F57391041208F5A091041208F5D191C7
:101C6300041208F52A92041208F58092041208F56A
:101C73001393041208F59693041208F5259404129D
:101C830008F57B94041208F5B694041208F5A99597
:101C9300041208F5BD95041208F5D095041208F551
:101CA300F295041208F54CD5041208F579D50412FF
:101CB30008F5A6D5041208F5D3D5041208F501B129
:101CC300041208F528B1041208F553B1041208F5FB
:101CD300F8B1041208F559B4041208F57CB40412DF
:101CE30008F58EB4041208F59CB4041208F5C5B4C3
:101CF300041208F5E0B4041208F5FBB4041208F565
:101D030016B5041208F58FB5041208F5D0B5041200
:101D130008F505B6041208F556B6041208F5ABB675
:101D2300041208F5D8B6041208F5E6B6041208F54D
:101D3300FEB6041208F54CB7041208F53FD7041297
:101D430008F5ACD7041208F50CD7031208F555D7DC
:101D5300031208F57ED7031208F597D7031208F587
:101D6300B7D7031208F51FD8031208F559D8031281
:101D730008F58CDD031208F547DF031208F589DF48
:101D8300031208F5F3DF031208F566E1031208F501
:101D930096E1031208F5B0E1031208F5C4E103125A
:101DA30008F514E2031208F57DE2031208F592E246
:101DB300031208F51ACD041208F531CD041208F503
:101DC30058CD041208F57CCD041208F5A7CD0412F2
:101DD30008F5D5CD041208F5F4CD041208F529CE83
:101DE300041208F54FCE041208F53E7F001208F5E1
:101DF300897F001208F592A5041208F5A9A504121B
:101E030008F505A7041208F53AA7041208F562A716
:101E1300041208F58FA7041208F5A8A7041208F501
:101E2300E5A7041208F562A8041208F5A8A804128D
:101E330008F5FAA8041208F52DA9041208F553A908
:101E4300041208F58CCE041208F59ECE041208F590
:101E5300E5CF041208F5E8CF041208F5A7CB041266
:101E630008F547CC041208F5A7CC041208F5EACC10
:101E7300041208F5B2A9041208F5D1A9041208F551
:101E830033AA041208F561AA041208F58BAA0412F6
:101E930008F5AFAA041208F5B9AB041208F5D0ABE4
:101EA300041208F5F4AB041208F524AD041208F586
:101EB30038AD041208F555AD041208F567AD0412E8
:101EC30008F52996041208F5EC9B041208F5F19B1A
:101ED300041208F50080021208F5A382021208F525
:101EE3002184021208F53F84021208F53386021298
:101EF30008F57B87021208F5E987021208F556896F
:101F0300021208F5A989021208F5C08B021208F51E
:101F13002E8D021208F57B8D021208F5B18D021287
:101F230008F54C8E021208F5D78E021208F5F48ECE
:101F3300021208F5168F021208F564A0021208F5C2
:101F430082A0021208F59BA0021208F5B5A00212A6
:101F530008F592A2021208F5C4FF011208F57144B4
:101F6300001208F50544001208F5DC43001208F5D9
:101F73008243001208F5A042001208F5E340001264
:101F830008F5AF40001208F57C40001208F56040E8
:101F9300001208F5693F001208F5213F001208F509
:101FA300563D001208F5D63C001208F5BC3C001261
:101FB30008F53B3C001208F5FB3A001208F55D3AC0
:101FC300001208F52B3A001208F56839001208F5DB
:101FD3009337001208F52437001208F5F63600127D
:101FE30008F5F336001208F5C050001208F5B35097
:101FF300001208F5C14D001208F5134B001208F545
:10200300E349001208F5E036001208F578360012AD
:1020130008F55F36001208F52935001208F537492F
:10202300001208F5F334001208F5B634001208F56F
:102033005734001208F52634001208F588470012B9
:1020430008F573EF031208F5E130001208F5D22FFB
:10205300001208F5612F001208F5262F001208F56B
:10206300F12E001208F5E52E001208F5452E001298
:1020730008F58C2D001208F55F2B001208F5EB28EC
:10208300001208F5A928001208F57427001208F5B4
:102093002927001208F55826001208F5AF2500126B
:1020A30008F58525001208F54345001208F54B2570
:1020B300001208F51CEC0200000080FBE4738700AB
:1020C3000100A60B240002007F0B25000200810BF8
:1020D30026000200830B27000200850B2800010065
:1020E300870B29000100880B84000400890B8600FC
:1020F30001008D0B2A0001008E0B2B0001008F0BBA
:102103002C000100930B2D0008000A062E0001008D
:10211300940B2F000100950B30000100960B31004A
:102123000100970B32000100120633000100130671
:1021330034000100980B360001001406380001003A
:10214300990B39000100920B83000200A40B63007A
:102153000100A20B64000100900B65000100910BCC
:102163006D000100A30B6E0002000806430001008E
:102173009A0B440002009B0B450001009D0B460097
:1021830002009E0B47000800160648000100A00B42
:102193004B000100A10B04000100A70BA1000100EB
:1021A300AA0B37000100A90B88000100A80B3C0013
:1021B3000100150600000000000000013636010191
:1021C30000010201000103010001040106060502EA
:1021D3000000070100340801000F090401010D018B
:1021E30000FF0E08000017020000190100FF1A018A
:1021F30000011B0100FE1C0100081D0200001F015D
:10220300000120010001210200002301000F24022C
:1022130000002601000127010008280200FF2A010F
:1022230000072B0102402C0100002D0100012E01AB
:1022330000012F0100FF30010B1C310800003A019F
:1022430000083B01000F2F0100000302710230015F
:1022530060021102700201020202020280021002F5
:1022630061023A0041006302730272026202430296
:1022730000021302380000020002040212020002EC
:1022830000020002000204020402370037003C028D
:102293004402000239000002000265020002350216
:1022A3008102000205028202830200020300710020
:1022B30030016000110070003102200350048000DF
:1022C30010006100000014006300730072006200DC
:1022D3004300000013000600000000000400120089
:1022E3000000000000000000040004003700370075
:1022F3003C024400000000000000000065000000F4
:102303003500810000000500000083000000010388
:102313007103010301030103010301032203020308
:102323000103100300030003000300030003000381
:102333000003420300032403060300030003040312
:1023430012032503230325032303040304030003C8
:102353000003000344030003000323030003650396
:102363002100350381030003050300030003000379
:10237300010171010101010111010101310101019A
:1023830001018001100161013B001400630173012D
:102393007201620143010001130106013D01350091
:1023A3000401120100010001000100010401040104
:1023B300330133013C0144013201360000010001C5
:1023C30065010001350081010001050182018301DE
:1023D300000136000100060000000F0000000000AD
:1023E300000000000000000003FFFF00000403FFE3
:1023F300FF0000FFFF0FF4010005C40403200001E8
:1024030000040B000000000000000003010F0100A6
:1024130082190200F8180300FE18040004190500CD
:102423000A190600161911002E1914003419150083
:102433002819FFFF00000011301106110C112A1199
:102443001E11181136113C1142114E111211FA10BE
:10245300F41003EAF5E5D5D5C5B5A595958585753C
:1024630075656555554545353525251515050A7297
:102473000E023C0E054E0E07420E0C1E0E0D300EC4
:10248300FF000000160F00000B150B020002220FC5
:10249300320000065A6967426565416C6C69616E7A
:1024A30063653039000000000000000089674523A0
:1024B30001EFCDABF01102120812CA100E12C410B4
:1024C300D0105C127A12801262126E12681200032C
:1024D3004948424D181725050200383C3E363B3B20
:1024E300352B432C00011916181616152303000C5F
:1024F3000E020B040B0A0708000F303017181921BE
:10250300301B1D1F30303016181920231A1C1E30A3
:1025130024114811741254115A11441214121A122C
:102523002612201202040201010101090200BE0465
:102533000AE80315001E000E00040C05180908FF25
:10254300080F0F0400100A0C74F712044BE9FE1273
:102553001322EE900B30F090030C7490F0A37420D0
:10256300F090030E748AF0A37420F0900310748427
:10257300F0A37420F0900312747EF0A37420F00291
:102583003AB074F712044BE9FE900302E4F0EE90C4
:102593000301F07C167D067A037B03121E6E900BFB
:1025A300A0E090030BF012205A023AB074F4120424
:1025B3004B8A088B09EB5480605B90030112512115
:1025C300604A8E828F83E0640170321242371207B1
:1025D3007AEE2412126207F50A780A1209161226F5
:1025E3004B120912EE240B1228A212077EEE2417B7
:1025F3001251311212DA740912095A8008E0640286
:102603007003121FA6EEFAEFFB1215F8AA08E509EC
:102613006480FB8030EA5402600C900B2F7401F04D
:10262300EA6402FA801FEA54046005EA640480F352
:10263300EA5408600C122054E5086408FAAB0980D8
:10264300047A007B00022724EE240FF50AEF3400FE
:10265300F50B780A2274F412044B8A088B098A82D8
:102663008B83A3A3A3E02410123ABCFA124368702D
:10267300030227078E828F837402F0A3E41243566A
:10268300A3A3A3A3E8F0A3E9123FD9A3A3A3A3A3FE
:10269300A3A3F0E5082403F8E50912367D241012FC
:1026A30039238E828F83A3A3A3A3F0EE2409FA1206
:1026B3002709123BF8F5838882E0A2E58E828F8397
:1026C300A3A3A3A3A3500474018001E4F0E50824A9
:1026D30003F88882898312520BEA1259FCEB122801
:1026E300A512271412090E125A31EB123CA68E8240
:1026F3008F83A3A312424412095AEEFAEFFB90030D
:10270300011243BA801BEF3400FB8E828F83A3A395
:1027130022E0F508A3E0F509750A007808221209FA
:102723005A7F040206BF74F212044B8A088B09EC29
:10273300FAEDFB740E120BA1E0FC1213528A0C8B00
:102743000DAE0CAF0DEE4F6023AC08AD0912134074
:10275300E96019AC08AD09EEFAEFFB121346E97014
:1027630007EEFAEFFB12133A7900800279B40234D0
:10277300EE74EE12044B74F71209BB8A0A8B0BEC4E
:10278300FEEDFF750FB3750E00750C00750D00801F
:102793000CE50C2401F50CE50D3400F50D9005D97D
:1027A300E493F8740193F9C3E50C98E50D9940039C
:1027B300022893AA0CAB0D1213A08A088B09EA45D1
:1027C3000960CE8A828B83A3A3A3A3A3E0250EF57E
:1027D3000EF510C3E50A9510E50B940050B37C1574
:1027E3007D007900EEFAEFFB12403BA3A3A3A3E520
:1027F3000AC3950EF8E028C333F8E433F9E5082853
:10280300F582E50939F583A3A3A3A3A3A31247780C
:10281300A3123AE9EAFCEBFDEEFAEF1236D1A3E09C
:102823006401700A12423774011235E0804385183F
:1028330082851983AC82AD83850882850983125210
:1028430009121388E9602D7408120BA1E0C0E0128D
:102853004237D0E0F07408120BA1E06403851882BC
:10286300851983700CAC82AD83EE240B1235CD80B9
:1028730003123C8C85088285098312366CA3A3124C
:102883004320C0E0EE24141228A2D0E0F0750F001C
:10289300A90F740912095A7F0A0206BFEE240CF528
:1028A30082EF1242882274F712044BE9FE8A828B6C
:1028B30083A3A3A3A3A3A3E0540860298A828B83E1
:1028C300A3A3A3A3A3A3E0540260178A828B83A3C9
:1028D300A3A3A3A3A3A3A3A3E06406600574E96E63
:1028E3007003122072023AB074E812044B74F712A8
:1028F30009BB7407120BA112404DE9851882851993
:1029030083F0ECFEEDFF7424120BA1780C120B4440
:102913007513008E828F831252058E828F83A3A339
:10292300A3E0F912135E8A148B15EA4515700302AE
:102933002B05EE2410124912A914120D708A168B5E
:1029430017EA45177003022B05EE2406F510EF3442
:1029530000F5117C00851082F583122B4B8E828F3C
:1029630083A3A3A3E0851682851783A3A3A3124D94
:102973008BF8A3E0F9851682851783A3A3A3A3E8A5
:10298300F0A3E91230DC851682851783A3A3A3A3E2
:10299300A3A3A3124932851682851783A3A3A3A3F6
:1029A300A3A3F0EE1259FCEF122D6512090EEE12DD
:1029B3005A32EF123CA6851682851783A3A3A3A3DD
:1029C300A3A3A3A3A312424412095A751000022A17
:1029D30085850A82850B8312520912138E8508821C
:1029E300850983A3EAF0A3EB12425DA3A31240106F
:1029F3001243D1E0A2E6500F850882850983A3A381
:102A0300A3A3A3E0D2E1F0E51370638508828509EF
:102A130083A3124D7590035BE0687003A3E06970B4
:102A23004D850882850983A3A3A312491E780C123E
:102A3300090A7427120BA1E0F50A780A1209167421
:102A430026120BA112077E90036812077E79007489
:102A530010120BA1123FC4121F7C740912095A856C
:102A63000882850983A3A3A3A3A3E04405F074010B
:102A73002510FC8E828F83A3A3A3A3A3A3122B4BA6
:102A83000510E50A450B6052851008C3E508951447
:102A9300E495155045E51075F006A4F8A9F0E51680
:102AA30028F8E51739F9E8240CF508E9123644E467
:102AB300124253640160030229D47513018508820D
:102AC3008509837401124258F8A3E0F985088285C9
:102AD3000983A3E8F0A3E90229EBAA16AB17120DA9
:102AE3007678161209127425120BA1E0FC740212F7
:102AF3000BA1E0F9EEFAEFFB122078740212095AE7
:102B030080418E828F83A3A3A3E0C0E07404120BE1
:102B1300A1D0E01230DCC0E07405120BA1D0E0F0CC
:102B2300E514451570097406120BA174B980077476
:102B330006120BA17410F07401120BA1AA82AB83CD
:102B4300121F827409025A3D12424D8E828F83A353
:102B5300A3A3E0F91213648A0A8B0B2274EA12040A
:102B63004B74F31209BB8A0A8B0B89158C147423DB
:102B7300120BA11261BCAA0CFB120D64E9F513AA96
:102B83000CAB0D120D6AE5137003022D52750E0086
:102B9300800F8E828F83A3A3A3A3A3E0D2E3F005C8
:102BA3000EE50C240BF582E50D122EE0E50EC3981D
:102BB3004003022D49E5137003022D49E50E75F01C
:102BC30006A4F8A9F0E50C28F8E50D39F9E8240C7A
:102BD300FEE9125F9FA3A3A3A3E0A2E040C1750F88
:102BE30000750808750900E5146003750F20123F8E
:102BF300F8E060339003ABE064017017E50FD2E3B4
:102C0300F50F7509108E828F83123C2A123ADD74F8
:102C1300FF8024430F0C75080C8E828F83A3122D23
:102C230071125A1EA38010E5156009E50FD2E6F56F
:102C33000F75080A122D7FF07402120BA1E50F1213
:102C43004DAAC0E07404120BA1D0E0F07405120B7E
:102C5300A1123ACE120BA1E06003022D2C740812CC
:102C63000BA11236558E828F83A3A3A3A3F07408FE
:102C7300120BA1123402F583E508F0A3E509123F14
:102C830002E060119003ABE0C0E07408120BA112E4
:102C930033FBD0E0F0850C82850D83A3A3A3E0C0B2
:102CA300E07408120BA1125841D0E0125879C0E029
:102CB3007408120BA112340DD0E0F07408120BA1AA
:102CC300122D71A3A3125848124D94A3A3E01258D6
:102CD3002CEAF0A3EB124DA0C0E0E8242EF582E924
:102CE3001228A5D0E0F07408120BA112520B850A2A
:102CF30082850B83122D5C2424F582EB123C951202
:102D030059FAE50B122D6512090E123CA3EA242B86
:102D1300F582EB1228A512424412095A85188285BE
:102D23001983AA82AB83121F9A8E828F83A3A3A3D4
:102D3300A3A3E0D2E0F0740C120BA1E06003022B1A
:102D4300951513022BA27900AA0CAB0D12206C74FB
:102D53000D12095A7F0E0206BFA3A3A3A3124D7936
:102D6300EA22124288124D54751200781022124D35
:102D730079850A82850B83A3A3A3A322A3122D849F
:102D830022123F9DE8F0A3E92274F212044B74EB84
:102D93001209BBEAFEEBFF89088E828F83A3A3A3EC
:102DA300A3A3A3A3A3E0F9120D8E8A0A8B0BEA4512
:102DB3000B607FE50870047C0480027C088E828FA0
:102DC30083A3A3A3A3A3A3A3A3E0F9120D9412289F
:102DD3009F124077605C88828983125207740612BF
:102DE3000BA1122E3A12520B7408120BA1122E3A97
:102DF300A3A3E0C0E07410120BA1D0E0124DBA12ED
:102E0300520B740E120BA112404D7411120BA1E45C
:102E1300124AF5F9780A120912742059FC744059C0
:102E2300F97402120BA1AA82AB83122078740212E6
:102E3300095A74150234EBEAF0A3EB123AA6A3A3E2
:102E4300A32274F712044B74FA1209BBE9FE7F0143
:102E53008F087D0080047508000D123AB5122EE02C
:102E6300EDC3985025ED75F006A4F8A9F0EA28F80B
:102E7300EB39F9E81259F5E912476150D9540C605E
:102E8300D5E0A2E250D37F0080CF8A828B83A3A3B5
:102E9300A3A3A3A3E0703EE508A2E0400574016E7E
:102EA30070338A828B83A3A3A3A3A3A374011256B3
:102EB300F0E0C0E07403120BA1D0E01256E8E0C0CA
:102EC300E07404120BA1D0E0F07405120BA1EF1211
:102ED3003C5A121F827406023AADF582EF124B057B
:102EE300F822C082C083790112206C0235B5C082FA
:102EF300C083EA4B60189003A7E064027010900B44
:102F03002FE4F0EAFCEBFD7A021235C28012900B3B
:102F13002F7401F07A027B00900301E0F91217721B
:102F23000235B5C082C083900BB2E075F005A4FCF6
:102F3300ADF079007A877B0A1215DA7B008012EBF9
:102F430075F005A4F8A9F01230D174FEF0A304F0D3
:102F53000B900BB2E0F8EBC39840E40235B5C082A6
:102F6300C0837C007B0080037C010B900BB2E0F8F4
:102F7300EBC398504FEB75F005A4F8AAF0EAF912E9
:102F830030CA7003A3E0F460E11230C1E8240308FF
:102F93000808E912367D24FFF0A3E034FF124AF556
:102FA300F8A3E0F9E84970C0EB75F005A4F8EAF975
:102FB3001230C18882898374FEF0A304125701A3DF
:102FC300E4F080A6ECA2E050031235BC0235B574E0
:102FD300F612044BEAFEEBFF900BB2E070030230F3
:102FE300BCEE241112620770030230BC8E828F8301
:102FF300A3A3A3A3A3A3A3A3A3123FCC6402600F21
:103003008E828F83A3A3A3A3A3E070030230BC7CAF
:103013000080010C900BB2E0F8ECC3985045EE240D
:103023000B1228A2124D75EC75F005A4FAABF074DF
:10303300872AF582740A3BF583E0687003A3E0698D
:1030430070D1EE2412126207FBEC75F005A4F8A907
:10305300F0748928F582740A39F583E06B70B479CA
:103063000080587C0080010C900BB2E0F8ECC39810
:1030730050EDEC75F005A4F8A9F01230CA7003A363
:10308300E0F470E31230C1EE240B1228A2123ED5F5
:10309300EAF0A3EB1230DC88828983A3123AA1748D
:1030A3000C1249327A08FB900301E0F91217788B6E
:1030B30009EA450970031235BC79010235F97487B1
:1030C30028F8740A39F9221230D1E064FE22748799
:1030D30028F582740A39F58322123630E02274F21D
:1030E30012044B74F31209BBEAFEEBFF8E828F834B
:1030F300A3A3A3A3A3A3A3A3A3A3E0F50A900B2FC6
:10310300E0700579BA0233F6750801750900750C8C
:1031130000750D007C087D00790085188285198370
:10312300AA82AB831215DA7405120BA1740112344F
:103133001E540460127402120BA1E0D2E612341E74
:1031430054087003750803E0541060067440450882
:10315300F508E0540860227402120BA1E044C01287
:10316300341E5420600A7403120BA1E0D2E08008DD
:103173007403120BA1E0D2E1F08E828F83A3A3A389
:10318300A3A3A3A3A3E07018120F0E8518828519B9
:103193008312404D7402120BA1E0D2E2F0023248D6
:1031A300640F70157402120BA1E0D2E31243D21222
:1031B30040354508F5080232488E828F83A3A3A3C6
:1031C300A3A3A3A3A3E064028E828F837005122DB1
:1031D3008080C9A3A3A3A3A3A3A3A3E06403701341
:1031E300851882851983AC82AD83EEFAEFFB12203A
:1031F3002480528E828F83A3A3A3A3A3A3A3A3E0BC
:10320300640170419003ABE0601C7402120BA1E0F7
:10321300D2E31243C0851882851983123C9875093D
:1032230010750AFF80187402120BA1E0440C1258A7
:103233006674FDF0A374FFF074044508F5088E82EC
:103243008F831261BC12475B503A7402120BA1E0E8
:10325300540C701B8E828F8312520B121A48E97022
:103263000579BB0233F67402120BA1E0D2E5F0122A
:10327300475B50107402120BA1E0540C64047004F9
:10328300E0D2E5F0EE2411126207C0E07404120BE1
:10329300A1D0E0123AD0120BA1E060030233EF7425
:1032A30008120BA1123402123414EE24181262070E
:1032B300C0E0E81259E6E91228A5D0E0F0EE24199F
:1032C300126207C0E07408120BA1E0241312364DFA
:1032D300D0E0123AF6640170119003ABE0C0E074E1
:1032E30008120BA11233FBD0E0F07408120BA112E9
:1032F30038FB2417FAEF12392AFCE8241CF582E97B
:103303001228A5EC1249328E828F83A3A3A3A3A311
:10331300A3A3A3A3E0C0E0E82422F582E91228A531
:10332300D0E0F07408120BA112340DE50AF0740812
:10333300120BA11239002424F582E9125044A3E5AB
:103343000D12509DFCA3E0FDE82426F582E9122826
:10335300A5ECF0A3ED12360C124022E82428F582E6
:10336300E91228A51252A0C0E0E8242FF582E91241
:1033730028A5D0E0F0EE241B126207C0E074081207
:103383000BA112583AD0E0F0EE241A126207C0E003
:103393007408120BA1E0242E12364DD0E012585EB1
:1033A30012271512090EEE24111228A212402274BC
:1033B3000B120BA112423E12095AEE241512620798
:1033C3005440601B90032412407760138518828554
:1033D3001983AA82AB839003251236951220BF85E9
:1033E3001882851983AA82AB83121F9A740C120B5D
:1033F300A1E0F9740D0234EBE024151236512212C8
:103403003904240FF582E9340022E02423123651D3
:1034130022F583E508F0A3E509F022F0EE24151266
:103423004B022274F712044B7E638A828B83E06023
:103433000C7905120C32E9F87456C398FE900353C5
:10344300E0600CF9120C32E9F8EEC39824F2FEEEB8
:10345300F9023AB074F612044B74FE1209BB8518D4
:103463008285198312404DE9FEECFAEDFB740C12D0
:103473000BA1E0FC900462124077603285188285CC
:10348300198385820885830978081209127D01EE64
:10349300F99004621236921220BF740212095A8BF9
:1034A30009EA450960047900800679B2800279B699
:1034B3000235F474F712044BE9FE7409120BA1E010
:1034C300FF90030C124077601AEFF5087808120991
:1034D30016EEF990030C1236921220BF74011209F2
:1034E3005A800279B6023AB012095A7F060206BF21
:1034F30074F512044BEAFEEBFF8C088D09750A0183
:10350300125C7A1235D6700B90035B1236C7123CED
:1035130098800EAC08AD09EEFAEFFB120C98E9F5B2
:103523000AA90A02542274F612044BEAFEEBFF7A4C
:103533000C7B00121694EA4B606BEE242012620798
:103543008A828B83F0EE24211235ABF0EE24221213
:1035530035ABA3F0EE24231235ABA3A312427D12A5
:103563004D7DE8F0A3E9124AFA124D7EA3A3E8F0D9
:10357300A3E91249248A828B83A3A3A3A3A3A3A3AE
:10358300A3F0EE242F126207C0E0123AB51228A569
:10359300D0E01240538A828B83A3A3A3A3A3A3A344
:1035A300A3A3123C980235F9124B028A828B83A3A0
:1035B30022F0D083D0820208F27CF47D017A087B6A
:1035C30000900301E0F912176622FAEF3400FB12B0
:1035D3001E6E22123AE2221235E0A3E0221235E4F3
:1035E300221235E82212434EA3A322123FE7A3E09F
:1035F30022740212095A7F020206BF7C017D007AFF
:10360300007B0012101C740422F01236141242883C
:1036130022EE240FF582EF22F582EF124288E42294
:1036230090053FE0F91216282212363022F0EE24DC
:1036330012F582EF3400F5832212095A7F0802063D
:10364300BF125A19850882F5832212365122123687
:10365300AE221236A7E02212434EE022C082C0837C
:103663001240A912361E0235B4123FE022A3E0F93C
:10367300120C32E92279010208F2123C2522F8EFFA
:103683003400F98808890922EEFAEFFB90031CE065
:10369300F8A31236A122E0F81236A0A322A3E0F584
:1036A30083888222E0240E1236AE221236B222F82A
:1036B300A3E01236B9223400F98882898322123DAD
:1036C30051640522124D7985088285098322FB12F4
:1036D30036D622121E6E85088285098322C082C0D7
:1036E300831240A91236ED0235B4124288740122C6
:1036F300023678C082C08390031A7412F0A3742038
:10370300F090031C7406F0A37420F090031E74E27F
:10371300F0A3741FF0900320740CF0A374200235FF
:10372300B474F412044BEAFEEBFF123789F5081266
:103733000F0E8A0A8B0BA80AA90B8E828F8312376E
:103743007CE0687003A3E069602CE508A2E55026DD
:103753008E828F83A3E0FB90031A1236921220BF4E
:103763008E828F83E0F8A3124530A3124077700650
:10377300123789C2E5F002272412378022E0FAA328
:10378300E0F5838A82228E828F83123699A3E02208
:1037930074F512044B1238E91239002420F582E93A
:1037A30012620AFE74035EF50A123EBF1228A512C6
:1037B30038FB88828983F0A3A882A983E50A60097C
:1037C3007402650A600302385A740C5EFF60157454
:1037D300086F601074046F701D7402650A7005EE43
:1037E300A2E4402D8A828B83A3A3A3A3A3A3A3A3B1
:1037F300E0242312394B740C6F70101238E4242424
:1038030012393324241238F612394E7402650A70C1
:1038130005EEA2E440411238E4242612393324266B
:10382300123909A312395D12390912395D1238F6BA
:1038330012394EEF600F74086F600A740C6F6005E5
:1038430074046F70128A828B83A3A3A3A3A3A3A37D
:10385300A3E0242212394B8A828B83A3A3A3A3A3BD
:10386300A3A3A31239197005EEA2E150178A828B24
:1038730083A3A3A3A3A3A3A3A3E0242E123EC61250
:103883003944800E900302123944900302E004127B
:103893003C08A3A882A983EEA2E750421238E4248D
:1038A3002112390912394E8C828D83123919602EF7
:1038B3008A828B83A3A3A3A3A3A3A3A3E02430128D
:1038C300394BEEA2E150178A828B83A3A3A3A3A350
:1038D300A3A3A3E0243112392388828983F00254FD
:1038E300221238E9E022EA2408FCEB3400FD8C8242
:1038F3008D8322123ECAA322124D79EE221239047D
:10390300221243CBE82212390D22F508A3E034003A
:10391300850882F58322E02421123ECAE054032263
:10392300FAA3E012392A223400FB8A828B83E02235
:1039330012390D123944A3A882A9838C828D83E0A6
:1039430022E088828983F022123ECA12395222E091
:1039530088828983F0A308A983221239528C828D2D
:1039630083E0242822C082C0838A828B8312378D0E
:10397300F8740358F98A828B83A3A37401F0E96076
:10398300057402697061740C58FC601474086C60EF
:103993000F74046C70137402697005E8A2E4401D8F
:1039A3008A828B83A3A37402F0740C6C700A8A82DC
:1039B3008B83A3A3E02402F07402697005E8A2E4F8
:1039C30040258A828B83A3A3E02404F0EC600F7468
:1039D300086C600A740C6C600574046C70098A824C
:1039E3008B83A3A3E004F0E8A2E750318A828B83A0
:1039F300A3A3E0041252A4F9A3E0F5838982A3A34D
:103A0300A3E0540360178A828B83A3A3E004F0E846
:103A1300A2E150098A828B83A3A3E004F08A828BFC
:103A230083A3A3E0040235B4C082C0838A828B835C
:103A3300A3A3A3A3A3A3A3A3A3A312407760098A69
:103A4300828B83A3A3123A4E0235B5A3A3A3A3A3E8
:103A5300A3A3A312424D12169A2274F712044BEA3F
:103A6300FEEBFF124D7188828983A3A3A3A3A3A3B3
:103A7300A3A3E4F0123AA1A3A3A3A3A3A3A3F0A334
:103A8300F0E812502EE9123A9B121FCAEEFAEFFB2E
:103A9300121FD68018F582ED124288E4F022A31299
:103AA3003AA622123C08A3A3A32212095A7F0102B9
:103AB30006BFEA240BF582EB221259AA240922122B
:103AC30042881261C0750E00780C227401123C5EAC
:103AD300123AD722121FA0740C22123FBAA3221249
:103AE3001E68E9640122A3A3A3A3E8F0A3E9F012EB
:103AF3000F0822123EFCE02274F612044B74F412F7
:103B030009BB123C0EFCA3E0F5838C82A3E0FC749A
:103B130002120BA1EC124AF52402123FAE740412F6
:103B23000BA1123C98EC600A7402120BA1E064042E
:103B3300701C123BEC1247677406120BA1123BF286
:103B4300123FAE7408120BA1E8F0A3E98056E064BB
:103B530001600AE064066005E064057023123BEC33
:103B6300123923C0E07403120BA1D0E0124AF524EA
:103B7300131247677406120BA1124AF1241B80C06B
:103B83007406120BA1E4F0A3123C1B241212476724
:103B93007408120BA1123BF21259A6C0E0740A1268
:103BA3000BA1D0E0F07406120BA1124077602874C9
:103BB30006120BA112520B120C8CE964017018123D
:103BC3000F088A088B09AC08AD097406120BA11201
:103BD300520B1235D6700D851882851983AA82ABD4
:103BE30083121F76740C0235F6123C202412221223
:103BF3003BFF241A22123BFFF8A3E022EAF0A3EBD7
:103C0300123C08E022F088828983228A828B83A374
:103C1300A3A3A3A3A3122D84F0123C2022EA24021F
:103C2300F8EB1236B9E022A3124D79851882851973
:103C3300832212095A0235B5C082C08374FD12096A
:103C4300BB123C6AC0E07402120BA1D0E0123C5AD2
:103C5300121F70740380DB123C5E22F0851882858C
:103C63001983AA82AB83228A828B83A3A3A3A3A3F0
:103C7300A3123F948A828B83A3A3123699E022AACC
:103C830082AB831215CE740322124D79EE240BF509
:103C930082EF124288123F9722123F9790032C2201
:103CA300124DB2124288E0FC7D00228A828B83A3EC
:103CB300A3E0F8123D5124FB22C082C083123CAE24
:103CC300600624FC60078008121FB88003121FB22D
:103CD3000235B5C082C0838A828B83A3A3A3A3A327
:103CE300A3A3A3E070528A828B83A3A3E0F8123DBF
:103CF3004D64016043123D476402603C123D4764DA
:103D0300036035123D476404602E8A828B83A3A32C
:103D13001236C16023123D47640A601C123D47649A
:103D23000B6015123D47640C600E123D47640D6035
:103D3300077904121E56800990032212369212202C
:103D4300BF0235B58A828B83A3A3123D512212365B
:103D5300A0E02274F612044B74FA1209BBEAFEEBDC
:103D6300FF7403120BA1EEF0A3EFF07403120BA187
:103D7300AA82AB83121FBE1262046003023EBA859D
:103D830018828519837432F07405120BA1C082C0A6
:103D9300838E828F83A3A3A3A3E0D083D082F8E092
:103DA30028C0E07401120BA1D0E0123F16C0E074EA
:103DB30002120BA1D0E0123EF5F8A3E0F9E8496046
:103DC30026E82417F582E91228A5C082C083E824D7
:103DD30016F582E912620AD083D082F8E028F874DB
:103DE30001120BA1E028F0851882851983AA82AB02
:103DF30083120CEC8A088B09A808A909E849700307
:103E0300023EAD8E828F83123ED5A3A3EAF0A3EBCD
:103E1300123F02A3A3E0C0E0E82420F582E91228C0
:103E2300A5D0E0125879C0E0E82421F582E91228F0
:103E3300A5D0E0123F11C0E0E8242AF582E9122858
:103E4300A5D0E0F07405120BA1E0FA123EBF126296
:103E53000A2A124767E8242BF582E91228A51240A3
:103E63004D7405120BA1E0C0E0E8242DF582E912A0
:103E730028A5D0E0123EF5FAA3E0FBEA4B6019E86F
:103E8300242BFAE912270AA3A3A3A3A3A3A3A3E0C2
:103E93002416123EC6123EDD8E828F83A3A3A3A3F4
:103EA300A3A3A3A3E8F0A3E9800CEEFAEFFB121F90
:103EB300C412289F7410F074060235F6E8240BF53B
:103EC30082E922123ECA22FCA3E03400FD8C828DDB
:103ED300832212424D8882898322E0FC8A828B836B
:103EE300E02CFCA3E03400FD8A828B83ECF0A3ED8D
:103EF300F022123EFCA3A3E02212446AA3A322F001
:103F0300E81259E6E912428874011243D222123FA1
:103F13001CE022123F1CA3E022125410A32274F7C8
:103F230012044BEAFEEBFF126204701E123F57129B
:103F33004077600612368B1220BF126204700B1298
:103F430051FF120CE612289FE9F0EEFAEFFB121F65
:103F5300C4023AB0121FD08E828F83A3A3A3A3A35C
:103F6300A3A3A3A3A32274F612044BEAFEEBFF8CD4
:103F7300088D09121A48E9700479018011AC08AD63
:103F830009EEFAEFFB9003201236921220BF02359E
:103F9300F9123F9DE8F0A3E9F022E0F8A3E0F985E8
:103FA30018828519832212586AE022F8A3E03400AC
:103FB300F922123FBAE022E8F0A3E91243D6A3A301
:103FC30022124026EEFAEFFB2212424D120F80E935
:103FD300221236B2E0221235E0123FE022E08E8256
:103FE3008F83A322124299A3A3A3A322E508240B40
:103FF300F582E509227C087D007900851882851900
:1040030083AA82AB831215DA8E828F8322E085081E
:1040130082850983A3A322A3A3A3A3A3A3A3A31278
:10402300402622E0FCA3E0FD2274011243D2A3A3A5
:10403300E022123F947404221215DA85088285095E
:1040430083A32212178A8E828F83EAF0A3EBF022D6
:10405300124057221243D6A3A31243CB22C082C0DD
:104063008312407074ACF0A3741F0235B4121FDCCA
:1040730090032222123904492274F712044BE9FEF9
:104083001240A91228A5124077601888828983A359
:10409300E05403700EEEFB123EBF1228A51240DA65
:1040A3001240D4023AB0EA12502EEB22C082C083EF
:1040B300EAF8EBF988828983A3A3A3A3A3E0FB888F
:1040C300828983A3A3A3A31240DAA31240D40235A7
:1040D300B5E0F91212D422E0FA88828983A3A322DD
:1040E30074E812044B8A088B098C168D1789147493
:1040F3001A120BA1E0F50AA3E0F50B741C120BA135
:10410300E0F513741D120BA1780C120B44125A31F3
:10411300EB12620A242DFA7B001215F28A108B111E
:10412300AE10AF11EE4F70030242258E828F83745F
:1041330001F0850810850911751200781012090E17
:104143007C157D00EE241812422812095A85161098
:10415300851711781012090E7C097D00EE240212D6
:10416300422812095A7418120BA1123C8C850A8238
:10417300850B83E0C0E0EE240F1228A2D0E01242A8
:1041830058C0E0EE24111228A2D0E0124253C0E03E
:10419300EE24101228A2D0E012362CE51312427D31
:1041A300E4F0A3F0124237780C120B62EE241712DC
:1041B30028A2E5141235EEF8A3E0F9EE240D122837
:1041C300A2124277125A2B12620A6025EE2426129B
:1041D3004753242DF812426F125A01123AC21209A0
:1041E3000E125A29123CA68A828B83124244120968
:1041F3005AEE24191262075403601D9003181240EB
:1042030077600CEEFAEFFB1236951220BF8013EEA7
:10421300FAEFFB1215F8800AEEFAEFFB9003011296
:1042230043BA025A40FAEF12422E223400FB12150F
:10423300CE740322EE241312428522E0242B12367D
:104243005112424D1215CE740322E0FAA3E0FB2271
:10425300124266E02212425DE022124261221242C1
:1042630066A322F0850A82850B83A322EF3400F92B
:104273008A828B83123F97E50822F0EE24261242AE
:104283008522F582EF3400F58322F50CA3E0F50DCA
:10429300750E00780C221235E8A3A3A32274F11241
:1042A300044B8A088B097A20124368606D8E828FD3
:1042B3008374061243788E828F83A3A3A3A312353C
:1042C300DA8E828F8312432012428D12090E7C10E4
:1042D3007D00EE240612422812095A8508828509B8
:1042E3008312401AEE2416FAEF3400FB120C868573
:1042F3000882850983A3A3A3A3A3A3A3A3A3A3E0E2
:10430300C0E0EE241E1228A2D0E0124330C0E0EE3B
:10431300241F1228A2D0E0124338025C9DA3A3A35A
:10432300A3A3124329221235E4A3A3E022F0123FF0
:10433300EF124B0522F0EEFAEFFB90053FE0F91286
:1043430015FE22E8F0A3E912434E22F08508828588
:1043530009832212435A2212365AF8A3E0F98E82B5
:104363008F83A3A3227B001215F28A0A8B0BAE0A5A
:10437300AF0BEE4F2212435A124346A3A3E022741B
:10438300F612044BEAFEEBFF7A057B001215F2EA04
:104393004B601E8A828B83740A1243C08A828B838A
:1043A300A3A3123FB58A828B83A3A3A3A3F01243D3
:1043B300B70235F990053FE0F91215FE221243C406
:1043C300221243D61243CB22E0F8A3E0F922A31230
:1043D30043D622F08E828F8322C082C083E9900B62
:1043E30031F090031474A8F0A37420F090031674B2
:1043F30000F0A37420F090031874EEF0A3741F026E
:1044030035B474F712044BEAFEEBFF8908EE4F70E4
:1044130003121AE490032612407770089003268053
:1044230022124D7588828983A3A3A3A3A3A3A3A365
:10443300A312445C88828983A3A3A3A3A3A3A3A3F6
:10444300A370DEEEF0A3EF124462A3A3A3E4F0A3F0
:10445300124462E508F0023AB012424DEA4B2212CE
:1044630044662212446A22125414A3A3A32274F7AB
:1044730012044B900326800D8E828F83A3A3A3A3E4
:10448300A3A3A3A3A31259DEEE4F60348E828F83BE
:10449300A3A3A3A3A3A3A3E06970DD8E828F83A349
:1044A300A3A3A3E06A7003A3E06B70CC8E828F8317
:1044B300A3A3A3A3A3A3E06C70BEEEFAEFFB800457
:1044C3007A007B00023AB074F712044B9003261271
:1044D30059DE900326122D60687002EB6970171283
:1044E3004530124D75900326123C989003261259BD
:1044F300DE80301259D1EE4F60298E828F83A3A3C1
:10450300A3A3A3122D5C687002EB6970E68A828B09
:1045130083A3A3A3A3A3A3A3A3A312453DA3A3A3DD
:10452300123C9812169AEEFAEFFB023AB01236A139
:10453300A3A3A3A3A3A3A3A3A32212477CA3A3225E
:1045430074F012044B74FA1209BB8A088B098A822D
:104553008B83A3A3A3A3A3A3A3A3E0600D64016020
:10456300098A828B83123FCC6005790202474E850C
:104573000882850983A3A3A3A3A3A3A3A3E064033E
:1045830070157404120BA1AC82AD83AA08AB091297
:104593002024E9701380D3850882850983124D7521
:1045A3007404120BA1123C981259EB12620A2432C2
:1045B3001247671216948A0A8B0BAE0AAF0BEE4FA3
:1045C300700302474C7C327D0079001215DA7402C5
:1045D300120BA1AA82AB83850882850983A3A3A3B7
:1045E300A3A3A3A3A3A3E0F912131C7402120BA1A8
:1045F300E0C0E0EE242D1228A2D0E0F0EE242CF54A
:104603000AEF3400F50B7403120BA1E0850A8285CF
:104613000B83F07901EEFAEFFB121F6485080C851A
:10462300090D750E00780C12090E7C1C7D00EE241A
:104633000B12422812095AEE24301247532432082F
:104643000812426F2411F8E5091261A3FCE9FD8CFD
:10465300828D831238FB242E1228A2124277124A2B
:10466300D3125A3712090E8C828D831240228A820A
:104673008B8312424412095A7404120BA112477815
:10468300123C9890030212476EF0900302E004126A
:104693004B09242A125033750D00850A82850B833A
:1046A300E0780C120A848A828B83E50CF0EE2429CD
:1046B3001228A2E50C125866E4F0E5082415F582E9
:1046C300E50912476174015007120BA174018004BC
:1046D300120BA1E4F0EE2427123681851882851986
:1046E30083AA82AB83121304E924FE850882850919
:1046F30083F0F508750900EE242E1228A212402239
:10470300ECF8EDF9AA08AB09120302E88E828F8355
:10471300A3A3A3A3A3A3A3A3F0ECF8EDF9AA08AB67
:10472300091203028B09EA4509600F8E828F83A366
:10473300A3A3A3A3A3A3A3E004F0EE242012620780
:1047430044081250A5790080027910740602363CA1
:104753001261A1FAE9FBEE22EE2415F582EF124B6A
:1047630005A2E022FAA3E03400FB22123FE0A3A358
:10477300A3A3A3A32212477C221243CB8E828F834F
:10478300A3A3A3A32274F412044BEAFEEBFF12408B
:1047930046900B9AE0F8EE242B126207C39840036D
:1047A3000248FB12504B7015EE242B1262070412C1
:1047B3004924C0E0EE24291228A2D0E0F0EE2428F8
:1047C300126207FC7900800109EE242C122EDDE928
:1047D300C3985026750801750900E97808120A8400
:1047E30012504B550860E1E92CFC7508017509006E
:1047F300E97808120A84E04508F0EE2427124912EA
:10480300EE242E1228A2EC8A088AF0A4F8ABF0E476
:104813002BF9E098F8A3E099F9C3E89508E9940027
:10482300EE40392427122EDD12504B6037EE242D33
:104833001228A212491EA3E4F0EC7054EE242012B5
:1048430062074420123AF6C0E0EE24261228A2D0D2
:10485300E0F0EE2430124912A3E0805924291228F3
:10486300A274FFF090034BE0FA900B9DE0F508EA89
:104873008508F0A4ABF075F064A4FAADF075F064AC
:10488300EBA42DFB8E828F83A3A3EAF0A3EB80A876
:10489300EE242012620754DF12427DECF08C08EE06
:1048A30024271262078508F0A4FAABF0EE2430F552
:1048B30082EF124909FBEE241E1228A2EAF0A3EBB1
:1048C30012492CC0E0EE24251228A2D0E0F0EE24F9
:1048D3001C1228A2E8124932900328124077600B79
:1048E300ECF91236951220BFE97018EE240BFAEF9B
:1048F3003400FB122048800B7BE9EE2422F582EF83
:10490300124ADD022724124B052AFAA3E03B22F5C3
:1049130082EF12491922125097FA22123FE0A3F0B4
:1049230022F0EE242A124B0222124466A3E022F064
:10493300A3E4F02274F412044B9003261259DE12FE
:10494300178A8A0A8B0B7CFF7DFF8020E0C398FACD
:10495300A3E099FBC3EA9CEB9D500E8E828F83A349
:10496300A3E0C398FCA3E099FD1259D1EE4F60591F
:10497300124D71E50AC398F8E50B99F98E828F837E
:10498300125209C3E89AE99B8E828F83A3A340BC8A
:10499300A3A3A3A3E06402701DEE240B12504E6088
:1049A3000CEE24101228A212520B1215F8EEFAEF95
:1049B300FB1215808007EEFAEFFB12203C7A017B95
:1049C30000900B31123626801474FF6C700374FF51
:1049D3006D600A7A017B00900B311235C7022724E0
:1049E30074F012044B8A088B09ECFAEDFB890A7CFC
:1049F300011259EB12503D8A0C8B0DAE0CAF0DEE2C
:104A03004F7003024AD0E50A6003024AD0E5081258
:104A13004AD3E0F8EE2428126207686003024AD002
:104A2300EE242C124912E82AF8E43400F98E828F1E
:104A330083A3A3A3A3A3A3A3A3E0FAE89AE99400FF
:104A4300C365D0334014124D5C125051700C7B007F
:104A53001259E4E509124ADD8073124D5C1250517C
:104A63007031EE242C126207F9EE24291228A27564
:104A730008FF750900E97808120A84E508F0EE24B6
:104A83002A1228A2E508124AFA29F0EE242B12363C
:104A93001B8022E5082414F8E5093400F9E0C0E09E
:104AA300EE242A1228A2D0E0124AF5C0E0EE24290F
:104AB3001228A2D0E0124B09242D1228A212366C20
:104AC300A31249327A01FB900B3112362602363F8C
:104AD3002413F582E50912428822124919EE24149F
:104AE3001242851240D4EEFAEFFB12158022EAF04F
:104AF300A3EB123C08E022F0EE2428124B0222F52D
:104B030082EF12509722F0125A45F0A3EBF0EE22F7
:104B130074E812044B74FD1209BBE98518828519E8
:104B230083F08A0A8B0B8C168D17741B120BA11240
:104B33004D54741D120BA1780C120B448A828B8383
:104B4300A3A3E0F91212F28A128B13EA451370073A
:104B53007A007B00024D4F7A127B001216948A086A
:104B63008B09AE08AF09EE4F7003024D4B7C127DEB
:104B73000079001215DA7401120BA1AA82AB8385A6
:104B83000A82850B83A3A3E0F912131CEE240FF50D
:104B930008EF125A197402120BA1E08508828509E5
:104BA30083F07902EEFAEFFB121F648516828517F4
:104BB30083124778E8F0A3E9124DA08E828F83A376
:104BC300A3A3A3A3A3A3F07514FF751500850882FF
:104BD300850983E07814120A8412289FE514F0856E
:104BE3001282851383A3E0F8123D4DC0E0EE240B3F
:104BF3001228A2D0E0124DAAF508EE240D1228A225
:104C0300E508F0125056E08508F0A42424FAE5F0F4
:104C13003400FB1215F28A088B09EE24101228A225
:104C230012404DEA45097003024D408A828B83741A
:104C33001A1249328A828B83A3A3F0A3124D9412D2
:104C43004D7D123C98AC16AD17EA2406FAEB3400FE
:104C5300FB121316850A82850B83A3A3A3E0C0E08E
:104C6300E508240FF582E5091228A5D0E0F09003AA
:104C730068124D75E5082410124D65124DBAA31242
:104C83004D75E5082412124D65124258C0E0124DCD
:104C93005C1228A5D0E0F0E50A12502EE50B126253
:104CA3000AC0E0E5082415F582E5091228A5D0E03D
:104CB300124D8BC0E0E5082416F582E5091228A5FC
:104CC300D0E012620EE0C0E0E5082417F582E509A2
:104CD3001228A5D0E012620EA3E0C0E0E508241874
:104CE300F582E5091228A5D0E0123FA9C0E0E50846
:104CF3002419F582E5091228A5D0E0F0E508241A65
:104D0300F582E5091228A5780C120B62E508242424
:104D1300F8E5093400F9E5082422F582E509123C97
:104D230095E50A1259E6E50B12620AC0E0E508248C
:104D33001FF582E5091228A5D0E0F0800BEEFAEF0B
:104D4300FB1215807E007F00EEFAEFFB7403025A1C
:104D53003DE0F510A3E0F51122E5082414F582E502
:104D63000922F582E509124288E8F0A3E9228E823E
:104D73008F83124D79221243CB22E0F8A3E0F98A04
:104D8300828B83A3A3A3A322F0851082851183E0E2
:104D930022124D9822124261A3A3A3A322F0125917
:104DA300F3E50B124B0522F0124DB2124B0522E52F
:104DB3000A125A32E50B22124D98A3A3A32274E8D8
:104DC30012044B8A0A8B0B8C108D118914741812E0
:104DD3000BA1E0F516A3E0F517741A120BA1780CDA
:104DE300120B44750900EA2413F582EB12620AF5EB
:104DF300089003281240776011A9089003281236FF
:104E0300921220BFE9600302502B7C028510828539
:104E1300118312520B1259F3E50B12503D8A128B78
:104E230013AE12AF13EE4F704B850A82850B83A32B
:104E3300E0A2E0400302502B780C12090A78161204
:104E43000912A914AC10AD11AA0AAB0B121FFA7404
:104E53000612095A8A0C8B0DAE0CAF0DEE4F700380
:104E630002502B8E828F83A3A3A3A3A3A3A3A3E5A3
:104E7300081250A585080C8E828F83A3A3A3A3A336
:104E8300A3A3A3E024FFF8E434FFF9E8650C700161
:104E9300E97003750901EE240B12504E7003024FA3
:104EA300DE850A82850B83A3E0A2E0500375080028
:104EB300125077E50C98E499C365D033401EE0F8AF
:104EC300EE240E12620728F0750CFF750D00E878CA
:104ED3000C120A84EE12502EEF1250441259FAE5C6
:104EE3000B123AC212090E123CA385080CEE240DD4
:104EF300126207850CF0A4F8A9F0EE2410126207E1
:104F0300242212392328FAA3E039FB123C86120922
:104F13005A750C01125062780C120A84126204450D
:104F23000CF0E509A2E05065EE240C125033125048
:104F33006204780C120A848A828B83E0450C125037
:104F43009D85080C850CF0A4F8124DB212620AFC80
:104F5300E82CFCE5F03400FDEE24101228A21250D8
:104F6300701252A0F47026EE240BF50CEF3400F50A
:104F73000DEE24101228A212520B850C82850D838C
:104F83001243BA850C82850D8374FF804D1240460F
:104F930090034BE0FA900B9DE0F50CEA850CF0A42E
:104FA300FAABF0F8EBF9900B9AE0F50CE8850CF00E
:104FB300A4F8ACF0850CF0E9A42CF9EA28F8EB3955
:104FC300F9E875F064A4F8AAF075F064E9A42AF985
:104FD3008E828F83A3A3E8F0A3E9F01250771259CE
:104FE300C8E8650C7001E9600EEE240C12504E60A7
:104FF30006E509A2E05031EE240E126207C0E0126A
:105003005056D0E0F0126204C0E0E50A2414F582A1
:10501300E50B1228A5D0E0F0AC0AAD0B8510828514
:10502300118312520B120BE4025A40240CF5822214
:105033001261A1FAE9FB750CFF22125148121F5E9F
:1050430022124288E50CF022EE2429F582EF124B5E
:1050530005F422E50A2413F582E50B124288227532
:105063000D0012508DF5F0E50884E5F022E02420D0
:105073001236512285080CEE240E124B02F8125000
:105083008DFAE82AF8E43400F922EE240FF582EFD2
:10509300125097223400F583E022F0EE240D124BD8
:1050A3000222F07A017B00900B31E0F912162822DC
:1050B300C082C083900B311243BA0235B574F41227
:1050C300044B8A088B09EB5480703BEAA2E05047FB
:1050D30012201EE5086401FAAB09803F8E828F839C
:1050E300E06401701A12423712077A12264B120932
:1050F30012EE2412125131121FF4740612095AEEE1
:10510300FAEFFB1215F8900B3112512170CEAA0859
:10511300E5096480FB80047A007B00022724E0F920
:105123001216048A0A8B0BAE0AAF0BEE4F22F582DE
:10513300EF125148EE2402FCEF3400FDEE2418FA7E
:10514300EF3400FB22125097F92274F112044B89B9
:105153000A8A088B098A828B8312520B120BB48B37
:105163000DEA450D600479B8807F120BC090254885
:10517300E493F8E9C398400479B2806D7A1512512B
:10518300EF7004791080628E828F83E4F0A312584B
:1051930059A3E50AF085080C85090D750E00780CF6
:1051A30012090E7C127D00EE24030A0A0A12422918
:1051B30012095A90032A12407790032A7006EEF0E0
:1051C300A3EF801FE0FAA3E08003E8FAE9FB8A82F9
:1051D3008B8312407770F3EEF8EFF98A828B83E8C2
:1051E300F0A3E9F0120BD27900025C9D7B0012164A
:1051F300948A0C8B0DAE0CAF0DEE4F228E828F83F3
:10520300A3A3A3A3A3A3A3A312424D22C082C0833B
:1052130090032A80048C828D8312525160298C82E0
:105223008D83A3A3E069600574FF6970E88C828DA8
:1052330083A3A3A3E06A7003A3E06B70D8EC2403F9
:10524300FAED3400FB80047A007B000235B512408E
:1052530026EC4D2274F712044BE9FC74FE6C7004C7
:105263007D0180027D0090032A80096C70027D011C
:1052730088828983124077601F88828983A3A3A3CE
:10528300E06A7003A3E06B70E7EDA2E08882898394
:10529300A3A3E050D6F9800279FE023AB0ECF0A362
:1052A300EDF08A828B83E022C082C0837900900371
:1052B3002A80010912520B8A828B83E5824583700F
:1052C300F20235B574F612044BE4F508F5097808D3
:1052D300120912902548E49375F013A42402FCE507
:1052E300F0125400121718740212095AE9FE6003EF
:1052F300120BCCEEF90235F974F612044B74FE125C
:1053030009BB851882851983E4F0A3125866858248
:10531300088583097808120912750802750900784F
:1053230008120912125AFC12095A0235F474F512C2
:10533300044B74EB1209BB851882851983E4F0A32F
:10534300F090032AE0FEA3E0807D8E828F83A3A3E7
:10535300E0C0E07402120BA1D0E0125408A982AAA3
:105363008389088A09750A00780812090E7C127D60
:10537300007406120BA1123C8212095A7402120B1A
:10538300A1858208858309780812091275081375A7
:10539300090078081209127404120BA1123900755E
:1053A300F013A4F8AAF075F013E91253F8125B0492
:1053B30012095A851882851983E02401F0A3E03489
:1053C300001243C0E8FEE9FFEE4F600302534D8530
:1053D3001882851983858208858309780812091242
:1053E3007508027509007808120912125AFC12098D
:1053F3005A74158027A42AF9E82402FCE93400FD35
:105403007A427B002212540C22125410221254149A
:1054130022F08E828F83A3A3A322740D12095A7FD5
:10542300030206BF74F412044B74EB1209BB7E0033
:105433007F0085188285198385820885830978080A
:105443001209127508028E0978081209127C007D70
:10545300007A42125BDC12095AE970748E08805E8E
:105463007402120BA185820A85830B780A12091232
:10547300750A13750B00780A120912E50875F01303
:10548300A4F8AAF075F013E5091253F8125BDE12C3
:10549300095AE9701E7403120BA1AA82AB8374022A
:1054A300120BA1E0F91215E0E97008EE24010EEFEA
:1054B3003400FFE5082401F508E509125A19851897
:1054C30082851983124D75C3E50898E509994090C3
:1054D300EEFAEFFB741502272174F612044B8C824B
:1054E3008D83A3A31256DAF0EA2417F582EB126236
:1054F3000AC0E0EC125A32ED1228A5D0E0F0EA24FB
:105503001DF582EB1228A5124D75EC125F9AED1270
:1055130028A51256DAA3F0A3F0125F99EB1228A57F
:105523001256CCA3A3A3A3A3A3EEF0A3EF124AF5B1
:10553300FE8C828D831256F974035EFEC39403407E
:105543000FEC240D123A98EC2410123A980256B438
:10555300EE600574026E70748C828D83E0540CFED1
:10556300740C6E7003025651E0A2E4400D888289E8
:1055730083E08C828D83A312572374086E60030229
:105583005651EC12502EED1236EDF08A828B83A326
:10559300A3A312582470148C828D83E0440C1256FA
:1055A300E8A3A31256CCEEF0A3EFF08C828D83E038
:1055B300A2E440181256B71257061256C0A3A312FC
:1055C30057068C828D83A3A3A31256F988828983FD
:1055D300E0C0E0EC1259F5ED1228A5D0E01256F91F
:1055E3008C828D83E0A2E7507C88828983E0FE8CE5
:1055F300828D8312572374FC5E60030255448C82B0
:105603008D83A3E05403640370030255448C828D9D
:1056130083A3E05403605188828983E0C0E0EC24D3
:1056230013F582ED1228A5D0E01257248C828D83C6
:10563300E054036402703188828983E0C0E0EC2483
:1056430014F582ED1228A5D0E0125724801AEC2419
:105653000C123A98740C6E600302558E1256B712F0
:1056630057110255AEA3E4F0EC1259FCED123C9530
:10567300EC2410FEED3400FFEA241DF582EB1262E8
:105683000AF5088E828F83E0C3982508F508F0EAAF
:105693002417F8EB12367DC39508C0E0EC125F9A2D
:1056A300ED1228A5D0E0124AF5C395085003025520
:1056B300440235F988828983E01256C022F508A393
:1056C300E0FFE5088C828D8322E0FEA3E0FF8C825D
:1056D3008D83A3A3A3A322E41256DF22F08C828D31
:1056E30083A3A3A3221256F0A3A3A3A322F08A8227
:1056F3008B83A3A3A322125701A882A98322123C5E
:1057030008A322A3A312571188828983E022A3A3AB
:10571300A3A3F0A3EFF0E824020808E93400F92278
:10572300A312570108A9832274F512044B74F312D0
:1057330009BB8A088B09ECFEEDFF8E828F83E05450
:105743000CF50AE0A2E75006E50AD2E7F50AE50AF6
:10575300D2E1F50A1258267006E50AD2E4F50AE00A
:10576300A2E55006E50AD2E5F50A7C087D0079003A
:10577300851882851983AA82AB831215DA74021203
:105783000BA1E50A125859E0C0E07403120BA1D033
:10579300E01258661234167405120BA1123ACE1297
:1057A3000BA1E070797408120BA1E0241212364D9C
:1057B30012402CC0E07408120BA1125841D0E01221
:1057C3005879C0E07408120BA112340DD0E0F074C4
:1057D30008120BA112453D125848123AF612582CE2
:1057E30012404DEE2411126207C0E0E8242EF58228
:1057F300E91228A5D0E0F0EE2414126207C0E07489
:1058030008120BA1E0243112364DD0E012585EC0CD
:10581300E07408120BA112583AD0E01258720254E5
:105823001DA3A3E05403640122FAA3E0FBE82428A8
:10583300F582E912428822E0243012365122E02414
:10584300221236512212424DE82426F582E91242F1
:1058530088EAF0A3EB221243D2A322F0EE24131220
:105863004B022212586A22F085188285198322126C
:105873003C5E121F9A2212540CE02274F712044B5E
:105883007E008A828B83A3A3A3A3A3A3A3A3A3E0E2
:105893006402607B123AB512620A70731240A91255
:1058A30028A5124077606888828983E05403705F7B
:1058B300A3A3A3A3A3125915E06A7003A3E06B701B
:1058C3004E88828983125915A3A3E0FFA3E0F583D1
:1058D3008F82A3A3A3A3A3A3E06A7003A3E06B70C7
:1058E3002E88828983A3A3E0F88C828D83A3A3E00F
:1058F300F9A3E0F5838982A3A3E06860118C828D0C
:1059030083A3A3E0F8123D4D540C640470010E020E
:105913003452A3A3A3A312424D8C828D832274F627
:1059230012044B74FC1209BBEAFEEBFFECFAEDFB2D
:105933008A828B83A3E05403601690031612407788
:10594300605C7900EEFCEFFD1236951220BF804EAD
:10595300851882851983EEF0A3EFF07402120BA170
:10596300EAF0A3EB125866AC82AD837AEA7B0B12A2
:105973000EB48A088B09A808A909E849602088821F
:105983008983A3A3A3A3A3A3A3A3A37406F07A0069
:1059930088828983E0240C1259A6F9120E0C740430
:1059A3000235F61259AA22123FD422C082C0839034
:1059B30003307420F0A3740CF09003327414F0A33A
:1059C300740C0235B4E824FF18E934FFF9228E82FF
:1059D3008F83A3A3A3A3A3A3A3A3A3E0FEA3E0FF97
:1059E30022E5082412F58222E5081259F5E5092279
:1059F300E50A2411F58222E50A240EF58222240EFB
:105A0300F582E50922E08E828F83228E828F83F0D6
:105A1300A3AE82AF83223400F50922E8F0A3E91292
:105A2300586A74FFF022E508125A32E50922EA2483
:105A330010F582221261C0780C2212095A7F1002DB
:105A430006BF12178A8E828F83EA227B0012169476
:105A53008A0A8B0BEA450B2274F412044B8A088BD7
:105A6300097808120912750A11750B00780A1209D0
:105A730012125BD612095AE9700F90032C120B7E97
:105A83001259EB1228A5120B8A02272474F512046B
:105A93004B74EF1209BBE9851882851983F08A08D4
:105AA3008B09750A00780812090E7C107D007404B6
:105AB300120BA1123C8212095A851882851983851B
:105AC300820885830978081209127508117509007F
:105AD30078081209127C007D007A3B125B021209DE
:105AE3005A7C117D007900851882851983AA82ABBF
:105AF300831215DA741102541F7C007D007A427BF5
:105B03000012172474042274F212044BE9FE7A1172
:105B13007B001216948A088B09EA45097003025B1D
:105B2300D37808120912750A11750B00780A120945
