:020000040000FA
:06000000020BC90201E63B
:03002B0002099730
:030033000203F7CE
:0300530002011D8A
:03005B000202108E
:0300630002027026
:03006B0002038D00
:03007B000203C5B8
:100083000201700101FF01010503010F10FEFF973B
:10009300159715971597154D1447149715022700B3
:1000A3000000006427000000000C0000000C0001A9
:1000B3000100000055180000000000000F190000A7
:1000C3000000000037180000FFFF0101006B0B0068
:1000D3000000401FE00B401F6400E803B801020268
:1000E30000C8180305023C01010D1E020564020A43
:1000F3000A03B80B02803E01020101FFFF010A144B
:1001030001E0965118000202060103030507090BDB
:100113000D0F02020406080A0C0DC0E074F212056A
:1001230079A2AFE433F508D2AFE5A7FEE5A1FFEF6F
:100133005E5410600612207775A1EFEF5E540860DD
:100143000812207D75A1F78019EEA2E0C0D0EFA2BE
:10015300E092F0120B06158182F0500612213175E0
:10016300A1FEE508A2E092AF7F010205D8C0E074CA
:10017300F2120579A2AFE433FFD2AF9061A4E0FE9F
:10018300759B00E5915E540860087591F71220D1C4
:10019300802DE5915E541060087591EF1220D78091
:1001A3001EEEA2E0C0D0E591A2E092F0120B06157C
:1001B3008182F0500A9061A4E0C2E0F01222219003
:1001C30061A3E0FEE5E95E5404600E1221F775E9D0
:1001D300FB906193E0A2E640F2EFA2E092AF7F01D1
:1001E3000205D8C0E074F2120579A2AFE433FFD25E
:1001F300AF9061A5E0FEE5BF5E5404600675BFFBEA
:10020300122239EFA2E092AF7F010205D8C0E07459
:10021300F2120579E5EAC0E0900A9CE024A6F8A36F
:10022300E03408F988828983D0E0F0900A9AE0F8F4
:10023300A3E0F99008A4E8F0A3E9F0900A9A740007
:10024300F0A37400F0900A9CE02401F0A3E03400D2
:10025300F0900A9CE0F8A3E0F97AF47B01120334EE
:10026300900A9CEAF0A3EBF07F010205D8C0E0C03E
:10027300D0E8C0E0E9C0E0C082C083900AA4E06097
:100283000E900A9AE02401F0A3E03400F08052902B
:100293000A9AE064027004A3E064007013900A9C5D
:1002A300E024A6F8A3E03408F988828983E0F5ED19
:1002B300900A9AE064017004A3E06400700375ED92
:1002C3004F900A9AE0F8A3E0F9E8497008900AA26F
:1002D3007401F0800C900A9AE024FFF0A3E034FF4D
:1002E300F0D083D082D0E0F9D0E0F8D0D0D0E032A3
:1002F300C3E498F8E499F91203348026C3E49AFA24
:10030300E49BFBE920E7E9120334E498F8E499F964
:1003130022C3E498F8E499F9120334E498F8E499D1
:10032300F9C3E49AFAE49BFB22EB20E7CFE920E749
:10033300E0B90010BB0008E88AF084F8AAF022E4D0
:10034300FBC8FA22EB70227B10C833C8C933C93308
:100353005007C39AC3DBF280069A50012ADBEAC82E
:1003630033F4C8C933F4C9FA2275F008E4C833C8B2
:10037300C933C933C99AC99B5004C92AC93BD5F0AB
:10038300ECFBC833F4C8E4C9FA22C0E074F21205E6
:10039300797E00A2AFE433FFD2AFE589A2E4501621
:1003A300E5AB5410FE74106E700C12180D758900B5
:1003B300900AF27420F0C2C5EFA2E092AF7F01026F
:1003C30005D8C0E074F21205797E00A2AFE433FFD2
:1003D300D2AFE58AA2E2500E12180D538AFB900A9F
:1003E300F27480F08002E58AC2EBEFA2E092AF7F65
:1003F300010205D8C0E074F2120579A2AFE433FE1E
:10040300D2AFE58BA2E0500312180D758B00C2E842
:10041300EEA2E092AF7F010205D8080808EAC0E027
:10042300EBC0E086F0E7A4FA180986F0E7A42AFAFD
:10043300180986F0E7A42AFA180986F0E7A42AFA2D
:100443001986F0E7A4FBE5F02AFA190886F0E7A479
:100453002BFBE5F03AFA190886F0E7A42BFBE5F04D
:100463003AFA18180986F0E7A4C5F02BFBE43AFA28
:100473001908E7C5F0C6A426F6E5F03BFBE43AFA13
:100483001886F0E7A4F6E5F00826F6E43B08F6E460
:100493003A08F6D0E0FBD0E0FA22E4CFC0E0E4CEA5
:1004A300C0E0E4CDC0E0E4CCC0E075F020C3E633A7
:1004B300F608E633F608E633F608E633F6181818B6
:1004C300EC33FCED33FDEE33FEEF33FFC3EC970962
:1004D300ED9709EE9709EF97191919400FFFEC975C
:1004E300FC09ED97FD09EE97FE191906D5F0BEEC50
:1004F300F709EDF709EEF709EFF7191919D0E0FC41
:10050300D0E0FDD0E0FED0E0FF222518C582C0E098
:10051300E51934FFC583C0E0E518C3958224F810BC
:10052300AF08858319858218800885831985821809
:10053300D2AFCEF0A3E520F0A37808E608F0A3DE5F
:10054300FAEFF0A3E58124FAF8E608F0A3E608F051
:10055300A3E608F0A30808E608F0A3E608F0A3154D
:10056300811581D0E0FED0E0F8158115811581E871
:10057300C0E0EEC0E022C0D02518C582C0E0E51976
:1005830034FFC583C0E0E518C3958224F310AF0898
:100593008583198582188008858319858218D2AFCF
:1005A300C8F0A3E9F0A3EAF0A3EBF0A37908E70905
:1005B300F0A3D8FAECF0A3EDF0A3EEF0A3EFF0A3D1
:1005C300D0E0F0A3D0E0F0A3D0E0F0A3E520F0A3C7
:1005D300E5F0F0A322851983851882E0C0E0A3E04B
:1005E300F9A3E0FAA3E0FBA37808E0F608A3DFFA97
:1005F300E0FCA3E0FDA3E0FEA3E0FFA3E0C0E0A3D3
:10060300E0C0E0A3E0F5D0A3E0F520A3E0A3F5F07C
:1006130010AF088583198582188008858319858220
:1006230018D2AFD082D083D0E0F8D0E032120C2BB6
:10063300B90003020672E49003017809791080027D
:10064300F0A3D8FCD9FA901209AA82AB8390008652
:10065300789879018015E493A3AC82AD838A828B69
:1006630083F0A3AA82AB838C828D83D8E9D9E77503
:1006730082957583C8740512097975826F75832510
:10068300740012097975F0108E1A8F1B85821F85ED
:10069300831E851882851983E0CEA3E0CF851F8250
:1006A300851E83EBC9EAC8EDCBECCAC3E833C8E9BE
:1006B30033C9EA33CAEB33CBC3EA9EF51DEB9FF58F
:1006C3001CB35004AB1CAA1DEC33CCED33CDD5F0D9
:1006D300DAAE1AAF1B22D083D082ECC0E0EDC0E0CB
:1006E300E493A3FCE493A3FDED4C600D1207B1EC7E
:1006F30024FFFCED34FFFD80EFE493A3FCE493A31C
:10070300FDED4C600D120884EC24FFFCED34FFFD7D
:1007130080EFD0E0FDD0E0FCE493A3C0E0E493C01D
:10072300E022D083D082E9C0E0E493A3C386F0C57E
:10073300F095F0F908E493A386F0C5F095F0700BFB
:10074300E493A3C3994005E9048002A3E475F0028E
:10075300A42582F582E5F03583F583D0E0F9E493AF
:10076300A3C0E0E493C0E022851983851882E0A347
:10077300FEE0A3F5207808E0A3F608DFFAE0A3FF84
:10078300E0A3C0E0E0A3C0E0E0A3C0E0E0A3C0E0DA
:10079300E0A3C0E010AF088582188583198008851F
:1007A3008218858319D2AFD083D08202097FC0E03B
:1007B300C3E49396087401939618400FE49366700C
:1007C3000808740193661870007019A3A3C3E49317
:1007D30096087401939618A3A3400DD0E0D0E0D0FF
:1007E300E0020715A3A3A3A3A3A3D0E022D083D041
:1007F30082C5F0E493A3C5F0C395F0F5F0E493A3A9
:10080300C395F04005E5F0048001E475F002A425EA
:1008130082F582E5F03583F583E493A3C0E0E493A6
:10082300C0E0227404800474028000CCC0E0EDC0F8
:10083300E0E518C39CCCAD1950011D10AF068C1810
:100843008D1980068C188D19D2AF1208FBD0E0FDEC
:10085300D0E0FC2274028000CCC0E0EDC0E0E518DB
:10086300C39CCCAD1950011D10AF068C188D198097
:10087300068C188D19D2AF1208D9D0E0FDD0E0FC58
:1008830022C0E0C0F088F0E4936670080874019316
:1008930066187000A8F0A3A3700BD0F0D0E0D0E0EE
:1008A300D0E0020715A3A3D0F0D0E022D083D082FA
:1008B300CCC0E0E493A3600612093B1470FAE493FE
:1008C300A36006120A641470FAD0E0FCE493A3C098
:1008D300E0E493C0E022CAC0E0E493A3C582CCC5A0
:1008E30082C583CDC583F0A3C582CCC582C583CD24
:1008F300C583DAE5D0E0CA22CAC0E0E0A3C582CC52
:10090300C582C583CDC583F0A3C582CCC582C5830B
:10091300CDC583DAE6D0E0CA227009080808226050
:1009230016181818C6C333C608C633C608C633C656
:1009330008C633C6D5E0EA22C0E0E493A3D39C50B3
:1009430010E493A3C39C400AD0E0D0E0D0E00208B7
:10095300CCA3A3A3D0E022C008C3E096F50808A364
:10096300E096420808A3E096420808A3E0964508EB
:100973007001D3D00822C09FF59FE473D09F22D08B
:1009830083D082C09FE493C0E0740193C0E07402FB
:1009930093F59F22C0E0C0D0E8C0E0A2AFE433F8F3
:1009A300D2AFC2C7A2E092AFD0E0F8D0D0D0E0324D
:1009B3002518F58210AF08F518400215198008F5BF
:1009C3001840021519D2AF851983227404800A7462
:1009D300038006740280027401C0E0F4041209B3B8
:1009E300D0E0120C0622C0D0251810AF08F518501D
:1009F3000205198008F51850020519D2AFD0D0228C
:100A0300BB0102E722C082C08389828A83BB0003C1
:100A1300E08002E493D083D082226016080808C6DF
:100A2300C313C618C613C618C613C618C613C6D52D
:100A3300E0EA22C3E0C696F608A3E0C696F608A34A
:100A4300E0C696F608A3E0C696F622251810AF086E
:100A5300F518400215198008F51840021519D2AF90
:100A630022C0E0E493A36C7009D0E0D0E0D0E002B0
:100A730008CCA3A3D0E022C3E09608A3E09608A382
:100A8300E09608A3E096A2D265D03322E066701008
:100A930008A3E066700A08A3E066700408A3E06692
:100AA30022E76670100809E766700A0809E76670AE
:100AB300040809E76622C3E096F008A3E096F0086D
:100AC300A3E096F008A3E096F022E026F008A3E066
:100AD30036F008A3E036F008A3E036F022E627F666
:100AE3000809E637F60809E637F60809E637F62275
:100AF300E026F608A3E036F608A3E036F608A3E0FE
:100B030036F622C0E0E8C0E0E58124FCF8E6A2E77F
:100B1300D0E0F8D0E022E647F60809E647F60809F0
:100B2300E647F60809E647F622E657F60809E657C8
:100B3300F60809E657F60809E657F622E056F608DE
:100B4300A3E056F608A3E056F608A3E056F622E023
:100B530056F008A3E056F008A3E056F008A3E056C9
:100B6300F022700422600D18C6C333C608C633C60C
:100B7300D5E0F41822E4C396F608E496F608E49662
:100B8300F608E496F622600D08C6A2E713C618C657
:100B930013C6D5E0F322C6F4C608C6F4C608C6F4E5
:100BA300C608C6F4C622C3E7960809E7960809E70C
:100BB300960809E79622C3E09608A3E09608A3E007
:100BC3009608A3E0962275D00075814075180175CB
:100BD300190300020630E0F608A3E0F608A3E0F6E6
:100BE30008A3E0F622600C08C6C313C618C613C6D2
:100BF300D5E0F422E6F008A3E6F008A3E6F008A3A4
:100C0300E6F022CAC0E0E6F0A308DAFAD0E0FA225E
:100C1300E0FAA3E0FBA3E0FCA3E0FD22EAF0A3EBF0
:100C2300F0A3ECF0A3EDF022E5C754F84401F5C7B7
:100C33007901222518F582E43519F58322C2AF75AF
:100C4300D69F02000022120982F1AC02120982FE31
:100C5300AC021209828CAD021209823EAE02120965
:100C63008286AE02120982E6AE0212098202AF0246
:100C730012098236AF021209826BAF021209825443
:100C8300B00212098209B1021209825EB30212098B
:100C930082ABB4021209824EB502120982DBB5029D
:100CA3001209827AB602120982AEB60212098229A9
:100CB300B70212098203B802120982C1B8021209EB
:100CC30082D9B80212098270B902120982E1BB0209
:100CD300120982F6BD0212098214BE02120982A011
:100CE3002A00120982D52A00120982FB2A0012095E
:100CF30082352B00120982472B00120982992B009F
:100D0300120982FA2B00120982842C00120982280C
:100D13002D00120982702D00120982AA2D001209DA
:100D230082C72D00120982EC2D001209823E2E008B
:100D3300120982572E001209827D2E00120982B8F1
:100D43002E00120982FC2E00120982232F001209A1
:100D530082742F00120982243000120982DC3000D1
:100D6300120982A43100120982643200120982A896
:100D73003200120982CD32001209821033001209A7
:100D8300825D3300120982B534001209823B3500BB
:100D93001209825935001209828335001209829D96
:100DA3003500120982AC3500120982B735001209E9
:100DB30082773600120982D03600120982923700F8
:100DC3001209829A370012098212380012098261CD
:100DD3003800120982A73800120982E83800120984
:100DE30082783A00120982303B001209829C3B0050
:100DF300120982C73C00120982D83C001209824EB4
:100E03003D00120982E03D00120982383E001209BA
:100E130082F83E001209821F3F001209823D3F0003
:100E23001209824F3F00120982A23F00120982DF9A
:100E33003F00120982EC3F001209826F4100120940
:100E430082C44200120982DD420012098219440061
:100E5300120982B44400120982ED44001209823956
:100E630045001209825546001209829E4800120964
:100E730082A94800120982B44800120982BE4800C0
:100E8300120982C94800120982E34800120982ED5F
:100E93004800120982F74800120982024900120928
:100EA300822A4900120982854900120982A9490050
:100EB300120982CD49001209822B4A001209826F5E
:100EC3004A001209828B4A00120982024B0012095E
:100ED300823A4B00120982864B00120982E34B00CF
:100EE3001209829D4C00120982814E00120982DA96
:100EF3004E001209820A5000120982305000120972
:100F030082B9510012098235550012098207570030
:100F1300120982D058001209827D5900120982E811
:100F23005A00120982875B00120982D45B001209FE
:100F3300823E5C001209824D5C00120982D45E007D
:100F4300120982866000120982F36000120982D2BC
:100F53006100120982EB62001209826864001209BF
:100F630082876400120982DC6400120982E1650051
:100F73001209820966001209826166001209824021
:100F83006700120982846700120982CF6700120981
:100F9300823A68001209827B6900120982DF6900C4
:100FA3001209822D6B001209828D6D00120982BE17
:100FB3006D00120982766F00120982CB6F0012094D
:100FC30082CF70001209826C7100120982C5710010
:100FD3001209827872001209821A7300120982BA06
:100FE30073001209825F7400120982BE8001120924
:100FF30082FD80011209824483011209828E8301DA
:10100300120982A984011209821985011209824EEB
:101013008501120982C286011209824589011209DA
:10102300826E8A01120982048B011209820C9401D7
:10103300120982A194011209828897011209827B05
:101043009801120982DC9801120982F899011209A8
:1010530082DD9B01120982EE9D01120982589E01D5
:101063001209822A9F01120982E19F01120982EB70
:101073009F0112098219A001120982D6A001120947
:1010830082ADA10112098274A20112098226A30171
:101093001209824FA30112098271A301120982C7A7
:1010A300A5011209829FA601120982E3A601120972
:1010B300824BA70112098203A80112098235A801F4
:1010C30012098279A801120982AFA801120982FBD1
:1010D300A80112098250A90112098255A901120916
:1010E30082A8A901120982CDA901120982DCAA01F1
:1010F30012098240AB01120982B0AB011209823C92
:10110300AC0112098209AF01120982EDAF01120984
:101113008270B101120982A6B30112098254B4018B
:1011230012098204B50112098245B701120982E846
:10113300B7011209822FB801120982DBB901120922
:1011430082EFB901120982F9B90112098221BA01A8
:101153001209822DBA011209824CBA011209823195
:10116300BC0112098268BC0112098272BC01120916
:10117300827CBC01120982D7BC0112098221BD0104
:1011830012098229BE0112098280BE01120982CF8F
:10119300BF0112098213C001120982BBC0011209E7
:1011A300829EC10112098249C20112098295C301BB
:1011B30012098293C40112098239C501120982C935
:1011C300C501120982E0C50112098217C60112097D
:1011D3008221C6011209822CC6011209824AC60164
:1011E3001209828EC601120982EBC601120982100E
:1011F300C7011209822AC701120982B6C70112095F
:1012030082D3C80112098240C90112098227CA0187
:101213001209824ECA01120982C2CA011209823D11
:10122300CB0112098241CC0112098237CD01120987
:1012330082E6CD01120982F9CE0112098295CF010E
:1012430012098222D00112098200D10112098238C7
:10125300D10112098290D10112098259D2011209D6
:10126300827AD20112098201D30112098225D301A4
:1012730012098247D30112098290D301120982A66F
:10128300D5011209828DD6011209823ED7011209B6
:101293008274D901120982C4D90112098204DA01C4
:1012A30012098246DA01120982A2DA01120982D0F6
:1012B300DA01120982F4DA0112098247DB01120909
:1012C3008275DB01120982AEDB0112098203DC01A4
:1012D30012098269DC01120982BDDD01120982E073
:1012E300DF011209824DE00112098276E001120941
:1012F3008201E10112098268E101120982B3E1016D
:10130300120982D7E101120982FBE1011209825617
:10131300E20112098271E2011209822AE301120930
:101323008264E3011209823EDE0412098276DE043E
:1013330012098297DE04120982D9DE041209823F60
:10134300DF0412098249DF0412098259DF041209FA
:10135300828EDF04120982D7E20412098281E40437
:1013630012098281E604120982B3BE02120982F9CC
:10137300BE02120982D9BF02120982DBC00212091E
:1013830082DEC1021209826AC302120982C8C30241
:1013930012098285C402120982A3C50212098214AA
:1013A300C60212098250C6021209829EC60212099F
:1013B30082A8C602120982ECC60212098248C70239
:1013C300120982E3C70212098260C8021209822F3E
:1013D300C902120982C8C902120982E8C9021209A4
:1013E300821ECA021209824FCA0212098210CB025C
:1013F30012098220CB0212098274CB021209828F56
:10140300CB02120982A1CB02120982AACB021209D2
:101413008204CC0212098260CC02120982ACCC0293
:10142300120982C7CC02120982F8CC021209821572
:10143300CD0212098221CD0212098295CE02120930
:1014430082AECE0212098215CF0212098228CF0280
:1014530012098236CF02120982EACF02120982CE22
:10146300D002120982D4D1021209825ED202120979
:101473008268D202120982D5D202120982ECD20208
:101483001209821ED30212098257D30212098281E2
:10149300D302120982E2D30212098202D402120990
:1014A3008220D40212098266D4021209828CD502E8
:1014B300120982D9D50212098208D6021209827E44
:1014C300D602120982A6D602120982DFD6021209B7
:1014D30082EDD60212098245D70212098294D702FD
:1014E300120982D3D70212098203D8021209822F6A
:1014F300D8021209823AD80212098258D802120974
:10150300821AD90212098224D9021209825FD902EE
:1015130012098275D902120982CAD902120982DE1E
:10152300D902120982ECDA02120982FFDA021209E5
:101533008214DB02120982B6DB0212098239DC0251
:10154300120982F7DC0212098202DD021209822EDD
:10155300DE021209824ADE021209829CDE021209AD
:1015630082DBDE02120982F0DE0212098252DF02FE
:10157300120982E1DF021209822CE0021209827D44
:10158300E202120982FBE20212098270E3021209EB
:101593008292E502120982AAE502120982ADE502EE
:1015A300120982B9E502120982CDE502120982D538
:1015B300E50212098208E602120982B8E60212095C
:1015C300822EE702120982A1E70212098255E8027C
:1015D3001209820AE90212098229E902120982C95F
:1015E300E902120982D5E90212098200EA0212090C
:1015F3008203EA021209826DEA0212098295EB0262
:101603001209826DEC02120982F8EC0212098211AE
:10161300EE02120982CEEE0212098207EF021209CC
:101623008238EF02120982F6EF0212098226F002D3
:1016330012098201F1021209829AF102120982252A
:10164300F202120982D6F20212098259F302120936
:10165300828BF302120982CCF302120982F6D004C0
:1016630012098278D104120982B8D1041209823195
:10167300D2041209820BD5041209829BD7041209E2
:101683008267DB041209829FDB04120982CDDB042B
:101693001209825FDC04120982B3DC04120982E6B8
:1016A300DC041209820FDD0412098259DD041209D8
:1016B30082DADD041209828FB00412098219B1049F
:1016C3001209828EB10412098210B204120982EE49
:1016D300B40412098211B5041209826AB50412090D
:1016E3008268B604120982D2B604120982A5B8042C
:1016F3001209820DBA0412098294BA0412098222D1
:10170300BB041209828BBB04120982D9BB041209E0
:101713008299BC04120982C2BD041209823FBE042D
:10172300120982A5BE04120982E8BE041209828E40
:10173300BF041209826FC0041209820080051209D6
:10174300821B80051209823880051209826784058D
:10175300120982058705120982208705120982442E
:1017630087051209828F870512098297B505120929
:1017730082B1B5051209825CB605120982DFB6058E
:1017830012098235B705120982A1B7051209828EA3
:10179300B805120982B7B80512098214B9051209EE
:1017A300822CB90512098234B9051209824CB90594
:1017B3001209821EF0041209827EF004120982FAD1
:1017C300F1041209824DF204120982B6F5041209DA
:1017D3008214F6041209828BF6041209822CF70490
:1017E30012098288F704120982EEF7041209823E75
:1017F300F804120982BBD405120982EED40512093A
:101803008250D50512098255D50512098218D605CD
:101813001209828DCF051209829ECF051209821EFD
:10182300D005120982F19F0212098252D1051209D1
:101833008233D90512098218D3051209824ED305C2
:1018430012098276D4051209827CCD051209825BC6
:10185300CF0512098212C104120982FAC1041209C6
:101863008221C20412098265C20412098283C2045E
:1018730012098201C30412098239C3041209827155
:10188300C504120982EBA90212098281C704120955
:101893008213C80412098298C80412098250C90429
:1018A300120982ECC9041209823BCA041209820C90
:1018B300CB0412098207CC04120982ADCC041209AD
:1018C30082D8CE041209820BD0041209826CD00490
:1018D300120982C6D00412098218CB051209823B71
:1018E300CB0512098235CC05120982DECC0512091B
:1018F3008222CD05120982F3DD0512098267DE0516
:1019030012098277DE05120982DA9904120982DD4F
:1019130099041209822C9B04120982A09B041209C8
:10192300822E9C04120982EB9C04120982A89D0456
:10193300120982759E04120982329F04120982538E
:10194300A10412098210A204120982CDA204120971
:101953008261A3041209826CA404120982DFA40425
:1019630012098221A70412098288A804120982EFAE
:10197300A9041209824AAA04120982E1AA041209DB
:1019830082C4AB04120982F6AB04120982F2AE04DC
:1019930012098293AF0412098211B004120982ABB7
:1019A3007400120982037500120982AB75001209D3
:1019B30082DA7500120982FF75001209822377000B
:1019C300120982317700120982957700120982D3B6
:1019D3007700120982567800120982FD78001209F5
:1019E300824C7900120982CD79001209823B7A0078
:1019F300120982727A00120982FB7A001209828C20
:101A03007B00120982E17B001209823E7C001209ED
:101A130082507C00120982627C00120982887C0059
:101A2300120982917C00120982EB7D001209827CEB
:101A33007E00120982DA8705120982FD88051209E0
:101A430082598905120982738905120982848905DD
:101A53001209827F8C051209829F8C05120982F577
:101A6300C5051209823AC60512098285C6051209FF
:101A73008216C805120982EFCA03120982B9CC0380
:101A83001209820ECD031209828FCF03120982F449
:101A9300CF0312098200D30312098266D30312090A
:101AA30082A6D5031209829FD6031209820CD7039B
:101AB3001209829FD7031209824ED803120982A901
:101AC300D8031209820AD9031209826BD9031209B6
:101AD3008254DB0312098246DD0312098232E003DA
:101AE30012098274E003120982D7E003120982E922
:101AF300E0031209825EE1031209821AE20312096A
:101B03008257E60312098222E7031209829DDF0549
:101B1300120982B8DF0512098257FF03120982579F
:101B2300A4051209826EA4051209825EA505120995
:101B330082A6A505120982C4A50512098206A60577
:101B43001209825DA605120982A1A605120982F176
:101B5300A605120982C9A80512098261DB051209CB
:101B63008289DB05120982A8DB05120982C8DB051D
:101B730012098222DC0512098247DC05120982AEB2
:101B8300E3011209820EE40112098285E4011209BC
:101B93008228E601120982E3E601120982AFE70116
:101BA300120982C8E7011209822AE801120982A5F3
:101BB300E80112098203E9011209821BE9011209F2
:101BC300827BE90112098205EA011209821EEA01F8
:101BD300120982E6EC011209828AED01120982C917
:101BE300ED011209823BEE011209829BF0011209F9
:101BF3008218F101120982B2F101120982D1F101B5
:101C0300120982E9F1011209823FF2011209828469
:101C1300F2011209829BF2011209823BF3011209BC
:101C2300825BF301120982BBF3011209822CF401D6
:101C33001209828EF401120982D2F701120982FF7E
:101C4300F70112098292F8011209822FF901120990
:101C5300826BF901120982CEF90112098250FA014D
:101C63001209825DFB011209828EFB011209829C1B
:101C7300FB01120982BFFB0112098255FC01120903
:101C83008287FC01120982AAFC01120982DFFC018E
:101C930012098227FD0112098243FD01120982A65E
:101CA300FD01120982E6FD0112098227FE011209D4
:101CB3008266DA0512098277DA05120982F6DA05F5
:101CC30012098233E7041209828BE704120982B8EE
:101CD300E804120982FAE80412098239EB041209B2
:101CE3008288EB04120982DEEB0412098257EC04AA
:101CF30012098273ED04120982D4EE04120982F9E7
:101D0300EE041209825EEF04120982E3EF04120962
:101D13008200800412098223800412098240800415
:101D2300120982638104120982E28104120982503A
:101D33008204120982E682041209829F8304120933
:101D4300825884041209825185041209821D860473
:101D5300120982888604120982448D041209828042
:101D63008F04120982CF8F041209825F9004120933
:101D730082629004120982659104120982F7920427
:101D83001209823E950412098257960412098206AB
:101D930098041209826A9804120982ED98041209C0
:101DA30082E5A903120982CEAA031209826EAB034C
:101DB300120982D1AB0312098292AC031209824346
:101DC300AD03120982BEAF0312098233B0031209B5
:101DD3008229B103120982BFB10312098277B203C8
:101DE300120982ADB603120982B8B803120982AC94
:101DF300B9031209820FBD031209822EBE03120911
:101E0300821EBF03120982D7BF031209827CC0035B
:101E130012098208C30312098296C403120982E8D5
:101E2300C40312098296C6031209825AC703120910
:101E33008207C8031209822EC9031209829BE70392
:101E43001209823EE803120982D1E8031209824C87
:101E5300E903120982AFE90312098279EA0312093D
:101E6300829CEB0312098246EC031209829BEC036A
:101E73001209820CED03120982CBED03120982E0F1
:101E8300ED0312098220EE031209822FEF031209D8
:101E93008221F0031209823BF00312098257F003F7
:101EA30012098277F00312098286F00312098297DE
:101EB300F00312098286F10312098263F203120905
:101EC3008280F303120982EDF3031209820BF403F8
:101ED30012098210F40312098267F403120982D6ED
:101EE300F40312098203F60312098249F703120964
:101EF3008204F90312098242FA0312098256FB0390
:101F0300120982B6FB03120982D2FB031209823A39
:101F1300FD0312098298FE031209822CAD051209F2
:101F230082AAAD05120982E8AD05120982B0AE0599
:101F330012098226AF05120982C7AF05120982D2A0
:101F4300B0051209829FC80512098217C905120933
:101F53008234C90512098215CB05120982E87E0075
:101F6300120982F97E00120982D47F00120982EEDF
:101F73007F00120982DDFF0112098255DC05120977
:101F83008265DC051209827FDC051209823CDD05CE
:101F93001209821BC305120982BEC305120982DA24
:101FA300C505120982DAA805120982EBA8051209F0
:101FB3008280A90512098263AA05120982CCAC05A5
:101FC30012098259DF051209827A9F051209829B41
:101FD3009F05120982CE9F05120982E49F0512090B
:101FE3008276A0051209820BA1051209825FA10561
:101FF30012098215A40512098236A405120982EC7E
:10200300F80412098254F90412098277FA041209B6
:1020130082C7FA04120982F3FA041209820CFB0440
:102023001209822AFB04120982DDFB04120982F6DB
:10203300FC04120982B5FD04120982B0FE041209E0
:102043008216FF041209826AFF041209826FD10506
:1020530012098298D105120982ACD105120982F4C2
:10206300D1051209823DD20512098286D2051209D1
:1020730082E5D205120982E8D205120982F6D20559
:1020830012098207D3051209824FB9051209828901
:10209300B905120982F3B9051209822FBA0512098B
:1020A3008276BA05120982A8BA05120982E3BA0533
:1020B3001209820DBB0512098233BB0512098297EF
:1020C300BB05120982C5BB0512098258BC0512095A
:1020D3008270BC0512098285BC05120982BEFF0409
:1020E300120982DBFF04120982A1940512098240BE
:1020F30096051209824D96051209827A96051209F0
:1021030082AB96051209820497051209825A970534
:10211300120982ED9705120982709805120982FF50
:102123009805120982F29905120982069A05120985
:1021330082199A051209823B9A051209823FDD052D
:102143001209826CDD0512098299DD05120982C626
:10215300DD05120982BDBC05120982E4BC05120922
:10216300820FBD05120982B4BD0512098215C0058F
:1021730012098238C0051209824AC0051209825821
:10218300C00512098281C0051209829CC00512098B
:1021930082B7C005120982D2C0051209824BC1055C
:1021A3001209828CC105120982C1C105120982126A
:1021B300C20512098267C20512098294C205120977
:1021C30082A2C205120982BAC20512098208C30596
:1021D300120982A1DE0512098201F4021209824A60
:1021E300F40212098273F4021209828CF4021209B6
:1021F30082ACF40212098214F5021209824EF5022E
:1022030012098281FA021209823CFC021209827EBF
:10221300FC02120982E8FC021209825BFE02120927
:10222300828BFE02120982A5FE02120982B9FE0206
:1022330012098209FF0212098272FF0212098287C0
:10224300FF0212098259D60512098270D6051209B6
:102253008297D605120982BBD605120982E6D605F6
:1022630012098214D70512098233D705120982682D
:10227300D7051209828ED7051209820EDF051209CE
:102283008277B1051209828EB105120982EAB2057D
:102293001209821FB30512098247B305120982741A
:1022A300B3051209828DB305120982CAB305120957
:1022B3008247B4051209828DB405120982DFB40581
:1022C30012098212B50512098238B505120982CBAB
:1022D300D705120982E3D7051209822DD905120900
:1022E3008230D9051209826AFE011209820AFF01AE
:1022F3001209826AFF01120982ADFF01120982727B
:102303009A05120982949A05120982F69A0512090E
:1023130082249B051209824E9B05120982729B053A
:10232300120982949B05120982B89B05120982C285
:102333009C05120982169D051209822D9D0512091D
:10234300825D9E05120982719E051209828E9E0589
:10235300120982AB9E05120982BD9E05120982E90C
:102363009E05120982508E051209821394051209E3
:1023730082219405120982008003120982A3820339
:102383001209822184031209823F840312098233D2
:1023930086031209827B8703120982E987031209E4
:1023A30082568903120982A98903120982C08B0309
:1023B3001209822E8D031209827B8D03120982B1C9
:1023C3008D031209824C8E03120982D78E031209E0
:1023D30082F48E03120982168F03120982478F0338
:1023E30012098295A003120982B3A003120982473E
:1023F300A20312098272A403120982EDA403120933
:10240300824DA7031209822AA903120982C1FF027E
:10241300120982939F02120982379F021209826373
:102423009E02120982A19C021209826D9C0212096A
:10243300823A9C021209821E9C021209824B9B0261
:10244300120982A89A02120982169A02120982CEEE
:1024530099021209821998021209829997021209A4
:1024630082689702120982CE9602120982A096020E
:102473001209824C9502120982BA94021209821D32
:102483009402120982A89302120982769302120916
:1024930082B392021209824DA70212098212A60286
:1024A30012098266A502120982ACA3021209825C98
:1024B300A102120982DE90021209826F90021209B0
:1024C300824190021209823E9002120982E3A00225
:1024D3001209822B9002120982D48F02120982BB45
:1024E3008F02120982968E021209828AA0021209B1
:1024F3008266C604120982608E021209820E8E025F
:10250300120982AF8D021209827E8D021209824660
:102513008A02120982068A02120982FA89021209C0
:10252300825A89021209829A880212098213860248
:10253300120982A48302120982628302120982367B
:102543008202120982EB8102120982278102120997
:10255300826A80021209821AA0021209823A800258
:1025630012098200800212098266D00500000080F1
:10257300FBE473870001008312240002005C122530
:102583000002005E122600020060122700020062B1
:10259300122800010064122900010065128400045E
:1025A300006612860001006A122A0001006B122BDA
:1025B3000001006C122C00010070122D0008005A5B
:1025C3000C2E00010071122F000100721230000165
:1025D30000731231000100741232000100620C33E7
:1025E300000100630C340001007512360001006421
:1025F3000C380001007612390001006F12830002CB
:10260300008112630001007F12640001006D1265F6
:102613000001006E126D00010080126E000200586E
:102623000C430001007712440002007812450001B8
:10263300007A12460002007B1247000800660C482D
:102643000001007D124B0001007E12040001008492
:1026530012A10001008712370001008612880001D1
:102663000085123C000100650C0000000000000022
:1026730001363601010001020100010301000104DA
:1026830001060605020000070100340801000F09D6
:102693000401010D0100FF0E0800001702000019DC
:1026A3000100FF1A0100011B0100FE1C0100081DAF
:1026B3000200001F0100012001000121020000238C
:1026C30001000F2402000026010001270100082851
:1026D3000200FF2A0100072B0102402C0100002DFC
:1026E3000100012E0100012F0100FF30010B1C31FD
:1026F3000800003A0100083B01000F2F010000030E
:10270300007100300160001100700031022003509D
:102713000480001000610000001400630073007265
:1027230000620043000000130006000000000004E4
:102733000012000000000000000000040004003745
:102743000037003C02440000000000000000006568
:102753000000003500810000000500000083000038
:1027630000010371030103010301030103010322B8
:10277300030203010310030003000300030003002B
:1027830003000300034203000324030603000300C2
:102793000304031203250323032503230304030470
:1027A30003000300030003440300030003230300A7
:1027B30003650321003503810300030503000300C0
:1027C3000300030101710101010101110101013143
:1027D30001010101018001100161013B001400634B
:1027E3000173017201620143010001130106013DFE
:1027F3000135000401120100010001000100010480
:10280300010401330133013C01440132013600006C
:10281300010001650100013500810100010501820C
:102823000183010001030271023001600211027091
:10283300020102020202028002100261023A004116
:10284300006302730272026202430200021302383F
:102853000000020002040212020002000200020051
:102863000204020402370037003C0244020002392A
:102873000000020002650200023502810200020527
:102883000282028302000203047104020460041141
:10289300047004020402040104020410046104002D
:1028A30004140463047304720462044304000413F1
:1028B30004060400040004040412040004000400D9
:1028C30004000451046400000400040004440400F0
:1028D3000400040004000465040004350481046456
:1028E3000005040004830400043600010006000010
:1028F300000F0000000000000000000000000003C3
:10290300FFFF00000403FFFF0000FFFF0FF40100BF
:1029130005C4040320000100040B000000000000B4
:10292300000003010F0000DD1D13007D1D0100DD0C
:102933001D0200351D03003B1D0400411D0500471A
:102943001D0600531D1100711D1400771D15006530
:102953001DFFFF0000013310065D100857100B75B3
:102963001010AF0F023910054B10073F100C151054
:102973000D2710FF000003EAF5E5D5D5C5B5A595EC
:1029830095858575756565555545453535252515F4
:102993001505A714D714AD14B314D114C514BF145B
:1029A300DD14E314E914F514B914A1149B140016EF
:1029B3000F00000B150B020002220F320000065A13
:1029C3006967426565416C6C69616E6365303900A6
:1029D300000000000000008967452301EFCDAB979D
:1029E30015A915AF157114B5156B147714F71515D3
:1029F300161B16FD1509160316AB13A513E113E7F2
:102A030013DB13931300383C3E363B3B352B432CEF
:102A130000034948424D181725050230301718198D
:102A230021301B1D1F300C0E020B040B0A0708007C
:102A33000F303016181920231A1C1E3000011916E6
:102A430018161615230300EB15BB15C115CD15C7B5
:102A530015CB14EF140F16FB140115020402010128
:102A630001010902B713BD13B113ED13C313D5133A
:102A730000BE040A0E0010000A007F00E8030C00E9
:102A83001E0000000000090308100C0A18080900C2
:102A9300040001FF080F0C05040A10000874F61265
:102AA300050D74FF120A4E851882851983E4F0859B
:102AB300820885830978081209D67508017509000B
:102AC30078081209D6122AF474041209E97401026F
:102AD30044AC74F612050D8C088D0978081209D6DA
:102AE30075080B75090078081209D6122AF40244F6
:102AF300AA122B1D121AFB2274F612050D8C088DD7
:102B03000978081209D675080B75090078081209A7
:102B1300D6122B1D121B010244AAEA75F00BA4FA6C
:102B2300A8F075F00BEBA428FBEAFCEBFD7A237B02
:102B33000022C082C0838A828B83E0D2E7F0121C1A
:102B43006F023F9BC082C08379001230C312643787
:102B5300C082C0839003381251B5D083D082C3E0C2
:102B63009CA3E09D500C126B0BFAA3E0122B786030
:102B73000109023F9BFBEA75F00BA4FAA8F075F07C
:102B83000BEBA428FB90033AE02AF8A3E03B8882EE
:102B9300F583E0540F2274F712050D89081230C330
:102BA300123169ACF075F00BE9A42CF990033AE00B
:102BB30028FEA3E039FF7401650860067402650806
:102BC30070208A828B831231551244A474026508E3
:102BD300701B12301412319C70138E828F83E4F0B9
:102BE300800BEA2403FCEB123137123143EEFAEF88
:102BF300FB120CF10242D874F412050D12743279EF
:102C0300008E828F83E06076890A890B8065E50AEE
:102C130075F00BA4FAA8F075F00BE50B122B857079
:102C230046E50A75F00BA4F8AAF075F00BE50B1254
:102C3300317B8E828F83E085088285098312325D22
:102C4300850882850983A31244A4EE2403FCEF12B2
:102C53003140124159125EB1AA08AB09120CF17945
:102C6300019003381258BEE50A2401F50AE50B3436
:102C730000F50B12301CE50A9AE50B9B40900246C7
:102C83005074F512050DEAFEEBFF740B120C3612AD
:102C9300415E750A01EC4D602BEC12744EED12642B
:102CA3003712449C7901120CFDE5084509606F85D4
:102CB3000882850983A312743C7902AA08AB09121E
:102CC3000CFD805AE5084509602B12643B124AFD4E
:102CD30012415A123186700CEEFAEFFB120D03E922
:102CE300F50A80CBEE2403FA1230BE70317903EE7D
:102CF300FAEFFB80CA8E828F83A3E064FE7003A386
:102D0300E0F4700BEE24030A0A0A1230BE700CEED4
:102D1300FAEFFB120D03E9F50A8003750A00A90A0D
:102D23007F0302076B74F712050D90033812440BEF
:102D3300EA4B602FEA75F00BA4FAA8F075F00BEBE1
:102D4300A428FBEAFEEBFF121A6B90033A12440B22
:102D530090033A1257036012EEFCEFFD790012194B
:102D6300AB800790033AE4F0A3F00242D874F61262
:102D7300050DE4F508F50978081209D69003381211
:102D830051B5EC75F00BA4FCA8F075F00BEDA4287D
:102D9300FD7A237B00121AEF74021209E9E9FE603F
:102DA30003120D1B02664A74F712050D7E007F00A5
:102DB300800AEEFAEFFB120CDF123C85122E324032
:102DC300F10242D874F712050D7E007F00801212C3
:102DD30030A1FCA3E039FDEEFAEFFB120CEB123C41
:102DE30085122E3240E90242D874F712050D7E0097
:102DF3007F008033EEF8EFF9E875F00BA4F8AAF042
:102E030075F00BE9A42AF990033A125BCC88828906
:102E130083E0A2E7500EC2E7F0AC82AD83EEFAEF97
:102E2300FB120CE5123C85122E3240C80242D890A8
:102E33000338124E6DC3EE98EF9922C082C083EC23
:102E43004D60051222F980097C087D007900121972
:102E5300AB023F9B74F612050D7900EA4B601878BC
:102E630000880812677EEB126B076004790178080B
:102E730008E8C3940840EA0244AF74F712050D74DE
:102E8300F3120A4EECFEEDFF851882851983E4F0F8
:102E930004120C36EAF0A3EB125C377403120C36FF
:102EA300AC82AD83EEFAEFFB120D2DEEFAEFFB12BF
:102EB3000D330242D374F712050D74F3120A4EEC6C
:102EC300FEEDFF851882851983E4F0EAFCEBFD74BF
:102ED30003120C361232567401120C361244988EB9
:102EE300828F831244A474FE68700374FF696004C4
:102EF3007901800279000242D374F712050DEAFECC
:102F0300EBFF122F5A7014122F658E828F83E0F419
:102F1300F88A828B83E058F0120CF1A9080242D898
:102F230074F712050DEAFEEBFF7508008E828F839E
:102F3300E06022122F5A701D122F658A828B83E064
:102F43008F838E82F8E058700CE0F88A828B83E0DE
:102F530048F0120CF180C4120CF7E9F5087401650E
:102F6300082212744712316D1230AFFAA3E039FB15
:102F73002274F412050D8A088B097C007D0012303F
:102F8300141231431230D4127439790085088285C2
:102F93000983A3E064FE7003A3E0F460717E007F05
:102FA300008062EEFAEF122B786057EEFAEFFBEA3D
:102FB30075F00BA4FAA8F075F00BEBA428FB9003B3
:102FC3003AE02AF50AA3E03BF50B850882850983DD
:102FD300A3125B7D850A82850B83A3E06A7003A33A
:102FE300E06B701EE50A2403FAE50B1230BF700A8A
:102FF300E50A2403FCE50B1231401230C8790112B3
:10300300644D123C8512301CEE9AEF9B40950246AC
:1030130050EA24030A0A0AEB22900338126024C3FD
:103023002274F312050D8A088B098A828B83A312FB
:10303300743C1230C3127439750C00123014123000
:10304300BF70547E007F0080491230A1FAA3E0399B
:103053008A82F583E0540F60361230A1F50AA3E0AB
:1030630039F50BE50A2403FCE50B12314A3400FB66
:103073001222F3E964017017850A82850B83A31278
:1030830060E5A31244A41230C8750C0112644D12FA
:103093003C85122E3240B2A90C7F0502076BEEF875
:1030A300EFF9E875F00BA4F81230AF22AAF075F02F
:1030B3000BE9A42AF990033AE02822EF1231962271
:1030C30012744DEB221230D4126448EEF0A3EFF0E9
:1030D30022E50812744EE5092274F512050DEAFE85
:1030E300EBFF8E828F83A312743C7C007D00EE2461
:1030F300030A0A0AEF123143EEFAEFFB120CF7E967
:10310300F50A7401650A7029127447123169AAF02D
:1031130075F00BE912317B850882F5831231551264
:103123003186700DE5082403FCE5091231371231AD
:1031330043022D213400FDEE2403FAEF2212314A1B
:103143003400FB120D2D223400FDE5082403FAE5BB
:103153000922A312315A2212315E22E0F8A3E0F9C8
:103163008E828F83A32212316D223400F583124E97
:1031730071E875F00BA4F8221230B5F508A3E03915
:10318300F50922E8F0A3E9F0E5082403FAE50912BA
:1031930031962212319C6401223400FB120D33E973
:1031A3002274F312050D74E6120A4E127432750C72
:1031B30001750800750900750A00750B00851882F2
:1031C300851983E4F0EE2403FCEF3400FD7403124D
:1031D3000C36123256E964017023740B120C36124A
:1031E300449C7401120C36125B817003A3E0696086
:1031F30051851882851983858208858309740D1288
:103203000C36E412325D740E120C361244A4740DA3
:10321300120C36AA82AB83120D51E96401700B7450
:103223000D120C3685820A85830B780A1209D6ACF7
:1032330008AD09EEFAEFFB120D0974021209E9E970
:10324300F50CEEFAEFFB120D4BA90C741A1209E9F7
:1032530002309C123529120D5722124406124E6D6C
:1032630022C082C083780079008003123354123065
:103273001CE89AE99B5029E8FAE9FBEA75F00BA4EC
:10328300FAACF075F00BEBA42CFB90033AE02AFCAC
:10329300A3E03B8C82F583E0540F70CF790080026A
:1032A3007901023F9BC082C083902A79124EC3ECFE
:1032B30075F012A4FCA8F075F012EDA428FD79FFB7
:1032C3007A457B0D1219AB023F9B74F712050DE98A
:1032D300FEEAFF7A007B00780079008028E8FCE9A9
:1032E300FDEC75F012A4FC85F00875F012EDA42531
:1032F30008123769C39E400AE0FCEFC39C400312E7
:103303003B5A12335412375D40D30242D8C082C0B5
:1033130083780079008003123354123348501F120C
:10332300376DF470F2E875F012A4F8AAF075F01294
:10333300E9A42AF9744528FA740D39FB80047A004C
:103343007B00023F9B902A79123A32C3E89AE99BA9
:1033530022E8240108E93400F92274F012050D74FF
:10336300F3120A4E8A0A8B0B8C0C8D0D8908EC45DF
:103373000D6016AA0CAB0D120DA58A0E8B0FAE0EA7
:10338300AF0FEE4F600302341B120D7B8A0E8B0FBF
:10339300A80EA90FE8FEE9FFE849607C902A87128E
:1033A300347D602274036508600674046508701632
:1033B3007A047903120D75902A8712349440077AA0
:1033C300007B0002347A902A8512347D601B7401DD
:1033D3006508600674026508700F7A027901120DA0
:1033E30075902A8512349450D68518828519837472
:1033F30001F0120C36125EB1AC0CAD0D7403120C5D
:1034030036123522740B120C36124166124886E4CA
:10341300125E991212AF8004EE4F604A780074FF77
:103423002508C39404500278048E828F83125EB100
:103433008E828F83A3A3A3A3E508F0E88E828F83F4
:10344300A3A3A3A3A3125EB912032C123A4F8E8235
:103453008F83A3A3A3A3A3A3A3F0123A46120C132F
:10346300126431120C1F123482400590120DE4F0E5
:10347300121189EEFAEFFB024E77125FD349227ADB
:10348300047900120D75902A79126AEDEA98EB9986
:10349300221234AD75832A758279E493C398F8A315
:1034A300E49399F9C3EA98EB9922E493F8740193AE
:1034B300F92274F212050D74F3120A4E8A088B096D
:1034C300ECFEEDFF750A00EEFAEFFB120DA58A0C78
:1034D3008B0DA80CA90DE849603E88828983E065BD
:1034E300087004A3E06509602F88828983A3A3A3DE
:1034F300A3E0C3940550211262DF851882851983E6
:103503007401F0120C361262E3EEFCEFFD74031249
:103513000C36123522750A01A90A740D0259751267
:103523003529120D6322AA82AB83120D2D851882D1
:10353300851983AA82AB832274F612050D1235779F
:10354300600FA3A3A3A3E014C394045004790180E0
:103553000279000244AF74F612050D123577600F3D
:10356300A3A3A3A3E014C3940250047901800279B6
:10357300000244AF120D9F8A828B83E5824583222A
:1035830074F612050D123577600BA3A3A3A3E070A5
:10359300047901800279000244AFC082C083EAFC4F
:1035A300EBFD7A007B00023F98C082C0837C007DE4
:1035B30000023F9874F412050D74F3120A4EEAFEEA
:1035C300EBFF8C0A8D0BC3EC94F8ED94FF4007EEF0
:1035D3004F7003023670750800750900802E851838
:1035E300828519837401F0123CAD120C36123CBB78
:1035F30060137403120C36AC82AD83EEFAEFFB1248
:1036030022F3E97049E5082401123809902A79E484
:10361300125FDBE50898E509995052E50875F01249
:10362300A4F8AAF075F012E509A42AF9126B206038
:10363300D4EE4F70A974FF650A700474FF650B60C4
:10364300C4123C9D650A7004A3E0650B70B7E508DE
:1036530075F012A4F508A8F075F012E509A428F591
:103663000974452508FA740D3509FB80047A007B3B
:103673000002464B74F412050D74F3120A4E7508DA
:1036830000120DA58A0A8B0BAE0AAF0BEE4F602A10
:103693008518828519837401124400F8A3E0F97434
:1036A3000B120C36124529120D457C127D0079FF51
:1036B300EEFAEFFB1219AB75080112348250099030
:1036C300120D7401F0121189A90802464B74F71206
:1036D300050DE9FE74FE6A700374FF6B78007900D0
:1036E3007005805212335412375D504AE8FCE9FDED
:1036F300EC75F012A4FCAFF075F012EDA42F1237A5
:1037030069F460E0E8FCE9FDEC75F012A4FC75F0E7
:1037130012EDA42FFD74452CF582740D3DF583E065
:103723006A7003A3E06B70BC800912376D14C394F5
:103733000440171233541233485018EE70EC12370A
:103743006D64016005E0640370E9123C8EFAA3E046
:10375300FB80047AFE7BFF0242D8902A79124EC77F
:10376300C3E89CE99D22123B8F22E8FAE9FBEA7544
:10377300F012A4FAACF075F012EBA42CFB74492AF6
:10378300F582740D3BF583E022120DB7023F9BC017
:1037930082C083790180F274F012050D8A0A8B0BC3
:1037A3007A047901120D758A0C8B0DEA450D603E82
:1037B300EAC333FAEB33FB121A6B8A088B09AE08A0
:1037C300AF09EE4F60237AFE7BFF120DBD74FE6AD4
:1037D300700374FF6B601B85088285098312440B99
:1037E300E508240212380980E1750C0080047E008C
:1037F3007F00850A82850B83E50CF0EEFAEFFB026E
:103803004E7CE5082407F508E5093400F50922C0D4
:1038130082C0837A007B008003123B5A12385550D2
:103823002A123B79F460F2EAFCEBFDEC75F012A48A
:10383300FC75F012EDA428FD744A2CF582740D3D3D
:10384300F583E05960D3123B6380047A007B000266
:103853003F9B902A79124EC7C3EA9CEB9D2274F6D4
:1038630012050DE4F508F50978081209D6902A79AE
:10387300E493F508740193F50974037808120B6552
:10388300123898121AEF74021209E9E9FE60031262
:103893000DD502664AE5082402FCE5093400FD7AE9
:1038A300227B002274F612050D74FE120A4E85184F
:1038B30082851983E4F0A312448A858208858309EB
:1038C30078081209D675080275090078081209D616
:1038D3007C007D007A227B00121AFB74041209E932
:1038E30074020244AC74F112050D74DF120A4E85A2
:1038F300188285198385820885830978081209D679
:1039030075080275090078081209D67C007D007AD3
:10391300227B00121B0174041209E9E96003023AD5
:1039230020902A79123A32124492C3EA98EB9950C2
:1039330003023A20750800023A15740F120C3685FB
:10394300820A85830B780A1209D6750A08750B005B
:10395300780A1209D685080A7403780A120B65E5FA
:103963000A2402FCE50B12389F121B01740412098E
:10397300E9E96003023A137411120C36E0F47003A0
:10398300A3E0F47003023A137402120C367401F0CC
:103993007411120C36124498740D120C361244A48E
:1039A3007402120C36AA82AB83120D5DE96061903A
:1039B30003791251B5740F120C36125B7D1212AFDC
:1039C300E50875F012A4F8A9F0744528FE740D39C2
:1039D300FF740F120C36A982AA83890C8A0D750E07
:1039E30000780C1209D27C08123A3A1209E9125EE5
:1039F300BE12032C123A4F123A46120C13126431C0
:103A0300120C1F123482400590120DE4F01211893A
:103A1300050885080A126AE1500302393D851882B8
:103A2300851983E0F974211209E97F0702076BE422
:103A330093FA740193FB227D00EEFAEFFB12199FB8
:103A4300740322126442E4F090808A22E88E828F0B
:103A530083A3A3A3A3A3A3A3A3123A717401123A4A
:103A630071A3F0EE2410126445E4F0A3F02212488F
:103A730092A3A3A32274F412050D74FE120A4E85B9
:103A83001882851983E4F0A3F0FE8067EEF8EFF95E
:103A9300E875F012A4F8AAF075F012E9A42AF974F3
:103AA3004528F50A740D39F50B780A1209D67508FD
:103AB3000875090078081209D68E088F09740378EF
:103AC30008120B65123898121AFB74041209E9855F
:103AD3000A82850B83A3A3A3A3E0F4600F85188256
:103AE300851983E02401F0A3E03400F0EE24010EF5
:103AF300EF3400FF902A791270C7409085188285B1
:103B0300198385820885830978081209D675080206
:103B130075090078081209D67C007D007A227B00A3
:103B2300121AFB74041209E9740202464DC082C0E2
:103B3300837A007B00800419123B5A1238555010C7
:103B4300123B79C3940550F0E970EC123B63800497
:103B53007A007B00023F9BEA24010AEB3400FB223C
:103B6300EA75F012A4FA75F012EBA428FB74452A47
:103B7300FA740D3BFB22EAFCEBFDEC75F012A4FC9E
:103B8300A8F075F012EDA428123B8F22FD74492C86
:103B9300F582740D3DF583E02274F712050D74F37D
:103BA300120A4E7E007F00023C41E50875F017A41F
:103BB300F8A9F0126D81FAA3E0FBEEF8EFF9E875CE
:103BC300F012A4F8ACF075F012E9A42C123C9C6A34
:103BD3007003A3E06B603FE50875F017A4F8AAF043
:103BE300EA126D80F8A3E0F97401120C36E06870F4
:103BF30003A3E0696020E50875F017A4F8EAF974F7
:103C03006728FC740E39FD7403120C36AA82AB8349
:103C13001222F3E96014E50875F017A4F8A9F0740B
:103C23006528FA740E39FB1212BB0508902A8CE43E
:103C330093F8E508C3985003023BAD123C85902AE4
:103C4300791270C75039EEF8EFF9123C8EF4700315
:103C5300A3E0F460E68518828519837401F0EEF819
:103C6300EFF9E875F012A4F875F012E9A42AF91235
:103C73003CAD120C36123CBB60C175080080AD022E
:103C830042D3EE24010EEF3400FF22E875F012A4B4
:103C9300F8AAF075F012E9A42AF9123CA12274459E
:103CA30028F582740D39F583E022744728F5827470
:103CB3000D39124E6B740B22E8F0A3E91245311251
:103CC3000D5DE922C082C0839003457445F0A3745F
:103CD30010F0023F9B74F712050DEAFEEBFF900311
:103CE3007BE06408601BE0640460168E828F83E0CF
:103CF30054036401704812415912497CE064067010
:103D03003D8E828F83A3A3E064FE7003A3E0F4607F
:103D13002D8E828F83A3A312449890036CE0687066
:103D230003A3E069700BEE2415F582EF126B0760B5
:103D3300081210FFE9F508800812110580F67508CE
:103D4300C2EEFAEFFB121A71022F1E74F412050D64
:103D53008A088B098A828B83E0F8A3E0FAE82AFABF
:103D6300E43400FB121A6B8A0A8B0BAE0AAF0BEE1C
:103D73004F6063850882850983E0FC7D007900122A
:103D830019AB8E828F83A3A312743C1211418E82CE
:103D93008F83A3A3A3A312440B850882850983E021
:103DA300F8EE28F8EF34001244A0850882850983D1
:103DB300A3E0C0E0EE240D126434D0E0F0121153FE
:103DC300EE240E126434E9125ADEE0C0E0EE241150
:103DD300126434D0E0F0EEFAEFFB02465074F412B2
:103DE300050D74EB120A4E8A088B098C0A8D0BE9B8
:103DF300FE90037BE064046005E06408700479C20C
:103E0300802EA37808120BF7EE900382123FD9128B
:103E13000BF77405120C36E9F07404120C367401B6
:103E2300F07407120C36E4F090037B7402123F180F
:103E3300741502464D74F612050D74EB120A4EEA20
:103E4300FEEBFF1257006003023EDC7A077B001291
:103E53001A6B90033D12440B12570060788E828FC9
:103E630083120C1390033E12497F120C1F1273002E
:103E7300C0E0123EE8D0E0F0EE2405FAEF3400FB98
:103E83008A088B098A82F583E0C0E0123EE3D0E022
:103E9300124647E0C0E0123EE3A3D0E012447F1293
:103EA3000C13851882851983120C1F88828983E07D
:103EB300C0E07405120C36D0E0F0850882850983D2
:103EC300E0C0E07404120C36D0E0F07407120C3634
:103ED300123F17800679108002790174150244ACF1
:103EE300123EE8A32290033DE0FAA3E0F5838A8221
:103EF300A3A3A3A322C082C083125700600D900323
:103F03003D12601290033DE4F0A3F012106F121201
:103F13005B023F9BE41245311223292274F71205F9
:103F23000DE990033CF07A807B009003C6E0F91220
:103F33001B43120E2379000242D8C082C083900330
:103F43003CE07003121D6B120E23804CC082C083B1
:103F530090033CE090120C7004E4F0802D7401F0A7
:103F630090033CE0F460237C41E0C394415002E0C1
:103F7300FCECF8E0C398F0EC75F0E8A4CCA8F0757D
:103F8300F003A428FD7A80124ECF7A0C7B1279417C
:103F93001223118003120DABD083D08202097F74E8
:103FA300F412050D74EB120A4E8A088B098C0A8DE4
:103FB3000B90037B7401123FD9120BF77405120C9B
:103FC30036E9F07404120C367403F07407120C36DD
:103FD300123F17023E3312448A78082274F71205FF
:103FE3000D7C01120E350242D874F212050D74FCD9
:103FF300120A4EE9851882851983F0EAFEEBFF8CDD
:104003000A9003791251B51210638A088B09EA45A5
:1040130009700579CA0241548A828B83A3A3A3A39F
:10402300A3A3A3E064FE7003A3E0F4700579C302C5
:104033004154900379125B7D1212C1850882850970
:1040430083A3A3A3A3A3A3A3A3A3A3E00490038C89
:104053001242B77402120C367402F014120C36AA10
:1040630082AB831211C58A0C8B0DAE0CAF0DEE4FD4
:10407300700302414B124159124AF17406F0A3A88E
:1040830082A98390036612604F124E4AF0EE241306
:104093001264347401125E917440F0A3E4125AD78F
:1040A300A3A31241661244A4EE2411126434E50A58
:1040B300F0EEFAEFFB120DF9E9FE600302414D90B9
:1040C300037B7409F0123805AA08FB794B122311FC
:1040D3008508828509831242A91244A490036EE0E5
:1040E300F8851882851983E068600CE090036E12EE
:1040F300452D79E1122311901260124498901262B7
:10410300E0687003A3E069601A90033F1244A4902F
:104113001262125B7D12116B9012621251B57A0119
:10412300124ECF7A007B049003C6E0F9121B439032
:10413300126212415E74027808120B65AC08AD0975
:10414300FA7B04124ED180027E10900B53E4F0EE02
:10415300F97404025975EE12644322E0F508A3E0F2
:10416300F5092212416A2212315EA32274F5120567
:104173000D74E2120A4E851882851983ECF0A3EDC3
:10418300F0EAFEEBFF89087429120C36E0F5097496
:104193002C120C36E0F50A90037BE064046005E022
:1041A3006408700579C20242A1742A120C36E064D5
:1041B300FE7003A3E0F4700579C30242A190037B70
:1041C300740312452D7950122311742A120C36AA46
:1041D30082AB83794B12231185188285198312428E
:1041E300B01244A4E50890036EF0742A120C361240
:1041F30042A91244A4E5099003661242B774CE554E
:10420300094480C0E07412120C36D0E0F07401252A
:104213000A90038CF0740F120C367402F0742A1295
:104223000C361244987407120C36E8F0A3E91244D2
:10423300117410120C361244A47405120C36E508DE
:10424300F0741B120C36E4F0900381740FF07A8142
:104253007B037954122311900380740FF07A807BCF
:10426300037947122311900380E0C3940F50237402
:1042730005120C36E0C0E07402120C36D0E0F07484
:1042830004120C367401F004120C36AA82AB8312AA
:1042930023357405120C36AA82AB83122317741EBE
:1042A3001209E9022D23124E6D90036F22124E6DF7
:1042B30090037922F0EEFCEFFD7A8D7B031222F955
:1042C3002274F712050DEB900383F0121051800551
:1042D300740D1209E97F0102076B74F712050D745F
:1042E300E9120A4EEAFEEBFF7508008E828F83A364
:1042F300A3A3E0C0E07406120C36D0E0124400C061
:10430300E07408120C36D0E0F07409120C36740114
:1043130012447AF8A3E0F9E849600D8E828F831284
:104323005B7D120D33E970467407120C36E4F0120C
:10433300113B7404120C3612440B90037BE06404AB
:10434300700E1211477402120C36EAF0A3EB800BC5
:104353007402120C3674FDF0A374FFF07402120C95
:1043630036AA82AB831211A7E9F5080243F985182F
:1043730082851983AC82AD838E828F83125B7D121B
:104383000D3F8E828F83A3A3A3A3E070247407122F
:104393000C3674011244117402120C361244A48EAA
:1043A300828F831244987404120C36E8F0A3E980D8
:1043B300AA124492740A120C361244A47414120CF6
:1043C300367401126974E0C0E07415120C36D0E043
:1043D300F07416120C36E412447AFCA3E0FD740C5C
:1043E300120C36AA82AB831222F9740A120C36AA73
:1043F30082AB83121C57A90874170242D5124406D4
:10440300A3E02212447FA322EAF0A3EBF02212449A
:1044130085F8A3E0F92274F712050D74F8120A4E19
:10442300EAFEEBFF790090037BE064087044851893
:104433008285198374FDF0A374FFF012113B74029B
:10444300120C3612440B7405120C36E4124406E0C7
:10445300C0E07404120C36D0E012447AC0E0740653
:10446300120C36D0E0F07407120C36E412452D120C
:1044730011A774080242D512447FE022F08E828F86
:10448300832212448AE022F08518828519832285CB
:104493001882851983124E6D22E0F8A3E0F91264A5
:1044A30042E8F0A3E9F02274041209E97F0202074B
:1044B3006BC082C08390034D74F5F0A3740EF0902B
:1044C30003F37401F0A37412F0900351742BF0A35F
:1044D300740FF090035374F5F0A3740EF09003552A
:1044E3007431F0A3740FF0023F9B74F412050D7442
:1044F300F9120A4E8A088B098C0A8D0B851882855E
:1045030019837808120BF77404120C36E9F074055A
:10451300120C36E4F07406120C36E412452D120E1A
:104523000B740702464DE8F0A3E912453122124409
:104533008AAA82AB832274F412050D8A088B098A36
:10454300828B83126450EE4F700302464590031230
:1045530012570360158A828B83A3A3E0F9EEFAEF67
:10456300FB90031312497F1225748E828F83A3A3BA
:10457300A3A3A3A3A3A3A3E0640270748E828F8377
:10458300A3A3A3A3A3A3E0540270030246178508C1
:1045930082850983A3A3E064E960798E828F83A374
:1045A300A3A3A3A3A3A3A3A3A3E07014901277E0F0
:1045B300048E828F83A3A3A3A3A3A3A3A3A3A3F084
:1045C3008E828F83A3A3A3A3A3A3A3A3A3A3E01474
:1045D300124647A3A3A37404F0901278125E8BE8EB
:1045E300F0A3E9126F648B0BEA450B700312694267
:1045F3008E828F83A3A3A3A3A3A3A3A3A3E0640295
:1046030060128E828F83A3A3A3A3A3A3A3A3A3E078
:104613006406702E8E828F83A3A3A3A3A3A3E0A219
:10462300E0501F850882850983A3A3E0F9EEFAEF22
:10463300FB1224318E828F83A3A3A3A3A3A3E054ED
:10464300FEF0800912488E22740D1209E97F0402DC
:10465300076B74EC12050D74DD120A4EEAFEEBFFD4
:104663008C088D097437120C36780C120BD9750A25
:10467300007405120C36AC82AD83120C85741212D1
:104683000C36E070087415120C36E06020740512C5
:104693000C36E0A2E6501E8E828F83A3A3A3A3A3AE
:1046A300A3A3A3A3125B7D1211DDE96008790312B2
:1046B30022E10248747405120C36E0540C64047051
:1046C30005750B018003750B00E0A2E55035750AF3
:1046D30001E50BA2E0402C1211418A108B11A810A6
:1046E300A911124159E0687003A3E06960157405CC
:1046F300120C36127443125B79122449E96004796F
:104703000480AC7405120C36E0A2E6502274061243
:104713000C36E0540370187405120C36E0540C6424
:104723000C600CE0540C640860057510018003757F
:1047330010007405120C36E05403F8740268700C10
:10474300127443125B79120C9702487474016870F7
:104753003AE510A2E0500312487C7405120C36A807
:1047630082A9837403120C36E8F0A3E9124E618523
:104773001882851983124886E0C0E07402120C3651
:10478300D0E012452D12254B024874E8600302481D
:1047930074900363E0640170108E828F83A3A3A3DC
:1047A300A3A3A3E070030247027422120C3674021F
:1047B300124E61741A120C361244A4E510A2E05092
:1047C300087405120C3612487CE50BA2E0506AEE21
:1047D300240FF582EF126B07C0E07417120C36D06A
:1047E300E0F090031412570370030248741211414E
:1047F3008A128B13A812A913741A120C36E068706C
:1048030003A3E069706B780C1209CE780A1209DAF7
:1048130078081209D6A910740C120C36AC82AD8339
:104823007421120C36AA82AB8390031412497C12B2
:10483300257474071209E98038780C1209CE780AB6
:104843001209DA78081209D690037912082AEE249D
:1048530012F582EF1268357423120C36AC82AD83E5
:10486300740E120C36AA82AB831224257409120922
:10487300E974231209E9026F2F12744312602012A4
:104883000C8B22E8F0A3E912488E2212489222F000
:104893008E828F83A3A3A3A3A3A32274F712050D70
:1048A300121C2D0242D874F712050D121C39024254
:1048B300D8C082C083121C33023F9B74F712050DCC
:1048C300121C3F0242D874F712050D7409120C36FC
:1048D300E0F50878081209DA121C4B74010242D57C
:1048E300C082C083121C57023F9BC082C083121C2C
:1048F3005D023F9B74F712050D121C630242D874CC
:10490300F712050DEAFEEBFF8908740165087014C0
:104913007900120F6D902A97E493FC7900EEFAEF79
:10492300FB120EE30242D874F412050D74F9120A55
:104933004EE9FE8A088B098C0A8D0B7413120C3610
:10494300125B7D900BA11257036027EE85188285B9
:104953001983F07401120C367808120BF7EAF8EB9E
:10496300F97405120C36124529900BA112497C12D9
:104973002574024524FB90034FE0F8A3E0F58388F8
:10498300822274F712050D90120FE0F97E00800B5E
:10499300126AF3540D64017001190E124B7F500318
:1049A300E970ED0242D874F712050D901210E0F988
:1049B3007E00800B126AF3548D64817001190E120C
:1049C3004B7F5003E970ED0242D874F212050D8952
:1049D3000BE975F006A4240CF508E5F012380D8AEE
:1049E3000CE508250CFAE5093400FB121A6B8A0C56
:1049F3008B0DAE0CAF0DEE4F6027AC08AD097900FF
:104A03001219AB124159E50BF0EE2508F8EF350901
:104A1300F98E828F83A3A3A3A3A3A3A3A3A3124467
:104A2300A4EEFAEFFB02597874F612050DEAFEEBD9
:104A3300FF120EBF90120EE0F8E9C39840099003ED
:104A430049125B7D120EC5EE2402F8EF12619590B8
:104A5300034B12604F90034BE004F0EEFAEFFB12AE
:104A63000ECB850882850983E002664BC082C08332
:104A73007900900349800109125B7D8A828B83E56B
:104A830082458370F2023F9B74F712050DEAFEEB39
:104A9300FFEE4F6056900349125703604E88828998
:104AA300837A007B00EE65827003EF6583600FAA53
:104AB30082AB83124AF1E5824583602F80E790033E
:104AC30049124AFD687002EF698E828F8370081263
:104AD30044989003498003126F411244A4EEFAEF05
:104AE300FB12251BEEFAEFFB121A710242D8124A8F
:104AF300F522124E718882898322124E6DEE22C0F6
:104B030082C083900349800488828983125703609B
:104B13000B888289831251B5EC4D70EC8A828B83AA
:104B2300E4F0A3F0E8496006888289838003900358
:104B33004912440B023F9B74F712050D9003498001
:104B4300048A828B83124B7A4B60257E0080010E90
:104B5300124B7F50ECEE75F006A4FCADF0EA2CFC92
:104B6300EB3DFDEC2410F582ED124BCF70E1800498
:104B73007A007B000242D8126024EA22124BD8EE5C
:104B8300C3982274F712050D7D0080010D124BD4DA
:104B9300EDC3985034ED75F006A4FEA8F0E8FFEAE3
:104BA3002EFEEB3FFFEE2410F582EF124BCF70DCAD
:104BB300ED75F006A4FEE8FFEA2EFAEB3FFBEA24CC
:104BC30011F582EB126B074CF00242D8126B13699A
:104BD30022124BD82212744DEB3400F583E0F822F5
:104BE30074F612050D120FE57A007B008025EAF8B2
:104BF300EBF9E875F006A4F8ACF075F006E9A42C1F
:104C0300125FF912730EA3E41260EFF0A312731490
:104C130012748B902A8112348C40D37A007B0080EB
:104C23001C8A088B0974037808120B65125AA5A312
:104C330074FEF0A304125ECFA3E412748B902A8B4C
:104C4300124C8240DC7A007B00801D8A088B097439
:104C5300037808120B6574BB12677F7410126FC65A
:104C630074FEF0A30412748B902A91124C8240DBE1
:104C7300902A95E493900357F0124C8C0244AFE4CE
:104C830093F8C3EA98EB9400227CE87D037A107BC7
:104C9300009003C6E0F9121B3D2274F012050D7457
:104CA300F5120A4E8A088B09890A8C0BE9A2E05097
:104CB300147508FC7509FFA2E15005D2E4024D5FAB
:104CC300D2E3024D5F1259647003A3E06970057962
:104CD30000024E2CAC0A7902AA08AB09120FC1E9F3
:104CE30060EDE50AF50C780C1209DA79027CFE7D99
:104CF300FFAA08AB091256DF1209E9E96003024E65
:104D03002AE50AC2E5F50A9003B9E07051E50AA263
:104D1300E6404B7403120C36AC82AD83AA08AB0990
:104D2300120D39E970321250008A0C8B0DA80CA9B0
:104D33000DE8FEE9FFE8496025EE24020A0AEF12B6
:104D4300319C601AEE2402FCEF3400FD7403120C54
:104D530036AA82AB831222F9E50AD2E5F50A90035B
:104D63004CE0F50C90036CE0F50EA3E0F50F780E24
:104D73001209D67D017C0090034CE0F9AA0EAB0F1B
:104D8300120F7974021209E9E9F890034CE004F078
:104D9300E86003024E2AE50AA2E55004740E80027D
:104DA3007406C0E07401120C36D0E01264618A0EFE
:104DB3008B0FAE0EAF0FEE4F6069124E4A124E616B
:104DC300888289837401F07478550AA3127453E5B9
:104DD3000C127453A3E508F0E509124E39E4F0E52B
:104DE3000AA2E5500F7403120C36AC82AD83E8249B
:104DF30006124E308E828F83A3A374FDF0A374FF3B
:104E0300F0E50B6015902A98E493F8E50BC39850EE
:104E130009EE2413126434E50BF0EEFAEFFB120DE6
:104E2300F980067910800279C7740B8049FAE93456
:104E330000FB1222F92288828983A3A3A3A3124E23
:104E430045221261C8A322EE24171264457401F0AF
:104E530012113BEE241A126445EAF0A3EB22F0127E
:104E630074473400124E6B22F583124E7122E0F820
:104E7300A3E0F922740D1209E97F0802076B74F6A7
:104E830012050D7A007B1012694F60089003D874E5
:104E930001F08029900C64E064019012757006E0C3
:104EA300FC79018004E0FC79037A007B00120EE3B5
:104EB300902A7F124EC37A007B10124ED10244AF68
:104EC300124EC722E493FC740193FD227B009003EE
:104ED300C6E0F9121B372274EC12050D8A088B0900
:104EE3008C0C8D0D890E7414120C361258BE741668
:104EF300120C36E0F510A3E0F5111211DDE960079D
:104F03007AFF7BFF024FFD901274E064026003029C
:104F13004FF07900AA08AB09120FC7A90E120FBBF5
:104F23008A128B13AE12AF13EE4F7003024FD88E5B
:104F3300828F83A3A3A3A3A3E064018E828F83A3A1
:104F4300A37069125B7D8E828F83A3A3A3A3A3A304
:104F5300E054186043902A96E4938E828F83A3A330
:104F6300A3A3F0EA650C7003EB650D6014EA650A10
:104F73007003EB650B600AEA65107003EB65117053
:104F83001F78101209D6AC0AAD0BAA0CAB0D121286
:104F9300D974021209E9800890036B126939A3F0EE
:104FA30074FE6A700374FF6B601D804EA3A3A3E0BD
:104FB300640360298E828F83A3A3A3A3A3E0640465
:104FC30070057AFE024F058E828F83A3A3A3A3A34A
:104FD300E0640270089003B8E0640270101250009D
:104FE3008B0BEA450B6006AA08AB09800DAA08AB38
:104FF3000990034D12497C122574026F2F90037997
:105003001256E512129D2274F712050DEAFEEBFF0C
:10501300120D8DE9700AEEFAEFFB120D99E96006A5
:10502300EEFAEFFB80047AFE7BFF0242D874F012A3
:10503300050D8A0A8B0B8C0E8D0F890975080012DA
:1050430011DDE9790060030251A7AA0AAB0B120F25
:10505300C7A909120FBB8A0C8B0DAE0CAF0DEE4F17
:1050630060198E828F83A3A3A3A3A3E06402705568
:105073009003B8E0640270030251A5AA0AAB0B9037
:10508300035312497C122574120D9F8A0C8B0DA8B1
:105093000CA90DE84970030251A588828983A3A353
:1050A300A3A3A3E0A2E040030251A5750C01A2E172
:1050B30050687901AC0AAD0BAA0EAB0F120F13E9BE
:1050C30070640251A58E828F83A3A3A3A3A3E0647C
:1050D300037005750C0280528E828F83A3A3A3A352
:1050E300A3E0640160030251A59003791251B58EC8
:1050F300828F8312550A8A0C8B0DA80CA90DE849DF
:1051030060D1902A8FE493FA88828983E0C39A500E
:10511300C2A3E060030251A580B988828983A3A357
:10512300A3A3A3D2E1F0EE4F603A8E828F83A3A3B1
:10513300A3A3A3A3E05418602B7508018E828F8369
:10514300A3A312082A750CFE750DFF780C1209D65D
:105153007900AC0AAD0BAA0EAB0F120FD97404126F
:1051630009E9803E90036CE0650E7004A3E0650FCF
:105173007014902A97E493FCA909AA0AAB0B120EA8
:10518300E3750801801CA90CAC0AAD0BAA0EAB0F8A
:10519300120F13E9700C750801A909AA0AAB0B12C7
:1051A3000F6DA908024E7CE50C2415F582E50D125E
:1051B3006448125EA52274EA12050D74F0120A4EB9
:1051C3008A0C8B0D8C088D097426120C36E0F514AD
:1051D300A3E0F5157512069003F9125703602390A7
:1051E30003791251B5AA08AB091212C78A108B11A1
:1051F300EA4511600D8A828B83A3E0700579000272
:1052030054F2E50C241DF50EE50D3400F50F850E63
:10521300821256EFF51388828983A3A3A3E0FA8849
:10522300828983A3A3A3A3E0F9EA2400FEE439FF60
:10523300AA08AB09120F73850E82850F8312552DB1
:10524300E029F50BE50AA2E5500375120E748755A4
:105253000A70177418550A6418600FE50C2417F5C3
:1052630082E50D126B076512600779011222E18056
:105273008C530A78C3EE94F8EF94FF501D7900EE37
:10528300FAEFFB1254FC601288828983A3A3A3A3C1
:10529300A3A3E05418600302520078081209D67DD4
:1052A300001255201209E9E9F874036870030252E9
:1052B30000E8600302536B7418550A70030254200C
:1052C300E50AD2E0F50AA2E45004D2E1F50AA90AFC
:1052D300125B761254FC605388828983A3A3A3A331
:1052E300A3A3E05418604488828983A3A3A3A3A340
:1052F300E064017036E51045116030900379125176
:10530300B58882898312550A8A0E8B0FA80EA90FBE
:10531300E849601788828983A3E0600F851082853E
:105323001183A31266565003025200E50AF50E7864
:105333000E1209DA1255131209E9E9702B7C007D6C
:105343000085148285158374FFF0A3F0850C828594
:105353000D83A3A3A3A3A3A3A3A3E060031251AA52
:10536300A90B125B76121C51851482851583E0F418
:105373007003A3E0F460399003B8E06402700302A1
:1053830052001258AFE0FAA3E0124978122574EAEA
:1053930065087003EB65096003025200EEFAEF1231
:1053A3004978122574851482851583EAF0A3EBF0FE
:1053B30078081209D67D011255201209E9A90AEECF
:1053C300FAEFFB120FC78A088B09A808A9099003F3
:1053D3006CE0687003A3E06960030254E3EEFAEF44
:1053E300FB120D9F8A088B09A808A909E849606E7A
:1053F30088828983A3A3A3A3E06401600D888289C3
:1054030083A3A3A3A3E06402705485188285198340
:10541300AC82AD83EEFAEFFB120D39805590036534
:10542300E0600FE50AF50E780E1209DA1255131231
:1054330009E9E50AF50E780E1209DA79027CFE7D98
:10544300FFEEFAEFFB1256DF1209E9E9600302539C
:105453006B85148285158374FFF0A30253B2121176
:105463003BEAFCEBFD851882851983AA82AB831284
:1054730022F9850C82850D83A3A3A3A3A3A3A3A3CE
:10548300E06401700F1251AA7408120C36AA82ABA1
:10549300831222F91256B91262CD4430F508780806
:1054A3001209DA7401120C3685820885830978089B
:1054B3001209D6740B120C36858208858309780885
:1054C3001209D6E513F50878081209DA7900EEFC1B
:1054D300EFFD125B76120F0D74061209E9025200FA
:1054E3001256B912643712552DE50BF0121153748D
:1054F300101209E97F0E02076B120FBB8A0E8B0F86
:10550300A80EA90FE84922A3A31260241212C722EE
:105513007901AC08AD091260191256DF22AC0BA950
:1055230013126019120F797402221262D5A3A3A376
:10553300A32274F012050D74F0120A4E8A0C8B0D1F
:10554300ECFAEDFB750F089003F912570360141280
:10555300664F8A828B83E58245836007A3E07003ED
:105563000256B41256B934001256EFF50B888289ED
:10557300831256C2E0FBEC2400FEE43BFF888289E1
:1055830083A3A31256C2A3A3E0FBECF508E43BF507
:105593000988828983A3A3A3A3A3A3A3E0F50EE5AC
:1055A3000AA2E45003750F10A2E550067408250FF4
:1055B300F50F748F550A700FE50C2417F582E50D6E
:1055C300126B07650F600879011222E10256B4538A
:1055D3000A707800E50AA2E450221256B9126B074A
:1055E3002408FCA3E03400FD7408120C36AA82AB35
:1055F300831222F97808E50AC2E4F50AE50AA2E56E
:1056030050281256B9126B0728F8A3E03400F9E8C2
:105613002408FCE93400FD851882851983AA82AB2E
:10562300831222F9E50AC2E5F50AAC0EA90BEEFADC
:10563300EFFB120F7FE9F8740368607590036CE069
:105643006E7003A3E06F605EE87054E50AF50F78AF
:105653000F1209DA1256D01209E9E97054780A12C6
:1056630009DA7401120C3685820C85830D780C12CD
:1056730009D6740B120C3685820C85830D780C12B7
:1056830009D6E50BF50A780A1209DAA90EAC08ADBA
:1056930009EEFAEFFB120F0D74061209E98012747A
:1056A3000468700D80B7780A1209DA1256D012090D
:1056B300E97410024E79E50C241DF582E50D22A351
:1056C300A3A3E0FC88828983A3A3A3A32279011265
:1056D30058B61264481256E51256DF22120F377479
:1056E3000122E0FCA3E0FDAA08AB0922F583124ADC
:1056F300F5A3E0F50A88828983A3A3E02290033D02
:105703001260802274E812050D74F5120A4EEAFE47
:10571300EBFF8C088D0989147423120C36E0F50F06
:105723007424120C36E0F512A3E0F5137426120C60
:1057330036E0F516A3E0F5177428120C36E0F50EE3
:10574300A90F120F858A108B117401120C3674087D
:10575300F0E50EA2E450037410F0E50EA2E5500448
:10576300E02408F0851882851983AA82AB8312117D
:10577300C58A0C8B0DEA450D7003025896EA24176F
:10578300F582EB1258A812113BE50C241AF582E5B9
:105793000D12643712440B7403120C36AC82AD83C2
:1057A300AA10AB11120D39E9601D1258A07403122F
:1057B3000C36A882A983E50C2418F582E50D126442
:1057C30037E8F0A3E98024E50EA2E4501FE5106E4C
:1057D3007003E5116F70151258A0E50C2418F582BB
:1057E300E50D126437E512F0A3E513F01258AF127A
:1057F30058BE850A82F5837402F0A3E50E1258C6DB
:10580300E50FF0EE850A82850B83A3A3A3F0EF8552
:105813000A82850B83A3A3A3A31258C6A3A3A3E55C
:1058230008F0E509850A82850B83A3A3A3A3A3A399
:10583300F0AA10AB11120F73E92514850A82850BA8
:1058430083A3A3A3A3A3A3A3F0750800E50EA2E477
:105853005011AC12AD13E50A2408FAE50B124E32CF
:10586300750808E50EA2E55014AC16AD17E50A2538
:1058730008F8E50B3400F9E82408124E30850C8251
:10588300850D83A3A3E510F0A3E511F0AA0CAB0DDE
:10589300120DF9740B1209E97F1002076BE50C2452
:1058A30016F582E50D1264487401F0221258B612FF
:1058B300644822E50C12744EE50D22E0F50AA3E0DC
:1058C300F50B22F0850A82850B83A3A32274F212BF
:1058D300050D8A088B09ECFEEDFF890A7900125940
:1058E300647003A3E069700479018073750B019000
:1058F300036CE065087004A3E06509601F750B0085
:10590300780B1209DAA90AEEFCEFFDAA08AB09121B
:10591300121974011209E9E9F50B80417900EEFAD5
:10592300EFFB120FBBEA4B602B8A828B83A3A3A3EB
:10593300A3A3A3E05418601C7508FE7509FF78083B
:105943001209D68A828B83A3A312082A12726312C6
:1059530009E980097901EEFAEFFB120E9BA90B808E
:1059630014120FC78A0C8B0DA80CA90D90036CE0C1
:1059730068221209E97F0602076B74F412050D759C
:1059830008D575090F7A10126F6B8B0BEA450B70F4
:1059930003124C8C900357E014F0700C902A95E49A
:1059A30093900357F0120FD37E007F00806C85081D
:1059B30082850983A3A3A3A3E06059F46056E50895
:1059C3002404F582E5091269337049850882850943
:1059D30083A3A3A3A3A3E0640370197902850882B8
:1059E3008509831251B5850882850983A3A3125BB8
:1059F3007D120F13850882850983A3A3A3A3A3E0C4
:105A03006401601085088285098374FEF0A3041283
:105A13005AD7E4F0123C85123805902A831270C7D6
:105A2300408C7E007F0080391210E18E088F09744C
:105A3300037808120B65747B2508FC74103509FD87
:105A43007A1F7B0F1210CFEA4B70DD8E088F09741B
:105A5300037808120B65125AA512730EE4F0123C78
:105A630085902A8BE493F8C3EE98EF9400501B8E35
:105A7300088F0974037808120B65125AADE82407DE
:105A8300F582E912693370D680A17E007F00800A17
:105A9300125AB8600214F0123C851270C440F1022D
:105AA3004650125AAD8882898322747B2508F87484
:105AB300103509F922EEF8EFF9E875F006A4F8AA13
:105AC300F075F006E9A42AF9741B28F582741039DD
:105AD300F583E022125ADEA3A3A322F08508828570
:105AE3000983A3A32274F712050D74E1120A4EEC85
:105AF300FEEDFF750800EE4F60728A828B83E0240F
:105B03001C12696412570360638A828B83125B7D64
:105B1300851882851983AC82AD83EA241BF582EB59
