:020000040000FA
:06000000020B0902021EC2
:03002B000208D7F1
:030033000203C302
:0300530002015552
:03006B000203622B
:03007B0002037C01
:100083000201A80101FF01010503010F10FEFFFB9F
:1000930014FB14FB14FB14B113AB13FB14FE260067
:1000A300000000C227000000000C0000000C00014B
:1000B30001000B000F000100020003000400050013
:1000C3000600070008000000000000000000000018
:1000D30015080F0100000D41100D411016080F0106
:1000E30000000D41100D4110010000008F170000AA
:1000F3000000000049180000000000007117000014
:10010300FFFF010100AB05000000401F2006401F58
:100113006400E803B801020200C8180305023C01A9
:10012300010D1E020564020A0A03B80B02803E0198
:10013300020101FFFF010A1401E0965118000202B7
:10014300060103030507090B0D0F02020406080A43
:100153000C0DC0E074F21204B9A2AFE433F508D277
:10016300AFE5A7FEE5A1FFEF5E5410600612200B7A
:1001730075A1EFEF5E5408600812201175A1F78096
:1001830019EEA2E0C0D0EFA2E092F0120A46158168
:1001930082F050061220C575A1FEE508A2E092AFD9
:1001A3007F01020518C0E074F21204B9A2AFE43370
:1001B300FFD2AF9061A4E0FE759B00E5915E540809
:1001C30060087591F7122065802DE5915E541060EB
:1001D300087591EF12206B801EEEA2E0C0D0E5916E
:1001E300A2E092F0120A46158182F0500A9061A4AF
:1001F300E0C2E0F01221C19061A3E0FEE5E95E54A4
:1002030004600E12219775E9FB906193E0A2E6402A
:10021300F2EFA2E092AF7F01020518C0E074F21280
:1002230004B9A2AFE433FFD2AF9061A5E0FEE5BF0E
:100233005E5404600675BFFB1221D9EFA2E092AFB2
:100243007F01020518C3E498F8E499F91202898042
:1002530026C3E49AFAE49BFBE920E7E9120289E466
:1002630098F8E499F922C3E498F8E499F912028919
:10027300E498F8E499F9C3E49AFAE49BFB22EB20AF
:10028300E7CFE920E7E0B90010BB0008E88AF08473
:10029300F8AAF022E4FBC8FA22EB70227B10C833E1
:1002A300C8C933C9335007C39AC3DBF280069A50D7
:1002B300012ADBEAC833F4C8C933F4C9FA2275F05A
:1002C30008E4C833C8C933C933C99AC99B5004C9A0
:1002D3002AC93BD5F0ECFBC833F4C8E4C9FA2208B9
:1002E3000808EAC0E0EBC0E086F0E7A4FA18098644
:1002F300F0E7A42AFA180986F0E7A42AFA1809866F
:10030300F0E7A42AFA1986F0E7A4FBE5F02AFA1924
:100313000886F0E7A42BFBE5F03AFA190886F0E724
:10032300A42BFBE5F03AFA18180986F0E7A4C5F008
:100333002BFBE43AFA1908E7C5F0C6A426F6E5F064
:100343003BFBE43AFA1886F0E7A4F6E5F00826F654
:10035300E43B08F6E43A08F6D0E0FBD0E0FA22C02A
:10036300E0C0D0E8C0E0A2AFE433F8D2AFA2E0929D
:10037300AFD0E0F8D0D0D0E032C0E074F21204B9CC
:10038300A2AFE433FED2AFE58AA2E75009121747C2
:100393009005247480F0E58AA2E250091217479071
:1003A30005247410F0E58AA2E0500912174790055E
:1003B300247440F0C2EBEEA2E092AF7F0102051875
:1003C300C0E0C0D0E8C0E0A2AFE433F8D2AFA2E00F
:1003D30092AFD0E0F8D0D0D0E032E4CFC0E0E4CEAA
:1003E300C0E0E4CDC0E0E4CCC0E075F020C3E63368
:1003F300F608E633F608E633F608E633F618181877
:10040300EC33FCED33FDEE33FEEF33FFC3EC970922
:10041300ED9709EE9709EF97191919400FFFEC971C
:10042300FC09ED97FD09EE97FE191906D5F0BEEC10
:10043300F709EDF709EEF709EFF7191919D0E0FC01
:10044300D0E0FDD0E0FED0E0FF222518C582C0E059
:10045300E51934FFC583C0E0E518C3958224F8107D
:10046300AF088583198582188008858319858218CA
:10047300D2AFCEF0A3E520F0A37808E608F0A3DE20
:10048300FAEFF0A3E58124FAF8E608F0A3E608F012
:10049300A3E608F0A30808E608F0A3E608F0A3150E
:1004A300811581D0E0FED0E0F8158115811581E832
:1004B300C0E0EEC0E022C0D02518C582C0E0E51937
:1004C30034FFC583C0E0E518C3958224F310AF0859
:1004D3008583198582188008858319858218D2AF90
:1004E300C8F0A3E9F0A3EAF0A3EBF0A37908E709C6
:1004F300F0A3D8FAECF0A3EDF0A3EEF0A3EFF0A392
:10050300D0E0F0A3D0E0F0A3D0E0F0A3E520F0A387
:10051300E5F0F0A322851983851882E0C0E0A3E00B
:10052300F9A3E0FAA3E0FBA37808E0F608A3DFFA57
:10053300E0FCA3E0FDA3E0FEA3E0FFA3E0C0E0A393
:10054300E0C0E0A3E0F5D0A3E0F520A3E0A3F5F03D
:1005530010AF0885831985821880088583198582E1
:1005630018D2AFD082D083D0E0F8D0E032120B6B38
:10057300B900030205B2E4900301780E790E8002FC
:10058300F0A3D8FCD9FA90100EAA82AB8390008610
:1005930078D079018015E493A3AC82AD838A828BF2
:1005A30083F0A3AA82AB838C828D83D8E9D9E775C4
:1005B30082147583E274051208B97582097583255F
:1005C30074001208B975F0108E1A8F1B85821F856F
:1005D300831E851882851983E0CEA3E0CF851F8211
:1005E300851E83EBC9EAC8EDCBECCAC3E833C8E97F
:1005F30033C9EA33CAEB33CBC3EA9EF51DEB9FF550
:100603001CB35004AB1CAA1DEC33CCED33CDD5F099
:10061300DAAE1AAF1B22D083D082ECC0E0EDC0E08B
:10062300E493A3FCE493A3FDED4C600D1206F1ECFF
:1006330024FFFCED34FFFD80EFE493A3FCE493A3DC
:10064300FDED4C600D1207C4EC24FFFCED34FFFDFF
:1006530080EFD0E0FDD0E0FCE493A3C0E0E493C0DE
:10066300E022D083D082E9C0E0E493A3C386F0C53F
:10067300F095F0F908E493A386F0C5F095F0700BBC
:10068300E493A3C3994005E9048002A3E475F0024F
:10069300A42582F582E5F03583F583D0E0F9E49370
:1006A300A3C0E0E493C0E022851983851882E0A308
:1006B300FEE0A3F5207808E0A3F608DFFAE0A3FF45
:1006C300E0A3C0E0E0A3C0E0E0A3C0E0E0A3C0E09B
:1006D300E0A3C0E010AF08858218858319800885E0
:1006E3008218858319D2AFD083D0820208BFC0E0BD
:1006F300C3E49396087401939618400FE4936670CD
:100703000808740193661870007019A3A3C3E493D7
:1007130096087401939618A3A3400DD0E0D0E0D0BF
:10072300E0020655A3A3A3A3A3A3D0E022D083D0C2
:1007330082C5F0E493A3C5F0C395F0F5F0E493A369
:10074300C395F04005E5F0048001E475F002A425AB
:1007530082F582E5F03583F583E493A3C0E0E49367
:10076300C0E0227404800474028000CCC0E0EDC0B9
:10077300E0E518C39CCCAD1950011D10AF068C18D1
:100783008D1980068C188D19D2AF12083BD0E0FD6D
:10079300D0E0FC2274028000CCC0E0EDC0E0E5189C
:1007A300C39CCCAD1950011D10AF068C188D198058
:1007B300068C188D19D2AF120819D0E0FDD0E0FCD9
:1007C30022C0E0C0F088F0E49366700808740193D7
:1007D30066187000A8F0A3A3700BD0F0D0E0D0E0AF
:1007E300D0E0020655A3A3D0F0D0E022D083D0827C
:1007F300CCC0E0E493A3600612087B1470FAE49380
:10080300A360061209A41470FAD0E0FCE493A3C019
:10081300E0E493C0E022CAC0E0E493A3C582CCC560
:1008230082C583CDC583F0A3C582CCC582C583CDE4
:10083300C583DAE5D0E0CA22CAC0E0E0A3C582CC12
:10084300C582C583CDC583F0A3C582CCC582C583CC
:10085300CDC583DAE6D0E0CA227009080808226011
:1008630016181818C6C333C608C633C608C633C617
:1008730008C633C6D5E0EA22C0E0E493A3D39C5074
:1008830010E493A3C39C400AD0E0D0E0D0E0020878
:100893000CA3A3A3D0E022C008C3E096F50808A3E5
:1008A300E096420808A3E096420808A3E0964508AC
:1008B3007001D3D00822C09FF59FE473D09F22D04C
:1008C30083D082C09FE493C0E0740193C0E07402BC
:1008D30093F59F22C0E0C0D0E8C0E0A2AFE433F8B4
:1008E300D2AFC2C7A2E092AFD0E0F8D0D0D0E0320E
:1008F3002518F58210AF08F518400215198008F580
:100903001840021519D2AF851983227404800A7422
:10091300038006740280027401C0E0F4041208F339
:10092300D0E0120B4622C0D0251810AF08F518509E
:100933000205198008F51850020519D2AFD0D0224C
:10094300BB0102E722C082C08389828A83BB000382
:10095300E08002E493D083D082226016080808C6A0
:10096300C313C618C613C618C613C618C613C6D5EE
:10097300E0EA22C3E0C696F608A3E0C696F608A30B
:10098300E0C696F608A3E0C696F622251810AF082F
:10099300F518400215198008F51840021519D2AF51
:1009A30022C0E0E493A36C7009D0E0D0E0D0E00271
:1009B300080CA3A3D0E022E76670100809E766706D
:1009C3000A0809E76670040809E76622E066701002
:1009D30008A3E066700A08A3E066700408A3E06653
:1009E30022C3E09608A3E09608A3E09608A3E09646
:1009F300A2D265D03322C3E096F008A3E096F008B4
:100A0300A3E096F008A3E096F022E026F008A3E026
:100A130036F008A3E036F008A3E036F022E627F626
:100A23000809E637F60809E637F60809E637F62235
:100A3300E026F608A3E036F608A3E036F608A3E0BE
:100A430036F622C0E0E8C0E0E58124FCF8E6A2E740
:100A5300D0E0F8D0E022700422600D18C6C333C67C
:100A630008C633C6D5E0F41822E657F60809E65758
:100A7300F60809E657F60809E657F622E056F6089F
:100A8300A3E056F608A3E056F608A3E056F622E0E4
:100A930056F008A3E056F008A3E056F008A3E0568A
:100AA300F022E647F60809E647F60809E647F6089E
:100AB30009E647F622E4C396F608E496F608E496B8
:100AC300F608E496F622C3E7960809E7960809E7CD
:100AD300960809E79622C6F4C608C6F4C608C6F403
:100AE300C608C6F4C622600D08C6A2E713C618C618
:100AF30013C6D5E0F322C3E09608A3E09608A3E06B
:100B03009608A3E0962275D000758140751801758B
:100B1300190300020570E0F608A3E0F608A3E0F667
:100B230008A3E0F622600C08C6C313C618C613C692
:100B3300D5E0F422E6F008A3E6F008A3E6F008A364
:100B4300E6F022CAC0E0E6F0A308DAFAD0E0FA221F
:100B5300E0FAA3E0FBA3E0FCA3E0FD22EAF0A3EBB1
:100B6300F0A3ECF0A3EDF022E5C754F84401F5C778
:100B73007901222518F582E43519F58322C2AF7570
:100B8300D69F020000221208C2B2A7021208C25066
:100B9300AA021208C256AD021208C263AD021208BD
:100BA300C2F1AD021208C2A3AE021208C2EBAE023A
:100BB3001208C24BAF021208C267AF021208C29BEF
:100BC300AF021208C2D0AF021208C2B9B0021208B3
:100BD300C26EB1021208C2C3B3021208C210B50238
:100BE3001208C2B3B5021208C240B6021208C2DF2D
:100BF300B6021208C213B7021208C28EB702120855
:100C0300C268B8021208C226B9021208C23EB9026B
:100C13001208C2D5B9021208C246BC021208C25B4E
:100C2300BE021208C279BE021208C24B2A00120881
:100C3300C2802A001208C2A62A001208C2E02A00B3
:100C43001208C2F22A001208C2442B001208C2A5DD
:100C53002B001208C22F2C001208C2D32C0012083A
:100C6300C21B2D001208C2552D001208C2722D009E
:100C73001208C2972D001208C2E92D001208C20201
:100C83002E001208C2282E001208C2632E0012087A
:100C9300C2A72E001208C2CE2E001208C21F2F00B8
:100CA3001208C2CF2F001208C28730001208C24FA9
:100CB30031001208C20F32001208C2533200120868
:100CC300C27832001208C2BB32001208C2083300D5
:100CD3001208C26034001208C2E634001208C204CB
:100CE30035001208C22E35001208C248350012081A
:100CF300C25735001208C26235001208C2223600FC
:100D03001208C27B36001208C23D37001208C245E2
:100D130037001208C2BD37001208C20C380012088F
:100D2300C25238001208C29338001208C2233A0094
:100D33001208C2DB3A001208C2473B001208C27213
:100D43003C001208C2833C001208C2F93C0012089E
:100D5300C28B3D001208C2E33D001208C2A33E004D
:100D63001208C2CA3E001208C2E83E001208C2FAC4
:100D73003E001208C24D3F001208C25C3F00120839
:100D8300C2E43F001208C22140001208C22E4000F4
:100D93001208C2B141001208C20643001208C21F62
:100DA30043001208C25B44001208C2EC440012085C
:100DB300C2FA45001208C23346001208C27F460039
:100DC3001208C29B47001208C2E449001208C2EF8E
:100DD30049001208C2FA49001208C2044A00120864
:100DE300C20F4A001208C2294A001208C2334A003D
:100DF3001208C23D4A001208C2484A001208C270D3
:100E03004A001208C2CB4A001208C2EF4A00120875
:100E1300C2134B001208C2714B001208C2B54B003B
:100E23001208C2D14B001208C2484C001208C280FB
:100E33004C001208C2CC4C001208C2294D00120803
:100E4300C2E34D001208C2C74F001208C22050006F
:100E53001208C25051001208C27651001208C2FF94
:100E630052001208C27B56001208C24D58001208E5
:100E7300C2165A001208C2C35A001208C22E5C00DE
:100E83001208C2CD5C001208C21A5D001208C284A7
:100E93005D001208C2935D001208C21A60001208B6
:100EA300C2CC61001208C23962001208C218630082
:100EB3001208C23164001208C2AE65001208C2CD26
:100EC30065001208C22266001208C22767001208D2
:100ED300C24F67001208C2A767001208C2866800E3
:100EE3001208C2CA68001208C21569001208C2803B
:100EF30069001208C2C16A001208C2256B001208F9
:100F0300C2736C001208C2D36E001208C2046F00D1
:100F13001208C2BC70001208C21171001208C21577
:100F230072001208C2B272001208C20B73001208D8
:100F3300C2BE73001208C26074001208C2007500BA
:100F43001208C2A575001208C2B680011208C2F5C4
:100F530080011208C23C83011208C2868301120871
:100F6300C2A184011208C21185011208C24685017B
:100F73001208C2BA86011208C23D89011208C2666C
:100F83008A011208C2FC8A011208C20494011208E1
:100F9300C29994011208C28097011208C273980182
:100FA3001208C2D498011208C2F099011208C2D5DE
:100FB3009B011208C2E69D011208C2509E0112084D
:100FC300C2229F011208C2D99F011208C2E39F01E6
:100FD3001208C211A0011208C2CEA0011208C2A5B4
:100FE300A1011208C26CA2011208C21EA3011208B9
:100FF300C247A3011208C269A3011208C2BFA50117
:101003001208C297A6011208C2DBA6011208C24346
:10101300A7011208C2FBA7011208C22DA8011208DA
:10102300C271A8011208C2A7A8011208C2F3A8013D
:101033001208C248A9011208C24DA9011208C2A090
:10104300A9011208C2C5A9011208C2D4AA01120833
:10105300C238AB011208C2A8AB011208C234AC01FA
:101063001208C201AF011208C2E5AF011208C2683B
:10107300B1011208C29EB3011208C24CB401120896
:10108300C2FCB4011208C23DB7011208C2E0B701A5
:101093001208C227B8011208C2D3B9011208C2E765
:1010A300B9011208C2F1B9011208C219BA01120832
:1010B300C225BA011208C244BA011208C229BC01EE
:1010C3001208C260BC011208C26ABC011208C274D1
:1010D300BC011208C2CFBC011208C219BD0112081B
:1010E300C221BE011208C278BE011208C2C7BF01E5
:1010F3001208C20BC0011208C2B3C0011208C29683
:10110300C1011208C241C2011208C28DC3011208F3
:10111300C28BC4011208C231C5011208C2C1C50184
:101123001208C2D8C5011208C20FC6011208C2199B
:10113300C6011208C223C6011208C22EC601120834
:10114300C24CC6011208C290C6011208C2EDC60104
:101153001208C212C7011208C22CC7011208C2B872
:10116300C7011208C2D5C8011208C242C901120838
:10117300C229CA011208C250CA011208C2C4CA0154
:101183001208C23FCB011208C243CC011208C23974
:10119300CD011208C2E8CD011208C2FBCE0112082C
:1011A300C297CF011208C224D0011208C202D10192
:1011B3001208C23AD1011208C292D1011208C25BCD
:1011C300D2011208C27CD2011208C203D301120851
:1011D300C227D3011208C249D3011208C292D30114
:1011E3001208C2A8D5011208C28FD6011208C24044
:1011F300D7011208C276D9011208C2C6D901120852
:10120300C206DA011208C248DA011208C2A4DA01DE
:101213001208C2D2DA011208C2F6DA011208C24970
:10122300DB011208C277DB011208C2B0DB0112082E
:10123300C205DC011208C26BDC011208C2BFDD016A
:101243001208C2E2DF011208C24FE0011208C2789D
:10125300E0011208C203E1011208C26AE1011208A7
:10126300C2B5E1011208C2D9E1011208C2FDE101D0
:101273001208C258E2011208C273E2011208C22C1A
:10128300E3011208C266E3011208C2F175001208F5
:10129300C22976001208C24A76001208C28C760070
:1012A3001208C2F276001208C2FC76001208C20CC1
:1012B30077001208C24177001208C28A7A00120826
:1012C300C2347C001208C2347E001208C218BF0266
:1012D3001208C25EBF021208C23EC0021208C24018
:1012E300C1021208C243C2021208C2CFC3021208CB
:1012F300C22DC4021208C2EAC4021208C208C602FE
:101303001208C279C6021208C2B5C6021208C20385
:10131300C7021208C20DC7021208C251C70212083F
:10132300C2ADC7021208C248C8021208C2C5C80229
:101333001208C294C9021208C22DCA021208C24D71
:10134300CA021208C283CA021208C2B4CA0212082D
:10135300C275CB021208C285CB021208C2D9CB02D6
:101363001208C2F4CB021208C206CC021208C20F42
:10137300CC021208C269CC021208C2C5CC02120800
:10138300C211CD021208C22CCD021208C25DCD02D9
:101393001208C27ACD021208C286CD021208C2FA1E
:1013A300CE021208C213CF021208C27ACF02120869
:1013B300C28DCF021208C29BCF021208C24FD002C5
:1013C3001208C233D1021208C239D2021208C2C3B0
:1013D300D2021208C2CDD2021208C23AD3021208B4
:1013E300C251D3021208C283D3021208C2BCD30271
:1013F3001208C2E6D3021208C247D4021208C26717
:10140300D4021208C285D4021208C2CBD402120835
:10141300C2F1D5021208C23ED6021208C26DD6022C
:101423001208C2E3D6021208C20BD7021208C24442
:10143300D7021208C252D7021208C2AAD702120850
:10144300C2F9D7021208C238D8021208C268D802F9
:101453001208C294D8021208C29FD8021208C2BD51
:10146300D8021208C27FD9021208C289D90212080F
:10147300C2C4D9021208C2DAD9021208C22FDA0290
:101483001208C243DA021208C251DB021208C26414
:10149300DB021208C279DB021208C21BDC0212084B
:1014A300C29EDC021208C25CDD021208C267DD02C2
:1014B3001208C293DE021208C2AFDE021208C20192
:1014C300DF021208C240DF021208C255DF0212080F
:1014D300C2B7DF021208C246E0021208C291E0025C
:1014E3001208C2E2E2021208C260E3021208C2D585
:1014F300E3021208C2F7E5021208C20FE60212085D
:10150300C212E6021208C21EE6021208C232E60244
:101513001208C23AE6021208C26DE6021208C21DA0
:10152300E7021208C293E7021208C206E802120891
:10153300C2BAE8021208C26FE9021208C28EE902B7
:101543001208C22EEA021208C23AEA021208C2655F
:10155300EA021208C268EA021208C2D2EA021208B8
:10156300C2FAEB021208C2D2EC021208C25DED020B
:101573001208C276EE021208C233EF021208C26CDE
:10158300EF021208C29DEF021208C25BF0021208BA
:10159300C28BF0021208C266F1021208C2FFF10206
:1015A3001208C28AF2021208C23BF3021208C2BE38
:1015B300F3021208C2F0F3021208C231F402120855
:1015C300C20080051208C28280051208C2C28005CB
:1015D3001208C23B81051208C21584051208C2A570
:1015E30086051208C2718A051208C2A98A05120863
:1015F300C2D78A051208C2698B051208C2BD8B05C2
:101603001208C2F08B051208C2198C051208C263B6
:101613008C051208C2E48C051208C2E0D204120839
:10162300C26AD3041208C2DFD3041208C261D4040D
:101633001208C23FD7041208C262D7041208C2BB01
:10164300D7041208C2B9D8041208C223D904120855
:10165300C2F6DA041208C25EDC041208C2E5DC0436
:101663001208C273DD041208C2DCDD041208C22AA8
:10167300DE041208C2EADE041208C213E0041208F0
:10168300C290E0041208C2F6E0041208C239E10471
:101693001208C2DFE1041208C2C0E2041208C2A3A6
:1016A3009E051208C2A69E051208C2269F051208AF
:1016B300C2C69F051208C26CA1051208C28DA105FE
:1016C3001208C2F9A1051208C2FEA1051208C22D13
:1016D300A2051208C2C7A2051208C2D9A2051208A0
:1016E300C2E1A2051208C2F9A2051208C24DA30560
:1016F3001208C23396051208C29396051208C20F48
:1017030098051208C26298051208C2CB9B051208FD
:10171300C2429C051208C2E39C051208C23F9D0504
:101723001208C2A59D051208C2F59D051208C2291B
:10173300E9051208C25CE9051208C2C8E9051208E6
:10174300C2D6E9051208C2D9EA051208C21AEB0586
:101753001208C22BEB051208C2ABEB051208C2F349
:10176300EB051208C2DFEC051208C2A3FE02120841
:10177300C2A5EE051208C2DBEE051208C203F0058E
:101783001208C218E7051208C2F7E8051208C26377
:10179300E3041208C29C9F021208C272E4041208F6
:1017A300C2B6E4041208C2D4E4041208C252E50427
:1017B3001208C28AE5041208C2C2E7041208C2B7BB
:1017C300E8041208C2D2E9041208C264EA04120847
:1017D300C2E9EA041208C2A1EB041208C23DEC04F8
:1017E3001208C28CEC041208C25DED041208C25840
:1017F300EE041208C277A6021208C229F1041208E5
:10180300C25CF2041208C2BDF2041208C217F30448
:101813001208C2B4E4051208C2D7E4051208C2D103
:10182300E5051208C27AE6051208C2BEE6051208EB
:10183300C2FBF5051208C26FF6051208C27FF60552
:101843001208C20080041208C20380041208C2D91D
:1018530081041208C24D82041208C2DB82041208FA
:10186300C29883041208C25584041208C222850454
:101873001208C2DF85041208C20088041208C2BD20
:1018830088041208C27A89041208C20E8A04120854
:10189300C2198B041208C28C8B041208C2CE8D04A9
:1018A3001208C2358F041208C29C90041208C2C3E6
:1018B30091041208C28392041208C24393041208CB
:1018C300C20394041208C2C694041208C270950499
:1018D3001208C21196041208C2D897041208C23320
:1018E30098041208C2CA98041208C2AD99041208D7
:1018F300C2DF99041208C2DB9C041208C27C9D0457
:101903001208C2FA9D041208C266F4021208C2BE8B
:10191300F4021208C266F5021208C295F502120813
:10192300C2BAF5021208C2DEF6021208C2ECF602CF
:101933001208C250F7021208C28EF7021208C2112F
:10194300F8021208C2B8F8021208C207F902120814
:10195300C288F9021208C2F6F9021208C22DFA026D
:101963001208C2B6FA021208C247FB021208C29C4E
:10197300FB021208C2F9FB021208C20BFC02120896
:10198300C21DFC021208C243FC021208C24CFC0234
:101993001208C2A6FD021208C237FE021208C24490
:1019A300AD051208C267AE051208C2C3AE05120820
:1019B300C2DDAE051208C2EEAE051208C2E9B105DA
:1019C3001208C209B2051208C274DF051208C2B9AF
:1019D300DF051208C204E0051208C295E1051208EA
:1019E300C2789E041208C242A0041208C297A0043F
:1019F3001208C218A3041208C27DA3041208C289E4
:101A0300A6041208C2EFA6041208C22FA9041208E2
:101A1300C228AA041208C295AA041208C228AB0459
:101A23001208C2D7AB041208C232AC041208C29324
:101A3300AC041208C2F4AC041208C2DDAE041208EE
:101A4300C2CFB0041208C2BBB3041208C2FDB30470
:101A53001208C260B4041208C272B4041208C2E7C6
:101A6300B4041208C2A3B5041208C2E0B9041208F0
:101A7300C2ABBA041208C24FF8051208C26AF805CD
:101A83001208C24AF7051208C2E0C4051208C2F7D9
:101A9300C4051208C2E7C5051208C22FC6051208FD
:101AA300C24DC6051208C28FC6051208C2E6C60596
:101AB3001208C22AC7051208C27AC7051208C25201
:101AC300C9051208C21DF4051208C245F40512081F
:101AD300C264F4051208C284F4051208C2DEF405D8
:101AE3001208C203F5051208C2B0E3011208C210BE
:101AF300E4011208C287E4011208C22AE6011208AF
:101B0300C2E5E6011208C2B1E7011208C2CAE70141
:101B13001208C22CE8011208C2A7E8011208C20584
:101B2300E9011208C21DE9011208C27DE901120888
:101B3300C207EA011208C220EA011208C2E8EC0156
:101B43001208C28CED011208C2CBED011208C23D8E
:101B5300EE011208C29DF0011208C21AF101120827
:101B6300C2B4F1011208C2D3F1011208C2EBF101B0
:101B73001208C241F2011208C286F2011208C29D84
:101B8300F2011208C23DF3011208C25DF30112080B
:101B9300C2BDF3011208C22EF4011208C2A1F4015E
:101BA3001208C2E5F7011208C212F8011208C2A511
:101BB300F8011208C242F9011208C27EF9011208A3
:101BC300C2E1F9011208C263FA011208C270FB01F3
:101BD3001208C2A1FB011208C2AFFB011208C2D254
:101BE300FB011208C268FC011208C29AFC01120828
:101BF300C2BDFC011208C2F2FC011208C23AFD0187
:101C03001208C256FD011208C2B9FD011208C2F939
:101C1300FD011208C23AFE011208C222F30512089E
:101C2300C233F3051208C2B2F3051208C2488D0588
:101C33001208C2A08D051208C2CD8E051208C20F6C
:101C43008F051208C24E91051208C29D9105120814
:101C5300C2F391051208C26C92051208C28893055B
:101C63001208C2E994051208C20E95051208C27340
:101C730095051208C2F895051208C21ED60312086C
:101C8300C241D6031208C25ED6031208C281D7032B
:101C93001208C200D8031208C26ED8031208C20485
:101CA300D9031208C2BDD9031208C276DA03120897
:101CB300C26FDB031208C23BDC031208C2A6DC03BB
:101CC3001208C262E3031208C29EE5031208C2EDC2
:101CD300E5031208C27DE6031208C2B4EA03120840
:101CE300C275EB031208C276ED031208C2FEEE03BF
:101CF3001208C26AF0031208C201F1031208C2E813
:101D0300F1031208C283F2031208C286F203120817
:101D1300C289F3031208C21BF5031208C262F70358
:101D23001208C27BF8031208C22AFA031208C28EF1
:101D3300FA031208C211FB031208C200800312083F
:101D4300C2E980031208C28981031208C2EC81032D
:101D53001208C2AD82031208C25E83031208C2D9FD
:101D630085031208C24E86031208C2448703120871
:101D7300C2DA87031208C29288031208C2C88C030E
:101D83001208C2D38E031208C2C78F031208C22AD5
:101D930093031208C24994031208C2399503120827
:101DA300C2F295031208C29796031208C22399033D
:101DB3001208C2B19A031208C23D9B031208C29DC6
:101DC3009B031208C2EF9B031208C28F9C031208E5
:101DD300C2809D031208C27C9F031208C200A203A3
:101DE3001208C2C3A3031208C232A6031208C2E038
:101DF300A7031208C2A4A8031208C251A903120818
:101E0300C278AA031208C224BB041208C2C7BB04C7
:101E13001208C25ABC041208C2D5BC041208C23844
:101E2300BD041208C202BE041208C225BF04120870
:101E3300C2CFBF041208C224C0041208C295C00452
:101E43001208C254C1041208C269C1041208C2A90B
:101E5300C1041208C2B8C2041208C2AAC3041208F9
:101E6300C2C4C3041208C2E0C3041208C200C404FB
:101E73001208C20FC4041208C220C4041208C20FFD
:101E8300C5041208C2ECC5041208C209C70412082B
:101E9300C276C7041208C294C7041208C299C704C1
:101EA3001208C2F0C7041208C25FC8041208C28C29
:101EB300C9041208C2D2CA041208C28DCC04120883
:101EC300C2CBCD041208C2DFCE041208C23FCF0436
:101ED3001208C25BCF041208C2C3D0041208C22185
:101EE300D2041208C2B5CD051208C233CE051208BA
:101EF300C271CE051208C239CF051208C2AFCF0591
:101F03001208C250D0051208C25BD1051208C21EC6
:101F1300E2051208C2B3E2051208C2D0E2051208B4
:101F2300C2B1E4051208C2E67E001208C2F77E00C1
:101F33001208C2D27F001208C2EC7F001208C2D678
:101F4300FF021208C211F5051208C221F505120895
:101F5300C23BF5051208C2F8F5051208C29ADC0562
:101F63001208C23DDD051208C259DF051208C2631B
:101F7300C9051208C274C9051208C209CA051208A4
:101F8300C2ECCA051208C255CD051208C2B9FF0337
:101F93001208C272A6051208C2DAA6051208C2FD0B
:101FA300A7051208C24DA8051208C279A805120890
:101FB300C292A8051208C2B0A8051208C263A905F7
:101FC3001208C27CAA051208C23BAB051208C2362E
:101FD300AC051208C29CAC051208C2F0AC0512088D
:101FE300C2FCEC051208C225ED051208C239ED0545
:101FF3001208C281ED051208C2CAED051208C21308
:10200300EE051208C272EE051208C275EE0512083B
:10201300C283EE051208C294EE051208C2FEFB034A
:102023001208C238FC031208C2A2FC031208C2DE63
:10203300FC031208C225FD031208C257FD03120850
:10204300C292FD031208C2BCFD031208C2E2FD03E3
:102053001208C246FE031208C274FE031208C20726
:10206300FF031208C21FFF031208C234FF03120842
:10207300C2E1F7051208C2FEF7051208C20BBA0542
:102083001208C2A6BB051208C2B3BB051208C2E000
:10209300BB051208C211BC051208C26ABC051208AE
:1020A300C2C0BC051208C253BD051208C2D6BD0585
:1020B3001208C265BE051208C258BF051208C26CD9
:1020C300BF051208C27FBF051208C2A1BF051208CF
:1020D300C241FF041208C26EFF041208C29BFF0430
:1020E3001208C2C8FF041208C220D6051208C2474C
:1020F300D6051208C272D6051208C217D7051208F0
:10210300C26ED9051208C291D9051208C2A3D90516
:102113001208C2B1D9051208C2DAD9051208C2F5EC
:10212300D9051208C210DA051208C22BDA05120803
:10213300C2AEDA051208C2EFDA051208C224DB05C3
:102143001208C275DB051208C2CADB051208C2F702
:10215300DB051208C205DC051208C239DC051208CA
:10216300C287DC051208C2A9F6051208C2C5F60526
:102173001208C27AF8051208C247F3041208C29083
:10218300F3041208C2B9F3041208C2D2F30412080A
:10219300C2F2F3041208C25AF4041208C294F404FB
:1021A3001208C2E5F9041208C2A0FB041208C2E235
:1021B300FB041208C24CFC041208C2DBFD04120823
:1021C300C20BFE041208C225FE041208C239FE0423
:1021D3001208C289FE041208C2F2FE041208C207E2
:1021E300FF041208C248F0051208C25FF005120886
:1021F300C286F0051208C2AAF0051208C2D5F0057E
:102203001208C203F1051208C222F1051208C257CF
:10221300F1051208C27DF1051208C26CFF03120812
:10222300C200D2051208C217D2051208C273D30521
:102233001208C2A8D3051208C2D0D3051208C2FDE2
:10224300D3051208C216D4051208C253D4051208C6
:10225300C2D0D4051208C216D5051208C268D50526
:102263001208C29BD5051208C2C1D5051208C2BA0D
:10227300F1051208C2D2F1051208C21CF3051208B7
:10228300C21FF3051208C27DFE011208C21DFF0121
:102293001208C27DFF011208C2C0FF011208C2D892
:1022A300BF051208C2FABF051208C25CC0051208B6
:1022B300C28AC0051208C2B4C0051208C2D8C0053C
:1022C3001208C2FAC0051208C21EC1051208C228AC
:1022D300C2051208C27CC2051208C293C2051208C5
:1022E300C2C3C3051208C2D7C3051208C2F4C3058B
:1022F3001208C211C4051208C223C4051208C24F32
:10230300C4051208C2BAB3051208C27DB905120882
:10231300C28BB9051208C239AC031208C2DCAE0382
:102323001208C25AB0031208C278B0031208C26C72
:10233300B2031208C2B4B3031208C222B4031208D0
:10234300C28FB5031208C2E2B5031208C2F9B7037C
:102353001208C267B9031208C2B4B9031208C2EA69
:10236300B9031208C285BA031208C210BB031208CC
:10237300C22DBB031208C24FBB031208C280BB03AA
:102383001208C2CECC031208C2ECCC031208C280DE
:10239300CE031208C2ABD0031208C226D10312081F
:1023A300C286D3031208C263D5031208C222F805FA
:1023B3001208C2C89E021208C2069D021208C2D2A7
:1023C3009C021208C29F9C021208C2839C0212083C
:1023D300C2B09B021208C20D9B021208C27B9A0272
:1023E3001208C2339A021208C27E98021208C2FE71
:1023F30097021208C2CD97021208C22B9702120845
:10240300C2FD96021208C2A995021208C2179502CC
:102413001208C27A94021208C20594021208C2D3A7
:1024230093021208C21093021208C23B91021208CF
:10243300C2CC90021208C2CBA5021208C211A40298
:102443001208C2C1A1021208C248A1021208C2EFB7
:10245300A0021208C29E90021208C29B90021208A8
:10246300C28890021208C23190021208C27FA002F1
:102473001208C21890021208C2F38E021208C2BDDB
:102483008E021208C2438E021208C256A00212081C
:10249300C2FEEE041208C20E8E021208C2AF8D02F3
:1024A3001208C27E8D021208C2468A021208C206B0
:1024B3008A021208C2FA89021208C25A8902120851
:1024C300C29A88021208C21386021208C2A48302A7
:1024D3001208C26283021208C23682021208C2EBD9
:1024E30081021208C22781021208C26A80021208FE
:1024F300C23A80021208C2F89F021208C200800288
:102503001208C24BE40400000080FBE4738700015F
:1025130000C010240002009910250002009B102621
:102523000002009D10270002009F1028000100A157
:102533001029000100A21084000400A310860001EA
:1025430000A7102A000100A8102B000100A9102CDD
:10255300000100AD102D0008009A062E000100AE08
:10256300102F000100AF1030000100B01031000146
:1025730000B11032000100A20633000100A30634AB
:10258300000100B21036000100A40638000100B3B8
:102593001039000100AC1083000200BE106300017B
:1025A30000BC1064000100AA1065000100AB106DAF
:1025B300000100BD106E000200980643000100B444
:1025C3001044000200B51045000100B71046000298
:1025D30000B81047000800A60648000100BA104BD7
:1025E300000100BB1004000100C110A1000100C4E0
:1025F3001037000100C31088000100C2103C000125
:1026030000A50600000000000000013636010100AD
:102613000102010001030100010401060605020095
:1026230000070100340801000F090401010D010036
:10263300FF0E08000017020000190100FF1A010035
:10264300011B0100FE1C0100081D0200001F010008
:102653000120010001210200002301000F240200D8
:10266300002601000127010008280200FF2A0100BB
:10267300072B0102402C0100002D0100012E010057
:10268300012F0100FF30010B1C310800003A01004B
:10269300083B01000F2F01000003027102300160AB
:1026A30002110270020102020202028002100261A0
:1026B300023A0041006302730272026202430200A3
:1026C3000213023800000200020402120200020098
:1026D300020002000204020402370037003C0244F5
:1026E3000200023900000200026502000235028185
:1026F300020002050282028302000203007100301D
:1027030001600011007000310220035004800010AA
:102713000061000000140063007300720062004354
:102723000000001300060000000000040012000077
:102733000000000000000004000400370037003CE4
:1027430002440000000000000000006500000035A6
:1027530000810000000500000083000000030471F5
:10276300040204600411047004020402040104025C
:102773000410046104000414046304730472046207
:1027830004430400041304060400040004040412B4
:102793000400040004000400045104640000040065
:1027A300040004440400040004000400046504005D
:1027B3000435048104640005040004830400040157
:1027C3000371030103010301030103010322030254
:1027D30003010310030003000300030003000300CD
:1027E300030003420300032403060300030003045E
:1027F3000312032503230325032303040304030014
:1028030003000300034403000300032303000365E1
:1028130003210035038103000305030003000300C4
:1028230003010171010101010111010101310101E3
:102833000101018001100161013B00140063017378
:10284300017201620143010001130106013D0135DB
:102853000004011201000100010001000104010450
:1028630001330133013C0144013201360000010010
:102873000165010001350081010001050182018329
:102883000100010000771D1300171D0100771D02D1
:10289300009F1C0300A51C0400AB1C0500B11C0613
:1028A30000BD1C3000DB1C3100D51C3200E71C339B
:1028B30000ED1C3500F31C3400F91C3600FF1C111D
:1028C300000B1D1400111D1500CF1CFFFF00003667
:1028D300000100060000000F0000000000000000DF
:1028E300000000000003FFFF00000403FFFF0000DF
:1028F300FFFF0FF4010005C4040320000100150BC2
:10290300000000000000000003010F01910F06BB4F
:102913000F08B50F0BD30F100D0F02970F05A90F5B
:10292300079D0F0C730F0D850FFF00000B143B1455
:1029330011141714351429142314411447144D1476
:1029430059141D140514FF1300160F00000B150B6B
:10295300020002220F320000060000000000000007
:10296300008967452301EFCDAB5A6967426565412D
:102973006C6C69616E63653039FB140D151315D5E5
:10298300131915CF13DB13140AE5D5C5B5A5A59502
:10299300858575650F13091345134B133F13F71201
:1029A3005B1579157F1561156D15671500011916EE
:1029B3001816161523030000034948424D1817251E
:1029C300050200383C3E363B3B352B432C3030165A
:1029D300181920231A1C1E30303017181921301BE8
:1029E3001D1F300C0E020B040B0A0708000F4F15B6
:1029F3001F15251531152B152F14531473155F143B
:102A030065140204020101010109021B13211315BC
:102A130013511300BE040A271339131500FA068A4B
:102A2300290A007F00E8030E000C001E00000000CE
:102A330000090001300C0A1808090004000CFF0803
:102A43000F0508040810030F74F612044D74FF12E7
:102A5300098E851882851983E4F0858208858309A8
:102A63007808120916750801750900780812091605
:102A7300122A9F740412092974010245F274F61292
:102A8300044D8C088D09780812091675080B750911
:102A9300007808120916122A9F0245F0122AC8125A
:102AA3001A652274F612044D8C088D0978081209F0
:102AB3001675080B7509007808120916122AC81230
:102AC3001A6B0245F0EA75F00BA4FAA8F075F00B47
:102AD300EBA428FBEAFCEBFD7A237B0022C082C037
:102AE300838A828B83E0D2E7F0121BD9023F46C070
:102AF30082C083790012306E12657DC082C08390DC
:102B030003381252FBD083D082C3E09CA3E09D50D4
:102B13000C126C51FAA3E0122B23600109023F4609
:102B2300FBEA75F00BA4FAA8F075F00BEBA428FBF5
:102B330090033AE02AF8A3E03B8882F583E0540F40
:102B43002274F712044D890812306E123114ACF05E
:102B530075F00BE9A42CF990033AE028FEA3E039C1
:102B6300FF7401650860067402650870208A828B11
:102B7300831231001244E674026508701B122FBFE2
:102B830012314770138E828F83E4F0800BEA2403A3
:102B9300FCEB1230E21230EEEEFAEFFB120C3D02C8
:102BA300431A74F412044D12757879008E828F8360
:102BB300E06076890A890B8065E50A75F00BA4FA53
:102BC300A8F075F00BE50B122B307046E50A75F093
:102BD3000BA4F8AAF075F00BE50B1231268E828F49
:102BE30083E0850882850983123208850882850976
:102BF30083A31244E6EE2403FCEF1230EB12419B55
:102C0300125FF7AA08AB09120C3D79019003381241
:102C13005A04E50A2401F50AE50B3400F50B122FDB
:102C2300C7E50A9AE50B9B409002479674F5120498
:102C33004DEAFEEBFF740B120B761241A0750A01ED
:102C4300EC4D602BEC127594ED12657D1244DE7928
:102C530001120C49E5084509606F850882850983DF
:102C6300A31275827902AA08AB09120C49805AE5AE
:102C7300084509602B126581124C4312419C1231A5
:102C830031700CEEFAEFFB120C4FE9F50A80CBEE34
:102C93002403FA12306970317903EEFAEFFB80CA2C
:102CA3008E828F83A3E064FE7003A3E0F4700BEEC7
:102CB30024030A0A0A123069700CEEFAEFFB120CB5
:102CC3004FE9F50A8003750A00A90A7F030206ABE0
:102CD30074F712044D90033812444DEA4B602FEA07
:102CE30075F00BA4FAA8F075F00BEBA428FBEAFE31
:102CF300EBFF1219D590033A12444D90033A125840
:102D0300496012EEFCEFFD7900121915800790035C
:102D13003AE4F0A3F002431A74F612044DE4F50802
:102D2300F50978081209169003381252FBEC75F076
:102D33000BA4FCA8F075F00BEDA428FD7A237B000F
:102D4300121A597402120929E9FE6003120C670270
:102D5300679074F712044D7E007F00800AEEFAEF4D
:102D6300FB120C2B123C30122DDD40F102431A747E
:102D7300F712044D7E007F00801212304CFCA3E05A
:102D830039FDEEFAEFFB120C37123C30122DDD4009
:102D9300E902431A74F712044D7E007F008033EE7C
:102DA300F8EFF9E875F00BA4F8AAF075F00BE9A4B5
:102DB3002AF990033A125D1288828983E0A2E750D0
:102DC3000EC2E7F0AC82AD83EEFAEFFB120C3112C8
:102DD3003C30122DDD40C802431A900338124FB322
:102DE300C3EE98EF9922C082C083EC4D6005122296
:102DF3009980097C087D007900121915023F4674F9
:102E0300F612044D7900EA4B6018780088081268BE
:102E1300C4EB126C4D60047901780808E8C3940888
:102E230040EA0245F574F712044D74F312098EEC6F
:102E3300FEEDFF851882851983E4F004120B76EA10
:102E4300F0A3EB125D7D7403120B76AC82AD83EEBF
:102E5300FAEFFB120C79EEFAEFFB120C7F0243152B
:102E630074F712044D74F312098EECFEEDFF85180E
:102E730082851983E4F0EAFCEBFD7403120B7612EE
:102E830032017401120B761244DA8E828F8312445C
:102E9300E674FE68700374FF696004790180027947
:102EA3000002431574F712044DEAFEEBFF122F05DF
:102EB3007014122F108E828F83E0F4F88A828B8332
:102EC300E058F0120C3DA90802431A74F712044D9E
:102ED300EAFEEBFF7508008E828F83E06022122FDB
:102EE30005701D122F108A828B83E08F838E82F8E8
:102EF300E058700CE0F88A828B83E048F0120C3DB6
:102F030080C4120C43E9F508740165082212758D1B
:102F130012311812305AFAA3E039FB2274F4120466
:102F23004D8A088B097C007D00122FBF1230EE12F0
:102F3300307F12757F7900850882850983A3E06459
:102F4300FE7003A3E0F460717E007F008062EEFAFE
:102F5300EF122B236057EEFAEFFBEA75F00BA4FA9E
:102F6300A8F075F00BEBA428FB90033AE02AF50ACE
:102F7300A3E03BF50B850882850983A3125CC38517
:102F83000A82850B83A3E06A7003A3E06B701EE5DE
:102F93000A2403FAE50B12306A700AE50A2403FCDB
:102FA300E50B1230EB1230737901126593123C304A
:102FB300122FC7EE9AEF9B4095024796EA24030A25
:102FC3000A0AEB2290033812616AC32274F31204D3
:102FD3004D8A088B098A828B83A312758212306E05
:102FE30012757F750C00122FBF12306A70547E0069
:102FF3007F00804912304CFAA3E0398A82F583E0DE
:10300300540F603612304CF50AA3E039F50BE50A8C
:103013002403FCE50B1230F53400FB122293E96420
:10302300017017850A82850B83A312622BA31244B6
:10303300E6123073750C01126593123C30122DDDCC
:1030430040B2A90C7F050206ABEEF8EFF9E875F084
:103053000BA4F812305A22AAF075F00BE9A42AF94E
:1030630090033AE02822EF12314122127593EB22AA
:1030730012307F12658EEEF0A3EFF022E508127591
:1030830094E5092274F512044DEAFEEBFF8E828F5C
:1030930083A31275827C007D00EE24030A0A0AEFE3
:1030A3001230EEEEFAEFFB120C43E9F50A740165F8
:1030B3000A702912758D123114AAF075F00BE912FA
:1030C3003126850882F583123100123131700DE506
:1030D300082403FCE5091230E21230EE022CCC3452
:1030E30000FDEE2403FAEF221230F53400FB120C3C
:1030F30079223400FDE5082403FAE50922A31231FD
:10310300052212310922E0F8A3E0F98E828F83A30E
:1031130022123118223400F583124FB7E875F00BF1
:10312300A4F822123060F508A3E039F50922E8F08B
:10313300A3E9F0E5082403FAE5091231412212312B
:10314300476401223400FB120C7FE92274F312045A
:103153004D74E612098E127578750C0175080075A9
:103163000900750A00750B00851882851983E4F040
:10317300EE2403FCEF3400FD7403120B76123201CC
:10318300E964017023740B120B761244DE7401128E
:103193000B76125CC77003A3E069605185188285C2
:1031A3001983858208858309740D120B76E4123224
:1031B30008740E120B761244E6740D120B76AA8273
:1031C300AB83120C9DE96401700B740D120B7685B1
:1031D300820A85830B780A120916AC08AD09EEFA48
:1031E300EFFB120C557402120929E9F50CEEFAEF04
:1031F300FB120C97A90C741A1209290230471234D6
:10320300D4120CA322124448124FB322C082C083AB
:103213007800790080031232FF122FC7E89AE99BE6
:103223005029E8FAE9FBEA75F00BA4FAACF075F063
:103233000BEBA42CFB90033AE02AFCA3E03B8C822B
:10324300F583E0540F70CF790080027901023F4685
:10325300C082C083902A1E125009EC75F012A4FCA0
:10326300A8F075F012EDA428FD79FF7A847B07128C
:103273001915023F4674F712044DE9FEEAFF7A007E
:103283007B00780079008028E8FCE9FDEC75F012FA
:10329300A4FC85F00875F012EDA42508123714C3B9
:1032A3009E400AE0FCEFC39C4003123B051232FF31
:1032B30012370840D302431AC082C08378007900D2
:1032C30080031232FF1232F3501F123718F470F2D8
:1032D300E875F012A4F8AAF075F012E9A42AF974BB
:1032E3008428FA740739FB80047A007B00023F4686
:1032F300902A1E1239DDC3E89AE99B22E8240108CB
:10330300E93400F92274F012044D74F312098E8A21
:103313000A8B0B8C0C8D0D8908EC450D6016AA0CDD
:10332300AB0D120CF18A0E8B0FAE0EAF0FEE4F608A
:10333300030233C6120CC78A0E8B0FA80EA90FE81F
:10334300FEE9FFE849607C902A3212342860227437
:1033530003650860067404650870167A047903121D
:103363000CC1902A3212343F40077A007B000234AA
:1033730025902A30123428601B7401650860067496
:10338300026508700F7A027901120CC1902A30127B
:10339300343F50D68518828519837401F0120B7659
:1033A300125FF7AC0CAD0D7403120B761234CD74AF
:1033B3000B120B761241A81249CCE4125FDF1212F2
:1033C300138004EE4F604A780074FF2508C3940409
:1033D300500278048E828F83125FF78E828F83A3CD
:1033E300A3A3A3E508F0E88E828F83A3A3A3A3A3DB
:1033F300125FFF1202811239FA8E828F83A3A3A375
:10340300A3A3A3A3F01239F1120B53126577120B86
:103413005F12342D4005901012E4F01210E7EEFA1B
:10342300EFFB024FBD12611949227A047900120C95
:10343300C1902A1E126C33EA98EB99221234587504
:10344300832A75821EE493C398F8A3E49399F9C37E
:10345300EA98EB9922E493F8740193F92274F21237
:10346300044D74F312098E8A088B09ECFEEDFF7587
:103473000A00EEFAEFFB120CF18A0C8B0DA80CA9D3
:103483000DE849603E88828983E065087004A3E003
:103493006509602F88828983A3A3A3A3E0C394054E
:1034A30050211264258518828519837401F0120B4B
:1034B30076126429EEFCEFFD7403120B761234CD01
:1034C300750A01A90A740D025ABB1234D4120CAF47
:1034D30022AA82AB83120C79851882851983AA826A
:1034E300AB832274F612044D123522600FA3A3A3FB
:1034F300A3E014C3940450047901800279000245C7
:10350300F574F612044D123522600FA3A3A3A3E0B2
:1035130014C3940250047901800279000245F51224
:103523000CEB8A828B83E58245832274F612044D69
:10353300123522600BA3A3A3A3E0700479018002D8
:1035430079000245F5C082C083EAFCEBFD7A007B7B
:1035530000023F43C082C0837C007D00023F43746E
:10356300F412044D74F312098EEAFEEBFF8C0A8DFC
:103573000BC3EC94F8ED94FF4007EE4F7003023653
:103583001B750800750900802E85188285198374C0
:1035930001F0123C58120B76123C6660137403124E
:1035A3000B76AC82AD83EEFAEFFB122293E97049FE
:1035B300E50824011237B4902A1EE4126121E508BC
:1035C30098E509995052E50875F012A4F8AAF07528
:1035D300F012E509A42AF9126C6660D4EE4F70A9C3
:1035E30074FF650A700474FF650B60C4123C486580
:1035F3000A7004A3E0650B70B7E50875F012A4F533
:1036030008A8F075F012E509A428F50974842508C3
:10361300FA74073509FB80047A007B000247917432
:10362300F412044D74F312098E750800120CF18A1A
:103633000A8B0BAE0AAF0BEE4F602A8518828519F1
:10364300837401124442F8A3E0F9740B120B76124F
:10365300466F120C917C127D0079FFEEFAEFFB129C
:10366300191575080112342D50099010127401F0C8
:103673001210E7A90802479174F712044DE9FE748A
:10368300FE6A700374FF6B78007900700580521234
:1036930032FF123708504AE8FCE9FDEC75F012A43A
:1036A300FCAFF075F012EDA42F123714F460E0E8CC
:1036B300FCE9FDEC75F012A4FC75F012EDA42FFDEE
:1036C30074842CF58274073DF583E06A7003A3E0EC
:1036D3006B70BC800912371814C39404401712325C
:1036E300FF1232F35018EE70EC12371864016005C4
:1036F300E0640370E9123C39FAA3E0FB80047AFE2C
:103703007BFF02431A902A1E12500DC3E89CE99DC9
:1037130022123B3A22E8FAE9FBEA75F012A4FAAC6A
:10372300F075F012EBA42CFB74882AF58274073B26
:10373300F583E022120D03023F46C082C083790164
:1037430080F274F012044D8A0A8B0B7A0479011209
:103753000CC18A0C8B0DEA450D603EEAC333FAEBCC
:1037630033FB1219D58A088B09AE08AF09EE4F60F7
:10377300237AFE7BFF120D0974FE6A700374FF6BDC
:10378300601B85088285098312444DE508240212D3
:1037930037B480E1750C0080047E007F00850A82C7
:1037A300850B83E50CF0EEFAEFFB024FC2E508242C
:1037B30007F508E5093400F50922C082C0837A00C1
:1037C3007B008003123B05123800502A123B24F47D
:1037D30060F2EAFCEBFDEC75F012A4FC75F012ED5F
:1037E300A428FD74892CF58274073DF583E05960A4
:1037F300D3123B0E80047A007B00023F46902A1EC0
:1038030012500DC3EA9CEB9D2274F612044DE4F5AD
:1038130008F5097808120916902A1EE493F508742E
:103823000193F50974037808120A59123843121ADE
:10383300597402120929E9FE6003120D21026790EF
:10384300E5082402FCE5093400FD7A227B0022749A
:10385300F612044D74FE12098E851882851983E4CD
:10386300F0A31244CC8582088583097808120916CF
:1038730075080275090078081209167C007D007A24
:10388300227B00121A65740412092974020245F29C
:1038930074F112044D74DF12098E85188285198321
:1038A3008582088583097808120916750802750947
:1038B3000078081209167C007D007A227B00121A18
:1038C3006B7404120929E960030239CB902A1E1292
:1038D30039DD1244D4C3EA98EB9950030239CB750E
:1038E30008000239C0740F120B7685820A85830B98
:1038F300780A120916750A08750B00780A12091658
:1039030085080A7403780A120A59E50A2402FCE5B9
:103913000B12384A121A6B7404120929E960030264
:1039230039BE7411120B76E0F47003A3E0F4700354
:103933000239BE7402120B767401F07411120B7605
:103943001244DA740D120B761244E67402120B76EB
:10395300AA82AB83120CA9E960619003791252FB2E
:10396300740F120B76125CC3121213E50875F01272
:10397300A4F8A9F0748428FE740739FF740F120B9E
:1039830076A982AA83890C8A0D750E00780C120918
:10399300127C081239E512092912600412028112FD
:1039A30039FA1239F1120B53126577120B5F123485
:1039B3002D4005901012E4F01210E7050885080A5F
:1039C300126C2750030238E8851882851983E0F9C1
:1039D30074211209297F070206ABE493FA74019359
:1039E300FB227D00EEFAEFFB121909740322126524
:1039F30088E4F090808222E88E828F83A3A3A3A31E
:103A0300A3A3A3A3123A1C7401123A1CA3F0EE243D
:103A13001012658BE4F0A3F0221249D8A3A3A322CA
:103A230074F412044D74FE12098E8518828519836D
:103A3300E4F0A3F0FE8067EEF8EFF9E875F012A466
:103A4300F8AAF075F012E9A42AF9748428F50A7427
:103A53000739F50B780A12091675080875090078F5
:103A6300081209168E088F0974037808120A59126E
:103A73003843121A657404120929850A82850B8357
:103A8300A3A3A3A3E0F4600F851882851983E02420
:103A930001F0A3E03400F0EE24010EEF3400FF90B8
:103AA3002A1E12720D40908518828519838582081B
:103AB30085830978081209167508027509007808C4
:103AC3001209167C007D007A227B00121A657404A9
:103AD3001209297402024793C082C0837A007B00D3
:103AE300800419123B051238005010123B24C39472
:103AF3000550F0E970EC123B0E80047A007B000263
:103B03003F46EA24010AEB3400FB22EA75F012A4D3
:103B1300FA75F012EBA428FB74842AFA74073BFBB2
:103B230022EAFCEBFDEC75F012A4FCA8F075F01290
:103B3300EDA428123B3A22FD74882CF58274073DCC
:103B4300F583E02274F712044D74F312098E7E009C
:103B53007F00023BECE50875F017A4F8A9F0126E9C
:103B6300C7FAA3E0FBEEF8EFF9E875F012A4F8AC9E
:103B7300F075F012E9A42C123C476A7003A3E06BC2
:103B8300603FE50875F017A4F8AAF0EA126EC6F8CC
:103B9300A3E0F97401120B76E0687003A3E0696097
:103BA30020E50875F017A4F8EAF9740028FC7409F5
:103BB30039FD7403120B76AA82AB83122293E96058
:103BC30014E50875F017A4F8A9F074FE28FA740830
:103BD30039FB12121F0508902A37E493F8E508C34E
:103BE300985003023B58123C30902A1E12720D501B
:103BF30039EEF8EFF9123C39F47003A3E0F460E610
:103C03008518828519837401F0EEF8EFF9E875F0F1
:103C130012A4F875F012E9A42AF9123C58120B7693
:103C2300123C6660C175080080AD024315EE2401A5
:103C33000EEF3400FF22E875F012A4F8AAF075F035
:103C430012E9A42AF9123C4C22748428F5827407E1
:103C530039F583E022748628F582740739124FB14F
:103C6300740B22E8F0A3E9124677120CA9E922C0EB
:103C730082C08390034574A3F0A3740FF0023F4600
:103C830074F712044DEAFEEBFF90037BE0640860D7
:103C93001BE0640460168E828F83E054036401701A
:103CA3004812419B124AC2E06406703D8E828F83A4
:103CB300A3A3E064FE7003A3E0F4602D8E828F83E0
:103CC300A3A31244DA90036CE0687003A3E0697065
:103CD3000BEE2415F582EF126C4D600812105DE9AE
:103CE300F508800812106380F67508C2EEFAEFFB40
:103CF3001219DB022EC974F412044D8A088B098A47
:103D0300828B83E0F8A3E0FAE82AFAE43400FB129A
:103D130019D58A0A8B0BAE0AAF0BEE4F6063850889
:103D230082850983E0FC7D0079001219158E828F4C
:103D330083A3A312758212109F8E828F83A3A3A3E2
:103D4300A312444D850882850983E0F8EE28F8EF35
:103D530034001244E2850882850983A3E0C0E0EEC3
:103D6300240D12657AD0E0F01210B1EE240E126524
:103D73007AE9125C24E0C0E0EE241112657AD0E007
:103D8300F0EEFAEFFB02479674F412044D74EB1253
:103D9300098E8A088B098C0A8D0BE9FE90037BE060
:103DA30064046005E06408700479C2802EA3780877
:103DB300120B37EE90038212401B120B377405125D
:103DC3000B76E9F07404120B767401F07407120B8E
:103DD30076E4F090037B7402123EC374150247939A
:103DE30074F612044D74EB12098EEAFEEBFF1258BF
:103DF300466003023E877A077B001219D590033D84
:103E030012444D12584660788E828F83120B539062
:103E1300033E124AC5120B5F127446C0E0123E9372
:103E2300D0E0F0EE2405FAEF3400FB8A088B098A10
:103E330082F583E0C0E0123E8ED0E012478DE0C0F1
:103E4300E0123E8EA3D0E01244C1120B53851882B8
:103E5300851983120B5F88828983E0C0E0740512A1
:103E63000B76D0E0F0850882850983E0C0E0740416
:103E7300120B76D0E0F07407120B76123EC2800666
:103E830079108002790174150245F2123E93A32240
:103E930090033DE0FAA3E0F5838A82A3A3A3A322C0
:103EA300C082C083125846600D90033D1261589042
:103EB300033DE4F0A3F0120FCD1211BF023F46E41D
:103EC3001246771222C92274F712044DE990033C7B
:103ED300F07A807B009003C6E0F9121AAD120D6FE1
:103EE300790002431AC082C08390033CE07003123E
:103EF3001D05120D6F804CC082C08390033CE0907F
:103F030010117004E4F0802D7401F090033CE0F490
:103F130060237C41E0C394415002E0FCECF8E0C331
:103F230098F0EC75F0E8A4CCA8F075F003A428FD94
:103F33007A801250157A117B1079411222B18003D5
:103F4300120CF7D083D0820208BF74F712044D7CA1
:103F5300FE7DFF120D7B02431A74F212044DEAFE3A
:103F6300EBFF8C088D09890A90037BE06408706C71
:103F7300120CF18B0DEA450D600479C5806074FE67
:103F83006508700474FF6509701C7402550AF91200
:103F93000E838A088B0974FE6508700474FF650933
:103FA300700479C78038E50AA2E1500CA2E35004FB
:103FB3007904800E7903800AA2E350047902800217
:103FC3007901EEFCEFFDAA08AB09120CCD8B09EACF
:103FD30045096004790080067910800279C2025A8B
:103FE300BE74F412044D74EB12098E8A088B098C8B
:103FF3000A8D0B90037B740112401B120B3774055F
:10400300120B76E9F07404120B767403F074071242
:104013000B76123EC2023DDE1244CC78082274F7BE
:1040230012044D7C01120D8D02431A74F212044DD9
:1040330074FC12098EE9851882851983F0EAFEEB78
:10404300FF8C0A9003791252FB120FC18A088B0965
:10405300EA4509700579CA0241968A828B83A3A334
:10406300A3A3A3A3A3E064FE7003A3E0F470057904
:10407300C3024196900379125CC31212258508820C
:10408300850983A3A3A3A3A3A3A3A3A3A3E004904A
:10409300038C1242F97402120B767402F014120BA1
:1040A30076AA82AB831211238A0C8B0DAE0CAF0D53
:1040B300EE4F700302418D12419B124C377406F090
:1040C300A3A882A983900366126195124F90F0EE24
:1040D300241312657A7401125FD77440F0A3E412BB
:1040E3005C1DA3A31241A81244E6EE241112657AC3
:1040F300E50AF0EEFAEFFB120D45E9FE600302411B
:104103008F90037B7409F01237B0AA08FB794B1226
:1041130022B18508828509831242EB1244E690039B
:104123006EE0F8851882851983E068600CE09003DF
:104133006E12467379E11222B190109D1244DA9007
:10414300109FE0687003A3E069601A90033F124474
:10415300E690109F125CC31210C990109F1252FB7D
:104163007A011250157A007B049003C6E0F9121A03
:10417300AD90109F1241A074027808120A59AC083E
:10418300AD09FA7B0412501780027E10900593E468
:10419300F0EEF97404025ABBEE12658922E0F508C9
:1041A300A3E0F509221241AC22123109A32274F5CE
:1041B30012044D74E212098E851882851983ECF07E
:1041C300A3EDF0EAFEEBFF89087429120B76E0F504
:1041D30009742C120B76E0F50A90037BE06404600B
:1041E30005E06408700579C20242E3742A120B7673
:1041F300E064FE7003A3E0F4700579C30242E39028
:10420300037B740312467379501222B1742A120B82
:1042130076AA82AB83794B1222B1851882851983E2
:104223001242F21244E6E50890036EF0742A120B70
:10423300761242EB1244E6E5099003661242F974E2
:10424300CE55094480C0E07412120B76D0E0F074AE
:1042530001250A90038CF0740F120B767402F0742C
:104263002A120B761244DA7407120B76E8F0A3E9EC
:104273001244537410120B761244E67405120B7633
:10428300E508F0741B120B76E4F0900381740FF0D1
:104293007A817B0379541222B1900380740FF07AF0
:1042A300807B0379471222B1900380E0C3940F50BF
:1042B300237405120B76E0C0E07402120B76D0E093
:1042C300F07404120B767401F004120B76AA82AB1D
:1042D300831222D57405120B76AA82AB831222B7FE
:1042E300741E120929022CCE124FB390036F2212AF
:1042F3004FB390037922F0EEFCEFFD7A8D7B03122E
:1043030022992274F712044DEB900383F0120FAF3E
:104313008005740D1209297F010206AB74F712049C
:104323004D74E912098EEAFEEBFF7508008E828F49
:1043330083A3A3A3E0C0E07406120B76D0E012447B
:1043430042C0E07408120B76D0E0F07409120B76C9
:1043530074011244BCF8A3E0F9E849600D8E828F22
:1043630083125CC3120C7FE970467407120B76E468
:10437300F01210997404120B7612444D90037BE0F3
:104383006404700E1210A57402120B76EAF0A3EB0C
:10439300800B7402120B7674FDF0A374FFF07402A9
:1043A300120B76AA82AB83121105E9F50802443B8E
:1043B300851882851983AC82AD838E828F83125CCC
:1043C300C3120C8B8E828F83A3A3A3A3E0702474E8
:1043D30007120B7674011244537402120B761244C3
:1043E300E68E828F831244DA7404120B76E8F0A30C
:1043F300E980AA1244D4740A120B761244E67414A8
:10440300120B767401126ABAE0C0E07415120B76CF
:10441300D0E0F07416120B76E41244BCFCA3E0FD6A
:10442300740C120B76AA82AB83122299740A120BB4
:1044330076AA82AB83121BC1A90874170243171211
:104443004448A3E0221244C1A322EAF0A3EBF022E2
:104453001244C7F8A3E0F92274F712044D74F8125A
:10446300098EEAFEEBFF790090037BE06408704459
:1044730085188285198374FDF0A374FFF0121099D7
:104483007402120B7612444D7405120B76E4124437
:1044930048E0C0E07404120B76D0E01244BCC0E0E4
:1044A3007406120B76D0E0F07407120B76E4124612
:1044B3007312110574080243171244C1E022F08EEF
:1044C300828F83221244CCE022F0851882851983DF
:1044D30022851882851983124FB322E0F8A3E0F9ED
:1044E300126588E8F0A3E9F02274F112044D890BF8
:1044F300ECFEEDFF750E00750A00E92479602824AF
:10450300FC607924F3601324FC601514603E14608E
:10451300030245CB90037B0245E59003690245E521
:1045230012120DEA0245E6750AC11212198A088BA6
:1045330009EA450970030245EB750A007808120978
:10454300127C171239E51209290245EB784E790DD1
:104553007C007D00801688828983E064FE7003A35B
:10456300E0F46002050E12756612756F902A2E1222
:10457300622240E28E828F83E50E806B750AC175DD
:10458300084E75090D7C007D008008050E1237B0BA
:1045930012756F902A2EE4126121EC98ED99504820
:1045A300850882850983E064FE7003A3E0F460DD7F
:1045B300850E0CEA650C7001EB70D0750A00780863
:1045C3001209127C07024546747F250BC3941E40D3
:1045D30005750AC98012890874D71268C574021256
:1045E300657DE08E828F83F0A90A0239D8740412A4
:1045F30009297F020206ABC082C08390034D745326
:10460300F0A3740EF09003F37465F0A37411F090AB
:1046130003517489F0A3740EF09003537453F0A301
:10462300740EF0900355748FF0A3740EF0023F469E
:1046330074F412044D74F912098E8A088B098C0ADA
:104643008D0B8518828519837808120B3774041231
:104653000B76E9F07405120B76E4F07406120B7610
:10466300E4124673120D577407024793E8F0A3E967
:10467300124677221244CCAA82AB832274F412042A
:104683004D8A088B098A828B83126596EE4F7003DD
:1046930002478B90031212584960158A828B83A3B9
:1046A300A3E0F9EEFAEFFB900313124AC512250EAD
:1046B3008E828F83A3A3A3A3A3A3A3A3A3E06402D4
:1046C30070748E828F83A3A3A3A3A3A3E054027069
:1046D3000302475D850882850983A3A3E064E9603B
:1046E300798E828F83A3A3A3A3A3A3A3A3A3A3E0EE
:1046F30070149010B4E0048E828F83A3A3A3A3A3AA
:10470300A3A3A3A3A3F08E828F83A3A3A3A3A3A393
:10471300A3A3A3A3E01412478DA3A3A37404F0904F
:1047230010B5125FD1E8F0A3E91270AA8B0BEA452A
:104733000B7003126A888E828F83A3A3A3A3A3A300
:10474300A3A3A3E0640260128E828F83A3A3A3A317
:10475300A3A3A3A3A3E06406702E8E828F83A3A3D7
:10476300A3A3A3A3E0A2E0501F850882850983A326
:10477300A3E0F9EEFAEFFB1223C58E828F83A3A386
:10478300A3A3A3A3E054FEF080091249D422740D1D
:104793001209297F040206AB74EC12044D74DD1276
:1047A300098EEAFEEBFF8C088D097437120B7678BD
:1047B3000C120B19750A007405120B76AC82AD83CB
:1047C300120BD17412120B76E070087415120B766B
:1047D300E060207405120B76E0A2E6501E8E828FF5
:1047E30083A3A3A3A3A3A3A3A3A3125CC3121141F3
:1047F300E9600879031222810249BA7405120B7623
:10480300E0540C64047005750B018003750B00E024
:10481300A2E55035750A01E50BA2E0402C12109F6A
:104823008A108B11A810A91112419BE0687003A391
:10483300E06960157405120B76127589125CBF125C
:1048430023DDE96004790480AC7405120B76E0A2E1
:10485300E650227406120B76E054037018740512A6
:104863000B76E0540C640C600CE0540C6408600597
:1048730075100180037510007405120B76E0540364
:10488300F8740268700C127589125CBF120BE30294
:1048930049BA740168703AE510A2E050031249C2A4
:1048A3007405120B76A882A9837403120B76E8F0C1
:1048B300A3E9124FA78518828519831249CCE0C05A
:1048C300E07402120B76D0E01246731224E502491B
:1048D300BAE860030249BA900363E0640170108E82
:1048E300828F83A3A3A3A3A3A3E070030248487406
:1048F30022120B767402124FA7741A120B7612440B
:10490300E6E510A2E050087405120B761249C2E5E1
:104913000BA2E0506AEE240FF582EF126C4DC0E05B
:104923007417120B76D0E0F09003141258497003F9
:104933000249BA12109F8A128B13A812A913741A70
:10494300120B76E0687003A3E069706B780C1209B0
:104953000E780A12091A7808120916A910740C1293
:104963000B76AC82AD837421120B76AA82AB839053
:104973000314124AC212250E7407120929803878CB
:104983000C12090E780A12091A78081209169003F4
:104993007912076AEE2412F582EF12697B742312EF
:1049A3000B76AC82AD83740E120B76AA82AB8312A4
:1049B30023B9740912092974231209290270751283
:1049C3007589126166120BD722E8F0A3E91249D464
:1049D300221249D822F08E828F83A3A3A3A3A3A379
:1049E3002274F712044D121B9702431A74F7120430
:1049F3004D121BA302431AC082C083121B9D023FA8
:104A03004674F712044D121BA902431A74F71204D9
:104A13004D7409120B76E0F508780812091A121B77
:104A2300B57401024317C082C083121BC1023F4603
:104A3300C082C083121BC7023F4674F712044D1293
:104A43001BCD02431A74F712044DEAFEEBFF8908EB
:104A53007401650870147900120ECB902A42E49316
:104A6300FC7900EEFAEFFB120E4102431A74F412C2
:104A7300044D74F912098EE9FE8A088B098C0A8D9C
:104A83000B7413120B76125CC39005E11258496044
:104A930027EE851882851983F07401120B76780846
:104AA300120B37EAF8EBF97405120B7612466F9086
:104AB30005E1124AC212250E02466AFB90034FE03B
:104AC300F8A3E0F58388822274F712044D90101442
:104AD300E0F97E00800B126C39540D6401700119EA
:104AE3000E124CC55003E970ED02431A74F7120419
:104AF3004D901015E0F97E00800B126C39548D64D3
:104B0300817001190E124CC55003E970ED02431A6E
:104B130074F212044D890BE975F006A4240CF50810
:104B2300E5F01237B88A0CE508250CFAE5093400DC
:104B3300FB1219D58A0C8B0DAE0CAF0DEE4F60270F
:104B4300AC08AD09790012191512419BE50BF0EE83
:104B53002508F8EF3509F98E828F83A3A3A3A3A3B6
:104B6300A3A3A3A31244E6EEFAEFFB025ABE74F624
:104B730012044DEAFEEBFF120E1D901013E0F8E94C
:104B8300C3984009900349125CC3120E23EE24021A
:104B9300F8EF1262DB90034B12619590034BE00434
:104BA300F0EEFAEFFB120E29850882850983E002F5
:104BB3006791C082C0837900900349800109125C28
:104BC300C38A828B83E582458370F2023F4674F782
:104BD30012044DEAFEEBFFEE4F6056900349125864
:104BE30049604E888289837A007B00EE6582700378
:104BF300EF6583600FAA82AB83124C37E58245834E
:104C0300602F80E7900349124C43687002EF698E6E
:104C1300828F8370081244DA9003498003127087ED
:104C23001244E6EEFAEFFB1224B5EEFAEFFB12198B
:104C3300DB02431A124C3B22124FB788828983222C
:104C4300124FB3EE22C082C083900349800488824E
:104C53008983125849600B888289831252FBEC4D79
:104C630070EC8A828B83E4F0A3F0E84960068882C3
:104C73008983800390034912444D023F4674F7121F
:104C8300044D90034980048A828B83124CC04B608D
:104C9300257E0080010E124CC550ECEE75F006A483
:104CA300FCADF0EA2CFCEB3DFDEC2410F582ED129B
:104CB3004D1570E180047A007B0002431A12616A89
:104CC300EA22124D1EEEC3982274F712044D7D00A2
:104CD30080010D124D1AEDC3985034ED75F006A402
:104CE300FEA8F0E8FFEA2EFEEB3FFFEE2410F5826C
:104CF300EF124D1570DCED75F006A4FEE8FFEA2E09
:104D0300FAEB3FFBEA2411F582EB126C4D4CF002F7
:104D1300431A126C596922124D1E22127593EB34F9
:104D230000F583E0F82274F612044D120F437A0063
:104D33007B008025EAF8EBF9E875F006A4F8ACF0FF
:104D430075F006E9A42C12613F127454A3E41262B5
:104D530035F0A312745A1275D1902A2C12343740AD
:104D6300D37A007B00801C8A088B097403780812AD
:104D73000A59125BEBA374FEF0A304126015A3E4BB
:104D83001275D1902A47124DC840DC7A007B00800F
:104D93001D8A088B0974037808120A5974C01268B3
:104DA300C5740E12710C74FEF0A3041275D1902A0F
:104DB3003C124DC840DB902A36E493900357F0121F
:104DC3004DD20245F5E493F8C3EA98EB9400227CB4
:104DD300E87D037A107B009003C6E0F9121AA7223C
:104DE30074F012044D74F512098E8A088B09890A2E
:104DF3008C0BE9A2E050147508FC7509FFA2E15081
:104E030005D2E4024EA5D2E3024EA5125AAA7003BC
:104E1300A3E06970057900024F72AC0A7902AA080F
:104E2300AB09120F1FE960EDE50AF50C780C1209C6
:104E33001A79027CFE7DFFAA08AB091258251209D4
:104E430029E96003024F70E50AC2E5F50A9003B948
:104E5300E07051E50AA2E6404B7403120B76AC8274
:104E6300AD83AA08AB09120C85E970321251468A48
:104E73000C8B0DA80CA90DE8FEE9FFE8496025EEAF
:104E830024020A0AEF123147601AEE2402FCEF34BF
:104E930000FD7403120B76AA82AB83122299E50AF2
:104EA300D2E5F50A90034CE0F50C90036CE0F50EA7
:104EB300A3E0F50F780E1209167D017C0090034CD8
:104EC300E0F9AA0EAB0F120ED77402120929E9F802
:104ED30090034CE004F0E86003024F70E50AA2E59A
:104EE3005004740E80027406C0E07401120B76D075
:104EF300E01265A78A0E8B0FAE0EAF0FEE4F6069FF
:104F0300124F90124FA7888289837401F0747855E9
:104F13000AA3127599E50C127599A3E508F0E50942
:104F2300124F7FE4F0E50AA2E5500F7403120B76EB
:104F3300AC82AD83E82406124F768E828F83A3A3BF
:104F430074FDF0A374FFF0E50B6015902A43E4931E
:104F5300F8E50BC3985009EE241312657AE50BF0BC
:104F6300EEFAEFFB120D4580067910800279C774C3
:104F73000B8049FAE93400FB122299228882898343
:104F8300A3A3A3A3124F8B2212630EA322EE241713
:104F930012658B7401F0121099EE241A12658BEAD4
:104FA300F0A3EB22F012758D3400124FB122F5837A
:104FB300124FB722E0F8A3E0F922740D1209297FFA
:104FC300080206AB74F612044D7A007B10126A9540
:104FD30060089003D87401F080299006A4E064016E
:104FE3009010B27006E0FC79018004E0FC79037A4A
:104FF300007B00120E41902A281250097A007B1080
:105003001250170245F512500D22E493FC740193DC
:10501300FD227B009003C6E0F9121AA12274EC1260
:10502300044D8A088B098C0C8D0D890E7414120B98
:1050330076125A047416120B76E0F510A3E0F511FC
:10504300121141E960077AFF7BFF0251439010B1CF
:10505300E0640260030251367900AA08AB09120F1B
:1050630025A90E120F198A128B13AE12AF13EE4F2E
:10507300700302511E8E828F83A3A3A3A3A3E064B4
:10508300018E828F83A3A37069125CC38E828F8388
:10509300A3A3A3A3A3A3E054186043902A41E493DA
:1050A3008E828F83A3A3A3A3F0EA650C7003EB6541
:1050B3000D6014EA650A7003EB650B600AEA65107C
:1050C3007003EB6511701F7810120916AC0AAD0B53
:1050D300AA0CAB0D12123D74021209298008900329
:1050E3006B126A7FA3F074FE6A700374FF6B601D1A
:1050F300804EA3A3A3E0640360298E828F83A3A3BE
:10510300A3A3A3E0640470057AFE02504B8E828F42
:1051130083A3A3A3A3A3E0640270089003B8E0648D
:105123000270101251468B0BEA450B6006AA08ABBE
:1051330009800DAA08AB0990034D124AC212250E2D
:1051430002707590037912582B1212012274F71210
:10515300044DEAFEEBFF120CD9E9700AEEFAEFFBFD
:10516300120CE5E96006EEFAEFFB80047AFE7BFFA2
:1051730002431A74F012044D8A0A8B0B8C0E8D0FA6
:105183008909750800121141E9790060030252EDA3
:10519300AA0AAB0B120F25A909120F198A0C8B0D42
:1051A300AE0CAF0DEE4F60198E828F83A3A3A3A322
:1051B300A3E0640270559003B8E0640270030252E6
:1051C300EBAA0AAB0B900353124AC212250E120C20
:1051D300EB8A0C8B0DA80CA90DE84970030252EB66
:1051E30088828983A3A3A3A3A3E0A2E0400302527E
:1051F300EB750C01A2E150687901AC0AAD0BAA0E64
:10520300AB0F120E71E970640252EB8E828F83A38F
:10521300A3A3A3A3E064037005750C0280528E82DE
:105223008F83A3A3A3A3A3E0640160030252EB90C3
:1052330003791252FB8E828F831256508A0C8B0D88
:10524300A80CA90DE84960D1902A3AE493FA888220
:105253008983E0C39A50C2A3E060030252EB80B992
:1052630088828983A3A3A3A3A3D2E1F0EE4F603A7C
:105273008E828F83A3A3A3A3A3A3E05418602B75EB
:1052830008018E828F83A3A312076A750CFE750D26
:10529300FF780C1209167900AC0AAD0BAA0EAB0FFE
:1052A300120F377404120929803E90036CE0650ED7
:1052B3007004A3E0650F7014902A42E493FCA909DB
:1052C300AA0AAB0B120E41750801801CA90CAC0A8B
:1052D300AD0BAA0EAB0F120E71E9700C750801A984
:1052E30009AA0AAB0B120ECBA908024FC2E50C2484
:1052F30015F582E50D12658E125FEB2274EA120436
:105303004D74F012098E8A0C8B0D8C088D0974264E
:10531300120B76E0F514A3E0F5157512069003F968
:1053230012584960239003791252FBAA08AB091261
:10533300122B8A108B11EA4511600D8A828B83A38D
:10534300E070057900025638E50C241DF50EE50DD5
:105353003400F50F850E82125835F5138882898340
:10536300A3A3A3E0FA88828983A3A3A3A3E0F9EA12
:105373002400FEE439FFAA08AB09120ED1850E8280
:10538300850F83125673E029F50BE50AA2E5500356
:1053930075120E7487550A70177418550A641860CD
:1053A3000FE50C2417F582E50D126C4D65126007AD
:1053B3007901122281808C530A78C3EE94F8EF941A
:1053C300FF501D7900EEFAEFFB12564260128882FD
:1053D3008983A3A3A3A3A3A3E054186003025346A2
:1053E30078081209167D00125666120929E9F87425
:1053F30003687003025346E860030254B1741855FE
:105403000A7003025566E50AD2E0F50AA2E45004E5
:10541300D2E1F50AA90A125CBC1256426053888293
:105423008983A3A3A3A3A3A3E05418604488828918
:1054330083A3A3A3A3A3E064017036E51045116021
:10544300309003791252FB888289831256508A0E58
:105453008B0FA80EA90FE849601788828983A3E000
:10546300600F851082851183A312679C500302533A
:1054730046E50AF50E780E12091A12565912092931
:10548300E9702B7C007D0085148285158374FFF001
:10549300A3F0850C82850D83A3A3A3A3A3A3A3A336
:1054A300E060031252F0A90B125CBC121BBB851403
:1054B30082851583E0F47003A3E0F460399003B8A8
:1054C300E0640270030253461259F5E0FAA3E012B6
:1054D3004ABE12250EEA65087003EB6509600302F4
:1054E3005346EEFAEF124ABE12250E851482851535
:1054F30083EAF0A3EBF078081209167D01125666D1
:10550300120929A90AEEFAEFFB120F258A088B0963
:10551300A808A90990036CE0687003A3E06960031D
:10552300025629EEFAEFFB120CEB8A088B09A80846
:10553300A909E849606E88828983A3A3A3A3E064D1
:1055430001600D88828983A3A3A3A3E0640270543E
:10555300851882851983AC82AD83EEFAEFFB120CBA
:10556300858055900365E0600FE50AF50E780E120D
:10557300091A125659120929E50AF50E780E12096D
:105583001A79027CFE7DFFEEFAEFFB125825120911
:1055930029E960030254B185148285158374FFF0F1
:1055A300A30254F8121099EAFCEBFD8518828519C1
:1055B30083AA82AB83122299850C82850D83A3A3D0
:1055C300A3A3A3A3A3A3E06401700F1252F0740872
:1055D300120B76AA82AB831222991257FF1264131D
:1055E3004430F508780812091A7401120B76858283
:1055F300088583097808120916740B120B768582C5
:10560300088583097808120916E513F50878081246
:10561300091A7900EEFCEFFD125CBC120E6B7406E6
:105623001209290253461257FF12657D125673E57C
:105633000BF01210B174101209297F0E0206AB127F
:105643000F198A0E8B0FA80EA90FE84922A3A312E4
:10565300616A12122B227901AC08AD0912615F1243
:10566300582522AC0BA91312615F120ED7740222C4
:1056730012641BA3A3A3A32274F012044D74F012AB
:10568300098E8A0C8B0DECFAEDFB750F089003F96C
:1056930012584960141267958A828B83E582458389
:1056A3006007A3E070030257FA1257FF3400125841
:1056B30035F50B88828983125808E0FBEC2400FE41
:1056C300E43BFF88828983A3A3125808A3A3E0FBCA
:1056D300ECF508E43BF50988828983A3A3A3A3A37C
:1056E300A3A3E0F50EE50AA2E45003750F10A2E5AB
:1056F30050067408250FF50F748F550A700FE50CCB
:105703002417F582E50D126C4D650F6008790112BF
:1057130022810257FA530A707800E50AA2E4502264
:105723001257FF126C4D2408FCA3E03400FD7408EB
:10573300120B76AA82AB831222997808E50AC2E497
:10574300F50AE50AA2E550281257FF126C4D28F816
:10575300A3E03400F9E82408FCE93400FD8518824D
:10576300851983AA82AB83122299E50AC2E5F50A59
:10577300AC0EA90BEEFAEFFB120EDDE9F874036829
:10578300607590036CE06E7003A3E06F605EE87079
:1057930054E50AF50F780F12091A1258161209293F
:1057A300E97054780A12091A7401120B7685820C77
:1057B30085830D780C120916740B120B7685820CF7
:1057C30085830D780C120916E50BF50A780A120980
:1057D3001AA90EAC08AD09EEFAEFFB120E6B7406B4
:1057E3001209298012740468700D80B7780A1209AF
:1057F3001A1258161209297410024FBFE50C241D02
:10580300F582E50D22A3A3A3E0FC88828983A3A3E9
:10581300A3A32279011259FC12658E12582B125838
:105823002522120E95740122E0FCA3E0FDAA08AB29
:105833000922F583124C3BA3E0F50A88828983A3EE
:10584300A3E02290033D1261C62274E812044D7452
:10585300F512098EEAFEEBFF8C088D098914742377
:10586300120B76E0F50F7424120B76E0F512A3E029
:10587300F5137426120B76E0F516A3E0F5177428DA
:10588300120B76E0F50EA90F120EE38A108B11743A
:1058930001120B767408F0E50EA2E450037410F0C5
:1058A300E50EA2E55004E02408F0851882851983EB
:1058B300AA82AB831211238A0C8B0DEA450D700368
:1058C3000259DCEA2417F582EB1259EE121099E51E
:1058D3000C241AF582E50D12657D12444D740312F2
:1058E3000B76AC82AD83AA10AB11120C85E9601D57
:1058F3001259E67403120B76A882A983E50C2418C7
:10590300F582E50D12657DE8F0A3E98024E50EA29A
:10591300E4501FE5106E7003E5116F70151259E620
:10592300E50C2418F582E50D12657DE512F0A3E57B
:1059330013F01259F5125A04850A82F5837402F0A2
:10594300A3E50E125A0CE50FF0EE850A82850B8350
:10595300A3A3A3F0EF850A82850B83A3A3A3A312BA
:105963005A0CA3A3A3E508F0E509850A82850B83F6
:10597300A3A3A3A3A3A3F0AA10AB11120ED1E925ED
:1059830014850A82850B83A3A3A3A3A3A3A3F07502
:105993000800E50EA2E45011AC12AD13E50A240889
:1059A300FAE50B124F78750808E50EA2E55014AC22
:1059B30016AD17E50A2508F8E50B3400F9E82408C5
:1059C300124F76850C82850D83A3A3E510F0A3E522
:1059D30011F0AA0CAB0D120D45740B1209297F109F
:1059E3000206ABE50C2416F582E50D12658E7401F3
:1059F300F0221259FC12658E22E50C127594E50D06
:105A030022E0F50AA3E0F50B22F0850A82850B83D9
:105A1300A3A32274F212044D8A088B09ECFEEDFF56
:105A2300890A7900125AAA7003A3E0697004790104
:105A33008073750B0190036CE065087004A3E06547
:105A430009601F750B00780B12091AA90AEEFCEF07
:105A5300FDAA08AB0912117D7401120929E9F50B9E
:105A630080417900EEFAEFFB120F19EA4B602B8AA3
:105A7300828B83A3A3A3A3A3A3E05418601C75087C
:105A8300FE7509FF78081209168A828B83A3A31275
:105A9300076A1273A912092980097901EEFAEFFB4B
:105AA300120DF9A90B8014120F258A0C8B0DA80C6B
:105AB300A90D90036CE068221209297F060206AB48
:105AC30074F412044D75084E75090D7A101270B1F5
:105AD3008B0BEA450B7003124DD2900357E014F081
:105AE300700C902A36E493900357F0120F317E0026
:105AF3007F00806C850882850983A3A3A3A3E0604C
:105B030059F46056E5082404F582E509126A7970B0
:105B130049850882850983A3A3A3A3A3E064037033
:105B23001979028508828509831252FB85088285CB
