:020000040000FA
:06000000020B340201EBCB
:03002B000208CDFB
:030033000202A71F
:0300530002011C8B
:03006B0002021876
:03007B0002024737
:10008300020172010101FF01050301F011F011F0FA
:1000930011F011A610A010F011AF22000000001102
:1000A30023000000000C0000000C0001581B01009D
:1000B300000084140000000000003E150000000052
:1000C300000000000000FFFF0101003F05000000E9
:1000D300401F9005401F6400E803B801020200C8F6
:1000E300180305023C01010D1E020564020A0A03FE
:1000F300B80B02803E01020101FFFF020A1401E076
:1001030096511800020206120103030507090B0D9D
:100113000F02020406080A0C0DC0E074F212052552
:10012300A2AFE433F508D2AFE5A7FEE5A1FFEF5E8A
:1001330054106006121BD475A1EFEF5E54086008DB
:10014300121BDA75A1F78019EEA2E0C0D0EFA2E08E
:1001530092F0120A71158182F05006121C9A75A151
:10016300FE751A00E508A2E092AF7F01020584C084
:10017300E074F2120525A2AFE433FFD2AF9061A47D
:10018300E0FE759B00E5915E540860087591F712D7
:100193001C2E802DE5915E541060087591EF121CA2
:1001A30034801EEEA2E0C0D0E591A2E092F0120AE4
:1001B30071158182F0500A9061A4E0C2E0F0121D33
:1001C300909061A3E0FEE5E95E5404600E121D66A3
:1001D30075E9FB906193E0A2E640F2751A00EFA285
:1001E300E092AF7F01020584C0E074F2120525A2FC
:1001F300AFE433FFD2AF9061A5E0FEE5BF5E5404E8
:10020300600675BFFB121DA8751A00EFA2E092AF3E
:100213007F01020584C0E074F2120525A2AFE43326
:10022300FED2AFE589A2E550091214429004C674C8
:1002330004F0758900C2C5751A00EEA2E092AF7F83
:1002430001020584C0E074F2120525A2AFE433FE77
:10025300D2AF758700E58AA2E2501A7C197D007A35
:10026300017B00900647E0F9121766E9538AFB9079
:1002730004C67480F0E58AA2E5501A1214427CE8A1
:100283007D037A017B00900647E0F9121766E99037
:1002930004C67440F0C2EB751A00EEA2E092AF7F81
:1002A30001020584C0E0C0D0E8C0E0A2AFE433F8A7
:1002B300D2AF751A00A2E092AFD0E0F8D0D0D0E070
:1002C30032C3E498F8E499F91203058026C3E49A4B
:1002D300FAE49BFBE920E7E9120305E498F8E499C3
:1002E300F922C3E498F8E499F9120305E498F8E4D1
:1002F30099F9C3E49AFAE49BFB22EB20E7CFE920C8
:10030300E7E0B90010BB0008E88AF084F8AAF022FD
:10031300E4FBC8FA22EB70227B10C833C8C933C987
:10032300335007C39AC3DBF280069A50012ADBEAF3
:10033300C833F4C8C933F4C9FA2275F008E4C833E2
:10034300C8C933C933C99AC99B5004C92AC93BD503
:10035300F0ECFBC833F4C8E4C9FA22080808EAC081
:10036300E0EBC0E086F0E7A4FA180986F0E7A42AD8
:10037300FA180986F0E7A42AFA180986F0E7A42AEE
:10038300FA1986F0E7A4FBE5F02AFA190886F0E7E4
:10039300A42BFBE5F03AFA190886F0E7A42BFBE55A
:1003A300F03AFA18180986F0E7A4C5F02BFBE43AF3
:1003B300FA1908E7C5F0C6A426F6E5F03BFBE43AD4
:1003C300FA1886F0E7A4F6E5F00826F6E43B08F60B
:1003D300E43A08F6D0E0FBD0E0FA22E4CFC0E0E450
:1003E300CEC0E0E4CDC0E0E4CCC0E075F020C3E6CD
:1003F30033F608E633F608E633F608E633F618185C
:1004030018EC33FCED33FDEE33FEEF33FFC3EC9713
:1004130009ED9709EE9709EF97191919400FFFECAA
:1004230097FC09ED97FD09EE97FE191906D5F0BE65
:10043300ECF709EDF709EEF709EFF7191919D0E011
:10044300FCD0E0FDD0E0FED0E0FF222518C582C03D
:10045300E0E51934FFC583C0E0E518C3958224F8AD
:1004630010AF0885831985821880088583198582D2
:1004730018D2AFCEF0A3E520F0A37808E608F0A3E6
:10048300DEFAEFF0A3E58124FAF8E608F0A3E60824
:10049300F0A3E608F0A30808E608F0A3E608F0A333
:1004A30015811581D0E0FED0E0F815811581158105
:1004B300E8C0E0EEC0E022120B96B9000302050F7C
:1004C300E4900301782F79098002F0A3D8FCD9FACC
:1004D300781A9000867A01BA00028007E493A3F6A3
:1004E30008DAF9900B2FAA82AB839000877896796C
:1004F300018015E493A3AC82AD838A828B83F0A33E
:10050300AA82AB838C828D83D8E9D9E775820E7575
:1005130083BE74041208EC7582BA758320740012CA
:1005230008ECC0D02518C582C0E0E51934FFC583A7
:10053300C0E0E518C3958224F310AF0885831985BD
:1005430082188008858319858218D2AFC8F0A3E981
:10055300F0A3EAF0A3EBF0A37908E709F0A3D8FA34
:10056300ECF0A3EDF0A3EEF0A3EFF0A3D0E0F0A343
:10057300D0E0F0A3D0E0F0A3E520F0A3E5F0F0A3F2
:1005830022851983851882E0C0E0A3E0F9A3E0FA8D
:10059300A3E0FBA37808E0F608A3DFFAE0FCA3E0FE
:1005A300FDA3E0FEA3E0FFA3E0C0E0A3E0C0E0A35F
:1005B300E0F5D0A3E0F520A3E0A3F5F010AF0885A4
:1005C30083198582188008858319858218D2AFD054
:1005D30082D083D0E0F8D0E03275F0108E218F22E4
:1005E300858226858325851882851983E0CEA3E03D
:1005F300CF852682852583EBC9EAC8EDCBECCAC338
:10060300E833C8E933C9EA33CAEB33CBC3EA9EF50F
:1006130024EB9FF523B35004AB23AA24EC33CCED96
:1006230033CDD5F0DAAE21AF2222D083D082ECC015
:10063300E0EDC0E0E493A3FCE493A3FDED4C600D77
:10064300120705EC24FFFCED34FFFD80EFE493A3D8
:10065300FCE493A3FDED4C600D1207D8EC24FFFCE2
:10066300ED34FFFD80EFD0E0FDD0E0FCE493A3C0C8
:10067300E0E493C0E022D083D082E9C0E0E493A316
:10068300C386F0C5F095F0F908E493A386F0C5F0AE
:1006930095F0700BE493A3C3994005E9048002A38A
:1006A300E475F002A42582F582E5F03583F583D065
:1006B300E0F9E493A3C0E0E493C0E02285198385C5
:1006C3001882E0A3FEE0A3F5207808E0A3F608DF94
:1006D300FAE0A3FFE0A3C0E0E0A3C0E0E0A3C0E032
:1006E300E0A3C0E0E0A3C0E010AF088582188583D3
:1006F300198008858218858319D2AFD083D08202EE
:1007030008F2C0E0C3E49396087401939618400F6F
:10071300E49366700808740193661870007019A357
:10072300A3C3E49396087401939618A3A3400DD032
:10073300E0D0E0D0E0020669A3A3A3A3A3A3D0E083
:1007430022D083D082C5F0E493A3C5F0C395F0F51E
:10075300F0E493A3C395F04005E5F0048001E4754C
:10076300F002A42582F582E5F03583F583E493A3B3
:10077300C0E0E493C0E0227404800474028000CCDF
:10078300C0E0EDC0E0E518C39CCCAD1950011D10CD
:10079300AF068C188D1980068C188D19D2AF1208EC
:1007A3004FD0E0FDD0E0FC2274028000CCC0E0ED2D
:1007B300C0E0E518C39CCCAD1950011D10AF068CE9
:1007C300188D1980068C188D19D2AF12082DD0E020
:1007D300FDD0E0FC22C0E0C0F088F0E4936670082E
:1007E3000874019366187000A8F0A3A3700BD0F0EF
:1007F300D0E0D0E0D0E0020669A3A3D0F0D0E0229D
:10080300D083D082CCC0E0E493A360061208AE1478
:1008130070FAE493A360061209A51470FAD0E0FC01
:10082300E493A3C0E0E493C0E022CAC0E0E493A34E
:10083300C582CCC582C583CDC583F0A3C582CCC593
:1008430082C583CDC583DAE5D0E0CA22CAC0E0E021
:10085300A3C582CCC582C583CDC583F0A3C582CC95
:10086300C582C583CDC583DAE6D0E0CA2270090804
:100873000808226016181818C6C333C608C633C63C
:1008830008C633C608C633C6D5E0EA22C008C3E0AB
:1008930096F50808A3E096420808A3E096420808E4
:1008A300A3E09645087001D3D00822C0E0E493A3E7
:1008B300D39C5010E493A3C39C400AD0E0D0E0D073
:1008C300E0020820A3A3A3D0E022C0E0C0D0E8C088
:1008D300E0A2AFE433F8D2AFC2C7751A00A2E09228
:1008E300AFD0E0F8D0D0D0E032C09FF59FE473D012
:1008F3009F22D083D082C09FE493C0E0740193C051
:10090300E0740293F59F227404800A7403800674D2
:100913000280027401C0E0F404120925D0E0120B36
:1009230071222518F58210AF08F5184002151980B9
:1009330008F51840021519D2AF85198322BB0102AD
:10094300E722C082C08389828A83BB0003E08002DE
:10095300E493D083D08222C0D0251810AF08F518B5
:10096300500205198008F51850020519D2AFD0D0EE
:10097300226016080808C6C313C618C613C618C6CD
:1009830013C618C613C6D5E0EA22C3E0C696F60816
:10099300A3E0C696F608A3E0C696F608A3E0C696BB
:1009A300F622C0E0E493A36C7009D0E0D0E0D0E07D
:1009B300020820A3A3D0E022251810AF08F51840A1
:1009C3000215198008F51840021519D2AF22E766FF
:1009D30070100809E766700A0809E76670040809D9
:1009E300E76622C3E09608A3E09608A3E09608A36F
:1009F300E096A2D265D03322E066701008A3E066C9
:100A0300700A08A3E066700408A3E06622C3E697B1
:100A1300F60809E697F60809E697F60809E697F651
:100A230022C3E096F008A3E096F008A3E096F0084E
:100A3300A3E096F022E627F60809E637F60809E66A
:100A430037F60809E637F622E026F608A3E036F67D
:100A530008A3E036F608A3E036F622E026F008A362
:100A6300E036F008A3E036F008A3E036F022C0E059
:100A7300E8C0E0E58124FCF8E6A2E7D0E0F8D0E0A6
:100A830022700422600D18C6C333C608C633C6D508
:100A9300E0F41822E657F60809E657F60809E65780
:100AA300F60809E657F622E056F608A3E056F608DC
:100AB300A3E056F608A3E056F622E056F008A3E0BA
:100AC30056F008A3E056F008A3E056F022E647F6F6
:100AD3000809E647F60809E647F60809E647F62255
:100AE300E4C396F608E496F608E496F608E496F668
:100AF30022C3E7960809E7960809E7960809E796E7
:100B030022C6F4C608C6F4C608C6F4C608C6F4C6A8
:100B130022600D08C6A2E713C618C613C6D5E0F3B4
:100B230022C3E09608A3E09608A3E09608A3E09604
:100B33002275D000758140751801751903000204F0
:100B4300BAE0F608A3E0F608A3E0F608A3E0F6226D
:100B5300600C08C6C313C618C613C6D5E0F422E654
:100B6300F008A3E6F008A3E6F008A3E6F022CAC063
:100B7300E0E6F0A308DAFAD0E0FA22E0FAA3E0FB19
:100B8300A3E0FCA3E0FD22EAF0A3EBF0A3ECF0A3C7
:100B9300EDF022E5C754F84401F5C7790122251881
:100BA300F582E43519F58322C2AF75D69F020000A2
:100BB300221208F51252001208F55A52001208F5D3
:100BC300AE52001208F5CA52001208F5FE52001286
:100BD30008F53353001208F52A54001208F5DF54C0
:100BE300001208F52E57001208F58158001208F577
:100BF3002459001208F5B159001208F55E5A001283
:100C030008F5925A001208F50D5B001208F5E75B30
:100C1300001208F5A55C001208F5BD5C001208F58A
:100C2300545D001208F5C55F001208F5CB61001290
:100C330008F5E961001208F54DA3021208F582A335
:100C4300021208F5A8A3021208F5E2A3021208F59E
:100C5300F4A3021208F546A4021208F5A7A402128F
:100C630008F531A5021208F5D5A5021208F51DA64F
:100C7300021208F557A6021208F574A6021208F527
:100C830099A6021208F5EBA6021208F504A70212B0
:100C930008F52AA7021208F565A7021208F5A9A705
:100CA300021208F5D0A7021208F521A8021208F5CE
:100CB300D1A8021208F589A9021208F551AA021255
:100CC30008F514AB021208F571AB021208F5F7AB85
:100CD300021208F506AC021208F511AC021208F56F
:100CE30037AD021208F548AD021208F5BEAD021287
:100CF30008F550AE021208F5A8AE021208F56EAF61
:100D0300021208F595AF021208F5B3AF021208F507
:100D130006B0021208F54BB0021208F558B00212E1
:100D230008F5ECB1021208F551B3021208F56DB4DF
:100D3300021208F5D7B6021208F5E2B6021208F558
:100D4300ECB6021208F5F7B6021208F501B7021263
:100D530008F50BB7021208F516B7021208F521B70A
:100D6300021208F552B7021208F576B7021208F517
:100D73009AB7021208F5FFB7021208F543B8021238
:100D830008F55FB8021208F5D6B8021208F50EB9D5
:100D9300021208F55AB9021208F5B7B9021208F59A
:100DA30099BB021208F51FBC021208F5F8BC021227
:100DB30008F508C0021208F55DC0021208F58AC0E2
:100DC300021208F5D6C1021208F526C2021208F56E
:100DD3007BC2021208F57CC3021208F514C4021286
:100DE30008F596C4021208F536C5021208F5D1803B
:100DF300011208F50A81011208F5E482011208F5CF
:100E03002383011208F56D83011208F51284011280
:100E130008F57184011208F5A584011208F51285FD
:100E2300011208F52F86011208F53787011208F51C
:100E3300CD87011208F5148B011208F5BD8B011241
:100E430008F5998C011208F5FA8C011208F5178E32
:100E5300011208F54190011208F5F890011208F506
:100E63000291011208F53591011208F5FC91011266
:100E730008F59792011208F5FC92011208F52593E3
:100E8300011208F54793011208F57695011208F54A
:100E93004D96011208F59196011208F5FE9601127E
:100EA30008F5B997011208F5EB97011208F52F9889
:100EB300011208F56598011208F5BA98011208F5B0
:100EC3000F99011208F5A399011208F5059A011269
:100ED30008F56D9A011208F5169C011208F5FE9C9F
:100EE300011208F5409E011208F56EA0011208F5E3
:100EF3002EA1011208F55DA3011208F500A4011249
:100F030008F53EA4011208F5EAA5011208F5FEA5AD
:100F1300011208F508A6011208F532A6011208F518
:100F23003EA6011208F55DA6011208F514A70112E9
:100F330008F553A7011208F55DA7011208F567A785
:100F4300011208F5B2A7011208F515A8011208F558
:100F53001CA9011208F5D7A9011208F5D6AA011296
:100F630008F5CFAB011208F56CAC011208F50EAD14
:100F7300011208F525AD011208F55CAD011208F563
:100F83007AAD011208F5BEAD011208F5E3AD011209
:100F930008F5C9AE011208F535AF011208F5AFAF78
:100FA300011208F5BEB0011208F5FDB1011208F5F2
:100FB300DBB2011208F53DB3011208F5F7B30112D4
:100FC30008F51AB4011208F5EEB4011208F539B5A3
:100FD300011208F57BB5011208F5D2B5011208F527
:100FE30009B6011208F537B6011208F570B60112F9
:100FF30008F595B6011208F51DB7011208F540B9B9
:10100300011208F59FB9011208F533BA011208F568
:101013009FBA011208F5F3BA011208F52DBB0112AC
:1010230008F50080041208F53880041208F5598089
:10103300041208F59B80041208F50181041208F5D7
:101043000B81041208F51B81041208F55081041268
:1010530008F59984041208F54386041208F54388B9
:10106300041208F58FBC011208F5E9BC011208F55A
:1010730045BD011208F591BD011208F5ACBD011281
:1010830008F5DDBD011208F5FABD011208F506BE2B
:10109300011208F57ABF011208F593BF011208F592
:1010A300FABF011208F50DC0011208F51BC00112A9
:1010B30008F5CFC0011208F5B3C1011208F5B9C292
:1010C300011208F53FC3011208F549C3011208F5DF
:1010D300B6C3011208F5CDC3011208F5FFC301120F
:1010E30008F538C4011208F562C4011208F5C3C437
:1010F300011208F5E3C4011208F501C5011208F550
:1011030047C5011208F56DC6011208F5BAC60112EA
:1011130008F5E9C6011208F55FC7011208F587C78C
:10112300011208F5C0C7011208F5CEC7011208F570
:1011330026C8011208F575C8011208F5B4C80112D2
:1011430008F5E4C8011208F510C9011208F51BC916
:10115300011208F539C9011208F5FBC9011208F596
:1011630005CA011208F540CA011208F556CA011250
:1011730008F55FCA011208F5B4CA011208F5C8CA16
:10118300011208F5D6CB011208F5E9CB011208F5D7
:1011930000CC011208F515CC011208F5B7CC0112E9
:1011A30008F53ACD011208F5F8CD011208F503CE82
:1011B300011208F529CF011208F545CF011208F5F0
:1011C30097CF011208F5D6CF011208F5EBCF011224
:1011D30008F52DD0011208F57AD2011208F5F8D2DC
:1011E300011208F56BD3011208F58DD5011208F52C
:1011F300A5D5011208F5A8D5011208F5B4D5011239
:1012030008F5C8D5011208F5D0D5011208F503D6A3
:10121300011208F5B3D6011208F529D7011208F512
:101223009CD7011208F550D8011208F505D901120F
:1012330008F524D9011208F5C4D9011208F5D0D94B
:10124300011208F5FBD9011208F5FED9011208F5C0
:101253002DDA011208F542DA011208F5ACDA0112AF
:1012630008F5D4DB011208F5ACDC011208F537DD13
:10127300011208F550DE011208F50DDF011208F521
:1012830046DF011208F577DF011208F517E00112B6
:1012930008F547E0011208F522E1011208F5BBE168
:1012A300011208F546E2011208F5F7E2011208F50A
:1012B30079E3011208F5ABE3011208F5ECE301123F
:1012C30008F521E4011208F5C4C9031208F546CA5A
:1012D300031208F586CA031208F5FFCA031208F5BC
:1012E300D9CD031208F569D0031208F535D40312DA
:1012F30008F56DD4031208F59BD4031208F52DD518
:10130300031208F581D5031208F5B4D5031208F5C5
:10131300DDD5031208F527D6031208F5A8D6031264
:1013230008F55DA9031208F5E7A9031208F55CAAFD
:10133300031208F5DEAA031208F5BCAD031208F583
:10134300DFAD031208F538AE031208F536AF03120A
:1013530008F5A0AF031208F573B1031208F5DBB269
:10136300031208F562B3031208F5F0B3031208F58C
:1013730059B4031208F5A7B4031208F567B50312AD
:1013830008F590B6031208F50DB7031208F573B705
:10139300031208F5B6B7031208F55CB8031208F593
:1013A3003DB9031208F5F588041208F563890412A0
:1013B30008F57E8A041208F5B48C041208F53D8DF5
:1013C300041208F5008E041208F5688E041208F55D
:1013D300E18F041208F5F78F041208F5FF8F04124A
:1013E30008F51790041208F59390041208F5A890D5
:1013F300041208F5CCE2031208F52CE3031208F5F6
:10140300E2E4031208F55FE5031208F529EC031281
:1014130008F585EC031208F5EBEC031208F53BED38
:10142300031208F5E9ED031208F55BC9041208F588
:101433008EC9041208F50BCA041208F510CA041267
:1014430008F5D6CA041208F517CB041208F51ACB0F
:10145300041208F579C7041208F58AC7041208F5BF
:101463000AC8041208F552C8041208F53EC904124A
:1014730008F55BD2041208F568C5041208F547C7DE
:10148300041208F5E0B9031208F5C8BA031208F507
:10149300EFBA031208F533BB031208F551BB03126D
:1014A30008F5CFBB031208F507BC031208F53FBECE
:1014B300031208F534BF031208F54FC0031208F5F1
:1014C300E1C0031208F566C1031208F51EC2031238
:1014D30008F5BAC2031208F509C3031208F5DAC303
:1014E300031208F5D5C4031208F57BC5031208F5EA
:1014F300A6C7031208F5D9C8031208F53AC903129F
:1015030008F594C9031208F504C3041208F527C3A8
:10151300041208F521C4041208F5CAC4041208F51C
:101523000EC5041208F587D6041208F5FBD604127B
:1015330008F50BD7041208F595E2021208F598E2B4
:10154300021208F5E7E3021208F55BE4021208F55C
:10155300E9E4021208F5A6E5021208F563E60212B1
:1015630008F530E7021208F5EDE7021208F50EEA76
:10157300021208F5CBEA021208F588EB021208F50D
:10158300CD44001208F527ED021208F59AED021278
:1015930008F5DCEF021208F543F1021208F5AAF28E
:1015A300021208F505F3021208F59CF3021208F57E
:1015B3007FF4021208F5B1F4021208F5ADF7021236
:1015C30008F54EF8021208F5CCF8021208F544EEBD
:1015D300031208F59CEE031208F544EF031208F515
:1015E3005051001208F598EF031208F5BCF00312EE
:1015F30008F5CAF0031208F52EF1031208F56CF191
:10160300031208F5EFF1031208F596F2031208F539
:10161300E5F2031208F566F3031208F5D4F3031297
:1016230008F55DF4031208F5EEF4031208F543F52B
:10163300031208F5A0F5031208F5B2F5031208F535
:10164300C4F5031208F5EAF5031208F5F9F50312D8
:1016530008F552F7031208F5E3F7031208F54AF900
:10166300021208F56DFA021208F5C9FA021208F51A
:10167300E3FA021208F5F4FA021208F5EFFD02127A
:1016830008F50FFE021208F56EBB041208F5B3BB92
:10169300041208F5FEBB041208F58FBD041208F509
:1016A300E9C5021208F5B3C7021208F508C8021209
:1016B30008F589CA021208F5EECA021208F5FACD36
:1016C300021208F560CE021208F5A0D0021208F546
:1016D30099D1021208F506D2021208F599D2021224
:1016E30008F548D3021208F5A3D3021208F504D46F
:1016F300021208F565D4021208F54ED6021208F557
:1017030040D8021208F52CDB021208F56EDB021238
:1017130008F5D1DB021208F5E3DB021208F558DC09
:10172300021208F514DD021208F551E1021208F560
:101733001CE2021208F545D8041208F560D8041219
:1017430008F570D8041208F535D7041208F5A69DDC
:10175300041208F5BD9D041208F5AD9E041208F5A8
:10176300F59E041208F5139F041208F5559F041201
:1017730008F5AC9F041208F5F09F041208F540A089
:10178300041208F518A2041208F56BA2041208F556
:1017930093D5041208F5BBD5041208F5DAD5041263
:1017A30008F5FAD5041208F554D6041208F579D6CB
:1017B300041208F57FE4011208F5E4E4011208F5C8
:1017C3005BE5011208F5B5E6011208F547E70112DA
:1017D30008F513E8011208F52CE8011208F58EE864
:1017E300011208F5DDE8011208F5F5E8011208F524
:1017F30055E9011208F5DFE9011208F5F8E90112CC
:1018030008F584EC011208F528ED011208F567EDDF
:10181300011208F5C8ED011208F5EFEF011208F502
:101823006CF0011208F506F1011208F525F1011219
:1018330008F53DF1011208F593F1011208F5D8F10D
:10184300011208F5EFF1011208F586F2011208F50D
:10185300A6F2011208F506F3011208F577F3011257
:1018630008F5D9F3011208F51EF7011208F5B1F7CF
:10187300011208F50DF8011208F5DBF8011208F55D
:1018830004F9011208F507F9011208F52AF9011202
:1018930008F5C0F9011208F5F2F9011208F515FA75
:1018A300011208F54AFA011208F592FA011208F535
:1018B300AEFA011208F5EEFA011208F52FFB011238
:1018C30008F526D1041208F537D1041208F5B6D16C
:1018D300041208F50080031208F52380031208F5AB
:1018E3004080031208F53281031208F5B181031217
:1018F30008F51F82031208F5B582031208F56E83FB
:10190300031208F52784031208F52085031208F54E
:10191300EC85031208F55786031208F5138D03129D
:1019230008F54F8F031208F59E8F031208F52E90CA
:10193300031208F53191031208F5C392031208F557
:10194300DC93031208F51A62001208F50363001210
:1019530008F5A363001208F50664001208F5C764CE
:10196300001208F57865001208F5F367001208F510
:101973006868001208F55E69001208F5F469001240
:1019830008F5AC6A001208F5AD6C001208F5B86EE4
:10199300001208F5AC6F001208F50F73001208F57A
:1019A3002E74001208F51E75001208F5D775001283
:1019B30008F57C76001208F50879001208F5967A86
:1019C300001208F5E87A001208F5AC7B001208F55E
:1019D300597C001208F5807D001208F58B950312DF
:1019E30008F52E96031208F5C196031208F53C97E5
:1019F300031208F59F97031208F56998031208F577
:101A03008C99031208F5369A031208F58B9A031280
:101A130008F5FC9A031208F5BB9B031208F5D09B4B
:101A2300031208F5109C031208F5309C031208F505
:101A33003F9C031208F5509C031208F52D9D0312D9
:101A430008F54A9E031208F5689E031208F56D9E79
:101A5300031208F5DC9E031208F509A0031208F52A
:101A63004FA1031208F50AA3031208F548A40312B1
:101A730008F55CA5031208F5BCA5031208F5D8A563
:101A8300031208F540A7031208F59EA8031208F5F0
:101A93007CA2041208F5FAA2041208F538A3041272
:101AA30008F500A4041208F576A4041208F517A596
:101AB300041208F522A6041208F518BE041208F54C
:101AC30096BE041208F5B3BE041208F594C00412BE
:101AD30008F58ED3041208F59FD3041208F57AD4BF
:101AE300041208F5F1FF011208F5C0FF021208F510
:101AF30094D4041208F5A4D4041208F5BED4041235
:101B030008F58DD5041208F594B8041208F537B911
:101B1300041208F553BB041208F572FB011208F511
:101B230083FB011208F518FC011208F5FBFC0112F6
:101B330008F564FF011208F5F87F001208F597C055
:101B4300041208F5DBC0041208F563C2041208F599
:101B530001C3041208F54FF8031208F5B7F803128E
:101B630008F5DAF9031208F52AFA031208F556FA0A
:101B7300031208F56FFA031208F58DFA031208F53C
:101B830040FB031208F559FC031208F518FD031274
:101B930008F513FE031208F579FE031208F5CDFECE
:101BA300031208F528CB041208F551CB041208F5EB
:101BB30065CB041208F5ADCB041208F5F6CB04127D
:101BC30008F53FCC041208F550CC041208F5AFCC4D
:101BD300041208F5B2CC041208F5C0CC041208F5BF
:101BE300D1CC041208F5C8AE041208F502AF0412F2
:101BF30008F56CAF041208F5A8AF041208F5EFAFAF
:101C0300041208F521B0041208F55CB0041208F5BB
:101C130086B0041208F5ACB0041208F510B1041232
:101C230008F53EB1041208F5D1B1041208F5E9B183
:101C3300041208F5FEB1041208F5B0D8041208F531
:101C4300CDD8041208F5FC90041208F59B920412F7
:101C530008F5A892041208F5D592041208F5069324
:101C6300041208F55F93041208F5B593041208F5FE
:101C73004894041208F5CB94041208F55A950412FB
:101C830008F5B095041208F5EB95041208F5DE96F5
:101C9300041208F5F296041208F50597041208F5E4
:101CA3002797041208F5417F001208F56E7F001292
:101CB30008F59B7F001208F5C87F001208F536B2BD
:101CC300041208F55DB2041208F588B2041208F58F
:101CD3002DB3041208F58EB5041208F5B1B504123C
:101CE30008F5C3B5041208F5D1B5041208F5FAB521
:101CF300041208F515B6041208F530B6041208F5F7
:101D03004BB6041208F5C4B6041208F505B704125D
:101D130008F53AB7041208F58BB7041208F5E0B7D3
:101D2300041208F50DB8041208F51BB8041208F5DF
:101D330033B8041208F581B8041208F5C6D70412A3
:101D430008F533D8041208F50CD7031208F555D754
:101D5300031208F57ED7031208F597D7031208F587
:101D6300B7D7031208F51FD8031208F559D8031281
:101D730008F58CDD031208F547DF031208F589DF48
:101D8300031208F5F3DF031208F566E1031208F501
:101D930096E1031208F5B0E1031208F5C4E103125A
:101DA30008F514E2031208F57DE2031208F592E246
:101DB300031208F555CE041208F56CCE041208F58B
:101DC30093CE041208F5B7CE041208F5E2CE04123E
:101DD30008F510CF041208F52FCF041208F564CFCD
:101DE300041208F58ACF041208F521FF031208F53F
:101DF3006CFF031208F5C7A6041208F5DEA6041249
:101E030008F53AA8041208F56FA8041208F597A874
:101E1300041208F5C4A8041208F5DDA8041208F595
:101E23001AA9041208F597A9041208F5DDA90412EA
:101E330008F52FAA041208F562AA041208F588AA65
:101E4300041208F5C7CF041208F5D9CF041208F518
:101E530020D1041208F523D1041208F5E2CC0412B0
:101E630008F582CD041208F5E2CD041208F525CE5B
:101E7300041208F5E7AA041208F506AB041208F5E4
:101E830068AB041208F596AB041208F5C0AB041254
:101E930008F5E4AB041208F5EEAC041208F505AD41
:101EA300041208F529AD041208F559AE041208F519
:101EB3006DAE041208F58AAE041208F59CAE041246
:101EC30008F55E97041208F5219D041208F5269D76
:101ED300041208F50080021208F5A382021208F525
:101EE3002184021208F53F84021208F53386021298
:101EF30008F57B87021208F5E987021208F556896F
:101F0300021208F5A989021208F5C08B021208F51E
:101F13002E8D021208F57B8D021208F5B18D021287
:101F230008F54C8E021208F5D78E021208F5F48ECE
:101F3300021208F5168F021208F564A0021208F5C2
:101F430082A0021208F59BA0021208F5B5A00212A6
:101F530008F592A2021208F5C4FF011208F57444B1
:101F6300001208F50844001208F5DF43001208F5D3
:101F73008543001208F5A342001208F5E64000125B
:101F830008F5B240001208F57F40001208F56340DF
:101F9300001208F56C3F001208F5243F001208F503
:101FA300593D001208F5D93C001208F5BF3C001258
:101FB30008F53E3C001208F5FE3A001208F5603AB7
:101FC300001208F52E3A001208F56B39001208F5D5
:101FD3009637001208F52737001208F5F936001274
:101FE30008F5F636001208F5C350001208F5B6508E
:101FF300001208F5C44D001208F5164B001208F53F
:10200300E649001208F5E336001208F57B360012A4
:1020130008F56236001208F52C35001208F53A4926
:10202300001208F5F634001208F5B934001208F569
:102033005A34001208F52934001208F58B470012B0
:1020430008F573EF031208F5E430001208F5D52FF5
:10205300001208F5642F001208F5292F001208F565
:10206300F42E001208F5E82E001208F5482E00128F
:1020730008F58F2D001208F5622B001208F5EE28E3
:10208300001208F5AC28001208F57727001208F5AE
:102093002C27001208F55B26001208F5B225001262
:1020A30008F58825001208F54645001208F54E2567
:1020B300001208F51CEC0200000080FBE4738700AB
:1020C3000100A60B240002007F0B25000200810BF8
:1020D30026000200830B27000200850B2800010065
:1020E300870B29000100880B84000400890B8600FC
:1020F30001008D0B2A0001008E0B2B0001008F0BBA
:102103002C000100930B2D0008000A062E0001008D
:10211300940B2F000100950B30000100960B31004A
:102123000100970B32000100120633000100130671
:1021330034000100980B360001001406380001003A
:10214300990B39000100920B83000200A40B63007A
:102153000100A20B64000100900B65000100910BCC
:102163006D000100A30B6E0002000806430001008E
:102173009A0B440002009B0B450001009D0B460097
:1021830002009E0B47000800160648000100A00B42
:102193004B000100A10B04000100A70BA1000100EB
:1021A300AA0B37000100A90B88000100A80B3C0013
:1021B3000100150600000000000000013636010191
:1021C30000010201000103010001040106060502EA
:1021D3000000070100340801000F090401010D018B
:1021E30000FF0E08000017020000190100FF1A018A
:1021F30000011B0100FE1C0100081D0200001F015D
:10220300000120010001210200002301000F24022C
:1022130000002601000127010008280200FF2A010F
:1022230000072B0102402C0100002D0100012E01AB
:1022330000012F0100FF30010B1C310800003A019F
:1022430000083B01000F2F0100000302710230015F
:1022530060021102700201020202020280021002F5
:1022630061023A0041006302730272026202430296
:1022730000021302380000020002040212020002EC
:1022830000020002000204020402370037003C028D
:102293004402000239000002000265020002350216
:1022A3008102000205028202830200020300710020
:1022B30030016000110070003102200350048000DF
:1022C30010006100000014006300730072006200DC
:1022D3004300000013000600000000000400120089
:1022E3000000000000000000040004003700370075
:1022F3003C024400000000000000000065000000F4
:102303003500810000000500000083000000010388
:102313007103010301030103010301032203020308
:102323000103100300030003000300030003000381
:102333000003420300032403060300030003040312
:1023430012032503230325032303040304030003C8
:102353000003000344030003000323030003650396
:102363002100350381030003050300030003000379
:10237300010171010101010111010101310101019A
:1023830001018001100161013B001400630173012D
:102393007201620143010001130106013D01350091
:1023A3000401120100010001000100010401040104
:1023B300330133013C0144013201360000010001C5
:1023C30065010001350081010001050182018301DE
:1023D300000136000100060000000F0000000000AD
:1023E300000000000000000003FFFF00000403FFE3
:1023F300FF0000FFFF0FF4010005C40403200001E8
:1024030000040B000000000000000003010F0100A6
:1024130082190200F8180300FE18040004190500CD
:102423000A190600161911002E1914003419150083
:102433002819FFFF00000011301106110C112A1199
:102443001E11181136113C1142114E111211FA10BE
:10245300F41003EAF5E5D5D5C5B5A595958585753C
:1024630075656555554545353525251515050A7297
:102473000E023C0E054E0E07420E0C1E0E0D300EC4
:10248300FF000000160F00000B150B020002220FC5
:10249300320000065A6967426565416C6C69616E7A
:1024A30063653039000000000000000089674523A0
:1024B30001EFCDABF01102120812CA100E12C410B4
:1024C300D0105C127A12801262126E12681200032C
:1024D3004948424D181725050200383C3E363B3B20
:1024E300352B432C00011916181616152303000C5F
:1024F3000E020B040B0A0708000F303017181921BE
:10250300301B1D1F30303016181920231A1C1E30A3
:1025130024114811741254115A11441214121A122C
:102523002612201202040201010101090200BE0465
:102533000A0A00E80315001E000E0008040C051823
:102543000908FF080F0F0400100A0C74F712044E59
:10255300E9FE121322EE900B30F090030C7490F00E
:10256300A37420F090030E748AF0A37420F09003F8
:10257300107484F0A37420F0900312747EF0A3749B
:1025830020F0023AB374F712044EE9FE900302E41A
:10259300F0EE900301F07C167D067A037B03121E96
:1025A3006E900BA0E090030BF012205A023AB37422
:1025B300F412044E8A088B09EB5480605B9003018C
:1025C300125124604A8E828F83E06401703212427A
:1025D3003A12077AEE241212620AF50A780A1209ED
:1025E3001612264E120912EE240B1228A512077E8C
:1025F300EE24171251341212DA740912095A8008A0
:10260300E064027003121FA6EEFAEFFB1215F8AA9C
:1026130008E5096480FB8030EA5402600C900B2FBC
:102623007401F0EA6402FA801FEA54046005EA6464
:102633000480F3EA5408600C122054E5086408FA95
:10264300AB0980047A007B00022727EE240FF50AEA
:10265300EF3400F50B780A2274F412044E8A088BC7
:10266300098A828B83A3A3A3E02410123ABFFA1230
:10267300436B700302270A8E828F837402F0A3E4F4
:10268300124359A3A3A3A3E8F0A3E9123FDCA3A336
:10269300A3A3A3A3A3F0E5082403F8E50912368056
:1026A30024101239268E828F83A3A3A3A3F0EE24D2
:1026B30009FA12270C123BFBF5838882E0A2E58E10
:1026C300828F83A3A3A3A3A3500474018001E4F026
:1026D300E5082403F88882898312520EEA1259FF0F
:1026E300EB1228A812271712090E125A34EB123CC8
:1026F300A98E828F83A3A312424712095AEEFAEFDF
:10270300FB9003011243BD801BEF3400FB8E828FCD
:1027130083A3A322E0F508A3E0F509750A0078086E
:102723002212095A7F040206BF74F212044E8A0869
:102733008B09ECFAEDFB740E120BA1E0FC121352A1
:102743008A0C8B0DAE0CAF0DEE4F6023AC08AD09B8
:10275300121340E96019AC08AD09EEFAEFFB12134E
:1027630046E97007EEFAEFFB12133A79008002791B
:10277300B40234F174EE12044E74F71209BB8A0AE0
:102783008B0BECFEEDFF750FB3750E00750C00752A
:102793000D00800CE50C2401F50CE50D3400F50D5E
:1027A300902534E493F8740193F9C3E50C98E50D8F
:1027B300994003022896AA0CAB0D1213A08A088B2A
:1027C30009EA450960CE8A828B83A3A3A3A3A3E06E
:1027D300250EF50EF510C3E50A9510E50B94005090
:1027E300B37C157D007900EEFAEFFB12403EA3A304
:1027F300A3A3E50AC3950EF8E028C333F8E433F93D
:10280300E50828F582E50939F583A3A3A3A3A3A3C8
:1028130012477BA3123AECEAFCEBFDEEFAEF123619
:10282300D4A3E06401700A12423A74011235E380C2
:1028330043851882851983AC82AD83850882850917
:102843008312520C121388E9602D7408120BA1E055
:10285300C0E012423AD0E0F07408120BA1E0640326
:10286300851882851983700CAC82AD83EE240B121C
:1028730035D08003123C8F85088285098312366F19
:10288300A3A3124323C0E0EE24141228A5D0E0F042
:10289300750F00A90F740912095A7F0A0206BFEEC9
:1028A300240CF582EF12428B2274F712044EE9FED8
:1028B3008A828B83A3A3A3A3A3A3E0540860298ADA
:1028C300828B83A3A3A3A3A3A3E0540260178A82EA
:1028D3008B83A3A3A3A3A3A3A3A3A3E0640660057D
:1028E30074E96E7003122072023AB374E812044E54
:1028F30074F71209BB7407120BA1124050E9851833
:1029030082851983F0ECFEEDFF7424120BA1780C81
:10291300120B447513008E828F831252088E828F9E
:1029230083A3A3A3E0F912135E8A148B15EA45155A
:102933007003022B08EE2410124915A914120D700E
:102943008A168B17EA45177003022B08EE2406F547
:1029530010EF3400F5117C00851082F583122B4EA5
:102963008E828F83A3A3A3E0851682851783A3A3F7
:10297300A3124D8EF8A3E0F9851682851783A3A3CE
:10298300A3A3E8F0A3E91230DF851682851783A39A
:10299300A3A3A3A3A3A3124935851682851783A3F3
:1029A300A3A3A3A3A3F0EE1259FFEF122D681209FC
:1029B3000EEE125A35EF123CA9851682851783A3B2
:1029C300A3A3A3A3A3A3A3A312424712095A751057
:1029D30000022A88850A82850B8312520C12138EF9
:1029E300850882850983A3EAF0A3EB124260A3A3BF
:1029F3001240131243D4E0A2E6500F8508828509E2
:102A030083A3A3A3A3A3E0D2E1F0E5137063850836
:102A130082850983A3124D7890035BE0687003A35A
:102A2300E069704D850882850983A3A3A312492118
:102A3300780C12090A7427120BA1E0F50A780A121E
:102A430009167426120BA112077E90036812077EE3
:102A530079007410120BA1123FC7121F7C74091264
:102A6300095A850882850983A3A3A3A3A3E0440588
:102A7300F074012510FC8E828F83A3A3A3A3A3A3C9
:102A8300122B4E0510E50A450B6052851008C3E56D
:102A9300089514E495155045E51075F006A4F8A9BA
:102AA300F0E51628F8E51739F9E8240CF508E912DA
:102AB3003647E4124256640160030229D7751301B5
:102AC300850882850983740112425BF8A3E0F985C6
:102AD3000882850983A3E8F0A3E90229EEAA16ABCD
:102AE30017120D7678161209127425120BA1E0FC49
:102AF3007402120BA1E0F9EEFAEFFB1220787402D4
:102B030012095A80418E828F83A3A3A3E0C0E0748D
:102B130004120BA1D0E01230DFC0E07405120BA148
:102B2300D0E0F0E514451570097406120BA174B9D1
:102B330080077406120BA17410F07401120BA1AA82
:102B430082AB83121F827409025A401242508E8252
:102B53008F83A3A3A3E0F91213648A0A8B0B227455
:102B6300EA12044E74F31209BB8A0A8B0B89158C83
:102B7300147423120BA11261BFAA0CFB120D64E99A
:102B8300F513AA0CAB0D120D6AE5137003022D5554
:102B9300750E00800F8E828F83A3A3A3A3A3E0D21D
:102BA300E3F0050EE50C240BF582E50D122EE3E5AB
:102BB3000EC3984003022D4CE5137003022D4CE520
:102BC3000E75F006A4F8A9F0E50C28F8E50D39F91F
:102BD300E8240CFEE9125FA2A3A3A3A3E0A2E040B2
:102BE300C1750F00750808750900E5146003750FBA
:102BF30020123FFBE060339003ABE064017017E504
:102C03000FD2E3F50F7509108E828F83123C2D12BC
:102C13003AE074FF8024430F0C75080C8E828F8377
:102C2300A3122D74125A21A38010E5156009E50F34
:102C3300D2E6F50F75080A122D82F07402120BA169
:102C4300E50F124DADC0E07404120BA1D0E0F07497
:102C530005120BA1123AD1120BA1E06003022D2F32
:102C63007408120BA11236588E828F83A3A3A3A3D9
:102C7300F07408120BA1123405F583E508F0A3E5FF
:102C830009123F05E060119003ABE0C0E074081245
:102C93000BA11233FED0E0F0850C82850D83A3A334
:102CA300A3E0C0E07408120BA1125844D0E01258FC
:102CB3007CC0E07408120BA1123410D0E0F0740849
:102CC300120BA1122D74A3A312584B124D97A3A359
:102CD300E012582FEAF0A3EB124DA3C0E0E8242E34
:102CE300F582E91228A8D0E0F07408120BA1125261
:102CF3000E850A82850B83122D5F2424F582EB1245
:102D03003C981259FDE50B122D6812090E123CA6D0
:102D1300EA242BF582EB1228A812424712095A859E
:102D23001882851983AA82AB83121F9A8E828F839E
:102D3300A3A3A3A3A3E0D2E0F0740C120BA1E06061
:102D430003022B981513022BA57900AA0CAB0D12C5
:102D5300206C740D12095A7F0E0206BFA3A3A3A30E
:102D6300124D7CEA2212428B124D577512007810D5
:102D730022124D7C850A82850B83A3A3A3A322A3DE
:102D8300122D8722123FA0E8F0A3E92274F2120465
:102D93004E74EB1209BBEAFEEBFF89088E828F8328
:102DA300A3A3A3A3A3A3A3A3E0F9120D8E8A0A8B63
:102DB3000BEA450B607FE50870047C0480027C0805
:102DC3008E828F83A3A3A3A3A3A3A3A3E0F9120DCE
:102DD300941228A212407A605C8882898312520A74
:102DE3007406120BA1122E3D12520E7408120BA17F
:102DF300122E3DA3A3E0C0E07410120BA1D0E01289
:102E03004DBD12520E740E120BA1124050741112CA
:102E13000BA1E4124AF8F9780A120912742059FC3A
:102E2300744059F97402120BA1AA82AB8312207861
:102E3300740212095A74150234EEEAF0A3EB123A43
:102E4300A9A3A3A32274F712044E74FA1209BBE9CF
:102E5300FE7F018F087D0080047508000D123AB8CB
:102E6300122EE3EDC3985025ED75F006A4F8A9F0F2
:102E7300EA28F8EB39F9E81259F8E912476450D90E
:102E8300540C60D5E0A2E250D37F0080CF8A828BBE
:102E930083A3A3A3A3A3A3E0703EE508A2E0400598
:102EA30074016E70338A828B83A3A3A3A3A3A37439
:102EB300011256F3E0C0E07403120BA1D0E01256E6
:102EC300EBE0C0E07404120BA1D0E0F07405120B28
:102ED300A1EF123C5D121F827406023AB0F582EF35
:102EE300124B08F822C082C083790112206C02358C
:102EF300B8C082C083EA4B60189003A7E0640270F5
:102F030010900B2FE4F0EAFCEBFD7A021235C5803A
:102F130012900B2F7401F07A027B00900301E0F909
:102F23001217720235B8C082C083900BB2E075F0FD
:102F330005A4FCADF079007A877B0A1215DA7B00D1
:102F43008012EB75F005A4F8A9F01230D474FEF0EA
:102F5300A304F00B900BB2E0F8EBC39840E4023506
:102F6300B8C082C0837C007B0080037C010B900B84
:102F7300B2E0F8EBC398504FEB75F005A4F8AAF054
:102F8300EAF91230CD7003A3E0F460E11230C4E833
:102F93002403080808E912368024FFF0A3E034FF75
:102FA300124AF8F8A3E0F9E84970C0EB75F005A4FC
:102FB300F8EAF91230C48882898374FEF0A30412FC
:102FC3005704A3E4F080A6ECA2E050031235BF023D
:102FD30035B874F612044EEAFEEBFF900BB2E070C4
:102FE300030230BFEE241112620A70030230BF8E57
:102FF300828F83A3A3A3A3A3A3A3A3A3123FCF64FB
:1030030002600F8E828F83A3A3A3A3A3E0700302A6
:1030130030BF7C0080010C900BB2E0F8ECC39850F9
:1030230045EE240B1228A5124D78EC75F005A4FA91
:10303300ABF074872AF582740A3BF583E06870036A
:10304300A3E06970D1EE241212620AFBEC75F0055D
:10305300A4F8A9F0748928F582740A39F583E06B22
:1030630070B4790080587C0080010C900BB2E0F8BA
:10307300ECC39850EDEC75F005A4F8A9F01230CD2F
:103083007003A3E0F470E31230C4EE240B1228A5FE
:10309300123ED8EAF0A3EB1230DF88828983A312B1
:1030A3003AA4740C1249357A08FB900301E0F91233
:1030B30017788B09EA450970031235BF7901023588
:1030C300FC748728F8740A39F9221230D4E064FEBC
:1030D30022748728F582740A39F58322123633E085
:1030E3002274F212044E74F31209BBEAFEEBFF8E54
:1030F300828F83A3A3A3A3A3A3A3A3A3A3E0F50AFC
:10310300900B2FE0700579BA0233F9750801750940
:1031130000750C00750D007C087D00790085188210
:10312300851983AA82AB831215DA7405120BA17475
:1031330001123421540460127402120BA1E0D2E68E
:1031430012342154087003750803E05410600674A8
:10315300404508F508E0540860227402120BA1E010
:1031630044C01234215420600A7403120BA1E0D22C
:10317300E080087403120BA1E0D2E1F08E828F830A
:10318300A3A3A3A3A3A3A3A3E07018120F0E8518F0
:10319300828519831240507402120BA1E0D2E2F02F
:1031A30002324B640F70157402120BA1E0D2E312CA
:1031B30043D51240384508F50802324B8E828F837F
:1031C300A3A3A3A3A3A3A3A3E064028E828F83700C
:1031D30005122D8380C9A3A3A3A3A3A3A3A3E06480
:1031E300037013851882851983AC82AD83EEFAEFE1
:1031F300FB12202480528E828F83A3A3A3A3A3A3B5
:10320300A3A3E0640170419003ABE0601C7402125D
:103213000BA1E0D2E31243C3851882851983123CC4
:103223009B750910750AFF80187402120BA1E04404
:103233000C12586974FDF0A374FFF074044508F58B
:10324300088E828F831261BF12475E503A74021256
:103253000BA1E0540C701B8E828F8312520E121A34
:1032630048E9700579BB0233F97402120BA1E0D26D
:10327300E5F012475E50107402120BA1E0540C6487
:10328300047004E0D2E5F0EE241112620AC0E07487
:1032930004120BA1D0E0123AD3120BA1E060030297
:1032A30033F27408120BA1123405123417EE2418EA
:1032B30012620AC0E0E81259E9E91228A8D0E0F046
:1032C300EE241912620AC0E07408120BA1E0241361
:1032D300123650D0E0123AF9640170119003ABE05A
:1032E300C0E07408120BA11233FED0E0F074081290
:1032F3000BA11238FE2417FAEF12392DFCE8241C17
:10330300F582E91228A8EC1249358E828F83A3A394
:10331300A3A3A3A3A3A3A3E0C0E0E82422F582E927
:103323001228A8D0E0F07408120BA1123410E50A99
:10333300F07408120BA11239032424F582E9125008
:1033430047A3E50D1250A0FCA3E0FDE82426F58277
:10335300E91228A8ECF0A3ED12360F124025E82459
:1033630028F582E91228A81252A3C0E0E8242FF519
:1033730082E91228A8D0E0F0EE241B12620AC0E012
:103383007408120BA112583DD0E0F0EE241A126219
:103393000AC0E07408120BA1E0242E123650D0E0CC
:1033A30012586112271812090EEE24111228A512C1
:1033B3004025740B120BA112424112095AEE241537
:1033C30012620A5440601B90032412407A601385F2
:1033D3001882851983AA82AB83900325123698122B
:1033E30020BF851882851983AA82AB83121F9A7422
:1033F3000C120BA1E0F9740D0234EEE02415123621
:103403005422123907240FF582E9340022E02423E1
:1034130012365422F583E508F0A3E509F022F0EE15
:103423002415124B052274F712044E7E638A828B95
:1034330083E0600C7905120C32E9F87456C398FEE8
:10344300900353E0600CF9120C32E9F8EEC39824B0
:10345300F2FEEEF9023AB374F612044E74FE120948
:10346300BB851882851983124050E9FEECFAEDFB07
:10347300740C120BA1E0FC90046212407A60328556
:1034830018828519838582088583097808120912B1
:103493007D01EEF99004621236951220BF74021278
:1034A300095A8B09EA450960047900800679B280DC
:1034B3000279B60235F774F712044EE9FE74091265
:1034C3000BA1E0FF90030C12407A601AEFF5087825
:1034D30008120916EEF990030C1236951220BF74E8
:1034E3000112095A800279B6023AB312095A7F06C9
:1034F3000206BF74F512044EEAFEEBFF8C088D0939
:10350300750A01125C7D1235D9700B90035B12367C
:10351300CA123C9B800EAC08AD09EEFAEFFB120C0D
:1035230098E9F50AA90A02542574F612044EEAFE34
:10353300EBFF7A0C7B00121694EA4B606BEE2420AF
:1035430012620A8A828B83F0EE24211235AEF0EEEA
:1035530024221235AEA3F0EE24231235AEA3A31218
:103563004280124D80E8F0A3E9124AFD124D81A377
:10357300A3E8F0A3E91249278A828B83A3A3A3A319
:10358300A3A3A3A3F0EE242F12620AC0E0123AB859
:103593001228A8D0E01240568A828B83A3A3A3A348
:1035A300A3A3A3A3A3123C9B0235FC124B058A825F
:1035B3008B83A322F0D083D0820208F27CF47D01B6
:1035C3007A087B00900301E0F912176622FAEF34C0
:1035D30000FB121E6E22123AE5221235E3A3E0220B
:1035E3001235E7221235EB22124351A3A322123FD5
:1035F300EAA3E022740212095A7F020206BF7C0189
:103603007D007A007B0012101C740422F01236171E
:1036130012428B22EE240FF582EF22F582EF124243
:103623008BE42290053FE0F912162822123633224A
:10363300F0EE2412F582EF3400F5832212095A7F4B
:10364300080206BF125A1C850882F58322123654DB
:10365300221236B1221236AAE022124351E022C0CE
:1036630082C0831240AC1236210235B7123FE322E7
:10367300A3E0F9120C32E92279010208F2123C2884
:1036830022F8EF3400F98808890922EEFAEFFB905B
:10369300031CE0F8A31236A422E0F81236A3A322F7
:1036A300A3E0F583888222E0240E1236B12212367B
:1036B300B522F8A3E01236BC223400F9888289834C
:1036C30022123D54640522124D7C850882850983AC
:1036D30022FB1236D922121E6E85088285098322A7
:1036E300C082C0831240AC1236F00235B712428B4F
:1036F30074012202367BC082C08390031A7412F0D5
:10370300A37420F090031C7406F0A37420F09003BC
:103713001E74E2F0A3741FF0900320740CF0A374E2
:10372300200235B774F412044EEAFEEBFF12378C15
:10373300F508120F0E8A0A8B0BA80AA90B8E828F2B
:103743008312377FE0687003A3E069602CE508A269
:10375300E550268E828F83A3E0FB90031A123695E1
:103763001220BF8E828F83E0F8A3124533A3124049
:103773007A700612378CC2E5F002272712378322AC
:10378300E0FAA3E0F5838A82228E828F8312369C2D
:10379300A3E02274F512044E1238EC1239032420EC
:1037A300F582E912620DFE74035EF50A123EC2123F
:1037B30028A81238FE88828983F0A3A882A983E50A
:1037C3000A60097402650A600302385D740C5EFFC7
:1037D300601574086F601074046F701D7402650ABD
:1037E3007005EEA2E4402D8A828B83A3A3A3A3A337
:1037F300A3A3A3E0242312394E740C6F7010123864
:10380300E7242412393624241238F9123951740268
:10381300650A7005EEA2E440411238E72426123906
:1038230036242612390CA312396012390C1239606E
:103833001238F9123951EF600F74086F600A740C73
:103843006F600574046F70128A828B83A3A3A3A392
:10385300A3A3A3A3E0242212394E8A828B83A3A3BA
:10386300A3A3A3A3A3A312391C7005EEA2E15017CF
:103873008A828B83A3A3A3A3A3A3A3A3E0242E12CF
:103883003EC9123947800E90030212394790030252
:10389300E004123C0BA3A882A983EEA2E7504212D4
:1038A30038E7242112390C1239518C828D83123955
:1038B3001C602E8A828B83A3A3A3A3A3A3A3A3E049
:1038C300243012394EEEA2E150178A828B83A3A3D0
:1038D300A3A3A3A3A3A3E024311239268882898357
:1038E300F00254251238ECE022EA2408FCEB340001
:1038F300FD8C828D8322123ECDA322124D7CEE22BB
:10390300123907221243CEE82212391022F508A3F6
:10391300E03400850882F58322E02421123ECDE0C5
:10392300540322FAA3E012392D223400FB8A828B3E
:1039330083E022123910123947A3A882A9838C820B
:103943008D83E022E088828983F022123ECD1239F2
:103953005522E088828983F0A308A983221239556E
:103963008C828D83E0242822C082C0838A828B8349
:10397300123790F8740358F98A828B83A3A37401D6
:10398300F0E960057402697061740C58FC6014748A
:10399300086C600F74046C70137402697005E8A2FC
:1039A300E4401D8A828B83A3A37402F0740C6C70B1
:1039B3000A8A828B83A3A3E02402F0740269700550
:1039C300E8A2E440258A828B83A3A3E02404F0ECDD
:1039D300600F74086C600A740C6C600574046C707E
:1039E300098A828B83A3A3E004F0E8A2E750318A1B
:1039F300828B83A3A3E0041252A7F9A3E0F5838982
:103A030082A3A3A3E0540360178A828B83A3A3E05A
:103A130004F0E8A2E150098A828B83A3A3E004F0B7
:103A23008A828B83A3A3E0040235B7C082C0838A52
:103A3300828B83A3A3A3A3A3A3A3A3A3A312407AC9
:103A430060098A828B83A3A3123A510235B8A3A3D8
:103A5300A3A3A3A3A3A312425012169A2274F7128C
:103A6300044EEAFEEBFF124D7488828983A3A3A35D
:103A7300A3A3A3A3A3E4F0123AA4A3A3A3A3A3A37E
:103A8300A3F0A3F0E8125031E9123A9E121FCAEED6
:103A9300FAEFFB121FD68018F582ED12428BE4F089
:103AA30022A3123AA922123C0BA3A3A32212095A5E
:103AB3007F010206BFEA240BF582EB221259AD24E3
:103AC300092212428B1261C3750E00780C22740115
:103AD300123C61123ADA22121FA0740C22123FBD6B
:103AE300A322121E68E9640122A3A3A3A3E8F0A3FF
:103AF300E9F0120F0822123EFFE02274F612044E80
:103B030074F41209BB123C11FCA3E0F5838C82A36D
:103B1300E0FC7402120BA1EC124AF82402123FB12A
:103B23007404120BA1123C9BEC600A7402120BA1E9
:103B3300E06404701C123BEF12476A7406120BA177
:103B4300123BF5123FB17408120BA1E8F0A3E98010
:103B530056E06401600AE064066005E064057023D2
:103B6300123BEF123926C0E07403120BA1D0E0120E
:103B73004AF8241312476A7406120BA1124AF4245A
:103B83001B80C07406120BA1E4F0A3123C1E241286
:103B930012476A7408120BA1123BF51259A9C0E02F
:103BA300740A120BA1D0E0F07406120BA112407A32
:103BB30060287406120BA112520E120C8CE96401D8
:103BC3007018120F088A088B09AC08AD0974061225
:103BD3000BA112520E1235D9700D851882851983E7
:103BE300AA82AB83121F76740C0235F9123C23248C
:103BF3001222123C02241A22123C02F8A3E022EA07
:103C0300F0A3EB123C0BE022F088828983228A82A4
:103C13008B83A3A3A3A3A3A3122D87F0123C232278
:103C2300EA2402F8EB1236BCE022A3124D7C85187D
:103C3300828519832212095A0235B8C082C083745F
:103C4300FD1209BB123C6DC0E07402120BA1D0E05F
:103C5300123C5D121F70740380DB123C6122F085FD
:103C63001882851983AA82AB83228A828B83A3A3BA
:103C7300A3A3A3A3123F978A828B83A3A312369C89
:103C8300E022AA82AB831215CE740322124D7CEE7E
:103C9300240BF582EF12428B123F9A22123F9A9025
:103CA300032C22124DB512428BE0FC7D00228A8246
:103CB3008B83A3A3E0F8123D5424FB22C082C0836C
:103CC300123CB1600624FC60078008121FB8800311
:103CD300121FB20235B8C082C0838A828B83A3A32A
:103CE300A3A3A3A3A3A3E070528A828B83A3A3E01D
:103CF300F8123D5064016043123D4A6402603C1275
:103D03003D4A64036035123D4A6404602E8A828B07
:103D130083A3A31236C46023123D4A640A601C12B3
:103D23003D4A640B6015123D4A640C600E123D4A15
:103D3300640D60077904121E56800990032212361F
:103D4300951220BF0235B88A828B83A3A3123D54F8
:103D5300221236A3E02274F612044E74FA1209BB3F
:103D6300EAFEEBFF7403120BA1EEF0A3EFF0740372
:103D7300120BA1AA82AB83121FBE12620760030259
:103D83003EBD8518828519837432F07405120BA128
:103D9300C082C0838E828F83A3A3A3A3E0D083D0EA
:103DA30082F8E028C0E07401120BA1D0E0123F19A1
:103DB300C0E07402120BA1D0E0123EF8F8A3E0F9C0
:103DC300E8496026E82417F582E91228A8C082C0D2
:103DD30083E82416F582E912620DD083D082F8E0DD
:103DE30028F87401120BA1E028F085188285198345
:103DF300AA82AB83120CEC8A088B09A808A909E8EC
:103E0300497003023EB08E828F83123ED8A3A3EA89
:103E1300F0A3EB123F05A3A3E0C0E0E82420F58262
:103E2300E91228A8D0E012587CC0E0E82421F582EA
:103E3300E91228A8D0E0123F14C0E0E8242AF58252
:103E4300E91228A8D0E0F07405120BA1E0FA123EA3
:103E5300C212620D2A12476AE8242BF582E912285E
:103E6300A81240507405120BA1E0C0E0E8242DF520
:103E730082E91228A8D0E0123EF8FAA3E0FBEA4B4D
:103E83006019E8242BFAE912270DA3A3A3A3A3A384
:103E9300A3A3E02416123EC9123EE08E828F83A3B1
:103EA300A3A3A3A3A3A3A3E8F0A3E9800CEEFAEFD3
:103EB300FB121FC41228A27410F074060235F9E82D
:103EC300240BF582E922123ECD22FCA3E03400FD4F
:103ED3008C828D83221242508882898322E0FC8A5D
:103EE300828B83E02CFCA3E03400FD8A828B83EC7D
:103EF300F0A3EDF022123EFFA3A3E02212446DA330
:103F0300A322F0E81259E9E912428B74011243D556
:103F130022123F1FE022123F1FA3E022125413A3D9
:103F23002274F712044EEAFEEBFF126207701E12B0
:103F33003F5A12407A600612368E1220BF12620771
:103F4300700B125202120CE61228A2E9F0EEFAEFFD
:103F5300FB121FC4023AB3121FD08E828F83A3A316
:103F6300A3A3A3A3A3A3A3A32274F612044EEAFE5E
:103F7300EBFF8C088D09121A48E97004790180114E
:103F8300AC08AD09EEFAEFFB900320123695122030
:103F9300BF0235FC123FA0E8F0A3E9F022E0F8A34A
:103FA300E0F98518828519832212586DE022F8A35F
:103FB300E03400F922123FBDE022E8F0A3E9124306
:103FC300D9A3A322124029EEFAEFFB221242501288
:103FD3000F80E9221236B5E0221235E3123FE322C5
:103FE300E08E828F83A32212429CA3A3A3A322E584
:103FF30008240BF582E509227C087D0079008518E9
:1040030082851983AA82AB831215DA8E828F83226B
:10401300E0850882850983A3A322A3A3A3A3A3A363
:10402300A3A312402922E0FCA3E0FD227401124362
:10403300D5A3A3E022123F977404221215DA850850
:1040430082850983A32212178A8E828F83EAF0A3C3
:10405300EBF02212405A221243D9A3A31243CE22D9
:10406300C082C08312407374ACF0A3741F0235B7CF
:10407300121FDC90032222123907492274F712041B
:104083004EE9FE1240AC1228A812407A60188882CA
:104093008983A3E05403700EEEFB123EC21228A8DC
:1040A3001240DD1240D7023AB3EA125031EB22C07C
:1040B30082C083EAF8EBF988828983A3A3A3A3A32D
:1040C300E0FB88828983A3A3A3A31240DDA312404C
:1040D300D70235B8E0F91212D422E0FA8882898334
:1040E300A3A32274E812044E8A088B098C168D1739
:1040F3008914741A120BA1E0F50AA3E0F50B741CE2
:10410300120BA1E0F513741D120BA1780C120B44D2
:10411300125A34EB12620D242DFA7B001215F28A27
:10412300108B11AE10AF11EE4F70030242288E8236
:104133008F837401F08508108509117512007810BA
:1041430012090E7C157D00EE241812422B12095A17
:10415300851610851711781012090E7C097D00EE63
:10416300240212422B12095A7418120BA1123C8F0B
:10417300850A82850B83E0C0E0EE240F1228A5D0C8
:10418300E012425BC0E0EE24111228A5D0E01242F7
:1041930056C0E0EE24101228A5D0E012362FE51306
:1041A300124280E4F0A3F012423A780C120B62EE52
:1041B30024171228A5E5141235F1F8A3E0F9EE242B
:1041C3000D1228A512427A125A2E12620D6025EEA4
:1041D3002426124756242DF8124272125A04123A18
:1041E300C512090E125A2C123CA98A828B831242E1
:1041F3004712095AEE241912620A5403601D9003F0
:104203001812407A600CEEFAEFFB1236981220BFB8
:104213008013EEFAEFFB1215F8800AEEFAEFFB902B
:1042230003011243BD025A43FAEF12423122340012
:10423300FB1215CE740322EE241312428822E024CB
:104243002B1236541242501215CE740322E0FAA3F5
:10425300E0FB22124269E022124260E02212426431
:1042630022124269A322F0850A82850B83A322EFDF
:104273003400F98A828B83123F9AE50822F0EE24F8
:104283002612428822F582EF3400F58322F50CA32F
:10429300E0F50D750E00780C221235EBA3A3A322D3
:1042A30074F112044E8A088B097A2012436B606DF5
:1042B3008E828F83740612437B8E828F83A3A3A384
:1042C300A31235DD8E828F8312432312429012098B
:1042D3000E7C107D00EE240612422B12095A85082B
:1042E3008285098312401DEE2416FAEF3400FB1277
:1042F3000C86850882850983A3A3A3A3A3A3A3A3F1
:10430300A3A3E0C0E0EE241E1228A5D0E01243339D
:10431300C0E0EE241F1228A5D0E012433B025CA0AC
:10432300A3A3A3A3A312432C221235E7A3A3E02242
:10433300F0123FF2124B0822F0EEFAEFFB90053F2A
:10434300E0F91215FE22E8F0A3E912435122F085A9
:1043530008828509832212435D2212365DF8A3E0A9
:10436300F98E828F83A3A3227B001215F28A0A8B14
:104373000BAE0AAF0BEE4F2212435D124349A3A3C8
:10438300E02274F612044EEAFEEBFF7A057B00127C
:1043930015F2EA4B601E8A828B83740A1243C38A26
:1043A300828B83A3A3123FB88A828B83A3A3A3A385
:1043B300F01243BA0235FC90053FE0F91215FE22D4
:1043C3001243C7221243D91243CE22E0F8A3E0F9E5
:1043D30022A31243D922F08E828F8322C082C0830C
:1043E300E9900B31F090031474A8F0A37420F090BB
:1043F30003167400F0A37420F090031874EEF0A376
:10440300741F0235B774F712044EEAFEEBFF8908F6
:10441300EE4F7003121AE490032612407A7008904C
:1044230003268022124D7888828983A3A3A3A3A3A2
:10443300A3A3A3A312445F88828983A3A3A3A3A3F3
:10444300A3A3A3A370DEEEF0A3EF124465A3A3A37B
:10445300E4F0A3124465E508F0023AB3124250EACD
:104463004B221244692212446D22125417A3A3A3B0
:104473002274F712044E900326800D8E828F83A33D
:10448300A3A3A3A3A3A3A3A31259E1EE4F60348E66
:10449300828F83A3A3A3A3A3A3A3E06970DD8E826A
:1044A3008F83A3A3A3A3E06A7003A3E06B70CC8EF6
:1044B300828F83A3A3A3A3A3A3E06C70BEEEFAEF42
:1044C300FB80047A007B00023AB374F712044E9027
:1044D30003261259E1900326122D63687002EB69DB
:1044E3007017124533124D78900326123C9B9003AC
:1044F300261259E180301259D4EE4F60298E828FF3
:1045030083A3A3A3A3A3122D5F687002EB6970E6D4
:104513008A828B83A3A3A3A3A3A3A3A3A31245402C
:10452300A3A3A3123C9B12169AEEFAEFFB023AB333
:104533001236A4A3A3A3A3A3A3A3A3A32212477FD7
:10454300A3A32274F012044E74FA1209BB8A088BD7
:10455300098A828B83A3A3A3A3A3A3A3A3E0600DD0
:10456300640160098A828B83123FCF60057902025E
:104573004751850882850983A3A3A3A3A3A3A3A368
:10458300E0640370157404120BA1AC82AD83AA0816
:10459300AB09122024E9701380D38508828509832F
:1045A300124D787404120BA1123C9B1259EE126245
:1045B3000D243212476A1216948A0A8B0BAE0AAF85
:1045C3000BEE4F700302474F7C327D0079001215CA
:1045D300DA7402120BA1AA82AB8385088285098350
:1045E300A3A3A3A3A3A3A3A3A3E0F912131C74027D
:1045F300120BA1E0C0E0EE242D1228A5D0E0F0EECE
:10460300242CF50AEF3400F50B7403120BA1E0859B
:104613000A82850B83F07901EEFAEFFB121F6485A2
:10462300080C85090D750E00780C12090E7C1C7D93
:1046330000EE240B12422B12095AEE243012475675
:10464300243208081242722411F8E5091261A6FC0B
:10465300E9FD8C828D831238FE242E1228A5124286
:104663007A124AD6125A3A12090E8C828D8312405C
:10467300258A828B8312424712095A7404120BA1B2
:1046830012477B123C9B900302124771F090030286
:10469300E004124B0C242A125036750D00850A8251
:1046A300850B83E0780C120A848A828B83E50CF0F5
:1046B300EE24291228A5E50C125869E4F0E5082434
:1046C30015F582E50912476474015007120BA174B2
:1046D300018004120BA1E4F0EE242712368485181E
:1046E30082851983AA82AB83121304E924FE850809
:1046F30082850983F0F508750900EE242E1228A59A
:10470300124025ECF8EDF9AA08AB09120305E88E6F
:10471300828F83A3A3A3A3A3A3A3A3F0ECF8EDF930
:10472300AA08AB091203058B09EA4509600F8E82BB
:104733008F83A3A3A3A3A3A3A3A3E004F0EE242046
:1047430012620A44081250A8790080027910740694
:1047530002363F1261A4FAE9FBEE22EE2415F5823C
:10476300EF124B08A2E022FAA3E03400FB22123F2F
:10477300E3A3A3A3A3A3A32212477F221243CE8EB4
:10478300828F83A3A3A3A32274F412044EEAFEEB45
:10479300FF124049900B9AE0F8EE242B12620AC3F1
:1047A3009840030248FE12504E7015EE242B1262FD
:1047B3000A04124927C0E0EE24291228A5D0E0F00C
:1047C300EE242812620AFC7900800109EE242C12DF
:1047D3002EE0E9C3985026750801750900E97808A9
:1047E300120A8412504E550860E1E92CFC75080149
:1047F300750900E97808120A84E04508F0EE2427D9
:10480300124915EE242E1228A5EC8A088AF0A4F882
:10481300ABF0E42BF9E098F8A3E099F9C3E8950825
:10482300E99400EE40392427122EE012504E6037EF
:10483300EE242D1228A5124921A3E4F0EC7054EEC6
:10484300242012620A4420123AF9C0E0EE24261210
:1048530028A5D0E0F0EE2430124915A3E0805924B6
:10486300291228A574FFF090034BE0FA900B9DE00A
:10487300F508EA8508F0A4ABF075F064A4FAADF08E
:1048830075F064EBA42DFB8E828F83A3A3EAF0A3C0
:10489300EB80A8EE242012620A54DF124280ECF06F
:1048A3008C08EE242712620A8508F0A4FAABF0EE16
:1048B3002430F582EF12490CFBEE241E1228A5EAE0
:1048C300F0A3EB12492FC0E0EE24251228A5D0E077
:1048D300F0EE241C1228A5E8124935900328124053
:1048E3007A600BECF91236981220BFE97018EE24A7
:1048F3000BFAEF3400FB122048800B7BE9EE2422F5
:10490300F582EF124AE0022727124B082AFAA3E0A6
:104913003B22F582EF12491C2212509AFA22123FCF
:10492300E3A3F022F0EE242A124B0522124469A3DA
:10493300E022F0A3E4F02274F412044E9003261252
:1049430059E112178A8A0A8B0B7CFF7DFF8020E0D6
:10495300C398FAA3E099FBC3EA9CEB9D500E8E82A9
:104963008F83A3A3E0C398FCA3E099FD1259D4EE6F
:104973004F6059124D74E50AC398F8E50B99F98E07
:10498300828F8312520CC3E89AE99B8E828F83A392
:10499300A340BCA3A3A3A3E06402701DEE240B12E7
:1049A3005051600CEE24101228A512520E1215F865
:1049B300EEFAEFFB1215808007EEFAEFFB12203CB4
:1049C3007A017B00900B31123629801474FF6C70CE
:1049D3000374FF6D600A7A017B00900B311235CAB4
:1049E30002272774F012044E8A088B09ECFAEDFBB8
:1049F300890A7C011259EE1250408A0C8B0DAE0CC1
:104A0300AF0DEE4F7003024AD3E50A6003024AD3A7
:104A1300E508124AD6E0F8EE242812620A68600319
:104A2300024AD3EE242C124915E82AF8E43400F99B
:104A33008E828F83A3A3A3A3A3A3A3A3E0FAE89ADD
:104A4300E99400C365D0334014124D5F1250547083
:104A53000C7B001259E7E509124AE08073124D5F9F
:104A63001250547031EE242C12620AF9EE242912EA
:104A730028A57508FF750900E97808120A84E50876
:104A8300F0EE242A1228A5E508124AFD29F0EE24A7
:104A93002B12361E8022E5082414F8E5093400F9A8
:104AA300E0C0E0EE242A1228A5D0E0124AF8C0E0C4
:104AB300EE24291228A5D0E0124B0C242D1228A590
:104AC30012366FA31249357A01FB900B3112362946
:104AD3000236422413F582E50912428B2212491C45
:104AE300EE24141242881240D7EEFAEFFB1215801F
:104AF30022EAF0A3EB123C0BE022F0EE2428124B47
:104B03000522F582EF12509A22F0125A48F0A3EBD5
:104B1300F0EE2274E812044E74FD1209BBE9851805
:104B230082851983F08A0A8B0B8C168D17741B12DE
:104B33000BA1124D57741D120BA1780C120B448A52
:104B4300828B83A3A3E0F91212F28A128B13EA4534
:104B53001370077A007B00024D527A127B00121603
:104B6300948A088B09AE08AF09EE4F7003024D4ECD
:104B73007C127D0079001215DA7401120BA1AA824E
:104B8300AB83850A82850B83A3A3E0F912131CEE82
:104B9300240FF508EF125A1C7402120BA1E08508CA
:104BA30082850983F07902EEFAEFFB121F64851602
:104BB3008285178312477BE8F0A3E9124DA38E8207
:104BC3008F83A3A3A3A3A3A3A3F07514FF75150059
:104BD300850882850983E07814120A841228A2E5E5
:104BE30014F0851282851383A3E0F8123D50C0E0D0
:104BF300EE240B1228A5D0E0124DADF508EE240DDE
:104C03001228A5E508F0125059E08508F0A42424E1
:104C1300FAE5F03400FB1215F28A088B09EE241032
:104C23001228A5124050EA45097003024D438A82B7
:104C33008B83741A1249358A828B83A3A3F0A31240
:104C43004D97124D80123C9BAC16AD17EA2406FA21
:104C5300EB3400FB121316850A82850B83A3A3A3EF
:104C6300E0C0E0E508240FF582E5091228A8D0E0AA
:104C7300F0900368124D78E5082410124D68124D28
:104C8300BDA3124D78E5082412124D6812425BC091
:104C9300E0124D5F1228A8D0E0F0E50A125031E58A
:104CA3000B12620DC0E0E5082415F582E509122810
:104CB300A8D0E0124D8EC0E0E5082416F582E50980
:104CC3001228A8D0E0126211E0C0E0E5082417F52D
:104CD30082E5091228A8D0E0126211A3E0C0E0E542
:104CE300082418F582E5091228A8D0E0123FACC0C9
:104CF300E0E5082419F582E5091228A8D0E0F0E5DB
:104D030008241AF582E5091228A8780C120B62E52B
:104D1300082424F8E5093400F9E5082422F582E59E
:104D230009123C98E50A1259E9E50B12620DC0E03D
:104D3300E508241FF582E5091228A8D0E0F0800BCE
:104D4300EEFAEFFB1215807E007F00EEFAEFFB74A4
:104D530003025A40E0F510A3E0F51122E5082414FC
:104D6300F582E50922F582E50912428BE8F0A3E911
:104D7300228E828F83124D7C221243CE22E0F8A32F
:104D8300E0F98A828B83A3A3A3A322F085108285F3
:104D93001183E022124D9B22124264A3A3A3A322F8
:104DA300F01259F6E50B124B0822F0124DB5124BD7
:104DB3000822E50A125A35E50B22124D9BA3A3A341
:104DC3002274E812044E8A0A8B0B8C108D118914FD
:104DD3007418120BA1E0F516A3E0F517741A120B61
:104DE300A1780C120B44750900EA2413F582EB1227
:104DF300620DF50890032812407A6011A908900308
:104E0300281236951220BFE9600302502E7C0285DA
:104E1300108285118312520E1259F6E50B1250407F
:104E23008A128B13AE12AF13EE4F704B850A828535
:104E33000B83A3E0A2E0400302502E780C12090A70
:104E43007816120912A914AC10AD11AA0AAB0B12F1
:104E53001FFA740612095A8A0C8B0DAE0CAF0DEEB5
:104E63004F700302502E8E828F83A3A3A3A3A3A309
:104E7300A3A3E5081250A885080C8E828F83A3A3F1
:104E8300A3A3A3A3A3A3E024FFF8E434FFF9E865F5
:104E93000C7001E97003750901EE240B1250517077
:104EA30003024FE1850A82850B83A3E0A2E050034E
:104EB30075080012507AE50C98E499C365D0334025
:104EC3001EE0F8EE240E12620A28F0750CFF750D31
:104ED30000E8780C120A84EE125031EF1250471298
:104EE30059FDE50B123AC512090E123CA685080CB2
:104EF300EE240D12620A850CF0A4F8A9F0EE24103A
:104F030012620A242212392628FAA3E039FB123C42
:104F13008912095A750C01125065780C120A841211
:104F23006207450CF0E509A2E05065EE240C12502F
:104F33003612506504780C120A848A828B83E0450A
:104F43000C1250A085080C850CF0A4F8124DB51274
:104F5300620DFCE82CFCE5F03400FDEE2410122871
:104F6300A51250731252A3F47026EE240BF50CEF26
:104F73003400F50DEE24101228A512520E850C8272
:104F8300850D831243BD850C82850D8374FF804D8F
:104F930012404990034BE0FA900B9DE0F50CEA8533
:104FA3000CF0A4FAABF0F8EBF9900B9AE0F50CE8EF
:104FB300850CF0A4F8ACF0850CF0E9A42CF9EA28F0
:104FC300F8EB39F9E875F064A4F8AAF075F064E930
:104FD300A42AF98E828F83A3A3E8F0A3E9F01250E9
:104FE3007A1259CBE8650C7001E9600EEE240C12BD
:104FF30050516006E509A2E05031EE240E12620A18
:10500300C0E0125059D0E0F0126207C0E0E50A2474
:1050130014F582E50B1228A8D0E0F0AC0AAD0B859D
:10502300108285118312520E120BE4025A43240C90
:10503300F582221261A4FAE9FB750CFF2212514B8F
:10504300121F5E2212428BE50CF022EE2429F58218
:10505300EF124B08F422E50A2413F582E50B124202
:105063008B22750D00125090F5F0E50884E5F022CF
:10507300E024201236542285080CEE240E124B0530
:10508300F8125090FAE82AF8E43400F922EE240FDB
:10509300F582EF12509A223400F583E022F0EE24D9
:1050A3000D124B0522F07A017B00900B31E0F912CF
:1050B300162822C082C083900B311243BD0235B83B
:1050C30074F412044E8A088B09EB5480703BEAA2F5
:1050D300E0504712201EE5086401FAAB09803F8EB9
:1050E300828F83E06401701A12423A12077A122601
:1050F3004E120912EE2412125134121FF4740612C6
:10510300095AEEFAEFFB1215F8900B311251247085
:10511300CEAA08E5096480FB80047A007B0002279D
:1051230027E0F91216048A0A8B0BAE0AAF0BEE4F77
:1051330022F582EF12514BEE2402FCEF3400FDEE18
:105143002418FAEF3400FB2212509AF92274F11258
:10515300044E890A8A088B098A828B8312520E12A3
:105163000BB48B0DEA450D600479B8807F120BC038
:1051730090254BE493F8E9C398400479B2806D7AA3
:10518300151251F27004791080628E828F83E4F0DD
:10519300A312585CA3E50AF085080C85090D750E6A
:1051A30000780C12090E7C127D00EE24030A0A0A11
:1051B30012422C12095A90032A12407A90032A7041
:1051C30006EEF0A3EF801FE0FAA3E08003E8FAE91C
:1051D300FB8A828B8312407A70F3EEF8EFF98A82AE
:1051E3008B83E8F0A3E9F0120BD27900025CA07B79
:1051F300001216948A0C8B0DAE0CAF0DEE4F228E5F
:10520300828F83A3A3A3A3A3A3A3A312425022C069
:1052130082C08390032A80048C828D83125254604F
:10522300298C828D83A3A3E069600574FF6970E80C
:105233008C828D83A3A3A3E06A7003A3E06B70D871
:10524300EC2403FAED3400FB80047A007B00023582
:10525300B8124029EC4D2274F712044EE9FC74FE97
:105263006C70047D0180027D0090032A80096C70BC
:10527300027D018882898312407A601F8882898334
:10528300A3A3A3E06A7003A3E06B70E7EDA2E08839
:10529300828983A3A3E050D6F9800279FE023AB350
:1052A300ECF0A3EDF08A828B83E022C082C0837985
:1052B3000090032A80010912520E8A828B83E582B1
:1052C300458370F20235B874F612044EE4F508F51E
:1052D30009780812091290254BE49375F013A4245E
:1052E30002FCE5F0125403121718740212095AE96A
:1052F300FE6003120BCCEEF90235FC74F612044E79
:1053030074FE1209BB851882851983E4F0A3125831
:105313006985820885830978081209127508027560
:1053230009007808120912125AFF12095A0235F7B6
:1053330074F512044E74EB1209BB85188285198328
:10534300E4F0A3F090032AE0FEA3E0807D8E828F39
:1053530083A3A3E0C0E07402120BA1D0E012540BAC
:10536300A982AA8389088A09750A00780812090E96
:105373007C127D007406120BA1123C8512095A742B
:1053830002120BA185820885830978081209127518
:10539300081375090078081209127404120BA1127C
:1053A300390375F013A4F8AAF075F013E91253FB4F
:1053B300125B0712095A851882851983E02401F0CC
:1053C300A3E034001243C3E8FEE9FFEE4F6003029B
:1053D3005350851882851983858208858309780847
:1053E3001209127508027509007808120912125A77
:1053F300FF12095A74158027A42AF9E82402FCE94C
:105403003400FD7A427B002212540F2212541322DD
:1054130012541722F08E828F83A3A3A322740D123A
:10542300095A7F030206BF74F412044E74EB120987
:10543300BB7E007F0085188285198385820885835A
:105443000978081209127508028E097808120912E0
:105453007C007D007A42125BDF12095AE970748E78
:1054630008805E7402120BA185820A85830B780A79
:10547300120912750A13750B00780A120912E5084E
:1054830075F013A4F8AAF075F013E5091253FB1293
:105493005BE112095AE9701E7403120BA1AA82ABD5
:1054A300837402120BA1E0F91215E0E97008EE24EF
:1054B300010EEF3400FFE5082401F508E509125A4F
:1054C3001C851882851983124D78C3E50898E50970
:1054D300994090EEFAEFFB741502272474F6120438
:1054E3004E8C828D83A3A31256DDF0EA2417F58236
:1054F300EB12620DC0E0EC125A35ED1228A8D0E091
:10550300F0EA241DF582EB1228A8124D78EC125F05
:105513009DED1228A81256DDA3F0A3F0125F9CEBB9
:105523001228A81256CFA3A3A3A3A3A3EEF0A3EF1D
:10553300124AF8FE8C828D831256FC74035EFEC3FE
:105543009403400FEC240D123A9BEC2410123A9B67
:105553000256B7EE600574026E70748C828D83E020
:10556300540CFE740C6E7003025654E0A2E4400D1A
:1055730088828983E08C828D83A312572674086EF8
:105583006003025654EC125031ED1236F0F08A8269
:105593008B83A3A3A312582770148C828D83E044BA
:1055A3000C1256EBA3A31256CFEEF0A3EFF08C82AE
:1055B3008D83E0A2E440181256BA1257091256C35B
:1055C300A3A31257098C828D83A3A3A31256FC882D
:1055D300828983E0C0E0EC1259F8ED1228A8D0E0EC
:1055E3001256FC8C828D83E0A2E7507C88828983EB
:1055F300E0FE8C828D8312572674FC5E6003025595
:10560300478C828D83A3E0540364037003025547E0
:105613008C828D83A3E05403605188828983E0C028
:10562300E0EC2413F582ED1228A8D0E01257278C62
:10563300828D83E054036402703188828983E0C0E1
:10564300E0EC2414F582ED1228A8D0E0125727804D
:105653001AEC240C123A9B740C6E600302559112DF
:1056630056BA1257140255B1A3E4F0EC1259FFEDE8
:10567300123C98EC2410FEED3400FFEA241DF58261
:10568300EB12620DF5088E828F83E0C3982508F52F
:1056930008F0EA2417F8EB123680C39508C0E0EC53
:1056A300125F9DED1228A8D0E0124AF8C395085066
:1056B300030255470235FC88828983E01256C322D0
:1056C300F508A3E0FFE5088C828D8322E0FEA3E0CA
:1056D300FF8C828D83A3A3A3A322E41256E222F0BC
:1056E3008C828D83A3A3A3221256F3A3A3A3A32285
:1056F300F08A828B83A3A3A322125704A882A983CF
:1057030022123C0BA322A3A312571488828983E09D
:1057130022A3A3A3A3F0A3EFF0E824020808E9342B
:1057230000F922A312570408A9832274F512044E28
:1057330074F31209BB8A088B09ECFEEDFF8E828F8E
:1057430083E0540CF50AE0A2E75006E50AD2E7F538
:105753000AE50AD2E1F50A1258297006E50AD2E4ED
:10576300F50AE0A2E55006E50AD2E5F50A7C087DD4
:10577300007900851882851983AA82AB831215DA12
:105783007402120BA1E50A12585CE0C0E074031224
:105793000BA1D0E01258691234197405120BA1122F
:1057A3003AD1120BA1E070797408120BA1E0241214
:1057B30012365012402FC0E07408120BA112584445
:1057C300D0E012587CC0E07408120BA1123410D040
:1057D300E0F07408120BA112454012584B123AF92B
:1057E30012582F124050EE241112620AC0E0E8242E
:1057F3002EF582E91228A8D0E0F0EE241412620AF2
:10580300C0E07408120BA1E02431123650D0E0122C
:105813005861C0E07408120BA112583DD0E0125831
:1058230075025420A3A3E05403640122FAA3E0FB0E
:10583300E82428F582E912428B22E0243012365400
:1058430022E0242212365422124250E82426F58202
:10585300E912428BEAF0A3EB221243D5A322F0EE26
:105863002413124B052212586D22F08518828519D4
:105873008322123C61121F9A2212540FE02274F702
:1058830012044E7E008A828B83A3A3A3A3A3A3A3A4
:10589300A3A3E06402607B123AB812620D70731224
:1058A30040AC1228A812407A606888828983E05449
:1058B30003705FA3A3A3A3A3125918E06A7003A301
:1058C300E06B704E88828983125918A3A3E0FFA36B
:1058D300E0F5838F82A3A3A3A3A3A3E06A7003A32A
:1058E300E06B702E88828983A3A3E0F88C828D837A
:1058F300A3A3E0F9A3E0F5838982A3A3E068601181
:105903008C828D83A3A3E0F8123D50540C64047081
:10591300010E023455A3A3A3A31242508C828D839C
:105923002274F612044E74FC1209BBEAFEEBFFEC80
:10593300FAEDFB8A828B83A3E0540360169003166F
:1059430012407A605C7900EEFCEFFD12369812206B
:10595300BF804E851882851983EEF0A3EFF07402A1
:10596300120BA1EAF0A3EB125869AC82AD837AEA79
:105973007B0B120EB48A088B09A808A909E84960B1
:105983002088828983A3A3A3A3A3A3A3A3A37406A9
:10599300F07A0088828983E0240C1259A9F9120E47
:1059A3000C74040235F91259AD22123FD722C0827A
:1059B300C0839003307420F0A3740CF0900332740E
:1059C30014F0A3740C0235B7E824FF18E934FFF987
:1059D300228E828F83A3A3A3A3A3A3A3A3A3E0FEE7
:1059E300A3E0FF22E5082412F58222E5081259F804
:1059F300E50922E50A2411F58222E50A240EF5823F
:105A030022240EF582E50922E08E828F83228E8284
:105A13008F83F0A3AE82AF83223400F50922E8F02E
:105A2300A3E912586D74FFF022E508125A35E5090F
:105A330022EA2410F582221261C3780C2212095A39
:105A43007F100206BF12178A8E828F83EA227B00A1
:105A53001216948A0A8B0BEA450B2274F412044E35
:105A63008A088B097808120912750A11750B0078D8
:105A73000A120912125BD912095AE9700F90032C0A
:105A8300120B7E1259EE1228A8120B8A02272774D2
:105A9300F512044E74EF1209BBE985188285198348
:105AA300F08A088B09750A00780812090E7C107DAC
:105AB300007404120BA1123C8512095A85188285C1
:105AC30019838582088583097808120912750811DC
:105AD30075090078081209127C007D007A3B125B7D
:105AE3000512095A7C117D00790085188285198376
:105AF300AA82AB831215DA74110254227C007D0052
:105B03007A427B0012172474042274F212044EE9C1
:105B1300FE7A117B001216948A088B09EA450970F4
:105B230003025BD67808120912750A11750B007807
